:1000000078720320DDB50000F9730300C9B5000064
:10001000C9B50000C9B50000C9B50000C9B50000E8
:1000200000000000000000000000000059B70000C0
:10003000C9B5000000000000F1B60000C9B500001D
:10004000EDB80000EDB80000EDB80000EDB800001C
:10005000EDB80000EDB80000EDB80000EDB800000C
:10006000EDB80000EDB80000EDB80000EDB80000FC
:10007000EDB80000EDB80000EDB80000EDB80000EC
:10008000EDB80000EDB80000EDB80000EDB80000DC
:10009000EDB80000EDB80000EDB80000EDB80000CC
:1000A000EDB80000EDB80000EDB80000EDB80000BC
:1000B000EDB80000EDB80000EDB80000EDB80000AC
:1000C000EDB80000EDB80000EDB80000EDB800009C
:1000D000EDB80000EDB80000EDB80000EDB800008C
:1000E000EDB80000EDB80000EDB80000EDB800007C
:1000F000EDB80000EDB80000EDB80000EDB800006C
:10010000EDB80000EDB80000EDB80000EDB800005B
:10011000EDB80000EDB80000EDB80000EDB800004B
:10012000EDB80000EDB80000EDB80000EDB800003B
:10013000EDB80000EDB80000EDB80000EDB800002B
:10014000EDB80000EDB80000EDB80000EDB800001B
:04015000EDB8000006
:1001580080EA101404F0F01480EA0410604081EA88
:10016800111404F0F01481EA0411614082EA1214B7
:1001780004F0F01482EA0412624083EA131404F0D3
:10018800F01483EA0413634080EA102404F47F44E3
:1001980080EA0420604081EA112404F47F4481EA63
:1001A8000421614082EA122404F47F4482EA042292
:1001B800624083EA132404F47F4483EA04236340FF
:1001C80081EA500404F0553480EA4400614083EA2F
:1001D800520404F0553482EA4402634082EA9004EF
:1001E80004F0333480EA8400624083EA910404F026
:1001F800333481EA84016340704700BF82EA900487
:1002080004F0333480EA8400624083EA910404F005
:10021800333481EA8401634081EA500404F05534A0
:1002280080EA4400614083EA520404F0553482EACB
:100238004402634080EA102404F47F4480EA0420E6
:10024800604081EA112404F47F4481EA042161407A
:1002580082EA122404F47F4482EA0422624083EA98
:10026800132404F47F4483EA0423634080EA1014CF
:1002780004F0F01480EA0410604081EA111404F0DC
:10028800F01481EA0411614082EA121404F0F014B7
:1002980082EA0412624083EA131404F0F01483EA39
:1002A80004136340704700BF2DE9F14F94464FEAAD
:1002B800930B8A68CB6808684968FFF749FF0BF118
:1002C800060E33E083EA134480EA134582EA1347B3
:1002D80046BA96EA3444604000F00F1684EA0634C1
:1002E80020F00F1684EA161054BA94EA01067240F8
:1002F80002F00F1486EA043622F00F1486EA14126C
:100308004CBA6540694001F00F1485EA043521F0C4
:100318000F1485EA14115CBA67407B4003F00F1490
:1003280087EA043723F00F1487EA1413BCE8F000B7
:100338006040694072407B4000F0E03400F01035C6
:1003480000F00F3040EA540040EAC50080EA90040B
:1003580004F0332480EA8400604001F0E03401F0C6
:10036800103501F00F3141EA540141EAC50181EA33
:10037800910404F0332481EA8401614002F0E034FE
:1003880002F0103502F00F3242EA540242EAC50286
:1003980082EA920404F0332482EA8402624003F081
:1003A800E03403F0103503F00F3343EA540343EA13
:1003B800C50383EA930404F0332483EA8403634087
:1003C80081EA324787EA134581EA354690EA06040E
:1003D80084EA034B82EA1B4280EA044484EA054427
:1003E80083EA144A85EA14448BEA044B84EA3744C6
:1003F80081EA0B4181EA164104EA0A00454082EA93
:1004080004082BEA080041408AEA0B0602EA0600C3
:1004180084EA34438AEA3A4603EA060778404540C4
:10042800414088EA38478BEA3B4007EA000985EAF9
:10043800090583EA0709464006EA0906714085EA84
:10044800010005EA3546464006EA314181EA304175
:1004580081EA364606EA304686EA3546344008EAF6
:10046800010886EA01052A4086EA364003405A40D8
:1004780081EA31431F407C4080EA030709EA070903
:1004880088EA0908544088EA020806EA0A0601EAE6
:100498000B018AEA0B0215408AEA3A4210404540AD
:1004A8008BEA3B4003405E404240174079404D4054
:1004B8004E40E443F64386EA18435D4085EA05402A
:1004C80083EA134386EA034183EA384284EA114304
:1004D80083EA04435FEA3343BEF1010E3FF6F2AE0E
:1004E8001ED4BCE8F0006040694072407B4020BCEC
:1004F800FFF784FE28606960AA60EB60BDE8F08FB2
:100508002DE9E0414FF2F00280EA1031114080EA13
:100518000130484041088208C3084FF0000E4FE7F9
:1005280000F0113001F0113102F0113203F01133F3
:1005380040EA410040EA820040EAC3004FF2F0027C
:1005480080EA1031114080EA01304840BDE8E0817E
:100558002DE9F04F02F11C050646074600EB850819
:1005680051F8040B043A46F8040BF9D14FF0010C8A
:10057800FFF7C6FF5FEA302080EA0C001ECF41403B
:100588004A4053405C401EC62000464517D04FEAFB
:100598004C0C1CF4807F18BFACF1E50C2C2DE7D077
:1005A8003C2D06D1FFF7ACFF06CF41404A4006C6B6
:1005B800100006CF41404A4006C61000D8E736E989
:1005C8000F00FFF7C5FD043D86E80F00F7D1BDE831
:1005D800F08F00BF2DE9F14F03F11C0402EB840CEE
:1005E8004FEA930B8A68CB6808684968FFF7B0FD43
:1005F8003CE9F0006040694072407B400BF1060E18
:100608004EE083EA134480EA134582EA134746BA68
:1006180096EA3444604000F00F1684EA063420F06D
:100628000F1684EA161054BA94EA0106724002F0D2
:100638000F1486EA043622F00F1486EA14124CBA14
:100648006540694001F00F1485EA043521F00F1464
:1006580085EA14115CBA67407B4003F00F1487EAFF
:10066800043723F00F1487EA141344BA44404DBAF0
:100678004D4056BA56405FBA5F4087EA174886EA47
:10068800174B84EA17464FEA38488BEA1B4485EA39
:100698001B4788EA1B4580EA3440694072407B402A
:1006A80000F0703400F0803500F00F3040EA44006C
:1006B80040EAD50080EA900404F0332480EA8400FC
:1006C800604001F0703401F0803501F00F3141EAEB
:1006D800440141EAD50181EA910404F0332481EA16
:1006E8008401614002F0703402F0803502F00F326C
:1006F80042EA440242EAD50282EA920404F0332430
:1007080082EA8402624003F0703403F0803503F01B
:100718000F3343EA440343EAD50383EA930404F01E
:10072800332483EA84036340C943DB4381EA00043A
:1007380083EA044686EA020183EA014382EA3345F2
:1007480083EA14435C4084EA00077FEA040A8AEAE1
:10075800024A8AEA010B87EA11488AEA374A80EA9C
:10076800060181EA1A418AEA030A04EA0A004540B6
:1007780088EA040707EA0B0041408AEA0B0608EA00
:10078800060084EA34428AEA3A4602EA06035840F6
:100798004540414087EA37438BEA3B4003EA00097A
:1007A80085EA090582EA0309464006EA0906714016
:1007B80085EA010005EA3546464006EA314181EA04
:1007C800304181EA364606EA304686EA3546344004
:1007D8000F4086EA010508EA050886EA3640024025
:1007E80088EA020881EA314213405C4080EA020349
:1007F80009EA030987EA0907674088EA040806EA5C
:100808000A0601EA0B018AEA0B0425408AEA3A44FF
:10081800204045408BEA3B4B02EA0B02564084EAF3
:100828000B04234059406E40694087EA364080EA0D
:10083800384080EA060380EA104481EA134585EAD5
:10084800344585EA17427D4082EA354180EA054011
:100858003CE9F0006040694072407B40BEF1010E07
:100868003FF6CFAE20BCFFF7C9FC28606960AA60DC
:10087800EB60BDE8F08F00BFFFF76ABE30B44FF001
:10088800000310F8014B11F8015B013A84EA0504F2
:1008980043EA0403F5D1A3F101034FEAD37030BC56
:1008A800704700BF4FF0000310F8012B013943EAED
:1008B8000203F9D1A3F101034FEAD370704700BFD7
:1008C80030B411F8014B12F8015B6C4000F8014B91
:1008D800013BF6D130BC704781F0004102E000BF17
:1008E80083F0004330B54FEA41044FEA430594EAE8
:1008F800050F08BF90EA020F1FBF54EA000C55EA23
:10090800020C7FEA645C7FEA655C00F0E2804FEAF3
:100918005454D4EB5555B8BF6D420CDD2C4480EAD5
:10092800020281EA030382EA000083EA010180EA05
:10093800020281EA0303362D88BF30BD11F0004F53
:100948004FEA01314FF4801C4CEA113102D0404289
:1009580061EB410113F0004F4FEA03334CEA1333C4
:1009680002D0524263EB430394EA050F00F0A780DC
:10097800A4F10104D5F1200E0DDB02FA0EFC22FAD7
:1009880005F2801841F1000103FA0EF2801843FACB
:1009980005F359410EE0A5F120050EF1200E012ABC
:1009A80003FA0EFC28BF4CF0020C43FA05F3C018FA
:1009B80051EBE37101F0004507D54FF0000EDCF173
:1009C800000C7EEB00006EEB0101B1F5801F1BD31C
:1009D800B1F5001F0CD349085FEA30004FEA3C0C20
:1009E80004F101044FEA445212F5800F80F09A8016
:1009F800BCF1004F08BF5FEA500C50F1000041EB1A
:100A0800045141EA050130BD5FEA4C0C404141EB1D
:100A18000101013C28BFB1F5801FE9D291F0000F18
:100A280004BF01460020B1FA81F308BF2033A3F1C7
:100A38000B03B3F120020CDA0C3208DD02F1140CBE
:100A4800C2F10C0201FA0CF021FA02F10CE002F1F9
:100A58001402D8BFC2F1200C01FA02F120FA0CFCF2
:100A6800DCBF41EA0C019040E41AA2BF01EB04513B
:100A7800294330BD6FEA04041F3C1CDA0C340EDC39
:100A880004F11404C4F1200220FA04F001FA02F37C
:100A980040EA030021FA04F345EA030130BDC4F13A
:100AA8000C04C4F1200220FA02F001FA04F340EA2F
:100AB8000300294630BD21FA04F0294630BD94F0E0
:100AC800000F83F4801306BF81F480110134013DC7
:100AD8004EE77FEA645C18BF7FEA655C29D094EA38
:100AE800050F08BF90EA020F05D054EA000C04BFB6
:100AF8001946104630BD91EA030F1EBF00210020A1
:100B080030BD5FEA545C05D14000494128BF41F03F
:100B1800004130BD14F580043CBF01F5801130BDA3
:100B280001F0004545F0FE4141F470014FF000002E
:100B380030BD7FEA645C1ABF194610467FEA655CDF
:100B48001CBF0B46024650EA013406BF52EA033581
:100B580091EA030F41F4002130BD00BF90F0000F6F
:100B680004BF0021704730B54FF4806404F13204AB
:100B78004FF000054FF0000150E700BF90F0000F64
:100B880004BF0021704730B54FF4806404F132048B
:100B980010F0004548BF40424FF000013EE700BF5B
:100BA80042004FEAE2014FEA31014FEA02701FBFEB
:100BB80012F07F4393F07F4F81F06051704732F01D
:100BC8007F4208BF704793F07F4F04BF41F4002174
:100BD800704730B54FF4607401F0004521F00041D2
:100BE8001CE700BF50EA010208BF704730B54FF05C
:100BF80000050AE050EA010208BF704730B511F05D
:100C0800004502D5404261EB41014FF4806404F194
:100C180032045FEA915C3FF4D8AE4FF003025FEA1A
:100C2800DC0C18BF03325FEADC0C18BF033202EB9E
:100C3800DC02C2F1200300FA03FC20FA02F001FAF8
:100C480003FE40EA0E0021FA02F11444BDE600BF9B
:100C580070B54FF0FF0C4CF4E06C1CEA11541DBF4A
:100C68001CEA135594EA0C0F95EA0C0F00F0DEF815
:100C78002C4481EA030621EA4C5123EA4C5350EAFA
:100C8800013518BF52EA033541F4801143F480134B
:100C980038D0A0FB02CE4FF00005E1FB02E506F0DC
:100CA8000042E0FB03E54FF00006E1FB03569CF031
:100CB800000F18BF4EF0010EA4F1FF04B6F5007F37
:100CC80064F5407404D25FEA4E0E6D4146EB0606A9
:100CD80042EAC62141EA55514FEAC52040EA5E5032
:100CE8004FEACE2EB4F1FD0C88BFBCF5E06F1ED8DC
:100CF800BEF1004F08BF5FEA500E50F1000041EB13
:100D0800045170BD06F0004646EA010140EA0200BF
:100D180081EA0301B4EB5C04C2BFD4EB0C0541EAE1
:100D2800045170BD41F480114FF0000E013C00F3F6
:100D3800AB8014F1360FDEBF002001F0004170BD1A
:100D4800C4F10004203C35DA0C341BDC04F1140433
:100D5800C4F1200500FA05F320FA04F001FA05F2BF
:100D680040EA020001F0004221F0004110EBD3708C
:100D780021FA04F642EB06015EEA430E08BF20EAB8
:100D8800D37070BDC4F10C04C4F1200500FA04F35B
:100D980020FA05F001FA04F240EA020001F00041ED
:100DA80010EBD37041F100015EEA430E08BF20EA60
:100DB800D37070BDC4F1200500FA05F24EEA020EA8
:100DC80020FA04F301FA05F243EA020321FA04F0D7
:100DD80001F0004121FA04F220EA020000EBD3708E
:100DE8005EEA430E08BF20EAD37070BD94F0000F8E
:100DF8000FD101F00046400041EB010111F4801FC2
:100E080008BF013CF7D041EA060195F0000F18BF72
:100E1800704703F00046520043EB030313F4801FAE
:100E280008BF013DF7D043EA0603704794EA0C0F68
:100E38000CEA135518BF95EA0C0F0CD050EA41067E
:100E480018BF52EA4306D1D181EA030101F00041FB
:100E58004FF0000070BD50EA410606BF1046194623
:100E680052EA430619D094EA0C0F02D150EA01362F
:100E780013D195EA0C0F05D152EA03361CBF104670
:100E880019460AD181EA030101F0004141F0FE410F
:100E980041F470014FF0000070BD41F0FE4141F493
:100EA800780170BD70B54FF0FF0C4CF4E06C1CEA93
:100EB80011541DBF1CEA135594EA0C0F95EA0C0F48
:100EC80000F0A7F8A4EB050481EA030E52EA033503
:100ED8004FEA013100F088804FEA03334FF0805524
:100EE80045EA131343EA12634FEA022245EA111551
:100EF80045EA10654FEA00260EF000419D4208BF02
:100F0800964244F1FD0404F5407402D25B084FEAAE
:100F18003202B61A65EB03055B084FEA32024FF45A
:100F280080104FF4002CB6EB020E75EB030E22BFB7
:100F3800B61A754640EA0C005B084FEA3202B6EB77
:100F4800020E75EB030E22BFB61A754640EA5C0026
:100F58005B084FEA3202B6EB020E75EB030E22BFB6
:100F6800B61A754640EA9C005B084FEA3202B6EBB7
:100F7800020E75EB030E22BFB61A754640EADC0076
:100F880055EA060E18D04FEA051545EA16754FEAD8
:100F980006164FEAC30343EA52734FEAC2025FEAF6
:100FA8001C1CC0D111F4801F0BD141EA00014FF085
:100FB80000004FF0004CB6E711F4801F04BF014356
:100FC8000020B4F1FD0C88BFBCF5E06F3FF6AFAE72
:100FD800B5EB030C04BFB6EB020C5FEA500C50F102
:100FE800000041EB045170BD0EF0004E4EEA113185
:100FF80014EB5C04C2BFD4EB0C0541EA045170BD8C
:1010080041F480114FF0000E013C90E645EA060ECF
:101018008DE60CEA135594EA0C0F08BF95EA0C0FFD
:101028003FF43BAF94EA0C0F0AD150EA01347FF445
:1010380034AF95EA0C0F7FF425AF104619462CE71C
:1010480095EA0C0F06D152EA03353FF4FDAE10467F
:10105800194622E750EA410618BF52EA43067FF4D0
:10106800C5AE50EA41047FF40DAF52EA43057FF460
:10107800EBAE12E74FEA4102B2F1E04324BFB3F509
:10108800001CDCF1FE5C0DD901F0004C4FEAC002F7
:101098004CEA5070B2F1004F40EB830008BF20F0DB
:1010A8000100704711F0804F21D113F13872BCBF95
:1010B80001F00040704741F480114FEA5252C2F1EA
:1010C8001802C2F1200C10FA0CF320FA02F018BF33
:1010D80040F001004FEAC1234FEAD32303FA0CFC86
:1010E80040EA0C0023FA02F34FEA4303CCE77FEA15
:1010F800625307D150EA01331EBF4FF0FE4040F45F
:101108004000704701F0004040F0FE4040F400000D
:10111800704700BF80F0004002E000BF81F000414E
:1011280042001FBF5FEA410392EA030F7FEA226C85
:101138007FEA236C6AD04FEA1262D2EB1363C1BF15
:10114800D218414048404140B8BF5B42192B88BF84
:10115800704710F0004F40F4000020F07F4018BFA7
:10116800404211F0004F41F4000121F07F4118BFC7
:10117800494292EA030F3FD0A2F1010241FA03FC6F
:1011880010EB0C00C3F1200301FA03F100F0004357
:1011980002D5494260EB4000B0F5000F13D3B0F11F
:1011A800807F06D340084FEA310102F10102FE2A8E
:1011B80051D2B1F1004F40EBC25008BF20F00100FE
:1011C80040EA03007047490040EB0000013A28BF9D
:1011D800B0F5000FEDD2B0FA80FCACF1080CB2EB20
:1011E8000C0200FA0CF0AABF00EBC250524218439E
:1011F800BCBFD0401843704792F0000F81F4000143
:1012080006BF80F400000132013BB5E74FEA410315
:101218007FEA226C18BF7FEA236C21D092EA030F81
:1012280004D092F0000F08BF0846704790EA010FFB
:101238001CBF0020704712F07F4F04D1400028BF28
:1012480040F00040704712F100723CBF00F500000A
:10125800704700F0004343F0FE4040F40000704740
:101268007FEA226216BF08467FEA236301464202EC
:1012780006BF5FEA412390EA010F40F480007047FF
:101288004FF0000304E000BF10F0004348BF4042A5
:101298005FEA000C08BF704743F0964301464FF0E1
:1012A80000001CE050EA010208BF70474FF000033D
:1012B8000AE000BF50EA010208BF704711F000437E
:1012C80002D5404261EB41015FEA010C02BF84464E
:1012D8000146002043F0B64308BFA3F18053A3F5AD
:1012E8000003BCFA8CF2083AA3EBC25310DB01FAF4
:1012F80002FC634400FA02FCC2F12002BCF1004F78
:1013080020FA02F243EB020008BF20F00100704708
:1013180002F1200201FA02FCC2F1200250EA4C005C
:1013280021FA02F243EB020008BF20EADC707047A2
:101338004FF0FF0C1CEAD0521EBF1CEAD15392EAB0
:101348000C0F93EA0C0F6FD01A4480EA010C40028C
:1013580018BF5FEA41211ED04FF0006343EA5010E6
:1013680043EA5111A0FB01310CF00040B1F5000F28
:101378003EBF490041EAD3715B0040EA010062F1D7
:101388007F02FD2A1DD8B3F1004F40EBC25008BFC1
:1013980020F00100704790F0000F0CF0004C08BFDF
:1013A80049024CEA502040EA51207F3AC2BFD2F1AC
:1013B800FF0340EAC250704740F400004FF00003BA
:1013C800013A5DDC12F1190FDCBF00F000407047F4
:1013D800C2F10002410021FA02F1C2F1200200FA32
:1013E80002FC5FEA310040F1000053EA4C0308BFF9
:1013F80020EADC70704792F0000F00F0004C02BF4A
:10140800400010F4000F013AF9D040EA0C0093F0C4
:10141800000F01F0004C02BF490011F4000F013B1E
:10142800F9D041EA0C018FE70CEAD15392EA0C0F8C
:1014380018BF93EA0C0F0AD030F0004C18BF31F0F7
:10144800004CD8D180EA010000F00040704790F0CD
:10145800000F17BF90F0004F084691F0000F91F071
:10146800004F14D092EA0C0F01D142020FD193EA37
:101478000C0F03D14B0218BF084608D180EA0100BF
:1014880000F0004040F0FE4040F40000704740F09B
:10149800FE4040F4400070474FF0FF0C1CEAD05269
:1014A8001EBF1CEAD15392EA0C0F93EA0C0F69D0C5
:1014B800A2EB030280EA010C49024FEA402037D030
:1014C8004FF0805343EA111143EA10130CF0004027
:1014D8008B4238BF5B0042F17D024FF4000C8B4217
:1014E80024BF5B1A40EA0C00B3EB510F24BFA3EBF7
:1014F800510340EA5C00B3EB910F24BFA3EB9103C7
:1015080040EA9C00B3EBD10F24BFA3EBD10340EA20
:10151800DC001B0118BF5FEA1C1CE0D1FD2A3FF666
:1015280050AF8B4240EBC25008BF20F0010070471B
:101538000CF0004C4CEA50207F32C2BFD2F1FF03BE
:1015480040EAC250704740F400004FF00003013AEF
:1015580037E792F0000F00F0004C02BF400010F493
:10156800000F013AF9D040EA0C0093F0000F01F0A7
:10157800004C02BF490011F4000F013BF9D041EAC9
:101588000C0195E70CEAD15392EA0C0F08D14202FC
:101598007FF47DAF93EA0C0F7FF470AF084676E7CF
:1015A80093EA0C0F04D14B023FF44CAF08466EE7A8
:1015B80030F0004C18BF31F0004CCAD130F0004276
:1015C8007FF45CAF31F000437FF43CAF5FE700BFCE
:1015D8004FF0FF3C06E000BF4FF0010C02E000BFF7
:1015E8004FF0010C4DF804CD4FEA40024FEA410399
:1015F8007FEA226C18BF7FEA236C11D001B052EA4F
:10160800530C18BF90EA010F58BFB2EB030088BF14
:10161800C81738BF6FEAE17018BF40F00100704783
:101628007FEA226C02D15FEA402C05D17FEA236C65
:10163800E4D15FEA412CE1D05DF8040B704700BFAC
:10164800844608466146FFE70FB5FFF7C9FF002843
:1016580048BF10F1000F0FBD4DF808EDFFF7F4FF7C
:101668000CBF012000205DF808FB00BF4DF808ED15
:10167800FFF7EAFF34BF012000205DF808FB00BF38
:101688004DF808EDFFF7E0FF94BF012000205DF85A
:1016980008FB00BF4DF808EDFFF7D2FF94BF01200B
:1016A80000205DF808FB00BF4DF808EDFFF7C8FF04
:1016B80034BF012000205DF808FB00BF4FEA40025C
:1016C800B2F1FE4F0FD34FF09E03B3EB12620DD968
:1016D8004FEA002343F0004310F0004F23FA02F0D2
:1016E80018BF404270474FF00000704712F1610F79
:1016F80001D1420205D110F0004008BF6FF0004050
:1017080070474FF00000704742000ED2B2F1FE4F12
:101718000BD34FF09E03B3EB126209D44FEA0023B8
:1017280043F0004323FA02F070474FF0000070477F
:1017380012F1610F01D1420202D14FF0FF30704720
:101748004FF00000704700BF7BB972B90029BEBFD7
:1017580000204FF0004106E008BF00281CBF6FF0D2
:1017680000414FF0FF3000F057B8ADF1080C6DE9BB
:1017780004CE002909DB002B1ADB00F069F8DDF83C
:1017880004E0DDE9022304B07047404261EB410107
:10179800002B1BDB00F05CF8DDF804E0DDE9022338
:1017A80004B0404261EB4101524263EB430370478E
:1017B800524263EB430300F04BF8DDF804E0DDE947
:1017C800022304B0404261EB41017047524263EB8F
:1017D800430300F03DF8DDF804E0DDE9022304B03E
:1017E800524263EB4303704753B94AB9002908BF13
:1017F80000281CBF4FF0FF314FF0FF3000F00CB84D
:10180800ADF1080C6DE904CE00F022F8DDF804E033
:10181800DDE9022304B07047704700BF10F8012BC0
:1018280011F8013B012A28BF9A42F7D0D01A704715
:10183800034611F8012B03F8012B002AF9D1704750
:10184800034613F8012B002AFBD1181A01387047F8
:101858002DE9F04786468C460846089E154674468C
:101868001946002B40F0C1808542B2FA82F245D970
:101878004AB1C2F1200300FA02FC954094402EFAC6
:1018880003F343EA0C0C4FEA154EA8B2230CBCFB39
:10189800FEF80EFB18CC08FB00F943EA0C43994507
:1018A80028D9EB1808F1FF3704D2994502D9A8F1D5
:1018B80002072B44A3EB0903A4B2B3FBFEFC0EFB07
:1018C8001C330CFB00F044EA0344A04214D92C1941
:1018D8000CF1FF3304D2A04202D9ACF102032C442C
:1018E800241A43EA07401EB1D440002334607360D1
:1018F800BDE8F0874746DDE76346F1E792BB431B47
:1019080001214FEA154EAFB2200CB3FBFEFC0EFBD3
:101918001C330CFB07F840EA0343984561D9EB18E0
:101928000CF1FF3004D2984502D9ACF102002B44E7
:10193800A3EB0803A4B2B3FBFEFC0EFB1C330CFBA9
:1019480007F744EA0344A7424DD92C190CF1FF3399
:1019580004D2A74202D9ACF102032C44E41B43EAA7
:101968000040C0E7C2F120039540944020FA03F1FB
:101978002EFA03F34FEA154E9040AFB20343B1FB82
:10198800FEFC0EFB1C10190C0CFB07F841EA004189
:10199800884522D969180CF1FF3004D2884502D94C
:1019A800ACF102002944A1EB08019BB2B1FBFEFC9B
:1019B8000EFB1C110CFB07F743EA01439F420ED9AB
:1019C800EB180CF1FF3104D29F4202D9ACF10201AD
:1019D8002B44DB1B41EA004193E76046E3E761469D
:1019E800F7E76046A4E76346B8E7834206D916B925
:1019F800002108467CE7C6E900E0F9E7B3FA83F777
:101A08008FB9834201D3724508D8BEEB020460EB5C
:101A1800030301209C461EB9002169E73846FAE70E
:101A2800C6E9004CF8E7C7F1200CBB400EFA07F5F1
:101A380022FA0CF42EFA0CF1BA401C4320FA0CF3EB
:101A4800B8404FEA144901431FFA84FEB3FBF9F882
:101A580009FB18300B0C08FB0EFA43EA00439A45C1
:101A680040D9E31808F1FF3004D29A4502D9A8F109
:101A780002002344A3EB0A0389B2B3FBF9F809FB7C
:101A8800183308FB0EFE41EA03418E452CD9611834
:101A980008F1FF3304D28E4502D9A8F1020321448C
:101AA80043EA0040A1EB0E01A0FB02984145CE4657
:101AB800434602D306D14D4504D20138B9EB020E94
:101AC80068EB0403002EA7D0B5EB0E0261EB03010F
:101AD80001FA0CFC22FA07F3F9404CEA0303C6E9C1
:101AE800003199E74046C5E74346D9E700000000C2
:101AF800D0B504464068FFF741F809A3D3E90023AD
:101B0800FFF7D0F9064620680F46FFF737F8024678
:101B18000B4630463946FEF7E5FED0BDAFF30080F0
:101B28000000000080842E412DE9F04706460F464C
:101B3800904688B051F0FDF84FF47A73A0FB034546
:101B480003FB0155E40B012F44EA45444FEAD53520
:101B580007D122462B463046274933F09BFE00200A
:101B680012E0D8F8047025483946FFF757FE70B1DF
:101B780039462348FFF752FE48B130463A462149D4
:101B880033F0A4FE6FF0040008B0BDE8F0872046EB
:101B980017A3D3E900232946FFF7D6FD05460C46CF
:101BA80010461946184A0023FFF7CEFD80460F4617
:101BB800104619464EF660220023FFF7C5FD8246FF
:101BC8008946104619464FF47A720023FFF7BCFD88
:101BD800CDE902A9CDE90623CDE904012A46234629
:101BE8003046CDE90087094933F054FEB7E700BF16
:101BF800005C26050000000098B00A00A9B00A00A1
:101C0800ACB00A00B5B00A0080EE3600CDB00A00CC
:101C180070B514460646CD17A1FB0201002304FB4C
:101C280005110A22FFF790FD0FA3D3E900230C4DFD
:101C380080FB054520462946FFF786FD06A3D3E924
:101C48000023306029462046FFF77EFD0023054A21
:101C5800FFF77AFD726070BD80A8120100000000D5
:101C6800D8EF2F0040420F0000209BF35E100000C9
:101C780003292DE9FF4105460C4612D0072900F03B
:101C8800B0808F490B6813F0060F00F0A7808D4BCA
:101C98000222029300231846CDE9003337F049FFAA
:101CA8009CE0002A69D0072A40F0888058681A68A2
:101CB800854BC117C2FB0301012871F1000376DBD4
:101CC800D5F80480814B98F81A60C0184FEAD616E8
:101CD80077A3D3E9002341F1000176B2FFF734FD81
:101CE800002E14BF04230223984298F91A7025D0B5
:101CF800002E14BF20231023984221D0002E14BF99
:101D08000823042383421DD0002E14BF1023082368
:101D180098424CD1E6B2314640462D6935F0C0F8BC
:101D2800002811DB6A4B002F4FF03D0233F81430C6
:101D3800AE771CDBA3FB02325B0819E00024E9E75D
:101D48000124E7E70224E5E75D490B685A070BD54C
:101D5800604B0393604B0825029300230422184626
:101D6800CDE9003537F0E5FE6FF0040002E053439B
:101D7800EB60002004B0BDE8F0811988574B144689
:101D88001F4633F8022B91420ED86868E1B22E69DB
:101D980035F0FAF900280DDA49490B685B07E3D5F5
:101DA8004F4B03934F4BD6E701340B2CE9D16FF01F
:101DB8001500DFE737F81430B383DAE740490B68DA
:101DC8005F070BD5484B0393484B08220293002327
:101DD800CDE900321846042237F0ABFE6FF08500DB
:101DE800C8E7002A42D0072A5AD1B4245A68196889
:101DF800354BD017C1FB0320A2FB0431012A04FB99
:101E0800001170F100001DDB3948181841F100017C
:101E180029A3D3E900230024FFF796FC354B33F8B8
:101E2800022B904216D16868E1B22E6935F04FF85E
:101E3800002813DA22490B685E0795D52E4B0393C9
:101E48002E4B88E72E48181861F100011AA3D3E930
:101E58000023E0E70134072CE1D1A8E741F217128B
:101E6800284B33F814305343B36182E719881B4B6E
:101E780033F8020B81420FD86868D1B235F0F2F915
:101E88000028BFF676AF0E490B685C077FF56CAF8C
:101E98001D4B03931D4B5EE701320B2AE8D186E701
:101EA80007490B68580799D5194B0393194B8CE7C9
:101EB8003AA3950000000000D8EF2F0000000000B2
:101EC8006C0600202EEB0A0040420F009DD14A000C
:101ED800049E050030F00A00CCEE0A000C9E0500B6
:101EE8001AF00A00F7EE0A0048F00A0025EF0A0087
:101EF800ECF71700F69D0500EFEF0A0048EF0A001F
:101F08001408E8FFE89D0500DAEF0A006FEF0A0001
:101F180006F00A0099EF0A002DE9F74F0329144645
:101F2800066905D90B1F032B53D96FF0850023E0F1
:101F38000229F7683A4D22D0032923D0012914BF7A
:101F4800B6F90460B6F90660A6FB076732A3D3E9C1
:101F5800002386FB056530462946FFF7F5FB00237D
:101F6800304A206029463046FFF7EEFB00232D4A11
:101F7800FFF7EAFB6260002003B0BDE8F08FB6F916
:101F88000860E1E74FF0000B02F11803DFF894A0B6
:101F98000236019336F9028FA8FB07831EA3D3E903
:101FA800002388FB059848464146FFF7CDFB52467B
:101FB80044F8080B5B4648464146FFF7C5FB5246C6
:101FC8005B46FFF7C1FB019B44F8042C9C42E1D11E
:101FD800D1E70629B5690CD007290ED02A4605296C
:101FE80014BFB6F91010B6F912102046FFF710FE0C
:101FF800C1E72A46B6F91410F7E70E3602F11807BA
:1020080020462A4636F9021F0834FFF701FEA74288
:10201800F6D1B0E7AFF300800010A5D4E8000000C7
:102028003AA3950040420F00034A13680133136036
:102038000122024B1A707047E09C002067000320C1
:1020480000B589B007AA06A905A804F0B3FB059B4B
:102058000321274A04A830F009FE264B1B6803B366
:10206800184604A94DF0B8F8069B0321204A04A895
:1020780030F0FCFD204B1B6803B3184604A94DF053
:10208800ABF8079B03211A4A04A830F0EFFD1B4B5D
:102098001B6803B3184604A94DF09EF809B05DF813
:1020A80004FB17490A685207DED0164A1846CDE9DC
:1020B80001320093012232F0CCF9D5E710490A68C1
:1020C8005007DED0104A1846CDE9013200930122AC
:1020D80032F0BFF9D5E70A490A685207DED00B4A41
:1020E8001846CDE901320093012232F0B2F9D5E762
:1020F80025AC0A00609D0020589D0020509D0020BE
:1021080070060020DAA40500F9A4050018A505004A
:1021180000B56F4B89B01B7883B106A804F03AFC70
:1021280078B16C490B685B0708D06B4B01220293AE
:1021380000231846CDE9003332F08BF909B05DF879
:1021480004FB9DF81A300321644A05A830F08EFD7F
:10215800634B186810B105A94DF03EF89DF8193089
:1021680003215E4A05A830F081FD5E4B186810B166
:1021780005A94DF031F89DF81B300321574A05A8F1
:1021880030F074FD584B186810B105A94DF024F8CB
:102198009DF81D300321514A05A830F067FD534BC7
:1021A800186810B105A94DF017F89DF81E300321E5
:1021B8004A4A05A830F05AFD4D4B186810B105A9D8
:1021C8004DF00AF89DF81A300321444A05A830F06A
:1021D8004DFD484B186810B105A94CF0FDFF9DF85E
:1021E800193003213D4A05A830F040FD424B1868DC
:1021F80010B105A94CF0F0FF9DF81B300321374AB8
:1022080005A830F033FD3D4B186810B105A94CF016
:10221800E3FF9DF81D300321304A05A830F026FD64
:10222800374B186810B105A94CF0D6FF9DF81E3041
:1022380003212A4A05A830F019FD324B186810B15D
:1022480005A94CF0C9FF9DF81A300321234A05A8B7
:1022580030F00CFD2C4B186810B105A94CF0BCFFF0
:102268009DF8193003211D4A05A830F0FFFC274BC3
:10227800186810B105A94CF0AFFF9DF81B30032179
:10228800164A05A830F0F2FC214B186810B105A9D0
:102298004CF0A2FF9DF81D300321104A05A830F02C
:1022A800E5FC1C4B186810B105A94CF095FF9DF88A
:1022B8001E300321094A05A830F0D8FC164B1868CF
:1022C80000283FF43BAF05A94CF086FF36E700BF76
:1022D800660003207006002037A5050025AC0A001B
:1022E800389E0020309E0020289E0020209E00203E
:1022F800189E0020949E00208C9E0020849E002022
:102308007C9E0020749E0020F89D0020F09D0020F7
:10231800E89D0020E09D0020D89D00201FB5C388BF
:1023280004468BB92D4A80682D4910600A6802F06E
:102338000702022A38D92B4A0390CDE90132184600
:102348000322009332F085F8E388012B12D1234B46
:10235800A26823495A600B6803F00703022B23D9AC
:10236800214B03920293002303221846CDE9003340
:1023780032F06FF8E388B3F5A57F15D1A268174B43
:10238800111E18BF0121197215490B6803F00703C4
:10239800022B09D9154B03920293002303221846F6
:1023A800CDE9003332F055F82379A3B10C490B6815
:1023B80003F00703022B08D90D4B032202930023D5
:1023C8001846CDE9003332F044F80A4804B0BDE8B5
:1023D80010402BF011B904B010BD00BFF89C0020CC
:1023E8007006002051A505005EA505006BA5050037
:1023F8007EA50500049D00202DE9E7414FF47A777A
:10240800DFF8648000214FF4803050F0E3FB03F0E4
:10241800CFFE064603F0D6FE054650F08AFCA0FB28
:10242800073207FB0121D80B4FF47A72002340EAE8
:102438004140C90BFFF788F9414600903046FEF746
:1024480077FFFFF73BF94146ADF804002846FEF751
:102458006FFFFFF759F9ADF80600684604F056F823
:10246800684604F087F8CDE70000C8422DE9F04F30
:10247800A1B00B4D0B4C284650F03EF80346A8B9C6
:102488002268550707D0084A2146CDE90102009085
:10249800012231F0DEFF002021B0BDE8F08F00BF3F
:1024A800483E05007006002092A50500AB685B68F1
:1024B8000BB12846984703F0E5F8B04BB04D1B68C0
:1024C8002B60B04B1B686B60AF4B1B68AB60AF4BAE
:1024D8001B68EB6003F020F960B12368590709D045
:1024E800AB4B012202930023AA491846CDE90033D9
:1024F80031F0AFFF04F09EF804F06CF9A64F0346E4
:10250800002840F05A8301223A70226802F007023C
:10251800022A07D9A14A9F49CDE901020090032266
:1025280031F097FF9E4B18A8189340F20343ADF87B
:1025380064301A238DF8663004F0B4F90346002895
:1025480040F02B83226802F00702022A19D99DF86D
:102558006020904908929DF86120009007929DF8AC
:10256800622006929DF8662005929DF865200492E7
:102578009DF8632003928B4ACDE90102032231F0D2
:1025880068FF894E30464FF0B7FF0346002840F0F9
:102598001B832268520709D032687E490392834A16
:1025A8000090CDE90102012231F053FF0122002100
:1025B8007F4850F025F900227E497F4850F001FC01
:1025C8004FF4004200237C48CDE900232CF0A4FA04
:1025D800236803F00703022B09D9784B03220293DF
:1025E80000236C491846CDE9003331F032FF03F07F
:1025F8006FFF0346002800F0F88223685B0709D0C4
:102608006F4B0122029300231846CDE9003361493C
:1026180031F01FFF002200230026CDE90623042302
:102628004FF48062CDE90336CDE90166654B664912
:10263800009666482BF098FB654964482BF0D4FA5D
:1026480032464FF47A7163481FF012FF49F087FF52
:102658003B783BB132464FF47A715F481FF008FF70
:1026680049F07DFF5D4B186820B100230A225C49C0
:102678003AF04AF95B4B186820B100230A225A49FC
:102688003AF042F9594B186820B100230A225849F8
:102698003AF03AF9236803F00703022B09D9554B9E
:1026A8000322029300233B491846CDE9003331F059
:1026B800D0FE4FF0000BDFF84091DFF840A1504A00
:1026C8001378002B00F015820026167003F0CAFC60
:1026D80003F06EFD804603F075FD074603F07CFDB0
:1026E8000FAA0B900EA90DA803F080FD12AA11A93C
:1026F80010A803F0C3FD13A815AA14A903F0DAFD66
:1027080016A804F047F9002840F07C82236803F0FB
:102718000703022B40F2F9809DF8583003220693F4
:102728009DF859301B4905939DF85A300493354B51
:102738001B6800900393344BCDE90103034631F045
:1027480088FE4046FEF72CFA236803F00703022BA5
:1027580040F2DB8000262D4BCDE9040103220293D1
:1027680030463346CDE900660A4931F072FE2268E8
:1027780002F00702022A40F2C88049E0449E002085
:10278800E89C0020A09E0020049E0020709D002050
:10279800ABA505007006002066000320DCA5050037
:1027A800000F0A03ECA50500B43E05006DA6050060
:1027B800049D002031200000000B00209DA605008C
:1027C800BBA605000124000080030320380A00206E
:1027D80025D40A004920000019210000449D00204A
:1027E800574403002C9D002053440300389D0020CB
:1027F8004F440300E5A6050000003443D00F4940CC
:1028080067000320E09C0020F8A605004EA70500FD
:102818003846FEF7C5F99D4ACDE90401CDE90162C4
:102828003346032230469A49009631F012FE226858
:1028380002F00702022A68D90B98FEF7B1F9954A07
:10284800CDE90401CDE901623346032230469049BF
:10285800009631F0FEFD226802F00702022A54D9E0
:102868000F98FEF79DF9CDE908010E98FEF798F943
:10287800CDE906010D98FEF793F9874ACDE90401E1
:10288800CDE901623346032230468149009631F092
:10289800E0FD226802F00702022A36D91298FEF7F4
:1028A8007FF9CDE908011198FEF77AF9CDE906011B
:1028B8001098FEF775F9794ACDE90401CDE901626E
:1028C8003346032230467249009631F0C2FD226831
:1028D80002F00702022A18D91598FEF761F9CDE926
:1028E80008011498FEF75CF9CDE906011398FEF784
:1028F80057F96B4ACDE90401CDE901623346032259
:1029080030466349009631F0A4FD4046FEF748F989
:10291800644ACDE90001202118A830F0A7F9624BDC
:10292800186810B118A94CF057FC604B186810B122
:1029380018A94CF051FC3846FEF732F95C4ACDE94B
:102948000001202118A830F091F95A4B186810B1ED
:1029580018A94CF041FC0B98FEF722F9564ACDE92C
:102968000001202118A830F081F9544B186810B1E3
:1029780018A94CF031FC0D990E9831F097FB494697
:10298800FEF7D6FC5146FEF787FD59460646FEF788
:102998006DFE20B130464A49FEF7C2FB0646304676
:1029A800FEF7FEF8474ACDE90001202118A830F0CB
:1029B8005DF9454B186810B118A94CF00DFC30466C
:1029C80003F094FC414B0146186808B14CF004FC34
:1029D8001098FEF7E5F83E4ACDE90001202118A835
:1029E80030F044F93B4B186810B118A94CF0F4FBCF
:1029F8001198FEF7D5F8364ACDE90001202118A82C
:102A080030F034F9344B186810B118A94CF0E4FBD5
:102A18001298FEF7C5F82E4ACDE90001202118A822
:102A280030F024F92D4B186810B118A94CF0D4FBDC
:102A38001398FEF7B5F8264ACDE90001202118A819
:102A480030F014F9264B186810B118A94CF0C4FBE3
:102A58001498FEF7A5F81E4ACDE90001202118A810
:102A680030F004F91F4B186810B118A94CF0B4FBEA
:102A78001598FEF795F8164ACDE90001202118A807
:102A880030F0F4F8184B186898B32FE066A70500E3
:102A9800700600207DA7050094A70500BBA70500C8
:102AA800F6A705002EA80500109E00205C9E0020B9
:102AB80036A80500689E00208BA70500509E0020C0
:102AC8000000B4433DA80500D09D0020CC9D002007
:102AD800B6A70500AC9D0020A49D00209C9D002069
:102AE800889D0020809D0020789D002018A94CF02A
:102AF80073FB1FF0F3FC0023002264482AF0B6FDA4
:102B08000346002843D1624A92F80880D2E9007649
:102B1800226802F00702022A0BD95E4ACDE9047640
:102B2800CDE901025C490322CDF80C80009031F018
:102B380090FCB8F1000F2AD02368A7F1CF02262A0B
:102B480003F0070300F29380721F262A6ED8022B27
:102B580009D9524B0322029300234F491846CDE965
:102B6800003331F076FC4E4A0521106801304342AB
:102B780003F0030300F0030058BF5842002310601D
:102B88004FF49672009355F8200017F033FA00219D
:102B98004FF4A47050F01EF891E5236813F0060F67
:102BA8003FF4EFAC3F4B0293002302221846CDE9D5
:102BB8000033394931F04DFCE3E4236813F0060F84
:102BC8003FF4DFAC384BEEE7236803F00703022B32
:102BD8007FF6ECAC336803220393344B2E490293FF
:102BE80000231846CDE90033DEE4226802F007022C
:102BF800022A7FF60FAD2E4A2749CDE9010200903F
:102C0800032205E5226802F00702022A7FF67DAE5C
:102C1800284A3346126830460392274A1E49CDE9AE
:102C280001620096032231F014FC8AE5A6F594723D
:102C3800262A1CD8022B09D9204B032202930023F1
:102C480015491846CDE9003331F003FC144A062132
:102C580010680330434203F0030300F0030058BF39
:102C68005842002310604FF4967200938BE7022BB2
:102C78008DD9134B032202930023CDE9037618461E
:102C8800CDE90033044931F0E4FB80E7049D0020DE
:102C9800F89C002045A805007006002069A80500DA
:102CA800E49C00201DA6050043A6050087A6050094
:102CB800D5A60500E09C002022A7050098A80500DD
:102CC800CBA805002DE9F04F00208FB014F0D4FBFD
:102CD800D24D1021286038F0BBFD286824F09EFDF5
:102CE800CF4CD04920604CF0EDF820686FF040419F
:102CF80039F09AFF20686FF0404139F0ACFF206846
:102D0800092139F0ECFF2068022138F0ECFF10218E
:102D1800206838F09DFD286825F086F9C24C6FF0D0
:102D28004041206039F080FF20686FF0404139F061
:102D380092FF20686FF0020139F03DFF20686FF0C4
:102D48006B0139F04FFF2068092139F0C8FFB749F6
:102D580020684CF041FA6FF07F40266847F0A1FFE9
:102D6800C0F307238DF80400C0F307408DF8053041
:102D78008DF80600AE4F3046019900223BF099FECF
:102D880020680022FF213BF0A3FE0022394620687C
:102D98003BF0A5FE286814F06FFBA64CA64E2060F9
:102DA80015F0FEFE20688C2139F03EFF20682321B3
:102DB80039F051FF2068032139F0FDFE20686FF0DB
:102DC800180139F00FFF2068092139F088FF122116
:102DD800206838F03DFD206825F026F96FF0404165
:102DE800306039F021FF30686FF0404139F033FF2F
:102DF80030686FF0360139F0DEFEDFF84092306857
:102E0800042139F0EFFE3068092139F068FF49469E
:102E180030684CF0E1F96FF07F40D6F8008047F059
:102E280040FFC0F307238DF80800C0F307408DF872
:102E380009308DF80A00029940460022DFF8008226
:102E48003BF037FE30680022FF213BF041FE0022B4
:102E5800414630683BF043FE206825F0E5F8794E9E
:102E68006FF04041306039F0DFFE30686FF040416C
:102E780039F0F1FE30686FF01E0139F09CFEDFF882
:102E8800C8A13068032139F0ADFE3068092139F056
:102E980026FF514630684CF09FF96FF07F40D6F816
:102EA80000B047F0FEFEC0F307238DF80C00C0F316
:102EB80007408DF80D308DF80E0003995846002212
:102EC8003BF0F7FD30680022FF213BF001FE0022B5
:102ED800414630683BF003FE206825F0A5F85B4EBC
:102EE8006FF04041306039F09FFE30686FF040412C
:102EF80039F0B1FE30686FF0040139F05CFE3068DB
:102F0800042139F06FFE3068092139F0E8FE49469E
:102F180030684CF061F96FF07F40D6F800B047F0A8
:102F2800C0FEC0F307238DF81000C0F307408DF8EA
:102F380011308DF812000499584600223BF0B9FD73
:102F480030680022FF213BF0C3FD00224146306873
:102F58003BF0C5FD206825F067F83D4E6FF0404115
:102F6800306039F061FE30686FF0404139F073FE2F
:102F78003068142139F01FFE3068032139F032FE21
:102F88003068092139F0ABFE514630684CF024F91D
:102F98006FF07F40D6F800A047F083FEC0F3072308
:102FA8008DF81400C0F307408DF815308DF8160021
:102FB8000599504600223BF07CFD30680022FF2135
:102FC8003BF086FD0022414630683BF088FD2068D2
:102FD80025F02AF81F4C6FF04041206039F024FE9C
:102FE80020686FF0404139F036FE20682B2139F017
:102FF800E2FD2068032139F0F5FD2068092139F048
:103008006EFE494620684CF0E7F86FF07F4026686E
:1030180047F047FEC0F307231EE000BF709D002065
:103028006C9D0020F84A0500689D002040A60A0013
:10303800446F0500649D0020609D00206DE10A003A
:10304800707F05005C9D00208BA60A00589D00201B
:10305800549D0020509D00208DF81800C0F30740B3
:103068008DF819308DF81A000699304600223BF089
:1030780020FD20680022FF213BF02AFD0022414666
:1030880020683BF02CFD286824F0CEFFCE4C6FF072
:103098004041206039F0C8FD20686FF0404139F0A8
:1030A800DAFD20686FF0040139F085FD20680821F9
:1030B80039F098FD2068092139F011FEC3492068CC
:1030C8004CF08AF86FF07F40266847F0EAFDC0F3BD
:1030D80007238DF81C00C0F307408DF81D308DF8CC
:1030E8001E000799304600223BF0E3FC20680022CE
:1030F800FF213BF0EDFC0022B54920683BF0EFFCD6
:10310800286814F0B9F9B34CB34E206015F048FDA7
:103118002068492139F088FD20682D2139F09BFD70
:1031280020686FF0790139F046FD2068342139F0C4
:1031380059FD2068092139F0D2FD1221206838F0A4
:1031480087FB206822F0BAFC3521306039F06CFD2D
:103158003068212139F07FFD30686FF0010139F0C6
:103168002AFD3068022139F03DFD3068092139F027
:10317800B6FD30684FF4806138F0B5FD1021306835
:1031880038F066FB47F2FF50D6F8008047F089FD1B
:10319800C0F307238DF82000C0F307408DF82130D5
:1031A8008DF822000899404600223BF040FC00229E
:1031B800FF2130683BF04AFC206824F035FF874C3B
:1031C8006FF04041206039F02FFD20686FF04041DA
:1031D80039F041FD20686FF0010139F0ECFC2068FE
:1031E800032139F0FFFC2068092139F078FD7C497A
:1031F80020684BF0F1FF6FF07F40266847F051FDE3
:10320800C0F307238DF82400C0F307408DF825305C
:103218008DF826000999304600223BF04AFC2068C8
:103228000022FF213BF054FC0022394620683BF085
:1032380056FC286814F020F96A4C6B4E206015F093
:10324800AFFC2068492139F0EFFC20682D2139F0C6
:1032580002FD2068032139F0AEFC2068482139F0CE
:10326800C1FC2068092139F03AFD1221206838F0A4
:10327800EFFA206822F022FC3921306039F0D4FCC2
:103288003068212139F0E7FC30686FF0030139F02C
:1032980092FC3068022139F0A5FC3068092139F028
:1032A8001EFD30684FF4806138F01DFD1021306834
:1032B80038F0CEFA4D48D6F8008047F0F2FCC0F35B
:1032C80007238DF82800C0F307408DF829308DF8C2
:1032D8002A000A99404600223BF0A9FB0022FF2160
:1032E80030683BF0B3FB206824F09EFE404C6FF042
:1032F8004041206039F098FC20686FF0404139F077
:10330800AAFC20686FF0030139F055FC20680221FF
:1033180039F068FC2068092139F0E1FC354920685A
:103328004BF05AFF6FF07F40266847F0BAFCC0F3B5
:1033380007238DF82C00C0F307408DF82D308DF849
:103348002E000B99304600223BF0B3FB2068002288
:10335800FF213BF0BDFB0022394620683BF0BFFB54
:10336800286814F089F8244C244E206015F018FCC5
:103378002068492139F058FC20682D2139F06BFC70
:1033880020687A2139F017FC2068352139F02AFCA9
:103398002068092139F0A3FC1221206838F058FA76
:1033A800206822F08BFB3521306039F03DFC306815
:1033B800212139F050FC30686FF0010139F0FBFB36
:1033C800306802211CE000BF4C9D00204CA60A007A
:1033D800A8740500489D0020449D0020409D0020C1
:1033E80059A60A003C9D0020389D00204848F90055
:1033F800349D00205FA60A00309D00202C9D0020EF
:1034080039F0F0FB3068092139F069FC30684FF475
:10341800806138F068FC1021306838F019FA534898
:10342800D6F8008047F03DFCC0F307238DF8300044
:10343800C0F307408DF831308DF832000C994046C2
:1034480000223BF0F4FA0022FF2130683BF0FEFA3C
:10345800206824F0E9FD464C6FF04041206039F0C7
:10346800E3FB20686FF0404139F0F5FB20686FF00E
:10347800010139F0A0FB2068032139F0B3FB206873
:10348800092139F02CFC3B4920684BF0A5FE6FF070
:103498007F40266847F005FCC0F307238DF8340009
:1034A800C0F307408DF835308DF836000D99304659
:1034B80000223BF0FEFA20680022FF213BF008FBC7
:1034C8000022394620683BF00AFB286824F0A6F958
:1034D800294C2A4920604BF0F5FC20686FF04041E8
:1034E80039F0A2FB20686FF0404139F0B4FB206846
:1034F8007E2139F060FB2068632139F073FB206876
:10350800092139F0ECFB2068022138F0ECFB10218E
:10351800206838F09DF9286824F080F9184C19497A
:1035280020604BF0CFFC20686FF0404139F07CFB05
:1035380020686FF0404139F08EFB20686FF08401FD
:1035480039F039FB2068642139F04CFB20680921E7
:1035580039F0C5FB2068022138F0C5FB102120682E
:103568000FB0BDE8F04F38F073B900BF0767FF0030
:10357800289D002065A60A00249D0020684B0500B0
:10358800209D00204C4B05002DE9F04F0020A1B0F4
:1035980013F072FFCF4D1021286038F059F9CE484A
:1035A8002C6847F07EFBC0F307238DF80400C0F3B6
:1035B80007408DF805308DF8060001992046002255
:1035C8003BF035FA0022FF2128683BF03FFA2868D3
:1035D80024F024F9C14CC24920604BF073FC2068E8
:1035E8006FF0404139F020FB20686FF0404139F01E
:1035F80032FB2068092139F072FB2068022138F07B
:1036080072FB1021206838F023F9286813F034FF82
:10361800B44CB54E206015F0C3FA2068582139F033
:1036280003FB20681A2139F016FB20686FF061014E
:1036380039F0C1FA20686FF0590139F0D3FA2068DF
:10364800092139F04CFB1221206838F001F9206873
:1036580024F0EAFC6FF04041306039F0E5FA306858
:103668006FF0404139F0F7FA30686FF01C0139F01B
:10367800A2FA30686FF0030139F0B4FADFF86C820F
:103688003068092139F02BFB994930684BF0A4FDCB
:103698004046376847F005FBC0F307238DF808005C
:1036A800C0F307408DF809308DF80A00DFF844921E
:1036B8003846029900223BF0FCF930680022FF21CD
:1036C8003BF006FA0022494630683BF008FA2068C9
:1036D80024F0AAFC884E6FF04041306039F0A4FA1B
:1036E80030686FF0404139F0B6FA30686FF0080181
:1036F80039F061FA30686FF0040139F073FA306814
:10370800092139F0ECFA7D4930684BF065FD4046F7
:10371800376847F0C6FAC0F307238DF80C00C0F3EA
:1037280007408DF80D308DF80E00039938460022B9
:103738003BF0BFF930680022FF213BF0C9F90022B5
:10374800494630683BF0CBF9206824F06DFC6C4C9E
:103758006FF04041206039F067FA20686FF040410F
:1037680039F079FA20680F2139F025FA20686FF0CE
:10377800020139F037FA634F2068092139F0AFFAAE
:10378800614920684BF028FD3846266847F089FAD9
:10379800C0F307238DF81000C0F307408DF81130EF
:1037A8008DF812000499304600223BF082F9206817
:1037B8000022FF213BF08CF90022494620683BF0AB
:1037C8008EF9286813F058FE504C514E206015F0C1
:1037D800E7F92068732139F027FA2068232139F0A6
:1037E8003AFA20686FF07A0139F0E5F920686FF04D
:1037F800490139F0F7F92068092139F070FA1221E6
:10380800206838F025F8206824F00EFC6FF040415D
:10381800306039F009FA30686FF0404139F01BFA2E
:1038280030686FF0060139F0C6F93068032139F0C5
:10383800D9F93068092139F052FA364930684BF025
:10384800CBFC6FF07F40D6F8009047F02AFAC0F31F
:1038580007238DF81400C0F307408DF815308DF854
:103868001600059948460022DFF8AC903BF021F994
:1038780030680022FF213BF02BF9002249463068CE
:103888003BF02DF9206824F0CFFB244E6FF0404127
:10389800306039F0C9F930686FF0404139F0DBF930
:1038A8003068062139F087F9DFF874A03068032101
:1038B80039F098F93068092139F011FA5146306821
:1038C8004BF08AFC6FF07F40D6F800B047F0E9F97A
:1038D80028E000BF049E0020E76E0700009E00203D
:1038E800F84A0500FC9D0020F89D0020FBFBFF0026
:1038F8006AA60A00707F0500F49D00208BA60A00C6
:10390800F09D0020FDFDFF006DA60A00EC9D002043
:10391800E89D002070A60A00185F0500E49D0020BD
:10392800FAAF0A00C0F307238DF81800C0F3074068
:103938008DF819308DF81A000699584600223BF088
:10394800B8F830680022FF213BF0C2F8002249464F
:1039580030683BF0C4F8206824F066FBCE4E6FF068
:103968004041306039F060F930686FF0404139F01B
:1039780072F93068122139F01EF93068032139F0E4
:1039880031F93068092139F0AAF9C44930684BF097
:1039980023FC6FF07F40D6F800B047F082F9C0F3FF
:1039A80007238DF81C00C0F307408DF81D308DF8F3
:1039B8001E000799584600223BF07BF83068002229
:1039C800FF213BF085F80022494630683BF087F834
:1039D800206824F029FBB24E6FF04041306039F086
:1039E80023F930686FF0404139F035F930681F210C
:1039F80039F0E1F83068032139F0F4F8306809212A
:103A080039F06DF9514630684BF0E6FB6FF07F40B6
:103A1800D6F800A047F045F9C0F307238DF8200039
:103A2800C0F307408DF821308DF8220008995046E0
:103A380000223BF03EF830680022FF213BF048F8B6
:103A48000022494630683BF04AF8206824F0ECFA36
:103A5800944C6FF04041206039F0E6F820686FF030
:103A6800404139F0F8F820682B2139F0A4F8206893
:103A7800032139F0B7F82068092139F030F98A496B
:103A880020684BF0A9FB6FF07F40266847F009F9E2
:103A9800C0F307238DF82400C0F307408DF82530C4
:103AA8008DF826000999304600223BF002F820687C
:103AB8000022FF213BF00CF80022494620683BF029
:103AC8000EF8286813F0D8FC784C794E206015F071
:103AD80067F82068A12139F0A7F82068A92139F0F2
:103AE800BAF82068062139F066F820681E2139F0F6
:103AF80079F82068092139F0F2F81221206837F0A6
:103B0800A7FE206824F090FA6FF04041306039F049
:103B18008BF830686FF0404139F09DF83068062125
:103B280039F049F830686FF0060139F05BF8306811
:103B3800092139F0D4F85F4930684BF04DFB404615
:103B4800D6F8009047F0ADF8C0F307238DF82800A9
:103B5800C0F307408DF829308DF82A000A994846A5
:103B680000223AF0A6FF30680022FF213AF0B0FFA9
:103B78000022514930683AF0B2FF206824F054FA24
:103B88004E4E6FF04041306039F04EF830686FF0BB
:103B9800404139F060F830686FF0020139F00BF8F5
:103BA8003068222139F01EF83068092139F097F879
:103BB800434930684BF010FB3846D6F8008047F090
:103BC80070F8C0F307238DF82C00C0F307408DF878
:103BD8002D308DF82E000B99404600223AF069FFEF
:103BE80030680022FF213AF073FF0022354930681F
:103BF8003AF075FF206823F011FE334C33492060FA
:103C08004BF060F920686FF0404139F00DF82068FA
:103C18006FF0404139F01FF820686FF0080138F064
:103C2800CAFF2068452138F0DDFF2068092139F0F6
:103C380056F82068022138F056F81021206837F02D
:103C480007FE286823F0EAFD214C224920604BF04A
:103C580039F920686FF0404138F0E6FF20686FF0CE
:103C6800404138F0F8FF20687E2138F0A4FF206832
:103C7800632138F0B7FF2068092139F030F820684F
:103C8800022138F030F81021206837F0E1FD28686B
:103C980023F0C4FD20E000BFE09D002073A60A00C9
:103CA800DC9D0020D89D002076A60A00D49D002027
:103CB800D09D002079A60A00388A0500CC9D0020F6
:103CC80080A60A00D4840500C89D0020144B050076
:103CD800C49D0020684B0500D24CD34920604BF0AE
:103CE800F1F820686FF0404138F09EFF20686FF0CF
:103CF800404138F0B0FF20686FF0840138F05BFF76
:103D08002068642138F06EFF2068092138F0E7FF49
:103D18002068022137F0E7FF1021206837F098FD6E
:103D2800286813F0A9FBC14CC14D206014F038FF7E
:103D38002068AE2138F078FF2068672138F08BFFC3
:103D48002068792138F037FF20686FF0570138F084
:103D580049FF2068092138F0C2FF1221206837F096
:103D680077FD206824F060F96FF04041286038F052
:103D78005BFF28686FF0404138F06DFF28686FF0EE
:103D8800410138F018FF28686FF0030138F02AFF66
:103D98002868092138F0A3FFA64928684BF01CFAC7
:103DA80038462E6846F07DFFC0F307238DF83000B3
:103DB800C0F307408DF831308DF832000C99304649
:103DC80000223AF076FE0022FF2128683AF080FEB1
:103DD800206813F051FB984D5121286038F024FFDA
:103DE8002868302138F037FF28686FF0050138F06F
:103DF800E2FE28686FF0010138F0F4FE2868092116
:103E080038F06DFF1021286837F022FD8B482E68A6
:103E180046F047FFC0F307238DF83400C0F307408E
:103E28008DF835308DF836000D99304600223AF07D
:103E3800FEFD0022FF2128683AF008FE4AF6FF60DE
:103E48002E6846F02EFFC0F307238DF83800C0F324
:103E580007408DF839308DF83A000E990022304627
:103E68003AF0FBFD00202E6846F01BFFC0F3072345
:103E78008DF83C00C0F307408DF83D308DF83E00CA
:103E88000F99304600223AF0FEFD0022FF212868F3
:103E98003AF008FE206824F0C7F8694E6FF04041F8
:103EA800306038F0C1FE30686FF0404138F0D3FE22
:103EB80030686FF01E0138F07EFEDFF888A13068A8
:103EC8006FF0110138F08EFE3068092138F007FFD5
:103ED800514630684BF080F96FF07F40356846F006
:103EE800E0FEC0F307238DF84000C0F307408DF8CB
:103EF80041308DF84200109928460022524D3AF080
:103F0800D8FD30680022FF213AF0E2FD0022294660
:103F180030683AF0E4FD206824F086F84B4E6FF0E4
:103F28004041306038F080FE30686FF0404138F032
:103F380092FE3068072138F03EFE454F30686FF03A
:103F4800100138F04FFE3068092138F0C8FE3946B4
:103F580030684BF041F96FF07F40D6F8008046F0AA
:103F6800A0FEC0F307238DF84400C0F307408DF886
:103F780045308DF846001199404600223AF099FDE7
:103F880030680022FF213AF0A3FD0022294630685C
:103F98003AF0A5FD206824F047F82E4E6FF0404116
:103FA800306038F041FE30686FF0404138F053FE21
:103FB80030686FF01E0138F0FEFDDFF89C90306825
:103FC8006FF0010138F00EFE3068092138F087FEE5
:103FD800494630684BF000F96FF07F40D6F8008012
:103FE80046F05FFEC0F307238DF84800C0F3074092
:103FF8008DF849308DF84A001299404600223AF06F
:1040080058FD30680022FF213AF062FD002229465F
:1040180030683AF064FD206824F006F80F4E6FF01F
:1040280040411DE0C09D00204C4B0500BC9D002078
:10403800B89D002086A60A00B49D0020F06C0900F7
:10404800B09D00208AA60A00B4590500AC9D002046
:104058008DA60A00A89D002092A60A00A49D002013
:10406800306038F0E1FD30686FF0404138F0F3FD22
:104078003068072138F09FFD30686FF0010138F093
:10408800B1FD3068092138F02AFE394630684BF016
:10409800A3F86FF07F40D6F8008046F002FEC0F328
:1040A80007238DF84C00C0F307408DF84D308DF88C
:1040B8004E001399404600223AF0FBFC306800227B
:1040C800FF213AF005FD0022294630683AF007FD45
:1040D800206823F0A9FFD74E6FF04041306038F0D8
:1040E800A3FD30686FF0404138F0B5FD30686FF0DF
:1040F8001D0138F060FDDFF8408330680D2138F08D
:1041080071FD3068092138F0EAFD414630684BF00E
:1041180063F86FF07F40D6F800B046F0C2FDC0F3F8
:1041280007238DF85000C0F307408DF851308DF803
:1041380052001499584600223AF0BBFC306800221D
:10414800FF213AF0C5FC0022294630683AF0C7FC46
:10415800206823F069FFB94C6FF04041206038F0C7
:1041680063FD20686FF0404138F075FD2068072135
:1041780038F021FD20680D2138F034FD2068092130
:1041880038F0ADFD394620684BF026F86FF07F40D7
:10419800266846F086FDC0F307238DF85400C0F367
:1041A80007408DF855308DF8560015993046002295
:1041B8003AF07FFC20680022FF213AF089FC0022B7
:1041C800294620683AF08BFC9D4B9E4C186813F0EA
:1041D80053F9206014F0E4FC2068AE2138F024FD87
:1041E8002068672138F037FD2068792138F0E3FC32
:1041F80020686FF0250138F0F5FC2068092138F0B7
:104208006EFD1221206837F023FB206823F00CFF95
:104218008D4E6FF04041306038F006FD30686FF029
:10422800404138F018FD30686FF0410138F0C3FCA8
:1042380030686FF0020138F0D5FC3068092138F099
:104248004EFD824930684AF0C7FF8148D6F800B071
:1042580046F027FDC0F307238DF85800C0F3074048
:104268008DF859308DF85A001699584600223AF0C0
:1042780020FC0022FF2130683AF02AFC206813F065
:10428800FBF8744E5121306038F0CEFC3068302194
:1042980038F0E1FC30686FF0050138F08CFC3068CC
:1042A8006FF0010138F09EFC3068092138F017FDE5
:1042B8001021306837F0CCFA6748D6F800B046F0DD
:1042C800F0FCC0F307238DF85C00C0F307408DF8BD
:1042D8005D308DF85E001799584600223AF0A7FB2A
:1042E8000022FF2130683AF0B1FB4AF6FF60D6F8A9
:1042F80000B046F0D6FCC0F307238DF86000C0F389
:1043080007408DF861308DF86200189900225846F0
:104318003AF0A3FB0020D6F800B046F0C2FCC0F388
:1043280007238DF86400C0F307408DF865308DF8D9
:1043380066001999584600223AF0A5FB0022FF2191
:1043480030683AF0AFFB206823F06EFE434E6FF002
:104358004041306038F068FC30686FF0404138F018
:104368007AFC30686FF01C0138F025FC30686FF07B
:10437800100138F037FC3068092138F0B0FC51469C
:1043880030684AF029FF6FF07F40D6F800A046F069
:1043980088FCC0F307238DF86800C0F307408DF848
:1043A80069308DF86A001A99504600223AF081FB6C
:1043B80030680022FF213AF08BFB00222946306842
:1043C8003AF08DFB206823F02FFE254E6FF0404118
:1043D800306038F029FC30686FF0404138F03BFC21
:1043E8003068072138F0E7FB30686FF00F0138F0CC
:1043F800F9FB3068092138F072FC394630684AF018
:10440800EBFE6FF07F40D6F800A046F04AFCC0F300
:1044180007238DF86C00C0F307408DF86D308DF8D8
:104428006E001B99504600223AF043FB3068002288
:1044380018E000BFA09D002095A60A009C9D0020C2
:10444800049E0020989D0020949D002098A60A00B4
:10445800FDFDFF00909D0020F06C09008C9D002060
:10446800889D0020FF213AF033FB0022294630685E
:104478003AF035FB206823F0D7FD8F4E6FF04041AE
:10448800306038F0D1FB30686FF0404138F0E3FB22
:1044980030686FF01C0138F08EFB30686FF0010156
:1044A80038F0A0FB3068092138F019FC494630681B
:1044B8004AF092FE6FF07F40D6F8009046F0F1FB8C
:1044C800C0F307238DF87000C0F307408DF87130F2
:1044D8008DF872001C99484600223AF0EAFA3068D2
:1044E8000022FF213AF0F4FA0022294630683AF017
:1044F800F6FA206823F098FD704E6FF04041306066
:1045080038F092FB30686FF0404138F0A4FB306817
:10451800072138F050FB30686FF0010138F062FB7A
:104528003068092138F0DBFB394630684AF054FE20
:104538006FF07F40D6F8009046F0B3FBC0F3072336
:104548008DF87400C0F307408DF875308DF876004B
:104558001D99484600223AF0ACFA30680022FF2143
:104568003AF0B6FA0022294630683AF0B8FA2068DC
:1045780023F05AFD524E6FF04041306038F054FB42
:1045880030686FF0404138F066FB30686FF01C010E
:1045980038F011FB30680D2138F024FB3068092110
:1045A80038F09DFB414630684AF016FE6FF07F40B8
:1045B800D6F8008046F075FBC0F307238DF8780025
:1045C800C0F307408DF879308DF87A001E9940467F
:1045D80000223AF06EFA30680022FF213AF078FAA9
:1045E8000022294630683AF07AFA206823F01CFD48
:1045F800344E6FF04041306038F016FB30686FF091
:10460800404138F028FB3068072138F0D4FA306888
:104618000D2138F0E7FA3068092138F060FB394697
:1046280030684AF0D9FD6FF07F40376846F039FBB3
:10463800C0F307238DF87C00C0F307408DF87D3068
:104648008DF87E001F99384600223AF032FA306819
:104658000022FF213AF03CFA0022294630683AF05D
:104668003EFA206823F0DAF8174C184920604AF01F
:1046780029FC20686FF0404138F0D6FA20686FF0C6
:10468800404138F0E8FA20686FF0410138F093FAB9
:1046980020686FF01A0138F0A5FA2068092138F06F
:1046A8001EFB2068022137F01EFB1021206821B074
:1046B800BDE8F04F37F0CCB8849D0020809D0020E5
:1046C8007C9D0020789D0020749D0020BC4B050037
:1046D8002DE9F04300208BB012F0CEFECE4E102113
:1046E800306037F0B5F8306823F098F8CB4CCC49F7
:1046F80020604AF0E7FB20686FF0404138F094FAF8
:1047080020686FF0404138F0A6FA2068092138F097
:10471800E6FA2068022137F0E6FA1021206837F01F
:1047280097F8306812F0A8FEBE4CBF4D206014F018
:1047380037FA20688C2138F077FA20683C2138F065
:104748008AFA2068062138F036FA20686FF00801E6
:1047580038F048FA2068092138F0C1FA1221206897
:1047680037F076F8206823F05FFC6FF0404128604E
:1047780038F05AFA28686FF0404138F06CFA286827
:104788006FF02B0138F017FA28684FF0FF3138F036
:1047980029FADFF898922868092138F0A0FAA44984
:1047A80028684AF019FD48462F6846F07AFAC0F39F
:1047B80007238DF80400C0F307408DF805308DF805
:1047C80006000199384600229A4F3AF072F9286893
:1047D8000022FF213AF07CF90022394628683AF095
:1047E8007EF9206823F020FC934D6FF0404128604B
:1047F80038F01AFA28686FF0404138F02CFA286827
:104808006FF0080138F0D7F928686FF0040138F024
:10481800E9F92868092138F062FA884928684AF0D5
:10482800DBFC4846D5F8008046F03BFAC0F3072386
:104838008DF80800C0F307408DF809308DF80A009C
:104848000299404600223AF034F928680022FF21F4
:104858003AF03EF90022394628683AF040F92068D3
:1048680023F0E2FB764C6FF04041206038F0DCF931
:1048780020686FF0404138F0EEF920681F2138F0C9
:104888009AF920684FF0FF3138F0ACF92068092117
:1048980038F025FA6B4920684AF09EFC6A4825687A
:1048A80046F0FFF9C0F307238DF80C00C0F307406A
:1048B8008DF80D308DF80E000399284600223AF045
:1048C800F8F820680022FF213AF002F90022394660
:1048D80020683AF004F9306812F0CEFD5B4C5C4D6C
:1048E800206014F05DF92068732138F09DF9206884
:1048F800232138F0B0F920686FF00B0138F05BF92C
:1049080020681A2138F06EF92068092138F0E7F993
:104918001221206836F09CFF206823F085FB6FF099
:104928004041286038F080F928686FF0404138F03D
:1049380092F928686FF0150138F03DF928680421CC
:1049480038F050F92868092138F0C9F94149286830
:104958004AF042FC6FF07F402F6846F0A2F9C0F39E
:1049680007238DF81000C0F307408DF811308DF83B
:104978001200049938460022374F3AF09AF828680E
:104988000022FF213AF0A4F80022394628683AF0BC
:10499800A6F8206823F048FB304D6FF040412860AE
:1049A80038F042F928686FF0404138F054F9286827
:1049B8006FF0030138F0FFF8DFF8A48028680321BE
:1049C80038F010F92868092138F089F94146286833
:1049D8004AF002FC6FF07F40D5F8009046F061F98C
:1049E800C0F307238DF81400C0F307408DF8153085
:1049F8008DF816000599484600223AF05AF82868BA
:104A08000022FF213AF064F80022394628683AF07B
:104A180066F8206826E000BF449E0020409E0020E3
:104A2800F84A05003C9E0020389E0020FBFBFF0052
:104A38006AA60A00388A0500349E00208BA60A0060
:104A4800309E00206DA60A00FDFDFF002C9E002070
:104A5800289E002070A60A00E0690500249E002018
:104A6800FAAF0A0023F0E0FAAF4D6FF0404128603A
:104A780038F0DAF828686FF0404138F0ECF8286828
:104A88000C2138F098F82868042138F0ABF8286829
:104A9800092138F024F9A54928684AF09DFB6FF0F0
:104AA8007F40D5F8009046F0FCF8C0F307238DF856
:104AB8001800C0F307408DF819308DF81A000699D0
:104AC8004846002239F0F5FF28680022FF2139F016
:104AD800FFFF0022394628683AF001F8206823F0E1
:104AE800A3FA934D6FF04041286038F09DF828688C
:104AF8006FF0404138F0AFF828681F2138F05BF8B4
:104B08002868032138F06EF82868092138F0E7F89A
:104B1800414628684AF060FB6FF07F40D5F8008076
:104B280046F0BFF8C0F307238DF81C00C0F3074018
:104B38008DF81D308DF81E0007994046002239F087
:104B4800B8FF28680022FF2139F0C2FF0022394649
:104B5800286839F0C4FF206823F066FA754C6FF0B6
:104B68004041206038F060F820686FF0404138F02C
:104B780072F82068302138F01EF82068032138F0D8
:104B880031F82068092138F0AAF86B4920684AF002
:104B980023FB6FF07F40256846F083F8C0F30723B6
:104BA8008DF82000C0F307408DF821308DF82200E1
:104BB80008992846002239F07CFF20680022FF214E
:104BC80039F086FF00223946206839F088FF3068BE
:104BD80012F052FC594C206013F0E2FF20685B2170
:104BE80038F022F82068282138F035F820680221AA
:104BF80037F0E1FF20686FF0540137F0F3FF2068C9
:104C0800092138F06CF81221206836F021FE20685E
:104C180023F00AFA4A4C6FF04041206038F004F85B
:104C280020686FF0404138F016F820686FF00501F1
:104C380037F0C1FF20684FF0FF3137F0D3FF20680D
:104C4800092138F04CF83F4920684AF0C5FA3E4837
:104C5800256846F026F8C0F307238DF82400C0F332
:104C680007408DF825308DF826000999284600223E
:104C780039F01FFF20680022FF2139F029FF0022A8
:104C88003249206839F02BFF306822F0C7FD304CDC
:104C9800304920604AF016F920686FF0404137F03B
:104CA800C3FF20686FF0404137F0D5FF20687E21B0
:104CB80037F081FF2068632137F094FF20680921CD
:104CC80038F00DF82068022137F00DF8102120681F
:104CD80036F0BEFD306822F0A1FD1F4C1F49206050
:104CE8004AF0F0F820686FF0404137F09DFF2068E7
:104CF8006FF0404137F0AFFF20686FF0840137F064
:104D08005AFF2068642137F06DFF2068092137F0C9
:104D1800E6FF2068022136F0E6FF102120680BB07C
:104D2800BDE8F04336F094BD209E002073A60A002B
:104D38001C9E0020189E002076A60A00149E0020C3
:104D4800109E00209DA60A00FEFEFE000C7A0500BB
:104D58000C9E0020684B0500089E00204C4B050067
:104D68002DE9F04300208DB012F086FBCE4D1021C6
:104D7800286036F06DFD286822F050FDCB4CCC49F8
:104D880020604AF09FF820686FF0404137F04CFFF0
:104D980020686FF0404137F05EFF2068092137F046
:104DA8009EFF2068022136F09EFF1021206836F011
:104DB8004FFD286812F060FBBE4CBF4E206013F018
:104DC800EFFE20688C2137F02FFF2068272137F06D
:104DD80042FF20686FF03C0137F0EDFE20686FF06D
:104DE800590137F0FFFE2068092137F078FF1221BA
:104DF800206836F02DFD206823F016F96FF0404149
:104E0800306037F011FF30686FF0404137F023FF12
:104E180030686FF02B0137F0CEFE30684FF0FF316D
:104E280037F0E0FEDFF894923068092137F057FF39
:104E3800A34930684AF0D0F94846376845F031FF51
:104E4800C0F307238DF80400C0F307408DF8053040
:104E58008DF806000199384600229A4F39F029FE4C
:104E680030680022FF2139F033FE002239463068CD
:104E780039F035FE206823F0D7F8934E6FF04041A3
:104E8800306037F0D1FE30686FF0404137F0E3FE14
:104E980030686FF0080137F08EFE30686FF004015B
:104EA80037F0A0FE3068092137F019FF87493068CC
:104EB8004AF092F94846D6F8008045F0F2FEC0F371
:104EC80007238DF80800C0F307408DF809308DF8E6
:104ED8000A0002994046002239F0EBFD30680022B2
:104EE800FF2139F0F5FD00223946306839F0F7FD29
:104EF800206823F099F8764C6FF04041206037F035
:104F080093FE20686FF0404137F0A5FE20681F210E
:104F180037F051FE20684FF0FF3137F063FE20680C
:104F2800092137F0DCFE6B4920684AF055F96A48D8
:104F3800266845F0B6FEC0F307238DF80C00C0F3D1
:104F480007408DF80D308DF80E0003993046002289
:104F580039F0AFFD20680022FF2139F0B9FD0022A9
:104F68003946206839F0BBFD286812F085FA5B4C99
:104F78005B4E206013F014FE2068732137F054FE56
:104F88002068232137F067FE2068232137F013FEBD
:104F980020686FF04F0137F025FE2068092137F0AF
:104FA8009EFE1221206836F053FC206823F03CF85E
:104FB8006FF04041306037F037FE30686FF04041A5
:104FC80037F049FE30686FF0150137F0F4FD3068AE
:104FD800042137F007FE3068092137F080FE414987
:104FE80030684AF0F9F86FF07F40376845F059FEAD
:104FF800C0F307238DF81000C0F307408DF8113077
:105008008DF81200049938460022374F39F051FDC7
:1050180030680022FF2139F05BFD002239463068F4
:1050280039F05DFD206822F0FFFF304E6FF04041FF
:10503800306037F0F9FD30686FF0404137F00BFE13
:1050480030686FF0030137F0B6FDDFF8A4803068F0
:10505800032137F0C7FD3068092137F040FE41468B
:1050680030684AF0B9F86FF07F40D6F8009045F004
:1050780018FEC0F307238DF81400C0F307408DF81D
:1050880015308DF8160005994846002239F011FDB3
:1050980030680022FF2139F01BFD002239463068B4
:1050A80039F01DFD206825E0A09E00209C9E002070
:1050B800F84A0500989E0020949E0020FBFBFF0004
:1050C8006AA60A00388A0500909E00208BA60A006E
:1050D8008C9E00206DA60A00FDFDFF00889E002022
:1050E800849E002070A60A00E0690500809E0020CA
:1050F800FAAF0A0022F098FFCD4E6FF040413060C1
:1051080037F092FD30686FF0404137F0A4FD306809
:105118000C2137F050FD3068042137F063FD30680A
:10512800092137F0DCFDC34930684AF055F86FF0C3
:105138007F40D6F8009045F0B4FDC0F307238DF802
:105148001800C0F307408DF819308DF81A00069939
:105158004846002239F0ADFC30680022FF2139F0C2
:10516800B7FC00223946306839F0B9FC206822F0D3
:105178005BFFB14E6FF04041306037F055FD30684D
:105188006FF0404137F067FD30681F2137F013FD9D
:105198003068032137F026FD3068092137F09FFD7C
:1051A800414630684AF018F86FF07F40D6F8008022
:1051B80045F077FDC0F307238DF81C00C0F30740C6
:1051C8008DF81D308DF81E0007994046002239F0F1
:1051D80070FC30680022FF2139F07AFC0022394641
:1051E800306839F07CFC206822F01EFF934C6FF089
:1051F8004041206037F018FD20686FF0404137F0DB
:105208002AFD2068302137F0D6FC2068032137F0CA
:10521800E9FC2068092137F062FD8949206849F0D6
:10522800DBFF6FF07F40266845F03BFDC0F30723A6
:105238008DF82000C0F307408DF821308DF822004A
:1052480008993046002239F034FC20680022FF21FA
:1052580039F03EFC00223946206839F040FC2868C5
:1052680012F00AF9774C784E206013F099FC206808
:105278006B2137F0D9FC2068252137F0ECFC206839
:105288006FF02D0137F097FC2068452137F0AAFC14
:105298002068092137F023FD1221206836F0D8FA5A
:1052A800206822F0BBFA6949306049F00BFE30688B
:1052B8006FF0404137F0B8FC30686FF0404137F08C
:1052C800CAFC30686FF01C0137F075FC30684FF08D
:1052D800FF3137F087FC3068092137F000FD30686E
:1052E800022136F000FD1021306836F0B1FA20684E
:1052F80022F09AFE564C6FF04041206037F094FC43
:1053080020686FF0404137F0A6FC20680E2137F086
:1053180052FC2068002137F065FC2068092137F02D
:10532800DEFC4C49206849F057FF6FF07F40266843
:1053380045F0B7FCC0F307238DF82400C0F30740FD
:105348008DF825308DF82600434F30460999002204
:1053580039F0AFFB20680022FF2139F0B9FB0022A9
:105368003946206839F0BBFB286812F085F83B4CB9
:105378003B4E206013F014FC20687A2137F054FC6F
:105388002068282137F067FC2068452137F013FC96
:1053980020686FF01D0137F025FC2068092137F0DF
:1053A8009EFC1221206836F053FA206822F036FA63
:1053B8002C49306049F086FD30686FF0404137F085
:1053C80033FC30686FF0404137F045FC30682221EB
:1053D80037F0F1FB30686FF0010137F003FC3068FB
:1053E800092137F07CFC3068022136F07CFC102162
:1053F800306836F02DFA206822F016FE1A4C6FF04D
:105408004041206037F010FC20686FF0404137F0D1
:1054180022FC20686FF0100137F0CDFB20684FF0B8
:10542800FF3137F0DFFB2068092137F058FC1DE019
:105438007C9E002073A60A00789E0020749E00209F
:1054480076A60A00709E00206C9E0020844B050002
:10545800689E0020A4A60A00A8740500649E002087
:10546800609E0020A04B05005C9E00207A492068C1
:1054780049F0B2FE7948266845F013FCC0F30723CB
:105488008DF82800C0F307408DF829308DF82A00E0
:105498000A993046002239F00CFB20680022FF21CF
:1054A80039F016FB00223946206839F018FB2868C5
:1054B80011F0E2FF6A4C6B4E206013F071FB20681C
:1054C8009C2137F0B1FB20681A2137F0C4FB206813
:1054D800102137F070FB2068112137F083FB20681A
:1054E800092137F0FCFB1221206836F0B1F9206859
:1054F80022F094F95C49306049F0E4FC30686FF0C0
:10550800404137F091FB30686FF0404137F0A3FB22
:1055180030686FF03C0137F04EFB30686FF00101E6
:1055280037F060FB3068092137F0D9FB3068022179
:1055380036F0D9FB1021306836F08AF9206822F05D
:1055480073FD4A4C6FF04041206037F06DFB2068D6
:105558006FF0404137F07FFB20680B2137F02BFBC1
:1055680020686FF0010137F03DFB2068092137F012
:10557800B6FB3F49206849F02FFE6FF07F40266850
:1055880045F08FFBC0F307238DF82C00C0F30740CC
:105598008DF82D308DF82E000B993046002239F009
:1055A80088FA20680022FF2139F092FA0022394651
:1055B800206839F094FA286822F030F92D4C2E49E9
:1055C800206049F07FFC20686FF0404137F02CFBE9
:1055D80020686FF0404137F03EFB20687E2137F0AD
:1055E800EAFA2068632137F0FDFA2068092137F0CC
:1055F80076FB2068022136F076FB1021206836F011
:1056080027F9286822F00AF91C4C1D49206049F046
:1056180059FC20686FF0404137F006FB20686FF0B6
:10562800404137F018FB20686FF0840137F0C3FA67
:105638002068642137F0D6FA2068092137F04FFB3B
:105648002068022136F04FFB102120680DB0BDE81C
:10565800F04336F0FDB800BF9DA60A00FEFEFE002E
:10566800589E0020549E0020304B0500509E00207C
:10567800A8A60A004C9E0020684B0500489E002002
:105688004C4B05001FB51CF029FC1F4B186014F08B
:1056980009FC044605201CF0C3FCC0F307238DF861
:1056A80008008DF80930C0F3074300208DF80A3050
:1056B8001CF0B6FCC0F307238DF80D30C0F3074388
:1056C8008DF80E30114B8DF80C00DDE902120093B5
:1056D800204600231DF076FF0146204614F01EFEEA
:1056E800FEF7F6FFFFF73CFBFDF74EFFFDF7EAFA82
:1056F800002011F0C1FE064B1860064B186804B074
:10570800BDE8104039F0A3BE1C9D00207C64050054
:10571800A49E0020449E00202DE9F04FB64BB74EC2
:10572800B74D3360B74BDFF8E082B84C2B60B84B0D
:10573800B84FC8F800302368B74A03F00703022BB4
:105748009DB03A6043D94FF00009B44B03920293DD
:1057580003224B4621464846CDE900992EF08EFE9D
:10576800236803F00703022B31D93368032203931C
:10577800AB4B2146CDE9019348464B46CDF8009006
:105788002EF07CFE236803F00703022B1FD92B6839
:1057980003220393A34B2146CDE9019348464B4688
:1057A800CDF800902EF06AFE236803F00703022B61
:1057B8000DD9D8F80030032203939B4B2146CDE93D
:1057C800019348464B46CDF800902EF057FE3868B6
:1057D8002EF052FE0346002840F018822268510736
:1057E80007D0924A8949CDE90102012200902EF0A2
:1057F80045FE30682EF040FE0346002840F0158232
:105808002268520707D08A4A8049CDE9010201225D
:1058180000902EF033FE28682EF02EFE0346002856
:1058280040F012822268510707D0824A7749CDE9B1
:105838000102012200902EF021FED8F800002EF07F
:105848001BFE0346002840F00E822268520707D04C
:10585800794A6E49CDE90102012200902EF00EFE30
:1058680038682EF009FE002800F00C82DFF8CCA181
:1058780050462EF001FE002800F01782236803F03E
:105888000703022B0CD9DAF80030032203936C4B80
:105898005E49029300231846CDE900332EF0EEFD51
:1058A8004FF008090023CDE9163302238DF8603044
:1058B8009DF86030DAF8082043F002038DF8603074
:1058C800D2F808B01FFA89F301225C4816A9D84714
:1058D800034670B9226802F00702022A09D9594A18
:1058E8004A49CDE90102CDF80C90032200902EF030
:1058F800C5FD09F10109B9F1780FD3D1D8F8000035
:105908002EF0BAFD002835D00A234FF000090321F4
:10591800D8F8000016AACDE916392EF0BEFD0028E9
:10592800236880F2D18113F0060F0BD0464B039009
:10593800CDE9019302224B4648463449CDF8009000
:105948002EF09CFD0721D8F8000016AA2EF0A5FD20
:105958000028236880F2C98113F0060F0AD03B4B58
:1059680003900293002302221846CDE90033274909
:105978002EF084FD28682EF07FFDE0B10A234FF059
:1059880000084021286816AACDE916382EF085FDB2
:105998000028236880F2B98113F0060F0BD02C4B36
:1059A8000390CDE901830222434640461749CDF8CA
:1059B80000802EF063FD38682EF05EFD002864D06C
:1059C80038682EF055FD8046002840F0D981DFF870
:1059D8008490DFF884A04A460D2138682EF06AFDCD
:1059E8005246102138682EF065FD236803F007033E
:1059F800022B4AD932E000BFFC3E05001C9F002064
:105A0800189F0020203F0500149F00200807002051
:105A1800443F0500209F0020D83E0500B0A60A009C
:105A2800CAA60A00E5A60A0000A70A001BA70A00E2
:105A38003CA90A004DA70A0070A70A00DC3D050032
:105A480093A70A00AAA70A00DFA70A002AA80A0043
:105A580073A80A000C9F0020049F0020DAF8043085
:105A680003220693DAF8003040460593D9F804304B
:105A7800AE490493D9F80030CDF800800393AC4BBD
:105A8800CDE9018343462EF0F9FC28682EF0F4FC9A
:105A980010B328682EF0ECFC0746002840F08081FF
:105AA800DFF890820E21424628682EF003FD236815
:105AB80003F00703022B0FD9D8F80430032204930C
:105AC800D8F80030384603939B4B9849CDE90173C9
:105AD80000973B462EF0D2FC30682EF0CDFC002813
