:10000000881C032015930000A992020001930000B0
:100010000193000001930000019300000193000090
:1000200000000000000000000000000091940000AB
:1000300001930000000000002994000001930000DB
:1000400025960000259600002596000025960000C4
:1000500025960000259600002596000025960000B4
:1000600025960000259600002596000025960000A4
:100070002596000025960000259600002596000094
:100080002596000025960000259600002596000084
:100090002596000025960000259600002596000074
:1000A0002596000025960000259600002596000064
:1000B0002596000025960000259600002596000054
:1000C0002596000025960000259600002596000044
:1000D0002596000025960000259600002596000034
:1000E0002596000025960000259600002596000024
:1000F0002596000025960000259600002596000014
:100100002596000025960000259600002596000003
:1001100025960000259600002596000025960000F3
:1001200025960000259600002596000025960000E3
:1001300025960000259600002596000025960000D3
:1001400025960000259600002596000025960000C3
:0401500025960000F0
:1001580081F0004102E000BF83F0004330B54FEA70
:1001680041044FEA430594EA050F08BF90EA020FDD
:100178001FBF54EA000C55EA020C7FEA645C7FEA70
:10018800655C00F0E2804FEA5454D4EB5555B8BF93
:100198006D420CDD2C4480EA020281EA030382EA04
:1001A800000083EA010180EA020281EA0303362D96
:1001B80088BF30BD11F0004F4FEA01314FF4801C69
:1001C8004CEA113102D0404261EB410113F0004F7B
:1001D8004FEA03334CEA133302D0524263EB430332
:1001E80094EA050F00F0A780A4F10104D5F1200ED0
:1001F8000DDB02FA0EFC22FA05F2801841F100012B
:1002080003FA0EF2801843FA05F359410EE0A5F1FE
:1002180020050EF1200E012A03FA0EFC28BF4CF02F
:10022800020C43FA05F3C01851EBE37101F00045E5
:1002380007D54FF0000EDCF1000C7EEB00006EEBF2
:100248000101B1F5801F1BD3B1F5001F0CD349087C
:100258005FEA30004FEA3C0C04F101044FEA4452D3
:1002680012F5800F80F09A80BCF1004F08BF5FEA5A
:10027800500C50F1000041EB045141EA050130BD3A
:100288005FEA4C0C404141EB0101013C28BFB1F54C
:10029800801FE9D291F0000F04BF01460020B1FA97
:1002A80081F308BF2033A3F10B03B3F120020CDA6A
:1002B8000C3208DD02F1140CC2F10C0201FA0CF048
:1002C80021FA02F10CE002F11402D8BFC2F1200CAD
:1002D80001FA02F120FA0CFCDCBF41EA0C01904063
:1002E800E41AA2BF01EB0451294330BD6FEA0404AC
:1002F8001F3C1CDA0C340EDC04F11404C4F1200297
:1003080020FA04F001FA02F340EA030021FA04F3A8
:1003180045EA030130BDC4F10C04C4F1200220FAFF
:1003280002F001FA04F340EA0300294630BD21FA3D
:1003380004F0294630BD94F0000F83F4801306BF03
:1003480081F480110134013D4EE77FEA645C18BFF7
:100358007FEA655C29D094EA050F08BF90EA020F8E
:1003680005D054EA000C04BF1946104630BD91EA86
:10037800030F1EBF0021002030BD5FEA545C05D189
:100388004000494128BF41F0004130BD14F58004C8
:100398003CBF01F5801130BD01F0004545F0FE413C
:1003A80041F470014FF0000030BD7FEA645C1ABF71
:1003B800194610467FEA655C1CBF0B46024650EAA8
:1003C800013406BF52EA033591EA030F41F40021D4
:1003D80030BD00BF90F0000F04BF0021704730B55A
:1003E8004FF4806404F132044FF000054FF000012F
:1003F80050E700BF90F0000F04BF0021704730B5F0
:100408004FF4806404F1320410F0004548BF4042C4
:100418004FF000013EE700BF42004FEAE2014FEA19
:1004280031014FEA02701FBF12F07F4393F07F4FF4
:1004380081F06051704732F07F4208BF704793F0F7
:100448007F4F04BF41F40021704730B54FF460740A
:1004580001F0004521F000411CE700BF50EA01020D
:1004680008BF704730B54FF000050AE050EA0102B6
:1004780008BF704730B511F0004502D5404261EB26
:1004880041014FF4806404F132045FEA915C3FF467
:10049800D8AE4FF003025FEADC0C18BF03325FEA04
:1004A800DC0C18BF033202EBDC02C2F1200300FAB5
:1004B80003FC20FA02F001FA03FE40EA0E0021FADA
:1004C80002F11444BDE600BF70B54FF0FF0C4CF4C8
:1004D800E06C1CEA11541DBF1CEA135594EA0C0F7A
:1004E80095EA0C0F00F0DEF82C4481EA030621EAB5
:1004F8004C5123EA4C5350EA013518BF52EA0335F0
:1005080041F4801143F4801338D0A0FB02CE4FF0A1
:100518000005E1FB02E506F00042E0FB03E54FF0D1
:100528000006E1FB03569CF0000F18BF4EF0010EC9
:10053800A4F1FF04B6F5007F64F5407404D25FEAC5
:100548004E0E6D4146EB060642EAC62141EA555178
:100558004FEAC52040EA5E504FEACE2EB4F1FD0CBA
:1005680088BFBCF5E06F1ED8BEF1004F08BF5FEA38
:10057800500E50F1000041EB045170BD06F00046EA
:1005880046EA010140EA020081EA0301B4EB5C0497
:10059800C2BFD4EB0C0541EA045170BD41F480118F
:1005A8004FF0000E013C00F3AB8014F1360FDEBFB4
:1005B800002001F0004170BDC4F10004203C35DA90
:1005C8000C341BDC04F11404C4F1200500FA05F313
:1005D80020FA04F001FA05F240EA020001F00042B4
:1005E80021F0004110EBD37021FA04F642EB06012A
:1005F8005EEA430E08BF20EAD37070BDC4F10C0454
:10060800C4F1200500FA04F320FA05F001FA04F217
:1006180040EA020001F0004110EBD37041F1000103
:100628005EEA430E08BF20EAD37070BDC4F120050E
:1006380000FA05F24EEA020E20FA04F301FA05F276
:1006480043EA020321FA04F001F0004121FA04F21E
:1006580020EA020000EBD3705EEA430E08BF20EAEE
:10066800D37070BD94F0000F0FD101F00046400028
:1006780041EB010111F4801F08BF013CF7D041EAAA
:10068800060195F0000F18BF704703F000465200AE
:1006980043EB030313F4801F08BF013DF7D043EA7F
:1006A8000603704794EA0C0F0CEA135518BF95EA35
:1006B8000C0F0CD050EA410618BF52EA4306D1D1BC
:1006C80081EA030101F000414FF0000070BD50EADB
:1006D800410606BF1046194652EA430619D094EA65
:1006E8000C0F02D150EA013613D195EA0C0F05D14F
:1006F80052EA03361CBF104619460AD181EA0301A3
:1007080001F0004141F0FE4141F470014FF000005A
:1007180070BD41F0FE4141F4780170BD70B54FF0F5
:10072800FF0C4CF4E06C1CEA11541DBF1CEA135575
:1007380094EA0C0F95EA0C0F00F0A7F8A4EB050457
:1007480081EA030E52EA03354FEA013100F088804E
:100758004FEA03334FF0805545EA131343EA126317
:100768004FEA022245EA111545EA10654FEA0026CC
:100778000EF000419D4208BF964244F1FD0404F585
:10078800407402D25B084FEA3202B61A65EB0305E1
:100798005B084FEA32024FF480104FF4002CB6EB9E
:1007A800020E75EB030E22BFB61A754640EA0C001E
:1007B8005B084FEA3202B6EB020E75EB030E22BF5E
:1007C800B61A754640EA5C005B084FEA3202B6EB9F
:1007D800020E75EB030E22BFB61A754640EA9C005E
:1007E8005B084FEA3202B6EB020E75EB030E22BF2E
:1007F800B61A754640EADC0055EA060E18D04FEAEC
:10080800051545EA16754FEA06164FEAC30343EA8B
:1008180052734FEAC2025FEA1C1CC0D111F4801F58
:100828000BD141EA00014FF000004FF0004CB6E751
:1008380011F4801F04BF01430020B4F1FD0C88BFF0
:10084800BCF5E06F3FF6AFAEB5EB030C04BFB6EBFB
:10085800020C5FEA500C50F1000041EB045170BDEE
:100868000EF0004E4EEA113114EB5C04C2BFD4EB1B
:100878000C0541EA045170BD41F480114FF0000E9F
:10088800013C90E645EA060E8DE60CEA135594EA1B
:100898000C0F08BF95EA0C0F3FF43BAF94EA0C0F1E
:1008A8000AD150EA01347FF434AF95EA0C0F7FF493
:1008B80025AF104619462CE795EA0C0F06D152EAE7
:1008C80003353FF4FDAE1046194622E750EA4106CB
:1008D80018BF52EA43067FF4C5AE50EA41047FF4DC
:1008E8000DAF52EA43057FF4EBAE12E74FEA41023F
:1008F80012F5001215D211D56FF47873B3EB62526A
:1009080012D94FEAC12343F0004343EA505311F090
:10091800004F23FA02F018BF404270474FF0000022
:10092800704750EA013005D111F0004008BF6FF060
:10093800004070474FF00000704700BF4FEA410287
:10094800B2F1E04324BFB3F5001CDCF1FE5C0DD925
:1009580001F0004C4FEAC0024CEA5070B2F1004F6F
:1009680040EB830008BF20F00100704711F0804F72
:1009780021D113F13872BCBF01F00040704741F437
:1009880080114FEA5252C2F11802C2F1200C10FA3B
:100998000CF320FA02F018BF40F001004FEAC1231F
:1009A8004FEAD32303FA0CFC40EA0C0023FA02F3C3
:1009B8004FEA4303CCE77FEA625307D150EA013399
:1009C8001EBF4FF0FE4040F44000704701F0004069
:1009D80040F0FE4040F40000704700BF80F0004047
:1009E80002E000BF81F0004142001FBF5FEA4103FF
:1009F80092EA030F7FEA226C7FEA236C6AD04FEAFF
:100A08001262D2EB1363C1BFD21841404840414043
:100A1800B8BF5B42192B88BF704710F0004F40F4F5
:100A2800000020F07F4018BF404211F0004F41F411
:100A3800000121F07F4118BF494292EA030F3FD0DD
:100A4800A2F1010241FA03FC10EB0C00C3F12003F0
:100A580001FA03F100F0004302D5494260EB40007F
:100A6800B0F5000F13D3B0F1807F06D340084FEAEA
:100A7800310102F10102FE2A51D2B1F1004F40EBDF
:100A8800C25008BF20F0010040EA03007047490047
:100A980040EB0000013A28BFB0F5000FEDD2B0FAE4
:100AA80080FCACF1080CB2EB0C0200FA0CF0AABF07
:100AB80000EBC25052421843BCBFD04018437047A5
:100AC80092F0000F81F4000106BF80F400000132AB
:100AD800013BB5E74FEA41037FEA226C18BF7FEA82
:100AE800236C21D092EA030F04D092F0000F08BFC4
:100AF8000846704790EA010F1CBF0020704712F0AB
:100B08007F4F04D1400028BF40F00040704712F1E9
:100B180000723CBF00F50000704700F0004343F04E
:100B2800FE4040F4000070477FEA226216BF084684
:100B38007FEA23630146420206BF5FEA412390EA47
:100B4800010F40F4800070474FF0000304E000BF3D
:100B580010F0004348BF40425FEA000C08BF7047EE
:100B680043F0964301464FF000001CE050EA0102B2
:100B780008BF70474FF000030AE000BF50EA0102C7
:100B880008BF704711F0004302D5404261EB4101B4
:100B98005FEA010C02BF84460146002043F0B643D9
:100BA80008BFA3F18053A3F50003BCFA8CF2083AFE
:100BB800A3EBC25310DB01FA02FC634400FA02FC07
:100BC800C2F12002BCF1004F20FA02F243EB02000E
:100BD80008BF20F00100704702F1200201FA02FC70
:100BE800C2F1200250EA4C0021FA02F243EB020063
:100BF80008BF20EADC7070474FF0FF0C1CEAD052A7
:100C08001EBF1CEAD15392EA0C0F93EA0C0F6FD067
:100C18001A4480EA010C400218BF5FEA41211ED045
:100C28004FF0006343EA501043EA5111A0FB013131
:100C38000CF00040B1F5000F3EBF490041EAD37106
:100C48005B0040EA010062F17F02FD2A1DD8B3F182
:100C5800004F40EBC25008BF20F00100704790F0F1
:100C6800000F0CF0004C08BF49024CEA502040EA43
:100C780051207F3AC2BFD2F1FF0340EAC250704709
:100C880040F400004FF00003013A5DDC12F1190F47
:100C9800DCBF00F000407047C2F10002410021FAB9
:100CA80002F1C2F1200200FA02FC5FEA310040F1D1
:100CB800000053EA4C0308BF20EADC70704792F04A
:100CC800000F00F0004C02BF400010F4000F013A82
:100CD800F9D040EA0C0093F0000F01F0004C02BF7D
:100CE800490011F4000F013BF9D041EA0C018FE7EC
:100CF8000CEAD15392EA0C0F18BF93EA0C0F0AD0F2
:100D080030F0004C18BF31F0004CD8D180EA010017
:100D180000F00040704790F0000F17BF90F0004FB0
:100D2800084691F0000F91F0004F14D092EA0C0F92
:100D380001D142020FD193EA0C0F03D14B0218BF25
:100D4800084608D180EA010000F0004040F0FE406B
:100D580040F40000704740F0FE4040F44000704707
:100D68004FF0FF0C1CEAD0521EBF1CEAD15392EA86
:100D78000C0F93EA0C0F69D0A2EB030280EA010C76
:100D880049024FEA402037D04FF0805343EA11110F
:100D980043EA10130CF000408B4238BF5B0042F16D
:100DA8007D024FF4000C8B4224BF5B1A40EA0C0012
:100DB800B3EB510F24BFA3EB510340EA5C00B3EB44
:100DC800910F24BFA3EB910340EA9C00B3EBD10F32
:100DD80024BFA3EBD10340EADC001B0118BF5FEA84
:100DE8001C1CE0D1FD2A3FF650AF8B4240EBC250AD
:100DF80008BF20F0010070470CF0004C4CEA50206E
:100E08007F32C2BFD2F1FF0340EAC250704740F4BC
:100E180000004FF00003013A37E792F0000F00F0AE
:100E2800004C02BF400010F4000F013AF9D040EA2C
:100E38000C0093F0000F01F0004C02BF490011F4C0
:100E4800000F013BF9D041EA0C0195E70CEAD153B8
:100E580092EA0C0F08D142027FF47DAF93EA0C0F9F
:100E68007FF470AF084676E793EA0C0F04D14B0283
:100E78003FF44CAF08466EE730F0004C18BF31F035
:100E8800004CCAD130F000427FF45CAF31F000432F
:100E98007FF43CAF5FE700BF4FF0FF3C06E000BFC8
:100EA8004FF0010C02E000BF4FF0010C4DF804CDEB
:100EB8004FEA40024FEA41037FEA226C18BF7FEAFB
:100EC800236C11D001B052EA530C18BF90EA010FFD
:100ED80058BFB2EB030088BFC81738BF6FEAE1708C
:100EE80018BF40F0010070477FEA226C02D15FEA28
:100EF800402C05D17FEA236CE4D15FEA412CE1D094
:100F08005DF8040B704700BF844608466146FFE75A
:100F18000FB5FFF7C9FF002848BF10F1000F0FBD3C
:100F28004DF808EDFFF7F4FF0CBF012000205DF835
:100F380008FB00BF4DF808EDFFF7EAFF34BF0120BA
:100F480000205DF808FB00BF4DF808EDFFF7E0FF53
:100F580094BF012000205DF808FB00BF4DF808EDA4
:100F6800FFF7D2FF94BF012000205DF808FB00BF07
:100F78004DF808EDFFF7C8FF34BF012000205DF8E9
:100F880008FB00BF7BB972B90029BEBF00204FF033
:100F9800004106E008BF00281CBF6FF000414FF079
:100FA800FF3000F057B8ADF1080C6DE904CE002908
:100FB80009DB002B1ADB00F069F8DDF804E0DDE955
:100FC800022304B07047404261EB4101002B1BDB58
:100FD80000F05CF8DDF804E0DDE9022304B04042EB
:100FE80061EB4101524263EB43037047524263EBAA
:100FF800430300F04BF8DDF804E0DDE9022304B018
:10100800404261EB41017047524263EB430300F0F9
:101018003DF8DDF804E0DDE9022304B0524263EB59
:101028004303704753B94AB9002908BF00281CBFB9
:101038004FF0FF314FF0FF3000F00CB8ADF1080C65
:101048006DE904CE00F022F8DDF804E0DDE90223C2
:1010580004B07047704700BF10F8012B11F8013B2E
:10106800012A28BF9A42F7D0D01A7047034611F8D0
:10107800012B03F8012B002AF9D17047034613F816
:10108800012B002AFBD1181A013870472DE9F047C7
:1010980086468C460846089E154674461946002B17
:1010A80040F0C1808542B2FA82F245D94AB1C2F114
:1010B800200300FA02FC954094402EFA03F343EA19
:1010C8000C0C4FEA154EA8B2230CBCFBFEF80EFB25
:1010D80018CC08FB00F943EA0C43994528D9EB18CA
:1010E80008F1FF3704D2994502D9A8F102072B4429
:1010F800A3EB0903A4B2B3FBFEFC0EFB1C330CFBF1
:1011080000F044EA0344A04214D92C190CF1FF332F
:1011180004D2A04202D9ACF102032C44241A43EAB7
:1011280007401EB1D440002334607360BDE8F087E7
:101138004746DDE76346F1E792BB431B01214FEACF
:10114800154EAFB2200CB3FBFEFC0EFB1C330CFBA0
:1011580007F840EA0343984561D9EB180CF1FF30D2
:1011680004D2984502D9ACF102002B44A3EB080342
:10117800A4B2B3FBFEFC0EFB1C330CFB07F744EADE
:101188000344A7424DD92C190CF1FF3304D2A742CE
:1011980002D9ACF102032C44E41B43EA0040C0E747
:1011A800C2F120039540944020FA03F12EFA03F38C
:1011B8004FEA154E9040AFB20343B1FBFEFC0EFB65
:1011C8001C10190C0CFB07F841EA0041884522D98C
:1011D80069180CF1FF3004D2884502D9ACF102003D
:1011E8002944A1EB08019BB2B1FBFEFC0EFB1C11CC
:1011F8000CFB07F743EA01439F420ED9EB180CF1A9
:10120800FF3104D29F4202D9ACF102012B44DB1B0F
:1012180041EA004193E76046E3E76146F7E7604645
:10122800A4E76346B8E7834206D916B90021084601
:101238007CE7C6E900E0F9E7B3FA83F78FB98342A0
:1012480001D3724508D8BEEB020460EB030301200A
:101258009C461EB9002169E73846FAE7C6E9004C02
:10126800F8E7C7F1200CBB400EFA07F522FA0CF498
:101278002EFA0CF1BA401C4320FA0CF3B8404FEA9E
:10128800144901431FFA84FEB3FBF9F809FB18302F
:101298000B0C08FB0EFA43EA00439A4540D9E318C1
:1012A80008F1FF3004D29A4502D9A8F1020023447C
:1012B800A3EB0A0389B2B3FBF9F809FB183308FB5F
:1012C8000EFE41EA03418E452CD9611808F1FF331F
:1012D80004D28E4502D9A8F10203214443EA004012
:1012E800A1EB0E01A0FB02984145CE46434602D32E
:1012F80006D14D4504D20138B9EB020E68EB040360
:10130800002EA7D0B5EB0E0261EB030101FA0CFC2D
:1013180022FA07F3F9404CEA0303C6E9003199E7DA
:101328004046C5E74346D9E770B50D4E7068FFF7EC
:1013380061F809A3D3E90023FFF7F0F90446306800
:101348000D46FFF757F802460B4620462946FEF79A
:1013580005FFFFF7F3FA70BD0000000080842E41FE
:10136800CC9200200000000070B50D4E7068FFF7A9
:1013780041F809A3D3E90023FFF7D0F90446306800
:101388000D46FFF737F802460B4620462946FEF77A
:10139800E5FEFFF7D3FA70BD0000000080842E41FF
:1013A800C49200200000000070B50D4E7068FFF771
:1013B80021F809A3D3E90023FFF7B0F90446306800
:1013C8000D46FFF717F802460B4620462946FEF75A
:1013D800C5FEFFF7B3FA70BD0000000080842E41FF
:1013E800BC920020000000002DE9F843264C074677
:1013F80060680E461546FEF7FDFF21A3D3E90023DA
:10140800FFF78CF9804620688946FEF7F3FF02460D
:101418000B4640464946FEF7A1FEFFF78FFA3860B3
:10142800E068FEF7E7FF16A3D3E90023FFF776F994
:101438008046A0688946FEF7DDFF02460B46404617
:101448004946FEF78BFEFFF779FA30606069FEF7D0
:10145800D1FF0BA3D3E90023FFF760F90646206903
:101468000F46FEF7C7FF02460B4630463946FEF7E1
:1014780075FEFFF763FA2860BDE8F883AFF30080D4
:101488000000000080842E41A4920020000000008B
:101498002DE9F04706460F46904688B040F0BFFF5A
:1014A8004FF47A73A0FB034503FB0155E40B012FAE
:1014B80044EA45444FEAD53507D122462B46304603
:1014C800274926F021FD002012E0D8F804702548AD
:1014D8003946FFF7C1FD70B139462348FFF7BCFD17
:1014E80048B130463A46214926F02AFD6FF00400FB
:1014F80008B0BDE8F087204617A3D3E900232946A2
:10150800FFF740FD05460C4610461946184A0023C9
:10151800FFF738FD80460F46104619464EF6602202
:101528000023FFF72FFD82468946104619464FF4DF
:101538007A720023FFF726FDCDE902A9CDE906233B
:10154800CDE904012A4623463046CDE900870949FA
:1015580026F0DAFCB7E700BF005C260500000000B3
:10156800AF8E0900C08E0900C38E0900CC8E090019
:1015780080EE3600E48E0900D0B504460846FEF732
:1015880039FF0022144BFEF79FFF0022134BFFF791
:10159800C5F80DA3D3E90023FEF796FF06460F46CC
:1015A800FFF7A4F90AA3D3E900232060394630469F
:1015B800FEF78AFFFFF79AF9094B90FBF3F202FB5B
:1015C80013006060D0BD00BF6811F16346DF913F32
:1015D8000000000080842E410080214000408F40A0
:1015E80040420F0000000000D0B504460846FEF750
:1015F80001FF0FA3D3E90023FEF766FF0EA3D3E98B
:101608000023FFF78BF806460F46FFF76FF90CA388
:10161800D3E90023206039463046FEF755FFFFF72F
:1016280065F9094B90FBF3F202FB13006060D0BD33
:1016380000000040019D334000000000C0FFDF4073
:101648000000000080842E4140420F0070B58AB02F
:1016580000F0C6FBFFF768FE0646FFF785FE054665
:10166800FFF7A2FE05AA044604A903A8FFF7BCFEDB
:101678003046FEF7D1FE484ACDE90001102106A800
:1016880023F0E2FD454B06A918683EF003F8444BE9
:1016980006A918683DF0FEFF2846FEF7BDFE414A40
:1016A800CDE90001102106A823F0CEFD3E4B06A986
:1016B80018683DF0EFFF2046FEF7AEFE3B4ACDE945
:1016C8000001102106A823F0BFFD394B06A91868B0
:1016D8003DF0E0FF0399049824F0D6FF3549FFF761
:1016E8008BFA3549FFF73CFB00210446FFF722FC43
:1016F80020B120463149FFF777F904462046FEF726
:101708008BFE2F4ACDE90001102106A823F09CFD8D
:101718002C4B06A918683DF0BDFF20462A49FFF763
:101728001DFC00282CD120462849FFF703FC38BBB4
:1017380020462749FFF7FEFB20BB20462549FFF737
:10174800F9FB08BB20462449FFF7F4FBF0B9204613
:101758002249FFF7EFFBD8B920462149FFF7EAFBFA
:10176800C0B920492046FFF7E5FB1F491F4B002859
:1017780008BF19461E4B18683DF08CFF0AB070BDB3
:101788001C49F7E71C49F5E71C49F3E71C49F1E751
:101798001C49EFE71C49EDE7708A0400DC93002040
:1017A80028940020788A0400349400207F8A04005A
:1017B8001C94002000003443D00F49400000B4437B
:1017C800888A04009C93002000C0A8430000B4410C
:1017D800000087420000E14200801D4300804A4328
:1017E800008077430040924317AB09006D8A0400DC
:1017F8009893002019DE0D00648A04001FDE0D0096
:10180800678A0400948A09006A8A040013B50B4A9F
:101818000B4C106805210130434203F0030300F02C
:10182800030058BF58420023106000934FF496728B
:1018380054F820000FF010F902B010BD7892002083
:101848007C92002038B5214D284640F065FB0446BF
:10185800002836D029681E4825F05CFCAB685B6818
:101868000BB12846984703F035F81A4A1A4B126804
:101878001A601A4A12685A60194A12689A60194A14
:101888001268DA6000F03AF838B1174803685B0765
:1018980003D00121154A26F0DBF8002241F28831F5
:1018A800134817F017FB00224FF4FA61114817F09C
:1018B80011FB17F045FB00214FF4A47040F000FD28
:1018C800F7E70D4825F026FC204638BD202C0400FB
:1018D800AA8A0400109400207C9200206C940020B6
:1018E800D09300203C9300203C030020BF8A0400D2
:1018F8001518000055160000908A04002DE9F04FD5
:1019080087B0BE4BBE4EDFF8FC823360BE4BBF4D86
:10191800BF4CC8F80030BF4BDFF8FC922B6023683F
:10192800BE4903F00703022B02AFC9F800104DD9D6
:10193800EA4688B002AA4FF0030BB94BC2E9053159
:1019480042F810BF00234FF4C651204604F0B6FAFF
:101958002368D54603F00703022B37D988B03368CC
:1019680002AAB049C2E9051342F810BF00234FF498
:10197800C651204604F0A2FA2368D54603F00703AF
:10198800022B23D988B0D8F8003002AAA649C2E9A8
:10199800051342F810BF00234FF4C651204604F047
:1019A8008DFA2368D54603F00703022B0ED988B0B9
:1019B8002B6802AA9D49C2E9051342F810BF00230B
:1019C8004FF4C651204604F079FAD546D9F80000FC
:1019D80025F017F88E4C2368002840F081815B07BA
:1019E80004D00121924A204625F009F8306825F0F4
:1019F80008F82368002840F07B81580704D00121AB
:101A08008C4A834824F0FBFFD8F8000024F0F9FF43
:101A18002368002840F07481590704D00121864AC0
:101A28007B4824F0ECFF286824F0EBFF23680028AB
:101A380040F06E815A0704D00121804A744824F08E
:101A4800DEFFD9F8000024F0DCFF002800F06881F0
:101A5800DFF8ECA1504624F0D4FF002800F0738191
:101A6800236803F00703022B14D9EB4688B0DAF891
:101A7800003002AA7349C2E905134FF40073938337
:101A8800714B42F8103F00234FF4E651604804F0D0
:101A980015FADD464FF0080B0023C7E9013302238E
:101AA8003B733B7BDAF8082043F002033B739368EF
:101AB80063489C4601221FFA8BF3391DE04750B951
:101AC800236803F00703022B05D903215B465F4A0D
:101AD8004F4825F0C6FF0BF1010BBBF1780FDBD1A6
:101AE800D9F8000024F08DFFA0B3D9F8000024F045
:101AF80082FF8246002840F03081554BDFF854B110
:101B08001A460D21D9F8000024F07DFF5A4610210D
:101B1800D9F8000024F077FF22684D4B02F0070245
:101B2800022A17D9D3E900C0DBE90013E9468AB0D5
:101B380002AA53620623DFF820E1C2E90701C2E9DD
:101B480005EC42F8103F4FF443515346304804F037
:101B5800B5F9CD46D8F8000024F053FFE0B1D8F825
:101B6800000024F048FF0346002840F00181DFF818
:101B7800EC900E214A46D8F8000024F044FF236870
:101B880003F00703022B07D9D9E900320321009299
:101B98001F48334A25F06FFF306824F032FF0028D1
:101BA80068D0306824F027FF8146002840F0EA809A
:101BB800DFF8B0800B214246306824F024FF236808
:101BC80003F00703022B55D9D8E900AED8E902C0C3
:101BD800D8E904136E468CB002AAD3620823DFF852
:101BE8008880C2E907ECC2E9058AC2E9090142F81E
:101BF800103F44F2C0014B4638E000BFD42C04002B
:101C0800DC920020D8920020F82C0400D492002006
:101C1800840300201C2D0400E0920020B02C040056
:101C2800E08A0400FA8A0400158B0400308B040053
:101C38004B8B04006C8B04008F8B0400B28B040068
:101C4800B42B0400D58B040003000001EC8B0400C6
:101C5800CC920020C4920020218C0400BC92002069
:101C6800618C0400A4920020998C0400504804F070
:101C780025F9B546286824F0C4FE60B3286824F026
:101C8800BAFE8046002840F088804A4E032132463A
:101C9800286824F0B8FE236803F00703022B1AD93A
:101CA800D6E900ECD6E90250D6E904136C468CB0AC
:101CB80002AAD3620823404EC2E907C5C2E9056EED
:101CC800C2E9090142F8103F44F2C00143463848CE
:101CD80004F0F4F8A54600201437BD46BDE8F08F9F
:101CE80003F00703022B7FF681AE0321334A7AE61D
:101CF80003F00703022B7FF687AE0321304A80E604
:101D080003F00703022B7FF68EAE03212D4A87E6E8
:101D180003F00703022B7FF694AE03212A4A8DE6CF
:101D2800306824F06EFE00287FF492AED8F80000E8
:101D380024F067FE00287FF48BAE286824F061FE4B
:101D480000287FF485AE23685B073FF4C9AE012104
:101D58001E4A174824F053FEC2E6236858073FF48A
:101D6800F9AE012153461A4A114825F07AFEF1E6E8
:101D7800226851073FF410AF0121164A0C4825F09C
:101D880070FE09E723685A073FF474AF0121034640
:101D9800114A074825F065FE6CE723685B079AD06F
:101DA800012103460D4A024825F05BFE93E700BF78
:101DB800840300208C920020E38C04005C8B0400D8
:101DC8007E8B0400A18B0400C48B0400038C0400E8
:101DD800448C04007B8C0400C58C04000F8D040027
:101DE80010B5344C206824F00CFE60B1206824F053
:101DF80002FE031E3FDA30480268520703D0012171
:101E08002E4A25F02EFE2E4C206824F0FAFD60B1F3
:101E1800206824F0F0FD031E38DA274802685407CA
:101E280003D00121274A25F01CFE274C206824F006
:101E3800E8FD60B1206824F0DEFD031E2CDA1E48A0
:101E48000268510703D00121204A25F00AFE204CE0
:101E5800206824F0D6FD60B3206824F0CCFD031E72
:101E680020DA15480268520723D0BDE81040012146
:101E7800184A25F0F6BD20680D21174A24F0C3FD45
:101E88001021164A206824F0BEFDBCE70E21144A32
:101E9800206824F0B8FDC8E70B21124A206824F016
:101EA800B2FDD4E720680321BDE810400E4A24F0B3
:101EB800AABD10BDE092002084030020498C0400D4
:101EC800D8920020808C0400DC920020CA8C040088
:101ED800D4920020148D0400CC920020C4920020DB
:101EE800BC920020A49200208C9200202DE9F04F93
:101EF80000208FB00BF0F2FFD14D1021286029F09F
:101F080005FF28681CF0C8F9CE4CCF4920603DF089
:101F180037FA20686FF040412BF0E4F820686FF042
:101F280040412BF0F6F8206809212BF036F920689B
:101F380002212AF036F91021206829F0E7FE2868E6
:101F48001CF0B0FDC14C6FF0404120602BF0CAF886
:101F580020686FF040412BF0DCF820686FF0020138
:101F68002BF087F820686FF06B012BF099F8206848
:101F780009212BF012F9B64920683DF08BFB6FF070
:101F88007F40266839F0EBF8C0F307238DF804008A
:101F9800C0F307408DF805308DF80600AD4F304688
:101FA800019900222CF0E3FF20680022FF212CF089
:101FB800EDFF0022394620682CF0EFFF286819F061
:101FC800C1FCA54CB72120602BF08CF82068B42107
:101FD8002BF09FF8206809212BF0DFF832212068C8
:101FE8003BF083F928680BF079FF9C4C9C4E2060ED
:101FF8000DF008FB20688C212BF074F82068232151
:102008002BF087F8206803212BF033F820686FF055
:1020180018012BF045F8206809212BF0BEF8122191
:10202800206829F073FE20681CF03CFD6FF04041E9
:1020380030602BF057F830686FF040412BF069F8AA
:1020480030686FF036012BF014F8DFF8189230681A
:1020580004212BF025F8306809212BF09EF8494619
:1020680030683DF017FB6FF07F40D6F8008039F0FC
:1020780076F8C0F307238DF80800C0F307408DF801
:1020880009308DF80A00029940460022DFF8D8810D
:102098002CF06DFF30680022FF212CF077FF002222
:1020A800414630682CF079FF20681CF0FBFC6F4E2D
:1020B8006FF0404130602BF015F830686FF0404108
:1020C8002BF027F830686FF01E012AF0D2FFDFF8F6
:1020D800A0A1306803212AF0E3FF306809212BF022
:1020E8005CF8514630683DF0D5FA6FF07F40D6F87D
:1020F80000B039F034F8C0F307238DF80C00C0F3B2
:1021080007408DF80D308DF80E00039958460022CF
:102118002CF02DFF30680022FF212CF037FF002221
:10212800414630682CF039FF20681CF0BBFC514E4A
:102138006FF0404130602AF0D5FF30686FF04041C1
:102148002AF0E7FF30686FF004012AF092FF306848
:1021580004212AF0A5FF306809212BF01EF8494612
:1021680030683DF097FA6FF07F40D6F800B038F04D
:10217800F6FFC0F307238DF81000C0F307408DF871
:1021880011308DF812000499584600222CF0EFFE09
:1021980030680022FF212CF0F9FE00224146306809
:1021A8002CF0FBFE20681CF07DFC334E6FF04041A4
:1021B80030602AF097FF30686FF040412AF0A9FF9D
:1021C800306814212AF055FF306803212AF068FF8F
:1021D800306809212AF0E1FF514630683DF05AFA8B
:1021E8006FF07F40D6F800A038F0B9FFC0F307239E
:1021F8008DF81400C0F307408DF815308DF81600DF
:102208000599504600222CF0B2FE30680022FF21CA
:102218002CF0BCFE0022414630682CF0BEFE20683F
:102228001CF040FC154C6FF0404120602AF05AFF2A
:1022380020686FF040412AF06CFF20682B211FE0D6
:102248003C93002038930020483704003493002042
:102258007D8A090080560400309300202C930020CA
:1022680028930020EEA70900AC6604002493002000
:10227800C88A0900209300201C930020189300208E
:102288002AF0F7FE206803212AF00AFF20680921B6
:102298002AF083FF494620683DF0FCF96FF07F4043
:1022A800266838F05CFFC0F307238DF81800C0F3E8
:1022B80007408DF819308DF81A000699304600222B
:1022C8002CF055FE20680022FF212CF05FFE002232
:1022D800414620682CF061FE28681CF0E3FBCE4CD8
:1022E8006FF0404120602AF0FDFE20686FF0404109
:1022F8002AF00FFF20686FF004012AF0BAFE206868
:1023080008212AF0CDFE206809212AF046FFC3499A
:1023180020683DF0BFF96FF07F40266838F01FFF56
:10232800C0F307238DF81C00C0F307408DF81D305B
:102338008DF81E000799304600222CF018FE206800
:102348000022FF212CF022FE0022B54920682CF043
:1023580024FE28680BF0C2FDB24CB34E20600DF08D
:1023680051F9206849212AF0BDFE20682D212AF064
:10237800D0FE20686FF079012AF07BFE20683421B6
:102388002AF08EFE206809212AF007FF1221206812
:1023980029F0BCFC20681AF0CFF8352130602AF00B
:1023A800A1FE306821212AF0B4FE30686FF00101E7
:1023B8002AF05FFE306802212AF072FE3068092197
:1023C8002AF0EBFE30684FF4806129F0EAFE102114
:1023D800306829F09BFC47F2FF50D6F8008038F0AF
:1023E800BEFEC0F307238DF82000C0F307408DF828
:1023F80021308DF822000899404600222CF075FD06
:102408000022FF2130682CF07FFD20681CF04AFB79
:10241800864C6FF0404120602AF064FE20686FF01F
:1024280040412AF076FE20686FF001012AF021FE73
:10243800206803212AF034FE206809212AF0ADFE25
:102448007B4920683DF026F96FF07F40266838F018
:1024580086FEC0F307238DF82400C0F307408DF8EB
:1024680025308DF826000999304600222CF07FFD92
:1024780020680022FF212CF089FD002239462068BF
:102488002CF08BFD28680BF029FD6A4C6A4E206001
:102498000DF0B8F8206849212AF024FE20682D2183
:1024A8002AF037FE206803212AF0E3FD206848213E
:1024B8002AF0F6FD206809212AF06FFE1221206813
:1024C80029F024FC20681AF037F8392130602AF006
:1024D80009FE306821212AF01CFE30686FF00301E4
:1024E8002AF0C7FD306802212AF0DAFD3068092198
:1024F8002AF053FE30684FF4806129F052FE102113
:10250800306829F003FC4D48D6F8008038F027FEE3
:10251800C0F307238DF82800C0F307408DF8293051
:102528008DF82A000A99404600222CF0DEFC002291
:10253800FF2130682CF0E8FC20681CF0B3FA404C0E
:102548006FF0404120602AF0CDFD20686FF04041D7
:102558002AF0DFFD20686FF003012AF08AFD206869
:1025680002212AF09DFD206809212AF016FE35492E
:1025780020683DF08FF86FF07F40266838F0EFFD57
:10258800C0F307238DF82C00C0F307408DF82D30D9
:102598008DF82E000B99304600222CF0E8FC2068BC
:1025A8000022FF212CF0F2FC0022394620682CF092
:1025B800F4FC28680BF092FC234C244E20600DF0AC
:1025C80021F8206849212AF08DFD20682D212AF064
:1025D800A0FD20687A212AF04CFD206835212AF0D8
:1025E8005FFD206809212AF0D8FD1221206829F012
:1025F8008DFB206819F0A0FF352130602AF072FDAC
:10260800306821212AF085FD30686FF001012AF039
:1026180030FD306802211BE014930020898A0900EC
:10262800E45B0400109300200C9300200893002022
:10263800968A090004930020009300204848F90076
:10264800FC9200209C8A0900F8920020F492002055
:102658002AF026FD306809212AF09FFD30684FF4E2
:10266800806129F09EFD1021306829F04FFB534806
:10267800D6F8008038F073FDC0F307238DF83000DA
:10268800C0F307408DF831308DF832000C99404680
:1026980000222CF02AFC0022FF2130682CF034FCA8
:1026A80020681CF0FFF9464C6FF0404120602AF08A
:1026B80019FD20686FF040412AF02BFD20686FF06B
:1026C80001012AF0D6FC206803212AF0E9FC2068E1
:1026D80009212AF062FD3B4920683CF0DBFF6FF0DE
:1026E8007F40266838F03BFDC0F307238DF834009F
:1026F800C0F307408DF835308DF836000D99304617
:1027080000222CF034FC20680022FF212CF03EFC33
:102718000022394620682CF040FC28681BF0BCFDDC
:10272800294C2A4920603CF02BFE20686FF040417C
:102738002AF0D8FC20686FF040412AF0EAFC2068B3
:102748007E212AF096FC206863212AF0A9FC2068E3
:1027580009212AF022FD2068022129F022FD1021FA
:10276800206829F0D3FA28681BF096FD184C1949FF
:1027780020603CF005FE20686FF040412AF0B2FC72
:1027880020686FF040412AF0C4FC20686FF0840193
:102798002AF06FFC206864212AF082FC2068092155
:1027A8002AF0FBFC2068022129F0FBFC102120689C
:1027B8000FB0BDE8F04F29F0A9BA00BF0767FF00C6
:1027C800F0920020A28A0900EC920020B837040099
:1027D800E89200209C3704002DE9F04F0020A1B0BA
:1027E8000BF07CFBCF4D1021286029F08FFACE48E2
:1027F8002C6838F0B4FCC0F307238DF80400C0F34C
:1028080007408DF805308DF8060001992046002212
:102818002CF06BFB0022FF2128682CF075FB286840
:102828001BF03AFDC14CC24920603CF0A9FD20686C
:102838006FF040412AF056FC20686FF040412AF0C2
:1028480068FC206809212AF0A8FC2068022129F0E8
:10285800A8FC1021206829F059FA28680BF03EFBE3
:10286800B44CB54E20600CF0CDFE206858212AF0FB
:1028780039FC20681A212AF04CFC20686FF06101AD
:102888002AF0F7FB20686FF059012AF009FC20684C
:1028980009212AF082FC1221206829F037FA2068E1
:1028A8001CF000F96FF0404130602AF01BFC3068E2
:1028B8006FF040412AF02DFC30686FF01C012AF0BF
:1028C800D8FB30686FF003012AF0EAFBDFF86C826E
:1028D800306809212AF061FC994930683CF0DAFE39
:1028E8004046376838F03BFCC0F307238DF80800F2
:1028F800C0F307408DF809308DF80A00DFF84492DC
:102908003846029900222CF032FB30680022FF2161
:102918002CF03CFB0022494630682CF03EFB206836
:102928001CF0C0F8884E6FF0404130602AF0DAFBA6
:1029380030686FF040412AF0ECFB30686FF0080116
:102948002AF097FB30686FF004012AF0A9FB306881
:1029580009212AF022FC7D4930683CF09BFE404664
:10296800376838F0FCFBC0F307238DF80C00C0F380
:1029780007408DF80D308DF80E0003993846002277
:102988002CF0F5FA30680022FF212CF0FFFA002223
:10299800494630682CF001FB20681CF083F86C4C29
:1029A8006FF0404120602AF09DFB20686FF04041A5
:1029B8002AF0AFFB20680F212AF05BFB20686FF03C
:1029C80002012AF06DFB634F206809212AF0E5FB1C
:1029D800614920683CF05EFE3846266838F0BFFB47
:1029E800C0F307238DF81000C0F307408DF81130AD
:1029F8008DF812000499304600222CF0B8FA2068AD
:102A08000022FF212CF0C2FA0022494620682CF04F
:102A1800C4FA28680BF062FA504C514E20600CF052
:102A2800F1FD206873212AF05DFB206823212AF03C
:102A380070FB20686FF07A012AF01BFB20686FF0AA
:102A480049012AF02DFB206809212AF0A6FB122152
:102A5800206829F05BF920681CF024F86FF04041E9
:102A680030602AF03FFB30686FF040412AF051FB9C
:102A780030686FF006012AF0FCFA306803212AF06A
:102A88000FFB306809212AF088FB364930683CF092
:102A980001FE6FF07F40D6F8009038F060FBC0F37D
:102AA80007238DF81400C0F307408DF815308DF812
:102AB8001600059948460022DFF8AC902CF057FA2A
:102AC80030680022FF212CF061FA00224946306864
:102AD8002CF063FA20681BF0E5FF244E6FF04041AC
:102AE80030602AF0FFFA30686FF040412AF011FB9D
:102AF800306806212AF0BDFADFF874A03068032197
:102B08002AF0CEFA306809212AF047FB514630688E
:102B18003CF0C0FD6FF07F40D6F800B038F01FFBE6
:102B280028E000BFD0930020E76E0700CC93002078
:102B380048370400C8930020C4930020FBFBFF0023
:102B4800A78A0900AC660400C0930020C88A09005F
:102B5800BC930020FDFDFF00AA8A0900B89300205D
:102B6800B4930020AD8A090054460400B0930020B5
:102B7800E28D0900C0F307238DF81800C0F3074061
:102B88008DF819308DF81A000699584600222CF055
:102B9800EEF930680022FF212CF0F8F900224946AE
:102BA80030682CF0FAF920681BF07CFFCE4E6FF0ED
:102BB800404130602AF096FA30686FF040412AF0C0
:102BC800A8FA306812212AF054FA306803212AF052
:102BD80067FA306809212AF0E0FAC44930683CF005
:102BE80059FD6FF07F40D6F800B038F0B8FAC0F35E
:102BF80007238DF81C00C0F307408DF81D308DF8B1
:102C08001E000799584600222CF0B1F930680022BE
:102C1800FF212CF0BBF90022494630682CF0BDF9A1
:102C280020681BF03FFFB24E6FF0404130602AF041
:102C380059FA30686FF040412AF06BFA30681F216A
:102C48002AF017FA306803212AF02AFA3068092195
:102C58002AF0A3FA514630683CF01CFD6FF07F4023
:102C6800D6F800A038F07BFAC0F307238DF82000CF
:102C7800C0F307408DF821308DF82200089950469E
:102C880000222CF074F930680022FF212CF07EF924
:102C98000022494630682CF080F920681BF002FFBA
:102CA800944C6FF0404120602AF01CFA20686FF0C5
:102CB80040412AF02EFA20682B212AF0DAF9206800
:102CC80003212AF0EDF9206809212AF066FA8A49D9
:102CD80020683CF0DFFC6FF07F40266838F03FFA50
:102CE800C0F307238DF82400C0F307408DF8253082
:102CF8008DF826000999304600222CF038F9206812
:102D08000022FF212CF042F90022494620682CF0CD
:102D180044F928680BF0E2F8784C794E20600CF002
:102D280071FC2068A1212AF0DDF92068A9212AF088
:102D3800F0F9206806212AF09CF920681E212AF063
:102D4800AFF9206809212AF028FA1221206828F012
:102D5800DDFF20681BF0A6FE6FF0404130602AF0CE
:102D6800C1F930686FF040412AF0D3F93068062184
:102D78002AF07FF930686FF006012AF091F930687F
:102D880009212AF00AFA5F4930683CF083FC404682
:102D9800D6F8009038F0E3F9C0F307238DF828003F
:102DA800C0F307408DF829308DF82A000A99484663
:102DB80000222CF0DCF830680022FF212CF0E6F825
:102DC8000022514930682CF0E8F820681BF06AFEB0
:102DD8004E4E6FF0404130602AF084F930686FF051
:102DE80040412AF096F930686FF002012AF041F963
:102DF800306822212AF054F9306809212AF0CDF9E7
:102E0800434930683CF046FC3846D6F8008038F034
:102E1800A6F9C0F307238DF82C00C0F307408DF8FE
:102E28002D308DF82E000B99404600222CF09FF88B
:102E380030680022FF212CF0A9F8002235493068BB
:102E48002CF0ABF820681BF027FA334C334920608C
:102E58003CF096FA20686FF040412AF043F9206868
:102E68006FF040412AF055F920686FF008012AF008
:102E780000F9206845212AF013F9206809212AF071
:102E88008CF92068022129F08CF91021206828F09B
:102E98003DFF28681BF000FA214C224920603CF0D5
:102EA8006FFA20686FF040412AF01CF920686FF033
:102EB80040412AF02EF920687E212AF0DAF82068AD
:102EC80063212AF0EDF8206809212AF066F92068C4
:102ED800022129F066F91021206828F017FF2868D8
:102EE8001BF0DAF920E000BFAC930020B08A09009B
:102EF800A8930020A4930020B38A0900A09300207F
:102F08009C930020B68A09007471040098930020ED
:102F1800BD8A0900106C04009493002064370400F3
:102F280090930020B8370400D24CD34920603CF07D
:102F380027FA20686FF040412AF0D4F820686FF033
:102F480040412AF0E6F820686FF084012AF091F8F1
:102F5800206864212AF0A4F8206809212AF01DF9C4
:102F68002068022129F01DF91021206828F0CEFEE2
:102F780028680AF0B3FFC14CC14D20600CF042FB39
:102F88002068AE212AF0AEF8206867212AF0C1F83F
:102F9800206879212AF06DF820686FF057012AF02F
:102FA8007FF8206809212AF0F8F81221206828F013
:102FB800ADFE20681BF076FD6FF0404128602AF0D6
:102FC80091F828686FF040412AF0A3F828686FF05C
:102FD80041012AF04EF828686FF003012AF060F8E2
:102FE800286809212AF0D9F8A64928683CF052FB3C
:102FF80038462E6838F0B3F8C0F307238DF8300050
:10300800C0F307408DF831308DF832000C99304606
:1030180000222BF0ACFF0022FF2128682BF0B6FF1E
:1030280020680AF05BFF984D512128602AF05AF871
:10303800286830212AF06DF828686FF005012AF019
:1030480018F828686FF001012AF02AF82868092181
:103058002AF0A3F81021286828F058FE8B482E681B
:1030680038F07DF8C0F307238DF83400C0F307402B
:103078008DF835308DF836000D99304600222BF04A
:1030880034FF0022FF2128682BF03EFF4AF6FF603C
:103098002E6838F064F8C0F307238DF83800C0F3C1
:1030A80007408DF839308DF83A000E9900223046E5
:1030B8002BF031FF00202E6838F051F8C0F30723B9
:1030C8008DF83C00C0F307408DF83D308DF83E0088
:1030D8000F99304600222BF034FF0022FF21286888
:1030E8002BF03EFF20681BF0DDFC694E6FF040417D
:1030F800306029F0F7FF30686FF040412AF009F896
:1031080030686FF01E0129F0B4FFDFF888A130683D
:103118006FF0110129F0C4FF306809212AF03DF849
:10312800514630683CF0B6FA6FF07F40356838F0A9
:1031380016F8C0F307238DF84000C0F307408DF858
:1031480041308DF84200109928460022524D2BF04C
:103158000EFF30680022FF212BF018FF00222946BD
:1031680030682BF01AFF20681BF09CFC4B4E6FF068
:103178004041306029F0B6FF30686FF0404129F0D7
:10318800C8FF3068072129F074FF454F30686FF099
:10319800100129F085FF3068092129F0FEFF394622
:1031A80030683CF077FA6FF07F40D6F8008037F04F
:1031B800D6FFC0F307238DF84400C0F307408DF80D
:1031C80045308DF846001199404600222BF0CFFE7D
:1031D80030680022FF212BF0D9FE002229463068F2
:1031E8002BF0DBFE20681BF05DFC2E4E6FF040419B
:1031F800306029F077FF30686FF0404129F089FF8F
:1032080030686FF01E0129F034FFDFF89C903068B9
:103218006FF0010129F044FF3068092129F0BDFF52
:10322800494630683CF036FA6FF07F40D6F80080A7
:1032380037F095FFC0F307238DF84800C0F3074027
:103248008DF849308DF84A001299404600222BF03B
:103258008EFE30680022FF212BF098FE00222946BE
:1032680030682BF09AFE20681BF01CFC0F4E6FF0A4
:1032780040411DE08C9300209C3704008893002077
:1032880084930020C38A090080930020F06C090011
:103298007C930020C78A0900F0400400789300203E
:1032A800CA8A090074930020CF8A0900709300200D
:1032B800306029F017FF30686FF0404129F029FF8E
:1032C8003068072129F0D5FE30686FF0010129F038
:1032D800E7FE3068092129F060FF394630683CF084
:1032E800D9F96FF07F40D6F8008037F038FFC0F387
:1032F80007238DF84C00C0F307408DF84D308DF84A
:103308004E001399404600222BF031FE306800220F
:10331800FF212BF03BFE0022294630682BF03DFEB2
:1033280020681BF0BFFBD74E6FF04041306029F09A
:10333800D9FE30686FF0404129F0EBFE30686FF03D
:103348001D0129F096FEDFF8408330680D2129F031
:10335800A7FE3068092129F020FF414630683CF07B
:1033680099F96FF07F40D6F800B037F0F8FEC0F357
:1033780007238DF85000C0F307408DF851308DF8C1
:1033880052001499584600222BF0F1FD30680022B3
:10339800FF212BF0FBFD0022294630682BF0FDFDB4
:1033A80020681BF07FFBB94C6FF04041206029F08A
:1033B80099FE20686FF0404129F0ABFE2068072194
:1033C80029F057FE20680D2129F06AFE206809219E
:1033D80029F0E3FE394620683CF05CF96FF07F4045
:1033E800266837F0BCFEC0F307238DF85400C0F3FD
:1033F80007408DF855308DF8560015993046002253
:103408002BF0B5FD20680022FF212BF0BFFD002224
:10341800294620682BF0C1FD9D4B9E4C18680AF088
:103428005DFD20600CF0EEF82068AE2129F05AFE10
:103438002068672129F06DFE2068792129F019FE9E
:1034480020686FF0250129F02BFE2068092129F05A
:10345800A4FE1221206828F059FC20681BF022FBEA
:103468008D4E6FF04041306029F03CFE30686FF0BF
:10347800404129F04EFE30686FF0410129F0F9FD16
:1034880030686FF0020129F00BFE3068092129F03D
:1034980084FE824930683CF0FDF88148D6F800B0D7
:1034A80037F05DFEC0F307238DF85800C0F30740DE
:1034B8008DF859308DF85A001699584600222BF08D
:1034C80056FD0022FF2130682BF060FD20680AF0CD
:1034D80005FD744E5121306029F004FE306830211A
:1034E80029F017FE30686FF0050129F0C2FD306839
:1034F8006FF0010129F0D4FD3068092129F04DFE53
:103508001021306828F002FC6748D6F800B037F080
:1035180026FEC0F307238DF85C00C0F307408DF842
:103528005D308DF85E001799584600222BF0DDFCBF
:103538000022FF2130682BF0E7FC4AF6FF60D6F83E
:1035480000B037F00CFEC0F307238DF86000C0F31D
:1035580007408DF861308DF86200189900225846AE
:103568002BF0D9FC0020D6F800B037F0F8FDC0F3F6
:1035780007238DF86400C0F307408DF865308DF897
:1035880066001999584600222BF0DBFC0022FF2127
:1035980030682BF0E5FC20681BF084FA434E6FF08E
:1035A8004041306029F09EFD30686FF0404129F0BD
:1035B800B0FD30686FF01C0129F05BFD30686FF0DA
:1035C800100129F06DFD3068092129F0E6FD51460A
:1035D80030683CF05FF86FF07F40D6F800A037F015
:1035E800BEFDC0F307238DF86800C0F307408DF8CF
:1035F80069308DF86A001A99504600222BF0B7FC02
:1036080030680022FF212BF0C1FC002229463068D7
:103618002BF0C3FC20681BF045FA254E6FF04041A3
:10362800306029F05FFD30686FF0404129F071FD8E
:103638003068072129F01DFD30686FF00F0129F06F
:103648002FFD3068092129F0A8FD394630683CF083
:1036580021F86FF07F40D6F800A037F080FDC0F366
:1036680007238DF86C00C0F307408DF86D308DF896
:103678006E001B99504600222BF079FC306800221E
:1036880018E000BF6C930020D28A090068930020DC
:10369800D09300206493002060930020D58A09000D
:1036A800FDFDFF005C930020F06C0900589300209A
:1036B80054930020FF212BF069FC00222946306832
:1036C8002BF06BFC20681BF0EDF98F4E6FF040413A
:1036D800306029F007FD30686FF0404129F019FD8E
:1036E80030686FF01C0129F0C4FC30686FF00101EC
:1036F80029F0D6FC3068092129F04FFD4946306889
:103708003BF0C8FF6FF07F40D6F8009037F027FDF8
:10371800C0F307238DF87000C0F307408DF87130AF
:103728008DF872001C99484600222BF020FC306866
:103738000022FF212BF02AFC0022294630682BF0BA
:103748002CFC20681BF0AEF9704E6FF040413060E1
:1037580029F0C8FC30686FF0404129F0DAFC306885
:10376800072129F086FC30686FF0010129F098FCE8
:103778003068092129F011FD394630683BF08AFF8D
:103788006FF07F40D6F8009037F0E9FCC0F30723CC
:103798008DF87400C0F307408DF875308DF8760009
:1037A8001D99484600222BF0E2FB30680022FF21D9
:1037B8002BF0ECFB0022294630682BF0EEFB20684A
:1037C8001BF070F9524E6FF04041306029F08AFCCE
:1037D80030686FF0404129F09CFC30686FF01C01A4
:1037E80029F047FC30680D2129F05AFC306809217E
:1037F80029F0D3FC414630683BF04CFF6FF07F4026
:10380800D6F8008037F0ABFCC0F307238DF87800BA
:10381800C0F307408DF879308DF87A001E9940463C
:1038280000222BF0A4FB30680022FF212BF0AEFB16
:103838000022294630682BF0B0FB20681BF032F9D3
:10384800344E6FF04041306029F04CFC30686FF026
:10385800404129F05EFC3068072129F00AFC3068F5
:103868000D2129F01DFC3068092129F096FC394604
:1038780030683BF00FFF6FF07F40376837F06FFC20
:10388800C0F307238DF87C00C0F307408DF87D3026
:103898008DF87E001F99384600222BF068FB3068AF
:1038A8000022FF212BF072FB0022294630682BF002
:1038B80074FB20681AF0F0FC174C184920603BF0A4
:1038C8005FFD20686FF0404129F00CFC20686FF024
:1038D800404129F01EFC20686FF0410129F0C9FB26
:1038E80020686FF01A0129F0DBFB2068092129F014
:1038F80054FC2068022128F054FC1021206821B0D3
:10390800BDE8F04F28F002BA509300204C930020F5
:103918004893002044930020409300200C38040072
:103928002DE9F04300208BB00AF0D8FACE4E1021D2
:10393800306028F0EBF930681AF0AEFCCB4CCC497B
:1039480020603BF01DFD20686FF0404129F0CAFB64
:1039580020686FF0404129F0DCFB2068092129F03C
:103968001CFC2068022128F01CFC1021206828F08B
:10397800CDF930680AF0B2FABE4CBF4D20600BF0AA
:1039880041FE20688C2129F0ADFB20683C2129F0FC
:10399800C0FB2068062129F06CFB20686FF0080145
:1039A80029F07EFB2068092129F0F7FB1221206805
:1039B80028F0ACF920681BF075F86FF040412860DA
:1039C80029F090FB28686FF0404129F0A2FB286895
:1039D8006FF02B0129F04DFB28684FF0FF3129F0DB
:1039E8005FFBDFF898922868092129F0D6FBA449E3
:1039F80028683BF04FFE48462F6837F0B0FBC0F30D
:103A080007238DF80400C0F307408DF805308DF8C2
:103A180006000199384600229A4F2BF0A8FA286828
:103A28000022FF212BF0B2FA0022394628682BF039
:103A3800B4FA20681BF036F8934D6FF040412860C7
:103A480029F050FB28686FF0404129F062FB286894
:103A58006FF0080129F00DFB28686FF0040129F0C8
:103A68001FFB2868092129F098FB884928683BF042
:103A780011FE4846D5F8008037F071FBC0F30723E4
:103A88008DF80800C0F307408DF809308DF80A005A
:103A98000299404600222BF06AFA28680022FF218A
:103AA8002BF074FA0022394628682BF076FA206841
:103AB8001AF0F8FF764C6FF04041206029F012FBB5
:103AC80020686FF0404129F024FB20681F2129F06D
:103AD800D0FA20684FF0FF3129F0E2FA2068092176
:103AE80029F05BFB6B4920683BF0D4FD6A482568E8
:103AF80037F035FBC0F307238DF80C00C0F30740FF
:103B08008DF80D308DF80E000399284600222BF011
:103B18002EFA20680022FF212BF038FA00223946BD
:103B280020682BF03AFA30680AF0D8F95B4C5C4D03
:103B380020600BF067FD2068732129F0D3FA206814
:103B4800232129F0E6FA20686FF00B0129F091FA99
:103B580020681A2129F0A4FA2068092129F01DFB00
:103B68001221206828F0D2F820681AF09BFF6FF025
:103B78004041286029F0B6FA28686FF0404129F0E2
:103B8800C8FA28686FF0150129F073FA286804212B
:103B980029F086FA2868092129F0FFFA414928689E
:103BA8003BF078FD6FF07F402F6837F0D8FAC0F30C
:103BB80007238DF81000C0F307408DF811308DF8F9
:103BC8001200049938460022374F2BF0D0F92868A4
:103BD8000022FF212BF0DAF90022394628682BF061
:103BE800DCF920681AF05EFF304D6FF04041286024
:103BF80029F078FA28686FF0404129F08AFA286895
:103C08006FF0030129F035FADFF8A4802868032152
:103C180029F046FA2868092129F0BFFA41462868A0
:103C28003BF038FD6FF07F40D5F8009037F097FAF9
:103C3800C0F307238DF81400C0F307408DF8153042
:103C48008DF816000599484600222BF090F928684F
:103C58000022FF212BF09AF90022394628682BF020
:103C68009CF9206826E000BF109400200C940020E6
:103C7800483704000894002004940020FBFBFF0050
:103C8800A78A09007471040000940020C88A0900FA
:103C9800FC930020AA8A0900FDFDFF00F89300208C
:103CA800F4930020AD8A09001C510400F093002011
:103CB800E28D09001AF0F6FEAF4D6FF04041286022
:103CC80029F010FA28686FF0404129F022FA286894
:103CD8000C2129F0CEF92868042129F0E1F9286897
:103CE800092129F05AFAA54928683BF0D3FC6FF05E
:103CF8007F40D5F8009037F032FAC0F307238DF8EB
:103D08001800C0F307408DF819308DF81A0006998D
:103D1800484600222BF02BF928680022FF212BF0BF
:103D280035F90022394628682BF037F920681AF04F
:103D3800B9FE934D6FF04041286029F0D3F9286807
:103D48006FF0404129F0E5F928681F2129F091F921
:103D58002868032129F0A4F92868092129F01DFA07
:103D6800414628683BF096FC6FF07F40D5F800800C
:103D780037F0F5F9C0F307238DF81C00C0F30740AE
:103D88008DF81D308DF81E000799404600222BF053
:103D9800EEF828680022FF212BF0F8F800223946B7
:103DA80028682BF0FAF820681AF07CFE754C6FF042
:103DB8004041206029F096F920686FF0404129F0D1
:103DC800A8F92068302129F054F92068032129F046
:103DD80067F92068092129F0E0F96B4920683BF070
:103DE80059FC6FF07F40256837F0B9F9C0F3072315
:103DF8008DF82000C0F307408DF821308DF822009F
:103E08000899284600222BF0B2F820680022FF21EA
:103E18002BF0BCF80022394620682BF0BEF8306839
:103E28000AF05CF8594C20600BF0ECFB20685B2131
:103E380029F058F92068282129F06BF92068022117
:103E480029F017F920686FF0540129F029F9206842
:103E5800092129F0A2F91221206827F057FF2068CC
:103E68001AF020FE4A4C6FF04041206029F03AF9E0
:103E780020686FF0404129F04CF920686FF0050187
:103E880029F0F7F820684FF0FF3129F009F9206888
:103E9800092129F082F93F4920683BF0FBFB3E48A5
:103EA800256837F05CF9C0F307238DF82400C0F3C8
:103EB80007408DF825308DF82600099928460022FC
:103EC8002BF055F820680022FF212BF05FF8002224
:103ED800324920682BF061F830681AF0DDF9304C6F
:103EE800304920603BF04CFA20686FF0404129F0DF
:103EF800F9F820686FF0404129F00BF920687E211D
:103F080029F0B7F82068632129F0CAF82068092148
:103F180029F043F92068022128F043F9102120688C
:103F280027F0F4FE30681AF0B7F91F4C1F492060DB
:103F38003BF026FA20686FF0404129F0D3F820685A
:103F48006FF0404129F0E5F820686FF0840129F00E
:103F580090F82068642129F0A3F82068092129F045
:103F68001CF92068022128F01CF9102120680BB0E8
:103F7800BDE8F04327F0CABEEC930020B08A0900E0
:103F8800E8930020E4930020B38A0900E09300201E
:103F9800DC930020DA8A0900FEFEFE004861040076
:103FA800D8930020B8370400D49300209C3704002D
:103FB8002DE9F04300208DB009F090FFCE4D10217F
:103FC800286027F0A3FE28681AF066F9CB4CCC4984
:103FD80020603BF0D5F920686FF0404129F082F865
:103FE80020686FF0404129F094F82068092129F0F1
:103FF800D4F82068022128F0D4F81021206827F08E
:1040080085FE286809F06AFFBE4CBF4E20600BF0A1
:10401800F9FA20688C2129F065F82068272129F011
:1040280078F820686FF03C0129F023F820686FF0D9
:10403800590129F035F82068092129F0AEF8122134
:10404800206827F063FE20681AF02CFD6FF04041CD
:10405800306029F047F830686FF0404129F059F88E
:1040680030686FF02B0129F004F830684FF0FF3109
:1040780029F016F8DFF894923068092129F08DF8B4
:10408800A34930683BF006FB4846376837F067F8C5
:10409800C0F307238DF80400C0F307408DF80530FE
:1040A8008DF806000199384600229A4F2AF05FFFE2
:1040B80030680022FF212AF069FF00223946306863
:1040C8002AF06BFF20681AF0EDFC934E6FF0404128
:1040D800306029F007F830686FF0404129F019F88E
:1040E80030686FF0080128F0C4FF30686FF00401F1
:1040F80028F0D6FF3068092129F04FF88749306841
:104108003BF0C8FA4846D6F8008037F028F8C0F3E4
:1041180007238DF80800C0F307408DF809308DF8A3
:104128000A000299404600222AF021FF3068002246
:10413800FF212AF02BFF0022394630682AF02DFF94
:1041480020681AF0AFFC764C6FF04041206028F0F0
:10415800C9FF20686FF0404128F0DBFF20681F216D
:1041680028F087FF20684FF0FF3128F099FF20687A
:10417800092129F012F86B4920683BF08BFA6A484C
:10418800266836F0ECFFC0F307238DF80C00C0F367
:1041980007408DF80D308DF80E0003993046002247
:1041A8002AF0E5FE20680022FF212AF0EFFE002217
:1041B800394620682AF0F1FE286809F08FFE5B4C2A
:1041C8005B4E20600BF01EFA2068732128F08AFFEE
:1041D8002068232128F09DFF2068232128F049FF2B
:1041E80020686FF04F0128F05BFF2068092128F054
:1041F800D4FF1221206827F089FD20681AF052FCAC
:104208006FF04041306028F06DFF30686FF040413A
:1042180028F07FFF30686FF0150128F02AFF30681A
:10422800042128F03DFF3068092128F0B6FF4149F4
:1042380030683BF02FFA6FF07F40376836F08FFF19
:10424800C0F307238DF81000C0F307408DF8113034
:104258008DF81200049938460022374F2AF087FE5D
:1042680030680022FF212AF091FE0022394630688A
:104278002AF093FE20681AF015FC304E6FF040418A
:10428800306028F02FFF30686FF0404128F041FF80
:1042980030686FF0030128F0ECFEDFF8A480306886
:1042A800032128F0FDFE3068092128F076FF4146F9
:1042B80030683BF0EFF96FF07F40D6F8009036F0A9
:1042C8004EFFC0F307238DF81400C0F307408DF8A4
:1042D80015308DF816000599484600222AF047FE49
:1042E80030680022FF212AF051FE0022394630684A
:1042F8002AF053FE206825E06C9400206894002082
:10430800483704006494002060940020FBFBFF0001
:10431800A78A0900747104005C940020C88A090007
:1043280058940020AA8A0900FDFDFF00549400203B
:1043380050940020AD8A09001C5104004C940020C0
:10434800E28D09001AF0AEFBCD4E6FF040413060AF
:1043580028F0C8FE30686FF0404128F0DAFE306877
:104368000C2128F086FE3068042128F099FE306878
:10437800092128F012FFC34930683BF08BF96FF030
:104388007F40D6F8009036F0EAFEC0F307238DF898
:104398001800C0F307408DF819308DF81A000699F7
:1043A800484600222AF0E3FD30680022FF212AF067
:1043B800EDFD0022394630682AF0EFFD20681AF03A
:1043C80071FBB14E6FF04041306028F08BFE3068D1
:1043D8006FF0404128F09DFE30681F2128F049FE0B
:1043E8003068032128F05CFE3068092128F0D5FEEA
:1043F800414630683BF04EF96FF07F40D6F80080B8
:1044080036F0ADFEC0F307238DF81C00C0F307405B
:104418008DF81D308DF81E000799404600222AF0BD
:10442800A6FD30680022FF212AF0B0FD002239469F
:1044380030682AF0B2FD20681AF034FB934C6FF014
:104448004041206028F04EFE20686FF0404128F07F
:1044580060FE2068302128F00CFE2068032128F037
:104468001FFE2068092128F098FE894920683BF042
:1044780011F96FF07F40266836F071FEC0F307230C
:104488008DF82000C0F307408DF821308DF8220008
:104498000899304600222AF06AFD20680022FF2190
:1044A8002AF074FD0022394620682AF076FD286833
:1044B80009F014FD774C784E20600BF0A3F82068C3
:1044C8006B2128F00FFE2068252128F022FE2068A5
:1044D8006FF02D0128F0CDFD2068452128F0E0FD82
:1044E8002068092128F059FE1221206827F00EFCC7
:1044F800206819F0D1FE694930603AF041FF306810
:104508006FF0404128F0EEFD30686FF0404128F030
:1045180000FE30686FF01C0128F0ABFD30684FF0EA
:10452800FF3128F0BDFD3068092128F036FE3068DB
:10453800022127F036FE1021306827F0E7FB2068BB
:104548001AF0B0FA564C6FF04041206028F0CAFDCE
:1045580020686FF0404128F0DCFD20680E2128F02B
:1045680088FD2068002128F09BFD2068092128F09B
:1045780014FE4C4920683BF08DF86FF07F402668A8
:1045880036F0EDFDC0F307238DF82400C0F3074093
:104598008DF825308DF82600434F304609990022C2
:1045A8002AF0E5FC20680022FF212AF0EFFC002217
:1045B800394620682AF0F1FC286809F08FFC3B4C4A
:1045C8003B4E20600BF01EF820687A2128F08AFD07
:1045D8002068282128F09DFD2068452128F049FD04
:1045E80020686FF01D0128F05BFD2068092128F084
:1045F800D4FD1221206827F089FB206819F04CFEB1
:104608002C4930603AF0BCFE30686FF0404128F029
:1046180069FD30686FF0404128F07BFD3068222149
:1046280028F027FD30686FF0010128F039FD306867
:10463800092128F0B2FD3068022127F0B2FD1021CF
:10464800306827F063FB20681AF02CFA1A4C6FF0D8
:104658004041206028F046FD20686FF0404128F076
:1046680058FD20686FF0100128F003FD20684FF016
:10467800FF3128F015FD2068092128F08EFD1DE086
:1046880048940020B08A09004494002040940020F7
:10469800B38A09003C94002038940020D4370400E1
:1046A80034940020E18A0900E45B0400309400207F
:1046B8002C940020F0370400289400207A492068C0
:1046C8003AF0E8FF7948266836F049FDC0F3072339
:1046D8008DF82800C0F307408DF829308DF82A009E
:1046E8000A99304600222AF042FC20680022FF2165
:1046F8002AF04CFC0022394620682AF04EFC286833
:1047080009F0ECFB6A4C6B4E20600AF07BFF2068D6
:104718009C2128F0E7FC20681A2128F0FAFC206880
:10472800102128F0A6FC2068112128F0B9FC206887
:10473800092128F032FD1221206827F0E7FA2068C5
:1047480019F0AAFD5C4930603AF01AFE30686FF043
:10475800404128F0C7FC30686FF0404128F0D9FC90
:1047680030686FF03C0128F084FC30686FF001017C
:1047780028F096FC3068092128F00FFD30680221E6
:1047880027F00FFD1021306827F0C0FA20681AF0D2
:1047980089F94A4C6FF04041206028F0A3FC20685A
:1047A8006FF0404128F0B5FC20680B2128F061FC2F
:1047B80020686FF0010128F073FC2068092128F0B7
:1047C800ECFC3F4920683AF065FF6FF07F402668AF
:1047D80036F0C5FCC0F307238DF82C00C0F3074062
:1047E8008DF82D308DF82E000B99304600222AF0D6
:1047F800BEFB20680022FF212AF0C8FB00223946B0
:1048080020682AF0CAFB286819F046FD2D4C2E496D
:1048180020603AF0B5FD20686FF0404128F062FC56
:1048280020686FF0404128F074FC20687E2128F051
:1048380020FC2068632128F033FC2068092128F037
:10484800ACFC2068022127F0ACFC1021206827F07E
:104858005DFA286819F020FD1C4C1D4920603AF0CB
:104868008FFD20686FF0404128F03CFC20686FF015
:10487800404128F04EFC20686FF0840128F0F9FBD5
:104888002068642128F00CFC2068092128F085FCA8
:104898002068022127F085FC102120680DB0BDE8B2
:1048A800F04327F033BA00BFDA8A0900FEFEFE00A3
:1048B8002494002020940020803704001C940020B9
:1048C800E58A090018940020B837040014940020E1
:1048D8009C3704001FB514F033F81F4B18600CF018
:1048E80013F80446052014F0CDF8C0F307238DF81B
:1048F80008008DF80930C0F3074300208DF80A300E
:1049080014F0C0F8C0F307238DF80D30C0F3074347
:104918008DF80E30114B8DF80C00DDE90212009372
:104928002046002315F080FB014620460CF028FAAB
:10493800FEF7F6FFFFF73CFBFDF74EFFFDF7D6FA53
:10494800002009F0CBFA064B1860064B186804B033
:10495800BDE810402AF0D9BFE4920020B84B04000B
:1049680070940020109400202DE9F04F046885B061
:10497800A2686448B2F5004F2CBF08230423551CD5
:104988000833A5EBD305B5FA85F5C5F120052B4607
:104998008946214622F0BEFB5B4822F0BBFB00267D
:1049A8004FF0010B04F10C0A5AF8043F53B30027E7
:1049B8001946B84620460393029122F01DFB804514
:1049C80038BF804602990322204622F00AFB039B47
:1049D8000146834207F10107ECD1A3680BFA06F2FE
:1049E800B3F5004F34BF042108214FEAC80308314A
:1049F800013ACDE9008302EBD1023B4631464348F8
:104A080022F088FB0136B542CED1B9F1000F36D07D
:104A18003F4822F07FFB0025DFF8F8800122294675
:104A2800204622F0DEFA29460746204622F0E4FA1C
:104A3800FB0706461FD4A368B3F5004F1DD3012812
:104A480014BF2D272E2700222946204622F0C9FA16
:104A5800AB19281A0193009033463A462946404636
:104A680022F058FBA3689D4209D02946204622F02F
:104A7800C3FA0544D2E72A27E5E72D27E3E7002113
:104A8800204622F0B9FA002605463746D4F80880B1
:104A980045451ED3B8F5004F34BF042108214FF413
:104AA8007A7001EBC801BB19CB1A4A0800FB032234
:104AB8000A20B2FBF1F2B2FBF0F100FB112216481A
:104AC800CDE900123246394622F024FB05B0BDE894
:104AD800F08F01222946204622F083FA8146294692
:104AE800204622F089FA19F0010F03D006EBC00620
:104AF8000544CDE7B8F5004F01D30128F8D007EBFE
:104B0800C007F5E7ED8A09001A8B0900D58B090063
:104B1800EF8B0900FD8B09002B8C09002DE9F04F64
:104B280091B0009302F004030293C2F3C20301336D
:104B3800840705460E46DDF868800392059340F029
:104B4800BB81041D30B1072909D86FF01B0011B0D3
:104B5800BDE8F08F01F007063444C6F10806009B53
:104B68004FF000094FF0040A591E4FF0FF334F462B
:104B78000193CB465346CDF810900DB1009A2260B0
:104B88000598002800F3E8809848009A824203D3E9
:104B980097488242C0F0E080039AA4EB050E920782
:104BA8004FEA9E0000F103810F2F00F2B180002D23
:104BB80000F0058107F140020DEB020C019A0CF898
:104BC800200C0CF8102C049801300490E7E07A28A7
:104BD8005DD84B280ED8472859D829282DD82528FC
:104BE80052D054D820287AD02338D0F1000B4BEB80
:104BF800000B74E04C382E2849D8DFE800F07048E4
:104C0800484848484848484848484B484848484819
:104C180048484859484B4B595959704B6D4870484A
:104C2800184B184848827F4B48484B487F00002063
:104C38004FF0000B4FF0040A38E001222A38C0B2C6
:104C480002FA00F010EA0E0F49D110F0625C2FD181
:104C580010EA020B43D06046013C5444B4FBFAF41A
:104C68000AFB04F4002D61D0A3EB050CA444B44561
:104C78003FF66BAF002868D1042B47D158F8043BA6
:104C88002360042304342AE0019A013A01924FF088
:104C9800000B24E011F8010C6C2834D1002011F825
:104CA800023C83466C2BC5D14FF0080A5346D3E724
:104CB80008F1070828F00708073424F00704F8E883
:104CC80002AB35B106982044B0423FF63EAFC4E986
:104CD80000AB4FF0000B08344FF0080A534611F8A8
:104CE800010F002878D0BBF1000F7FF470AF2528A2
:104CF800F5D14FF0010B019B013301934FF0040AEA
:104D0800ECE7584694E700208346A5E7082B02D035
:104D18006FF015001BE708F1070828F00708F8E806
:104D28000223C4E9002308230834D8E768B9042B10
:104D380002D108F10408A4E7082BE9D108F1070813
:104D480028F0070808F10808EDE7059A013A0592E6
:104D580058F8042B009210E7039A900720D54FF0DB
:104D6800010CA4EB050E4FEA9E00BEF5007FCFD2E2
:104D78000F2FCDD8F5B107F140020DEB020E019AC5
:104D8800C0B20EF8200C0EF8102CBCF1000F3FF446
:104D98001AAF60F07F000EF8200C09F10109013705
:104DA800C5F108024FF6DA7E0434069297E74FF011
:104DB800000CDAE7BCF1000F01D00136EFE70298EA
:104DC80002360028EBD10098CDE90631FCF756F9F8
:104DD800DDE906310644E2E7631BB3F5806F97D23D
:104DE80045B9A6F10804E018B1E600BF182A040086
:104DF80090EA0D00029A9B0828602B709DF81030ED
:104E0800C2B1EB7085F80290B9F1000F05D000220D
:104E180008A8C5F1010C97420ED14FF0000AC5F160
:104E280001030DF1200801930DF1300B574512D104
:104E3800601B8CE66B70E5E710F8013B190608D596
:104E48000CEB040EB64503F07F033FF67EAE04F884
:104E5800013B0132DFE7B9F1000F03D098F90020D8
:104E6800002A17DB029BD3B11AF80B2004F8012B98
:104E78000022019B18191044B0423FF666AE98F81C
:104E88000000009904F8010B204603923DF069FBED
:104E9800039A14440AF1010A08F10108C6E798F8D0
:104EA800002055F822300093029B009845F82230E4
:104EB800FCF7E4F8421CDCE76FF00D0047E600BFA2
:104EC8002DE9F04F97B000AFD7F880B03B62CBF335
:104ED800C0030446894690F802A0FA62BB6141B952
:104EE800457800780AEB800020444D4517D8A0EBA0
:104EF8000409E378FB61BAF1000F02D01BF0010F3F
:104F080016D1FB6953BBFB6A1BB1494620463A6A76
:104F180098474D4628465C37BD46BDE8F08F461C8D
:104F28003046FCF7ABF80130304409F10109DCE701
:104F3800626823787A62FA6A9900796104EB8301DE
:104F4800002A40F005810E464FF000084D4601EB5F
:104F58000A094E4550D101EB0A0610E01BF0020F7A
:104F6800D1D023789A007A61626804EB83017A626F
:104F7800FA6A002A7BD14D46904601EB0A061BF0DF
:104F8800050F0CBF02230123FB62FB6906EB430AF2
:104F98000BF00203BB625645BCD016F8021B16F88C
:104FA800013C54F823909B4B994502D39A4B994561
:104FB8003AD3BB69002B44D0786A22F054F8002811
:104FC8003FD09648036813F0060F13D0E9468AB01D
:104FD8006A46934B53617B6AC2E906314FF400730A
:104FE8001384904B42F8103F00234FF4125100F005
:104FF80065FFCD46023DCEE716F8013BF96254F84D
:105008002300FCF73BF8D7F88430F96A01304BB13C
:10501800D7F8883098453EBFD7F8843023F8180071
:1050280008F10108054494E7BB6923B1786A22F0C6
:105038001AF80028C5D11BF0010F05D1FB6AED1A3B
:10504800A9E7BB6A002BA6D04846FCF717F8D7F8A3
:10505800843053B1D7F8883098453FBFD7F88420BB
:10506800431C22F8183008F10108054493E7BAF107
:10507800000F73D01BF0040673D0D046002607F14A
:10508800480052463B61B9623DF06BFAB96A3B6928
:1050980001EB0A02BA62FA69F9695200FA60BA6A5F
:1050A80002EB41023A610BF00202BA603A69B96A4E
:1050B8008A4258D162781BF0020F18BF00217A6229
:1050C80008BF4FEA5801B2181BF0010FD2B240F0E6
:1050D8009F801BF0040F14BF40460020BB61627024
:1050E800A070E17020463A6A7969FB6A9847051E04
:1050F800FFF610AFBB69414623707B6A3A6A63705A
:10510800FB6984F802A0E37007F14800FB6A98473E
:10511800B0F10008C0F2BA807B69A9EB0A01C91A8C
:10512800FB683A6AC91AD7E90A0398470028C0F207
:10513800AF804FF0000BA84408EB000507F1380AD0
:10514800B34571D300213A6A0846FB6A9847E1E6FD
:1051580056464FF0000807F1380092E75646D04609
:1051680096E7B04694E7BA6A12F8021B12F8015C97
:10517800BA6254F82500274A904202D3264A904240
:105188001ED3BA6932B1786A7B6021F06CFF7B6804
:1051980000288BD1BA6802BB08F1280207F1300C4D
:1051A80008F10100944407F1580208F1020852FA84
:1051B80080F00CF8101C5FFA88F800F8105C75E7AE
:1051C800BA693AB1786A7B6021F04DFF7B680028A4
:1051D8007FF46CAF1BF0010F09D006F1280207F12C
:1051E8003000711C161806F8205CCEB25EE71BF082
:1051F800040F3FF45BAF08F1280207F1300008F113
:10520800010102EB000808F8105C5FFA81F84DE72D
:10521800002063E7182A040090EA0D0040030020EC
:10522800738C0900040000011BF80A3054F823901D
:1052380087F83730D7F884302BB3D7F888309B45B8
:1052480021D2D7F8843033F81B8001213A6AFB6AEF
:1052580007F13700984700281ADB0544B8F1000F1A
:1052680006D14846FBF70AFF00F101081FFA88F843
:10527800414648463A6AFB6A9847002808DB0544D5
:105288000BF1010B5CE74FF00008DEE7454641E60D
:1052980005463FE670B51F4B82689A4215DDD0E996
:1052A8000016013392FBF3F3012976F100054FEA6A
:1052B800E3741CDAC91844EB0604C0E90014164963
:1052C80001FB03238360012070BD002AFBDAD0E9CB
:1052D8000041124E9B1A0029B3FBF6F310DA01F1D4
:1052E80000459C4275F100050ADA0020ECE7CD4341
:1052F8009D426FF00045A5EB0605A541DADAF4E713
:1053080006FB0322E41A61F10001C0E90041826052
:10531800D9E700BFFFC99A3B003665C400CA9A3B6B
:1053280030B50446EFF31185202383F31288BFF3C9
:105338006F8F044B0FCB84E80F0085F31188BFF300
:105348006F8F30BD5004002001281FB50C4605D0D2
:10535800042822D06FF0150004B010BD3DF05FF8AE
:10536800174AC30BC0F30E00A0FB0202C00B43EAAE
:10537800414340EA4240C90BC4E90031A060684695
:10538800FFF7CEFF6946204621F092FE18B90D4B73
:105398000FCB84E80F000020DEE73DF040F8084A14
:1053A800C30BC0F30E00A0FB0202C00B43EA41434B
:1053B80040EA4240C90BC4E90031A060EBE700BFF6
:1053C80000CA9A3B2034040001287FB50C4634D12A
:1053D8008A681B4B9A4230D83DF021F86D46C20BC3
:1053E80042EA414252424FEAD13363EB4303CDE9EB
:1053F8000023144AC0F30E00A0FB0202C30B43EAC9
:1054080042435B4228460293FFF744FF2146284661
:1054180021F04EFEEFF31186202383F31288BFF3A9
:105428006F8F95E80F00084C84E80F0086F3118809
:10543800BFF36F8F002004B070BD6FF01500FAE75E
:10544800FFC99A3B00CA9A3B50040020014B1860E0
:10545800704700BF0000002080B505460E4617467D
:1054680098461FF0DDF803463DF0C8FA0446DFF819
:105478001890424649F8003039463046A84754F853
:10548800090003F0B7FF00BF080000002DE9F8434A
:1054980040F26C7344690569E1170135E41841F17C
:1054A8000001022D8CBF00230123E41AC76861F1B3
:1054B80000010029064607F1FF374EDA6FF4C7707E
:1054C8004FF4C8720023201861F10001FBF75AFD60
:1054D800244B4FF03C0E03FB0044D6E900834FEA0F
:1054E800E37C99466346022D02468CBF6FF00200AA
:1054F8000920B6680544C6FB0E93A9FB0EC60EFB31
:10550800036640F26D1E9920A3080EFB04333B444A
:10551800642745430520B4FBF7F40235B5FBF0F5E5
:105528001B1B114C1CEB080CA2FB042004FB010103
:105538002B4446EBE87698180C4A41F10003801892
:105548000B4A63F10003A0FB020102FB031110EBFD
:105558000C0041EB0601BDE8F8834FF4C872002344
:105568002046B3E770FEFFFFB13A02009405F5FF4D
:105578008051010010B5FFF789FF002402463DF075
:105588003DFA0B46024944501046194610BD00BF6B
:105598000C0000002DE9F047058B044628079046CB
:1055A80011D4022905F0070540F0CC80204622F0EE
:1055B8002AF878B10138218B042811D8DFE800F0E7
:1055C800C2106D85950001290CBF45F0100545F006
:1055D8002005258388F31188BFF36F8FBDE8F08716
:1055E80001F0070AAA4500F0A5800027B9463E4603
:1055F800A368002B00F0BC8041F00801218388F3E8
:105608001188BFF36F8FA168002900F0BA800D6878
:10561800002900F0B680334652462046D1F804806F
:10562800C047002D76D02B6829461D46F0E701F0CB
:1056380007035A1F012A1BD8002221F00701062B55
:10564800276889B2C4E9002209D13B4603E0628B8E
:10565800013262831B68002BF9D141F00201204618
:10566800218321F0D0FF00287AD041F0200176E094
:10567800042B0AD121F0070189B22046218321F0A9
:10568800C2FF10B141F020012183218B01F0070AEC
:10569800AA454FD00027B946AAE7236921F0070198
:1056A80041F00601062DD3F8009021832DD1B9F1E0
:1056B800000F3FD041F00801218388F31188BFF320
:1056C8006F8F20463949C84729E021F0070123692F
:1056D80041F0040189B2042DD3F804902183E6D067
:1056E80000274FF0040A3E4682E721F007012369AC
:1056F80041F0050189B2052DD3F808902183D6D051
:1057080000274FF0050A3E4672E700274FF0060AC9
:105718003E466DE72B4687E7B9F1000FD1D1EFF38D
:105728001188202383F31288BFF36F8F238B23F014
:1057380008032383258BEA062ED525F0100323833F
:1057480005F007056669218B002EBFF670AF0023B0
:105758002768C4E9003321F0070141F001012183E2
:10576800218B4FF0000901F0070AAA457FF440AFEA
:10577800002F9CD041F00801218388F31188BFF3E2
:105788006F8F002FC8D03D683946334652462046B1
:1057980021F065FF2F46F4E7AB067FF51BAF25F038
:1057A8002003238305F0070500E700BF9376020076
:1057B8002DE9F047044607464FF00109DFF850800D
:1057C80014B93846BDE8F08794FAA4F5B5FA85F51A
:1057D80009FA05F32E0108EB05156FEA030A24EA16
:1057E80003042B7B002BEBD058F806301B694BB910
:1057F8004644736804222846196807EA0A0722F013
:10580800A3F8DDE7284698470028D9D1F0E700BF7C
:105818003432040030B5002289B00F490F483CF0FB
:1058280000FE002200230024CDE906230E230C4DA0
:10583800CDE903344FF440722846CDE90144094BC1
:10584800094900941EF074FB084928461EF0B0FA76
:10585800204609B030BD00BF795800002809002053
:1058680060040020BD5B000048E40220278D090089
:1058780001481EF077B800BF400400202DE9F0472A
:10588800804621480F4622F03BF80646002833D0D0
:1058980000252846BDE8F087237B83B12368DB68B1
:1058A8000BB120469847636883F8069023681B6904
:1058B800D3B9636804222046196822F045F80136F6
:1058C80010345445E8D3B8F1000FE2D0002DDFD0F2
:1058D8002846FFF76DFF0546002FF7D000214FF44B
:1058E800A4703CF0EDFCF1E7204698470028E0D092
:1058F80009FA06F31D43E2E705464FF00109034C98
:10590800DFF80CA0DDE700BF8494002034320400E7
:105918004432040008B5034608462BB1044A136014
:1059280000F06EFD002008BD6FF01500FBE700BF1A
:105938000400002010B5044C237813B903481EF066
:1059480011F80123237010BDD6E302204004002083
:1059580010B50446094821F0D3FF3CB1084BD3E801
:10596800EF1F0139C3E8E21F002AF8D105483CF0CF
:1059780064FDBDE8104004481DF0F4BF7C9400208D
:1059880080940020280900204004002000200146BF
:10599800034BD3E8EF0FC3E8E21F002AF9D17047A1
:1059A8007C94002070B5FFF7F1FF0546074C084EC0
:1059B800B44200D370BD63685B792BB123685B6820
:1059C80013B12946204698471034F1E734320400D1
:1059D8004432040010B5044C0449204621F0ACFCC4
:1059E800034B1C6010BD00BFF002002028380400E3
:1059F8007494002000230E4A10B513700D4A4FF41A
:105A0800004113600C4A0D481360FFF783FFFFF74E
:105A1800E1FF00F07DF90A4B0A4918468B4200D392
:105A280010BD1A1A5C681211013222711033F5E7A1
:105A3800D7E302207C94002080940020057902009E
:105A48003432040044320400014600220023014895
:105A580021F093BCF0020020014821F02CBD00BFCA
:105A6800F0020020024B0146186821F078BD00BF03
:105A780074940020014821F0ADBD00BFF002002061
:105A88002DE9F041344B1878002862D0FFF7E4FF85
:105A98000446002859D1314B314C1B68002B19DDC5
:105AA8003CF0BDFC4FF47A72A0FB020302FB01310B
:105AB800C30B43EA4143D4E900209B1A40F2E93280
:105AC8004FEAD13161EB0001934271F1000101D33A
:105AD800FFF768FFD4E9003213F57A7342F1000248
