:10000000F8730320CDB900003B7B0300B9B90000B1
:10001000B9B90000B9B90000B9B90000B9B9000018
:1000200000000000000000000000000049BB0000CC
:10003000B9B9000000000000E1BA0000B9B9000041
:10004000DDBC0000DDBC0000DDBC0000DDBC00004C
:10005000DDBC0000DDBC0000DDBC0000DDBC00003C
:10006000DDBC0000DDBC0000DDBC0000DDBC00002C
:10007000DDBC0000DDBC0000DDBC0000DDBC00001C
:10008000DDBC0000DDBC0000DDBC0000DDBC00000C
:10009000DDBC0000DDBC0000DDBC0000DDBC0000FC
:1000A000DDBC0000DDBC0000DDBC0000DDBC0000EC
:1000B000DDBC0000DDBC0000DDBC0000DDBC0000DC
:1000C000DDBC0000DDBC0000DDBC0000DDBC0000CC
:1000D000DDBC0000DDBC0000DDBC0000DDBC0000BC
:1000E000DDBC0000DDBC0000DDBC0000DDBC0000AC
:1000F000DDBC0000DDBC0000DDBC0000DDBC00009C
:10010000DDBC0000DDBC0000DDBC0000DDBC00008B
:10011000DDBC0000DDBC0000DDBC0000DDBC00007B
:10012000DDBC0000DDBC0000DDBC0000DDBC00006B
:10013000DDBC0000DDBC0000DDBC0000DDBC00005B
:10014000DDBC0000DDBC0000DDBC0000DDBC00004B
:04015000DDBC000012
:1001580080EA101404F0F01480EA0410604081EA88
:10016800111404F0F01481EA0411614082EA1214B7
:1001780004F0F01482EA0412624083EA131404F0D3
:10018800F01483EA0413634080EA102404F47F44E3
:1001980080EA0420604081EA112404F47F4481EA63
:1001A8000421614082EA122404F47F4482EA042292
:1001B800624083EA132404F47F4483EA04236340FF
:1001C80081EA500404F0553480EA4400614083EA2F
:1001D800520404F0553482EA4402634082EA9004EF
:1001E80004F0333480EA8400624083EA910404F026
:1001F800333481EA84016340704700BF82EA900487
:1002080004F0333480EA8400624083EA910404F005
:10021800333481EA8401634081EA500404F05534A0
:1002280080EA4400614083EA520404F0553482EACB
:100238004402634080EA102404F47F4480EA0420E6
:10024800604081EA112404F47F4481EA042161407A
:1002580082EA122404F47F4482EA0422624083EA98
:10026800132404F47F4483EA0423634080EA1014CF
:1002780004F0F01480EA0410604081EA111404F0DC
:10028800F01481EA0411614082EA121404F0F014B7
:1002980082EA0412624083EA131404F0F01483EA39
:1002A80004136340704700BF2DE9F14F94464FEAAD
:1002B800930B8A68CB6808684968FFF749FF0BF118
:1002C800060E33E083EA134480EA134582EA1347B3
:1002D80046BA96EA3444604000F00F1684EA0634C1
:1002E80020F00F1684EA161054BA94EA01067240F8
:1002F80002F00F1486EA043622F00F1486EA14126C
:100308004CBA6540694001F00F1485EA043521F0C4
:100318000F1485EA14115CBA67407B4003F00F1490
:1003280087EA043723F00F1487EA1413BCE8F000B7
:100338006040694072407B4000F0E03400F01035C6
:1003480000F00F3040EA540040EAC50080EA90040B
:1003580004F0332480EA8400604001F0E03401F0C6
:10036800103501F00F3141EA540141EAC50181EA33
:10037800910404F0332481EA8401614002F0E034FE
:1003880002F0103502F00F3242EA540242EAC50286
:1003980082EA920404F0332482EA8402624003F081
:1003A800E03403F0103503F00F3343EA540343EA13
:1003B800C50383EA930404F0332483EA8403634087
:1003C80081EA324787EA134581EA354690EA06040E
:1003D80084EA034B82EA1B4280EA044484EA054427
:1003E80083EA144A85EA14448BEA044B84EA3744C6
:1003F80081EA0B4181EA164104EA0A00454082EA93
:1004080004082BEA080041408AEA0B0602EA0600C3
:1004180084EA34438AEA3A4603EA060778404540C4
:10042800414088EA38478BEA3B4007EA000985EAF9
:10043800090583EA0709464006EA0906714085EA84
:10044800010005EA3546464006EA314181EA304175
:1004580081EA364606EA304686EA3546344008EAF6
:10046800010886EA01052A4086EA364003405A40D8
:1004780081EA31431F407C4080EA030709EA070903
:1004880088EA0908544088EA020806EA0A0601EAE6
:100498000B018AEA0B0215408AEA3A4210404540AD
:1004A8008BEA3B4003405E404240174079404D4054
:1004B8004E40E443F64386EA18435D4085EA05402A
:1004C80083EA134386EA034183EA384284EA114304
:1004D80083EA04435FEA3343BEF1010E3FF6F2AE0E
:1004E8001ED4BCE8F0006040694072407B4020BCEC
:1004F800FFF784FE28606960AA60EB60BDE8F08FB2
:100508002DE9E0414FF2F00280EA1031114080EA13
:100518000130484041088208C3084FF0000E4FE7F9
:1005280000F0113001F0113102F0113203F01133F3
:1005380040EA410040EA820040EAC3004FF2F0027C
:1005480080EA1031114080EA01304840BDE8E0817E
:100558002DE9F04F02F11C050646074600EB850819
:1005680051F8040B043A46F8040BF9D14FF0010C8A
:10057800FFF7C6FF5FEA302080EA0C001ECF41403B
:100588004A4053405C401EC62000464517D04FEAFB
:100598004C0C1CF4807F18BFACF1E50C2C2DE7D077
:1005A8003C2D06D1FFF7ACFF06CF41404A4006C6B6
:1005B800100006CF41404A4006C61000D8E736E989
:1005C8000F00FFF7C5FD043D86E80F00F7D1BDE831
:1005D800F08F00BF2DE9F14F03F11C0402EB840CEE
:1005E8004FEA930B8A68CB6808684968FFF7B0FD43
:1005F8003CE9F0006040694072407B400BF1060E18
:100608004EE083EA134480EA134582EA134746BA68
:1006180096EA3444604000F00F1684EA063420F06D
:100628000F1684EA161054BA94EA0106724002F0D2
:100638000F1486EA043622F00F1486EA14124CBA14
:100648006540694001F00F1485EA043521F00F1464
:1006580085EA14115CBA67407B4003F00F1487EAFF
:10066800043723F00F1487EA141344BA44404DBAF0
:100678004D4056BA56405FBA5F4087EA174886EA47
:10068800174B84EA17464FEA38488BEA1B4485EA39
:100698001B4788EA1B4580EA3440694072407B402A
:1006A80000F0703400F0803500F00F3040EA44006C
:1006B80040EAD50080EA900404F0332480EA8400FC
:1006C800604001F0703401F0803501F00F3141EAEB
:1006D800440141EAD50181EA910404F0332481EA16
:1006E8008401614002F0703402F0803502F00F326C
:1006F80042EA440242EAD50282EA920404F0332430
:1007080082EA8402624003F0703403F0803503F01B
:100718000F3343EA440343EAD50383EA930404F01E
:10072800332483EA84036340C943DB4381EA00043A
:1007380083EA044686EA020183EA014382EA3345F2
:1007480083EA14435C4084EA00077FEA040A8AEAE1
:10075800024A8AEA010B87EA11488AEA374A80EA9C
:10076800060181EA1A418AEA030A04EA0A004540B6
:1007780088EA040707EA0B0041408AEA0B0608EA00
:10078800060084EA34428AEA3A4602EA06035840F6
:100798004540414087EA37438BEA3B4003EA00097A
:1007A80085EA090582EA0309464006EA0906714016
:1007B80085EA010005EA3546464006EA314181EA04
:1007C800304181EA364606EA304686EA3546344004
:1007D8000F4086EA010508EA050886EA3640024025
:1007E80088EA020881EA314213405C4080EA020349
:1007F80009EA030987EA0907674088EA040806EA5C
:100808000A0601EA0B018AEA0B0425408AEA3A44FF
:10081800204045408BEA3B4B02EA0B02564084EAF3
:100828000B04234059406E40694087EA364080EA0D
:10083800384080EA060380EA104481EA134585EAD5
:10084800344585EA17427D4082EA354180EA054011
:100858003CE9F0006040694072407B40BEF1010E07
:100868003FF6CFAE20BCFFF7C9FC28606960AA60DC
:10087800EB60BDE8F08F00BFFFF76ABE30B44FF001
:10088800000310F8014B11F8015B013A84EA0504F2
:1008980043EA0403F5D1A3F101034FEAD37030BC56
:1008A800704700BF4FF0000310F8012B013943EAED
:1008B8000203F9D1A3F101034FEAD370704700BFD7
:1008C80030B411F8014B12F8015B6C4000F8014B91
:1008D800013BF6D130BC704781F0004102E000BF17
:1008E80083F0004330B54FEA41044FEA430594EAE8
:1008F800050F08BF90EA020F1FBF54EA000C55EA23
:10090800020C7FEA645C7FEA655C00F0E2804FEAF3
:100918005454D4EB5555B8BF6D420CDD2C4480EAD5
:10092800020281EA030382EA000083EA010180EA05
:10093800020281EA0303362D88BF30BD11F0004F53
:100948004FEA01314FF4801C4CEA113102D0404289
:1009580061EB410113F0004F4FEA03334CEA1333C4
:1009680002D0524263EB430394EA050F00F0A780DC
:10097800A4F10104D5F1200E0DDB02FA0EFC22FAD7
:1009880005F2801841F1000103FA0EF2801843FACB
:1009980005F359410EE0A5F120050EF1200E012ABC
:1009A80003FA0EFC28BF4CF0020C43FA05F3C018FA
:1009B80051EBE37101F0004507D54FF0000EDCF173
:1009C800000C7EEB00006EEB0101B1F5801F1BD31C
:1009D800B1F5001F0CD349085FEA30004FEA3C0C20
:1009E80004F101044FEA445212F5800F80F09A8016
:1009F800BCF1004F08BF5FEA500C50F1000041EB1A
:100A0800045141EA050130BD5FEA4C0C404141EB1D
:100A18000101013C28BFB1F5801FE9D291F0000F18
:100A280004BF01460020B1FA81F308BF2033A3F1C7
:100A38000B03B3F120020CDA0C3208DD02F1140CBE
:100A4800C2F10C0201FA0CF021FA02F10CE002F1F9
:100A58001402D8BFC2F1200C01FA02F120FA0CFCF2
:100A6800DCBF41EA0C019040E41AA2BF01EB04513B
:100A7800294330BD6FEA04041F3C1CDA0C340EDC39
:100A880004F11404C4F1200220FA04F001FA02F37C
:100A980040EA030021FA04F345EA030130BDC4F13A
:100AA8000C04C4F1200220FA02F001FA04F340EA2F
:100AB8000300294630BD21FA04F0294630BD94F0E0
:100AC800000F83F4801306BF81F480110134013DC7
:100AD8004EE77FEA645C18BF7FEA655C29D094EA38
:100AE800050F08BF90EA020F05D054EA000C04BFB6
:100AF8001946104630BD91EA030F1EBF00210020A1
:100B080030BD5FEA545C05D14000494128BF41F03F
:100B1800004130BD14F580043CBF01F5801130BDA3
:100B280001F0004545F0FE4141F470014FF000002E
:100B380030BD7FEA645C1ABF194610467FEA655CDF
:100B48001CBF0B46024650EA013406BF52EA033581
:100B580091EA030F41F4002130BD00BF90F0000F6F
:100B680004BF0021704730B54FF4806404F13204AB
:100B78004FF000054FF0000150E700BF90F0000F64
:100B880004BF0021704730B54FF4806404F132048B
:100B980010F0004548BF40424FF000013EE700BF5B
:100BA80042004FEAE2014FEA31014FEA02701FBFEB
:100BB80012F07F4393F07F4F81F06051704732F01D
:100BC8007F4208BF704793F07F4F04BF41F4002174
:100BD800704730B54FF4607401F0004521F00041D2
:100BE8001CE700BF50EA010208BF704730B54FF05C
:100BF80000050AE050EA010208BF704730B511F05D
:100C0800004502D5404261EB41014FF4806404F194
:100C180032045FEA915C3FF4D8AE4FF003025FEA1A
:100C2800DC0C18BF03325FEADC0C18BF033202EB9E
:100C3800DC02C2F1200300FA03FC20FA02F001FAF8
:100C480003FE40EA0E0021FA02F11444BDE600BF9B
:100C580070B54FF0FF0C4CF4E06C1CEA11541DBF4A
:100C68001CEA135594EA0C0F95EA0C0F00F0DEF815
:100C78002C4481EA030621EA4C5123EA4C5350EAFA
:100C8800013518BF52EA033541F4801143F480134B
:100C980038D0A0FB02CE4FF00005E1FB02E506F0DC
:100CA8000042E0FB03E54FF00006E1FB03569CF031
:100CB800000F18BF4EF0010EA4F1FF04B6F5007F37
:100CC80064F5407404D25FEA4E0E6D4146EB0606A9
:100CD80042EAC62141EA55514FEAC52040EA5E5032
:100CE8004FEACE2EB4F1FD0C88BFBCF5E06F1ED8DC
:100CF800BEF1004F08BF5FEA500E50F1000041EB13
:100D0800045170BD06F0004646EA010140EA0200BF
:100D180081EA0301B4EB5C04C2BFD4EB0C0541EAE1
:100D2800045170BD41F480114FF0000E013C00F3F6
:100D3800AB8014F1360FDEBF002001F0004170BD1A
:100D4800C4F10004203C35DA0C341BDC04F1140433
:100D5800C4F1200500FA05F320FA04F001FA05F2BF
:100D680040EA020001F0004221F0004110EBD3708C
:100D780021FA04F642EB06015EEA430E08BF20EAB8
:100D8800D37070BDC4F10C04C4F1200500FA04F35B
:100D980020FA05F001FA04F240EA020001F00041ED
:100DA80010EBD37041F100015EEA430E08BF20EA60
:100DB800D37070BDC4F1200500FA05F24EEA020EA8
:100DC80020FA04F301FA05F243EA020321FA04F0D7
:100DD80001F0004121FA04F220EA020000EBD3708E
:100DE8005EEA430E08BF20EAD37070BD94F0000F8E
:100DF8000FD101F00046400041EB010111F4801FC2
:100E080008BF013CF7D041EA060195F0000F18BF72
:100E1800704703F00046520043EB030313F4801FAE
:100E280008BF013DF7D043EA0603704794EA0C0F68
:100E38000CEA135518BF95EA0C0F0CD050EA41067E
:100E480018BF52EA4306D1D181EA030101F00041FB
:100E58004FF0000070BD50EA410606BF1046194623
:100E680052EA430619D094EA0C0F02D150EA01362F
:100E780013D195EA0C0F05D152EA03361CBF104670
:100E880019460AD181EA030101F0004141F0FE410F
:100E980041F470014FF0000070BD41F0FE4141F493
:100EA800780170BD70B54FF0FF0C4CF4E06C1CEA93
:100EB80011541DBF1CEA135594EA0C0F95EA0C0F48
:100EC80000F0A7F8A4EB050481EA030E52EA033503
:100ED8004FEA013100F088804FEA03334FF0805524
:100EE80045EA131343EA12634FEA022245EA111551
:100EF80045EA10654FEA00260EF000419D4208BF02
:100F0800964244F1FD0404F5407402D25B084FEAAE
:100F18003202B61A65EB03055B084FEA32024FF45A
:100F280080104FF4002CB6EB020E75EB030E22BFB7
:100F3800B61A754640EA0C005B084FEA3202B6EB77
:100F4800020E75EB030E22BFB61A754640EA5C0026
:100F58005B084FEA3202B6EB020E75EB030E22BFB6
:100F6800B61A754640EA9C005B084FEA3202B6EBB7
:100F7800020E75EB030E22BFB61A754640EADC0076
:100F880055EA060E18D04FEA051545EA16754FEAD8
:100F980006164FEAC30343EA52734FEAC2025FEAF6
:100FA8001C1CC0D111F4801F0BD141EA00014FF085
:100FB80000004FF0004CB6E711F4801F04BF014356
:100FC8000020B4F1FD0C88BFBCF5E06F3FF6AFAE72
:100FD800B5EB030C04BFB6EB020C5FEA500C50F102
:100FE800000041EB045170BD0EF0004E4EEA113185
:100FF80014EB5C04C2BFD4EB0C0541EA045170BD8C
:1010080041F480114FF0000E013C90E645EA060ECF
:101018008DE60CEA135594EA0C0F08BF95EA0C0FFD
:101028003FF43BAF94EA0C0F0AD150EA01347FF445
:1010380034AF95EA0C0F7FF425AF104619462CE71C
:1010480095EA0C0F06D152EA03353FF4FDAE10467F
:10105800194622E750EA410618BF52EA43067FF4D0
:10106800C5AE50EA41047FF40DAF52EA43057FF460
:10107800EBAE12E74FEA4102B2F1E04324BFB3F509
:10108800001CDCF1FE5C0DD901F0004C4FEAC002F7
:101098004CEA5070B2F1004F40EB830008BF20F0DB
:1010A8000100704711F0804F21D113F13872BCBF95
:1010B80001F00040704741F480114FEA5252C2F1EA
:1010C8001802C2F1200C10FA0CF320FA02F018BF33
:1010D80040F001004FEAC1234FEAD32303FA0CFC86
:1010E80040EA0C0023FA02F34FEA4303CCE77FEA15
:1010F800625307D150EA01331EBF4FF0FE4040F45F
:101108004000704701F0004040F0FE4040F400000D
:10111800704700BF80F0004002E000BF81F000414E
:1011280042001FBF5FEA410392EA030F7FEA226C85
:101138007FEA236C6AD04FEA1262D2EB1363C1BF15
:10114800D218414048404140B8BF5B42192B88BF84
:10115800704710F0004F40F4000020F07F4018BFA7
:10116800404211F0004F41F4000121F07F4118BFC7
:10117800494292EA030F3FD0A2F1010241FA03FC6F
:1011880010EB0C00C3F1200301FA03F100F0004357
:1011980002D5494260EB4000B0F5000F13D3B0F11F
:1011A800807F06D340084FEA310102F10102FE2A8E
:1011B80051D2B1F1004F40EBC25008BF20F00100FE
:1011C80040EA03007047490040EB0000013A28BF9D
:1011D800B0F5000FEDD2B0FA80FCACF1080CB2EB20
:1011E8000C0200FA0CF0AABF00EBC250524218439E
:1011F800BCBFD0401843704792F0000F81F4000143
:1012080006BF80F400000132013BB5E74FEA410315
:101218007FEA226C18BF7FEA236C21D092EA030F81
:1012280004D092F0000F08BF0846704790EA010FFB
:101238001CBF0020704712F07F4F04D1400028BF28
:1012480040F00040704712F100723CBF00F500000A
:10125800704700F0004343F0FE4040F40000704740
:101268007FEA226216BF08467FEA236301464202EC
:1012780006BF5FEA412390EA010F40F480007047FF
:101288004FF0000304E000BF10F0004348BF4042A5
:101298005FEA000C08BF704743F0964301464FF0E1
:1012A80000001CE050EA010208BF70474FF000033D
:1012B8000AE000BF50EA010208BF704711F000437E
:1012C80002D5404261EB41015FEA010C02BF84464E
:1012D8000146002043F0B64308BFA3F18053A3F5AD
:1012E8000003BCFA8CF2083AA3EBC25310DB01FAF4
:1012F80002FC634400FA02FCC2F12002BCF1004F78
:1013080020FA02F243EB020008BF20F00100704708
:1013180002F1200201FA02FCC2F1200250EA4C005C
:1013280021FA02F243EB020008BF20EADC707047A2
:101338004FF0FF0C1CEAD0521EBF1CEAD15392EAB0
:101348000C0F93EA0C0F6FD01A4480EA010C40028C
:1013580018BF5FEA41211ED04FF0006343EA5010E6
:1013680043EA5111A0FB01310CF00040B1F5000F28
:101378003EBF490041EAD3715B0040EA010062F1D7
:101388007F02FD2A1DD8B3F1004F40EBC25008BFC1
:1013980020F00100704790F0000F0CF0004C08BFDF
:1013A80049024CEA502040EA51207F3AC2BFD2F1AC
:1013B800FF0340EAC250704740F400004FF00003BA
:1013C800013A5DDC12F1190FDCBF00F000407047F4
:1013D800C2F10002410021FA02F1C2F1200200FA32
:1013E80002FC5FEA310040F1000053EA4C0308BFF9
:1013F80020EADC70704792F0000F00F0004C02BF4A
:10140800400010F4000F013AF9D040EA0C0093F0C4
:10141800000F01F0004C02BF490011F4000F013B1E
:10142800F9D041EA0C018FE70CEAD15392EA0C0F8C
:1014380018BF93EA0C0F0AD030F0004C18BF31F0F7
:10144800004CD8D180EA010000F00040704790F0CD
:10145800000F17BF90F0004F084691F0000F91F071
:10146800004F14D092EA0C0F01D142020FD193EA37
:101478000C0F03D14B0218BF084608D180EA0100BF
:1014880000F0004040F0FE4040F40000704740F09B
:10149800FE4040F4400070474FF0FF0C1CEAD05269
:1014A8001EBF1CEAD15392EA0C0F93EA0C0F69D0C5
:1014B800A2EB030280EA010C49024FEA402037D030
:1014C8004FF0805343EA111143EA10130CF0004027
:1014D8008B4238BF5B0042F17D024FF4000C8B4217
:1014E80024BF5B1A40EA0C00B3EB510F24BFA3EBF7
:1014F800510340EA5C00B3EB910F24BFA3EB9103C7
:1015080040EA9C00B3EBD10F24BFA3EBD10340EA20
:10151800DC001B0118BF5FEA1C1CE0D1FD2A3FF666
:1015280050AF8B4240EBC25008BF20F0010070471B
:101538000CF0004C4CEA50207F32C2BFD2F1FF03BE
:1015480040EAC250704740F400004FF00003013AEF
:1015580037E792F0000F00F0004C02BF400010F493
:10156800000F013AF9D040EA0C0093F0000F01F0A7
:10157800004C02BF490011F4000F013BF9D041EAC9
:101588000C0195E70CEAD15392EA0C0F08D14202FC
:101598007FF47DAF93EA0C0F7FF470AF084676E7CF
:1015A80093EA0C0F04D14B023FF44CAF08466EE7A8
:1015B80030F0004C18BF31F0004CCAD130F0004276
:1015C8007FF45CAF31F000437FF43CAF5FE700BFCE
:1015D8004FF0FF3C06E000BF4FF0010C02E000BFF7
:1015E8004FF0010C4DF804CD4FEA40024FEA410399
:1015F8007FEA226C18BF7FEA236C11D001B052EA4F
:10160800530C18BF90EA010F58BFB2EB030088BF14
:10161800C81738BF6FEAE17018BF40F00100704783
:101628007FEA226C02D15FEA402C05D17FEA236C65
:10163800E4D15FEA412CE1D05DF8040B704700BFAC
:10164800844608466146FFE70FB5FFF7C9FF002843
:1016580048BF10F1000F0FBD4DF808EDFFF7F4FF7C
:101668000CBF012000205DF808FB00BF4DF808ED15
:10167800FFF7EAFF34BF012000205DF808FB00BF38
:101688004DF808EDFFF7E0FF94BF012000205DF85A
:1016980008FB00BF4DF808EDFFF7D2FF94BF01200B
:1016A80000205DF808FB00BF4DF808EDFFF7C8FF04
:1016B80034BF012000205DF808FB00BF4FEA40025C
:1016C800B2F1FE4F0FD34FF09E03B3EB12620DD968
:1016D8004FEA002343F0004310F0004F23FA02F0D2
:1016E80018BF404270474FF00000704712F1610F79
:1016F80001D1420205D110F0004008BF6FF0004050
:1017080070474FF00000704742000ED2B2F1FE4F12
:101718000BD34FF09E03B3EB126209D44FEA0023B8
:1017280043F0004323FA02F070474FF0000070477F
:1017380012F1610F01D1420202D14FF0FF30704720
:101748004FF00000704700BF7BB972B90029BEBFD7
:1017580000204FF0004106E008BF00281CBF6FF0D2
:1017680000414FF0FF3000F057B8ADF1080C6DE9BB
:1017780004CE002909DB002B1ADB00F069F8DDF83C
:1017880004E0DDE9022304B07047404261EB410107
:10179800002B1BDB00F05CF8DDF804E0DDE9022338
:1017A80004B0404261EB4101524263EB430370478E
:1017B800524263EB430300F04BF8DDF804E0DDE947
:1017C800022304B0404261EB41017047524263EB8F
:1017D800430300F03DF8DDF804E0DDE9022304B03E
:1017E800524263EB4303704753B94AB9002908BF13
:1017F80000281CBF4FF0FF314FF0FF3000F00CB84D
:10180800ADF1080C6DE904CE00F022F8DDF804E033
:10181800DDE9022304B07047704700BF10F8012BC0
:1018280011F8013B012A28BF9A42F7D0D01A704715
:10183800034611F8012B03F8012B002AF9D1704750
:10184800034613F8012B002AFBD1181A01387047F8
:101858002DE9F04786468C460846089E154674468C
:101868001946002B40F0C1808542B2FA82F245D970
:101878004AB1C2F1200300FA02FC954094402EFAC6
:1018880003F343EA0C0C4FEA154EA8B2230CBCFB39
:10189800FEF80EFB18CC08FB00F943EA0C43994507
:1018A80028D9EB1808F1FF3704D2994502D9A8F1D5
:1018B80002072B44A3EB0903A4B2B3FBFEFC0EFB07
:1018C8001C330CFB00F044EA0344A04214D92C1941
:1018D8000CF1FF3304D2A04202D9ACF102032C442C
:1018E800241A43EA07401EB1D440002334607360D1
:1018F800BDE8F0874746DDE76346F1E792BB431B47
:1019080001214FEA154EAFB2200CB3FBFEFC0EFBD3
:101918001C330CFB07F840EA0343984561D9EB18E0
:101928000CF1FF3004D2984502D9ACF102002B44E7
:10193800A3EB0803A4B2B3FBFEFC0EFB1C330CFBA9
:1019480007F744EA0344A7424DD92C190CF1FF3399
:1019580004D2A74202D9ACF102032C44E41B43EAA7
:101968000040C0E7C2F120039540944020FA03F1FB
:101978002EFA03F34FEA154E9040AFB20343B1FB82
:10198800FEFC0EFB1C10190C0CFB07F841EA004189
:10199800884522D969180CF1FF3004D2884502D94C
:1019A800ACF102002944A1EB08019BB2B1FBFEFC9B
:1019B8000EFB1C110CFB07F743EA01439F420ED9AB
:1019C800EB180CF1FF3104D29F4202D9ACF10201AD
:1019D8002B44DB1B41EA004193E76046E3E761469D
:1019E800F7E76046A4E76346B8E7834206D916B925
:1019F800002108467CE7C6E900E0F9E7B3FA83F777
:101A08008FB9834201D3724508D8BEEB020460EB5C
:101A1800030301209C461EB9002169E73846FAE70E
:101A2800C6E9004CF8E7C7F1200CBB400EFA07F5F1
:101A380022FA0CF42EFA0CF1BA401C4320FA0CF3EB
:101A4800B8404FEA144901431FFA84FEB3FBF9F882
:101A580009FB18300B0C08FB0EFA43EA00439A45C1
:101A680040D9E31808F1FF3004D29A4502D9A8F109
:101A780002002344A3EB0A0389B2B3FBF9F809FB7C
:101A8800183308FB0EFE41EA03418E452CD9611834
:101A980008F1FF3304D28E4502D9A8F1020321448C
:101AA80043EA0040A1EB0E01A0FB02984145CE4657
:101AB800434602D306D14D4504D20138B9EB020E94
:101AC80068EB0403002EA7D0B5EB0E0261EB03010F
:101AD80001FA0CFC22FA07F3F9404CEA0303C6E9C1
:101AE800003199E74046C5E74346D9E700000000C2
:101AF800D0B504464068FFF741F809A3D3E90023AD
:101B0800FFF7D0F9064620680F46FFF737F8024678
:101B18000B4630463946FEF7E5FED0BDAFF30080F0
:101B28000000000080842E412DE9F04706460F464C
:101B3800904688B051F079FE4FF47A73A0FB0345C4
:101B480003FB0155E40B012F44EA45444FEAD53520
:101B580007D122462B463046274934F03CFA00206C
:101B680012E0D8F8047025483946FFF757FE70B1DF
:101B780039462348FFF752FE48B130463A462149D4
:101B880034F045FA6FF0040008B0BDE8F08720464D
:101B980017A3D3E900232946FFF7D6FD05460C46CF
:101BA80010461946184A0023FFF7CEFD80460F4617
:101BB800104619464EF660220023FFF7C5FD8246FF
:101BC8008946104619464FF47A720023FFF7BCFD88
:101BD800CDE902A9CDE90623CDE904012A46234629
:101BE8003046CDE90087094934F0F5F9B7E700BF79
:101BF800005C26050000000081BD0A0092BD0A00B5
:101C080095BD0A009EBD0A0080EE3600B6BD0A00EA
:101C180070B514460646CD17A1FB0201002304FB4C
:101C280005110A22FFF790FD0FA3D3E900230C4DFD
:101C380080FB054520462946FFF786FD06A3D3E924
:101C48000023306029462046FFF77EFD0023054A21
:101C5800FFF77AFD726070BD80A8120100000000D5
:101C6800D8EF2F0040420F0000209BF35E100000C9
:101C780003292DE9FF4105460C4612D0072900F03B
:101C8800B0808F490B6813F0060F00F0A7808D4BCA
:101C98000222029300231846CDE9003338F08AFC6B
:101CA8009CE0002A69D0072A40F0888058681A68A2
:101CB800854BC117C2FB0301012871F1000376DBD4
:101CC800D5F80480814B98F81A60C0184FEAD616E8
:101CD80077A3D3E9002341F1000176B2FFF734FD81
:101CE800002E14BF04230223984298F91A7025D0B5
:101CF800002E14BF20231023984221D0002E14BF99
:101D08000823042383421DD0002E14BF1023082368
:101D180098424CD1E6B2314640462D6935F061FC17
:101D2800002811DB6A4B002F4FF03D0233F81430C6
:101D3800AE771CDBA3FB02325B0819E00024E9E75D
:101D48000124E7E70224E5E75D490B685A070BD54C
:101D5800604B0393604B0825029300230422184626
:101D6800CDE9003538F026FC6FF0040002E053435B
:101D7800EB60002004B0BDE8F0811988574B144689
:101D88001F4633F8022B91420ED86868E1B22E69DB
:101D980035F09BFD00280DDA49490B685B07E3D550
:101DA8004F4B03934F4BD6E701340B2CE9D16FF01F
:101DB8001500DFE737F81430B383DAE740490B68DA
:101DC8005F070BD5484B0393484B08220293002327
:101DD800CDE900321846042238F0ECFB6FF085009C
:101DE800C8E7002A42D0072A5AD1B4245A68196889
:101DF800354BD017C1FB0320A2FB0431012A04FB99
:101E0800001170F100001DDB3948181841F100017C
:101E180029A3D3E900230024FFF796FC354B33F8B8
:101E2800022B904216D16868E1B22E6935F0F0FBBA
:101E3800002813DA22490B685E0795D52E4B0393C9
:101E48002E4B88E72E48181861F100011AA3D3E930
:101E58000023E0E70134072CE1D1A8E741F217128B
:101E6800284B33F814305343B36182E719881B4B6E
:101E780033F8020B81420FD86868D1B235F093FD70
:101E88000028BFF676AF0E490B685C077FF56CAF8C
:101E98001D4B03931D4B5EE701320B2AE8D186E701
:101EA80007490B68580799D5194B0393194B8CE7C9
:101EB8003AA3950000000000D8EF2F0000000000B2
:101EC8006C06002039F80A0040420F009DD14A00F4
:101ED800A0A905003BFD0A00D7FB0A00A8A9050038
:101EE80025FD0A0002FC0A0053FD0A0030FC0A0026
:101EF800ECF7170092A90500FAFC0A0053FC0A0047
:101F08001408E8FF84A90500E5FC0A007AFC0A0029
:101F180011FD0A00A4FC0A002DE9F74F0329144615
:101F2800066905D90B1F032B53D96FF0850023E0F1
:101F38000229F7683A4D22D0032923D0012914BF7A
:101F4800B6F90460B6F90660A6FB076732A3D3E9C1
:101F5800002386FB056530462946FFF7F5FB00237D
:101F6800304A206029463046FFF7EEFB00232D4A11
:101F7800FFF7EAFB6260002003B0BDE8F08FB6F916
:101F88000860E1E74FF0000B02F11803DFF894A0B6
:101F98000236019336F9028FA8FB07831EA3D3E903
:101FA800002388FB059848464146FFF7CDFB52467B
:101FB80044F8080B5B4648464146FFF7C5FB5246C6
:101FC8005B46FFF7C1FB019B44F8042C9C42E1D11E
:101FD800D1E70629B5690CD007290ED02A4605296C
:101FE80014BFB6F91010B6F912102046FFF710FE0C
:101FF800C1E72A46B6F91410F7E70E3602F11807BA
:1020080020462A4636F9021F0834FFF701FEA74288
:10201800F6D1B0E7AFF300800010A5D4E8000000C7
:102028003AA3950040420F000122014B1A707047F5
:10203800E8010320034A1368013313600122024BAD
:102048001A707047C09D0020E701032007B50020E3
:1020580038F0DDFD002200230548CDE9002340F6D5
:10206800CD4200232DF0EEF803B05DF804FB00BF6D
:10207800780B002000B589B007AA06A905A804F0C6
:1020880091FD059B0321274A04A831F085F9264BC9
:102098001B6803B3184604A94DF01AFE069B0321DA
:1020A800204A04A831F078F9204B1B6803B318467E
:1020B80004A94DF00DFE079B03211A4A04A831F02C
:1020C8006BF91B4B1B6803B3184604A94DF000FEBF
:1020D80009B05DF804FB17490A685207DED0164AB2
:1020E8001846CDE901320093012232F04EFDD5E7C2
:1020F80010490A685007DED0104A1846CDE9013267
:102108000093012232F041FDD5E70A490A685207D7
:10211800DED00B4A1846CDE901320093012232F095
:1021280034FDD5E714B90A00749E00206C9E002087
:10213800649E00207006002076B0050095B005006A
:10214800B4B0050000B56F4B89B01B7883B106A801
:1021580004F018FE78B16C490B685B0708D06B4B2C
:102168000122029300231846CDE9003332F00DFD19
:1021780009B05DF804FB9DF81A300321644A05A8EC
:1021880031F00AF9634B186810B105A94DF0A0FDAC
:102198009DF8193003215E4A05A831F0FDF85E4B21
:1021A800186810B105A94DF093FD9DF81B30032167
:1021B800574A05A831F0F0F8584B186810B105A92E
:1021C8004DF086FD9DF81D300321514A05A831F0D8
:1021D800E3F8534B186810B105A94DF079FD9DF847
:1021E8001E3003214A4A05A831F0D6F84D4B18682D
:1021F80010B105A94DF06CFD9DF81A300321444A31
:1022080005A831F0C9F8484B186810B105A94DF078
:102218005FFD9DF8193003213D4A05A831F0BCF84F
:10222800424B186810B105A94DF052FD9DF81B30BE
:102238000321374A05A831F0AFF83D4B186810B1B3
:1022480005A94DF045FD9DF81D300321304A05A82C
:1022580031F0A2F8374B186810B105A94DF038FDD8
:102268009DF81E3003212A4A05A831F095F8324B13
:10227800186810B105A94DF02BFD9DF81A300321FF
:10228800234A05A831F088F82C4B186810B105A925
:102298004DF01EFD9DF8193003211D4A05A831F0A7
:1022A8007BF8274B186810B105A94DF011FD9DF872
:1022B8001B300321164A05A831F06EF8214B186827
:1022C80010B105A94DF004FD9DF81D300321104AF9
:1022D80005A831F061F81C4B186810B105A94DF03C
:1022E800F7FC9DF81E300321094A05A831F054F87F
:1022F800164B186800283FF43BAF05A94DF0E8FCE1
:1023080036E700BFE601032070060020D3B00500C1
:1023180014B90A004C9F0020449F00203C9F0020D5
:10232800349F00202C9F0020A89F0020A09F002001
:10233800989F0020909F0020889F00200C9F0020DD
:10234800049F0020FC9E0020F49E0020EC9E0020AC
:1023580013B5084C204651F0BCFA00220023204651
:10236800CDE900234FF4F01200232CF06BFF02B0EC
:1023780010BD00BF400B00201FB5C38804468BB9B1
:10238800324A8068324910600A6802F00702022A5D
:1023980040D9304A0390CDE9013218460322009310
:1023A80032F0F3FBE388012B12D1284BA2682849AD
:1023B8005A600B6803F00703022B2BD9264B0392B4
:1023C8000293002303221846CDE9003332F0DDFBE7
:1023D800E388B3F5A57F1DD1A2681C4B111E18BF59
:1023E800012119721A490B6803F00703022B09D956
:1023F8001A4B03920293002303221846CDE90033B7
:1024080032F0C3FBA3682BB1154B1B78CBB1154831
:102418002BF088FC2379BBB10D490B6803F0070347
:10242800022B08D9104B0322029300231846CDE94A
:10243800003332F0AAFB0D4804B0BDE810402BF081
:1024480071BCFFF785FFE5E704B010BDD89D0020FB
:1024580070060020EDB00500FAB0050007B10500D0
:10246800E9010320009E00201AB10500189E0020F3
:1024780008B505482BF056FC044B1B781BB9BDE882
:102488000840FFF765BF08BD009E0020E901032052
:1024980007B5012038F0BBFB002200230548CDE931
:1024A800002340F6CD4200232CF0CCFE03B05DF8AB
:1024B80004FB00BFB00B0020F7B5224C224F237855
:1024C80033B14FF0FF324FF0FF3320482BF064FC5C
:1024D8004FF48030002151F0F9F82378002BEED129
:1024E80004F04CF8064604F053F8054651F09DF9FF
:1024F80003464FF47A70A3FB003200FB0121D80B8E
:102508004FF47A72002340EA4140C90BFFF71CF9E7
:10251800394600903046FEF70BFFFFF7CFF83946F3
:10252800ADF804002846FEF703FFFFF7EDF8ADF815
:102538000600FFF7ADFF684604F0D4F9684604F0DA
:1025480005FABCE7E90103200000C842E89D002025
:102558002DE9F04F0B480C4EA1B0306050F048FD0B
:102568000A4C0346B0B92268520707D0084A2146E8
:10257800CDE901020090012232F007FB002021B0D2
:10258800BDE8F08F6C490500E49D0020700600202E
:102598002EB10500306832F007FB03F071FAB14B39
:1025A800B14D1B682B60B14B1B686B60B04B1B684F
:1025B800AB60B04B1B68EB6003F050FB60B1236865
:1025C8005F0709D0AC4B012202930023214618462D
:1025D800CDE9003332F0D9FA13F024FF034600287E
:1025E80000F009842368580709D0A44B01220293FC
:1025F8000023CDE900331846A14932F0C6FA00227B
:10260800A049A14851F059F90022A049A04851F029
:1026180054F9A04804F000FA012200219E4850F025
:102628006BFE012200219D4850F066FE00229C4965
:102638009C4851F042F9FFF78BFE9B4813F02EFFA0
:102648000346002800F003842368590709D0974BF4
:102658000122029300231846CDE90033884932F05D
:1026680094FA04F0DFF904F0ADFADFF84482034687
:10267800002840F00A84012288F80020226802F02D
:102688000702022A07D98B4A7D49CDE90102009049
:10269800032232F07AFA884B18A8189340F20343C1
:1026A800ADF864301A238DF8663004F0F3FA034667
:1026B800002840F0DA83226802F00702022A19D9BA
:1026C8009DF860206E4908929DF86120009007925D
:1026D8009DF8622006929DF8662005929DF8652077
:1026E80004929DF863200392744ACDE90102032203
:1026F80032F04BFA724F384650F07AFC0346002805
:1027080040F0CA832268520709D03A685C490392AC
:102718006C4A0090CDE90102012232F036FA01221A
:102728000021694850F0E8FD00226849684851F0E6
:10273800C4F84FF4004200236548CDE900232CF08B
:1027480081FD236803F00703022B09D9614B03229B
:10275800029300234A491846CDE9003332F015FAAE
:1027680004F0A2F80346002800F0A78323685B075B
:1027780009D0594B0122029300231846CDE90033B2
:102788003F4932F002FA002200230027CDE9062350
:1027980004234FF48062CDE90337CDE901774F4B2D
:1027A8004F4900974F482BF075FE4F494D482BF085
:1027B800B1FD3A464FF47A714C4820F0EFF94AF0EF
:1027C8004AFC98F800303BB13A464FF47A714848D1
:1027D80020F0E4F94AF03FFC464B186820B100238A
:1027E8000A2245493AF00CFE444B186820B10023F0
:1027F8000A2243493AF004FE424B186820B10023EC
:102808000A2241493AF0FCFD236803F00703022B32
:1028180009D93E4B03220293002319491846CDE9F2
:10282800003332F0B2F9DFF8E890DFF8E8A0DFF81B
:10283800E88098F80030002B00F0B180374F3B78E3
:10284800002B40F0AC80226802F00702022A69D906
:10285800334A1846CDE9013209490322009332F080
:1028680094F95FE0589F0020C89D0020B49F002085
:10287800189F0020849E002047B1050078B105000C
:1028880070060020814B0300B00B00207B4B030037
:10289800780B002055200000009E0020E89D0020B5
:1028A80031200000400B002079240000AFB1050062
:1028B800E6010320D6B10500000F0A03E6B10500C2
:1028C800D849050067B20500189E00203D20000089
:1028D800080B002097B20500B5B20500C12400001E
:1028E80000050320400A00200EE10A007D200000B8
:1028F8004D210000589E00208F4B0300409E002071
:102908008B4B03004C9E0020874B0300DFB2050071
:1029180085EBD13E00001CC1E8010320E90103203A
:10292800F2B20500306818B183681B6803B1984794
:1029380001233B70002388F800303B78B3B10023B3
:102948004FF40042AA482BF027FA0346002840F02B
:10295800F182226802F00702022A07D9A54AA6498D
:10296800CDE901020322009032F00FF93068002807
:1029780040F04683002322683B7002F00702022AD7
:1029880008D99E4A1846CDE901329B490322009393
:1029980032F0FBF89A482BF0C5F9FFF7D9FC994AB1
:1029A8001378002B00F0D281974B1F78002F40F04E
:1029B800CD81177003F0AEF803F0FEF803F0DEFDEA
:1029C800834603F0E5FD804603F0ECFD0FAA0B906B
:1029D8000EA90DA803F0F6FD12AA11A910A803F07C
:1029E80039FE13A815AA14A903F050FE16A804F07E
:1029F800C9F9002840F00783236803F00703022B76
:102A080040F2AD809DF85830032206939DF8593066
:102A1800794905939DF85A3004937C4B1B680090C4
:102A280003937B4BCDE90103034632F0AEF85846D9
:102A3800FEF7B6F8236803F00703022B40F28F80F5
:102A48000027744BCDE904010322029338463B4624
:102A5800CDE90077684932F098F8226802F0070259
:102A6800022A7CD94046FEF79BF86B4ACDE904015F
:102A7800CDE901723B46032238465F49009732F0A0
:102A880084F8226802F00702022A68D90B98FEF738
:102A980087F8624ACDE90401CDE901723B46032279
:102AA80038465549009732F070F8226802F007025C
:102AB800022A54D90F98FEF773F8CDE908010E9849
:102AC800FEF76EF8CDE906010D98FEF769F8544A4D
:102AD800CDE90401CDE901723B4603223846464957
:102AE800009732F052F8226802F00702022A36D91B
:102AF8001298FEF755F8CDE908011198FEF750F83D
:102B0800CDE906011098FEF74BF8464ACDE90401D5
:102B1800CDE901723B46032238463749009732F027
:102B280034F8226802F00702022A18D91598FEF72D
:102B380037F8CDE908011498FEF732F8CDE9060117
:102B48001398FEF72DF8384ACDE90401CDE9017252
:102B58003B46032238462849009732F016F8584673
:102B6800FEF71EF8314ACDE90001202118A830F0FF
:102B780013FC2F4B186810B118A94DF0A9F82D4B6C
:102B8800186810B118A94DF0A3F84046FEF708F8E8
:102B9800294ACDE90001202118A830F0FDFB274B78
:102BA800186810B118A94DF093F80B98FDF7F8FFC5
:102BB800234ACDE90001202118A830F0EDFB214B74
:102BC800186810B118A94DF083F80E980D9900F106
:102BD800004031F001FE1C49FEF7AAFB1B49FEF735
:102BE8005BFC00210746FEF741FDB0B330E000BFB3
:102BF800009E002013B305007006002083B3050073
:102C0800E89D0020E7010320E9010320C09D002082
:102C180096B30500ECB3050004B405001BB4050029
:102C280032B4050059B4050094B40500CCB40500CD
:102C3800249F0020709F0020D4B405007C9F0020B2
:102C480029B40500649F002000003443D00F494098
:102C58003846A049FEF764FA07463846FDF7A0FF54
:102C68009D4ACDE90001202118A830F095FB9B4B27
:102C7800186810B118A94DF02BF8384603F022FD5A
:102C8800974B0146186808B14DF022F81098FDF7E7
:102C980087FF944ACDE90001202118A830F07CFB79
:102CA800914B186810B118A94DF012F81198FDF75A
:102CB80077FF8C4ACDE90001202118A830F06CFB81
:102CC8008A4B186810B118A94DF002F81298FDF750
:102CD80067FF844ACDE90001202118A830F05CFB89
:102CE800834B186810B118A94CF0F2FF1398FDF740
:102CF80057FF7C4ACDE90001202118A830F04CFB91
:102D08007C4B186810B118A94CF0E2FF1498FDF735
:102D180047FF744ACDE90001202118A830F03CFB98
:102D2800754B186810B118A94CF0D2FF1598FDF72B
:102D380037FF6C4ACDE90001202118A830F02CFBA0
:102D48006E4B186810B118A94CF0C2FF1FF05CFF59
:102D5800002300226A482BF01FF80346002844D1BC
:102D6800684A92F808B0D2E90087226802F00702A0
:102D7800022A0BD9644ACDE90487CDE901026349E7
:102D88000322CDF80CB0009031F0FFFEBBF1000F2C
:102D98002BD02368A8F1CF02262A03F0070300F2FC
:102DA80067817A1F262A00F24281022B09D9584BE3
:102DB80003220293002355491846CDE9003331F028
:102DC800E4FE544A052110680130434203F003032E
:102DD80000F0030058BF5842002310604FF4967269
:102DE800009355F8200017F09BFC00214FF4A470C5
:102DF80050F06CFC1BE5226802F00702022A07D992
:102E0800454A4249CDE901020090032231F0BDFE56
:102E1800002037F0FCFE012037F0F9FE00214FF4C6
:102E2800804050F053FC002037F0F4FE012037F0CA
:102E3800F1FE236803F00703022B7FF6E0AB374B64
:102E4800032202930023CDE90033FFF7D4BB2268A5
:102E580002F00702022A7FF604AC314A2B49CDE979
:102E6800010200900322FFF7FABB236813F0060F54
:102E78003FF440AC2B4B0293002302221846CDE9C5
:102E88000033224931F081FE34E4236813F0060F41
:102E98003FF430AC244BEEE7236803F00703022B22
:102EA8007FF63DAC3B6803220393204B17490293FE
:102EB80000231846CDE900332FE4226802F0070208
:102EC800022A7FF660AC1A4A1049CDE90102009047
:102ED800032256E40000B443DBB40500E49E00205E
:102EE800E09E002054B40500C09E0020B89E00203B
:102EF800B09E00209C9E0020949E00208C9E002066
:102F0800189E0020D89D0020E3B40500700600201C
:102F180007B50500C49D002089B105009AB10500D8
:102F2800C2B1050017B205003DB2050081B2050027
:102F3800CFB2050002F0EEFD02F03EFE18AA16A977
:102F480015A803F087FB236803F00703022B18D9A1
:102F58001898FDF725FECDE908011698FDF720FE23
:102F6800CDE906011598FDF71BFE494BCDE9040193
:102F78000293002303221846CDE90033454931F076
:102F880004FEDDF8548044494046FEF783FB0028E0
:102F98003FF4D3AC49464046FEF772FB00283FF4A5
:102FA800CCACDDF8588051464046FEF773FB00284C
:102FB8003FF4C3AC40463949FEF762FB00283FF4B2
:102FC800BCACDDF8608036494046FEF763FB00285C
:102FD8003FF4B3AC40463349FEF752FB00283FF4B8
:102FE800ACAC236803F00703022B7FF6BFAC2E4B73
:102FF80003220293002327491846CDE90033B3E49E
:1030080031F0D2FDB6E4226802F00702022A7FF608
:10301800A6AD264A3B46126838460392244A1D4903
:10302800CDE901720097032231F0AFFDFFE4A7F567
:103038009472262A1CD8022B09D91E4B032202930C
:10304800002314491846CDE9003331F09EFD1A4A91
:10305800062110680330434203F0030300F0030025
:1030680058BF5842002310604FF496720093B8E698
:10307800022B7FF6BAAE114B032202930023CDE94F
:1030880003871846CDE90033024931F07EFDACE6EE
:103098002BB3050070060020B81E05BEEC51F8C021
:1030A800EC511840F6288C405BB30500C09D002009
:1030B800C0B3050036B50500C49D002069B50500FC
:1030C8002DE9F04F00208FB014F06CFDD24D102187
:1030D800286039F039F9286824F036FFCF4CD049F8
:1030E80020604CF06BFC20686FF040413AF018FB10
:1030F80020686FF040413AF02AFB206809213AF035
:103108006AFB2068022139F06AFB1021206839F037
:103118001BF9286825F01EFBC24C6FF04041206067
:103128003AF0FEFA20686FF040413AF010FB206850
:103138006FF002013AF0BBFA20686FF06B013AF0C9
:10314800CDFA206809213AF046FBB74920684CF0CF
:10315800BFFD6FF07F40266848F01FFBC0F30723D0
:103168008DF80400C0F307408DF805308DF806008F
:10317800AE4F3046019900223CF017FA2068002231
:10318800FF213CF021FA0022394620683CF023FA5E
:10319800286814F007FDA64CA64E206016F096F895
:1031A80020688C213AF0BCFA206823213AF0CFFA43
:1031B800206803213AF07BFA20686FF018013AF092
:1031C8008DFA206809213AF006FB1221206839F0AF
:1031D800BBF8206825F0BEFA6FF0404130603AF045
:1031E8009FFA30686FF040413AF0B1FA30686FF0FA
:1031F80036013AF05CFADFF84092306804213AF080
:103208006DFA306809213AF0E6FA494630684CF020
:103218005FFD6FF07F40D6F8008048F0BEFAC0F33B
:1032280007238DF80800C0F307408DF809308DF8A2
:103238000A00029940460022DFF800823CF0B5F906
:1032480030680022FF213CF0BFF900224146306877
:103258003CF0C1F9206825F07DFA794E6FF04041C5
:1032680030603AF05DFA30686FF040413AF06FFA3A
:1032780030686FF01E013AF01AFADFF8C8A130681A
:1032880003213AF02BFA306809213AF0A4FA5146A2
:1032980030684CF01DFD6FF07F40D6F800B048F064
:1032A8007CFAC0F307238DF80C00C0F307408DF8B3
:1032B8000D308DF80E000399584600223CF075F940
:1032C80030680022FF213CF07FF900224146306837
:1032D8003CF081F9206825F03DFA5B4E6FF04041E3
:1032E80030603AF01DFA30686FF040413AF02FFA3A
:1032F80030686FF004013AF0DAF9306804213AF0E6
:10330800EDF9306809213AF066FA494630684CF020
:10331800DFFC6FF07F40D6F800B048F03EFAC0F30B
:1033280007238DF81000C0F307408DF811308DF891
:1033380012000499584600223CF037F93068002200
:10334800FF213CF041F90022414630683CF043F946
:10335800206825F0FFF93D4E6FF0404130603AF0AB
:10336800DFF930686FF040413AF0F1F93068142124
:103378003AF09DF9306803213AF0B0F93068092134
:103388003AF029FA514630684CF0A2FC6FF07F40C1
:10339800D6F800A048F001FAC0F307238DF814000E
:1033A800C0F307408DF815308DF816000599504682
:1033B80000223CF0FAF830680022FF213CF004F9C2
:1033C8000022414630683CF006F9206825F0C2F931
:1033D8001F4C6FF0404120603AF0A2F920686FF06E
:1033E80040413AF0B4F920682B213AF060F920689E
:1033F80003213AF073F9206809213AF0ECF94946BB
:1034080020684CF065FC6FF07F40266848F0C5F9ED
:10341800C0F307231EE000BF849E0020809E00208A
:10342800285605007C9E0020DEB20A00E07A0500DE
:10343800789E0020749E002056EE0A000C8B050032
:10344800709E002029B30A006C9E0020689E002010
:10345800649E00208DF81800C0F307408DF81930DD
:103468008DF81A000699304600223CF09EF8206834
:103478000022FF213CF0A8F80022414620683CF0D9
:10348800AAF8286825F066F9CE4C6FF04041206014
:103498003AF046F920686FF040413AF058F9206850
:1034A8006FF004013AF003F9206808213AF016F9A0
:1034B800206809213AF08FF9C34920684CF008FCCC
:1034C8006FF07F40266848F068F9C0F307238DF84D
:1034D8001C00C0F307408DF81D308DF81E000799B9
:1034E800304600223CF061F820680022FF213CF0C1
:1034F8006BF80022B54920683CF06DF8286814F094
:1035080051FBB34CB34E206015F0E0FE2068492112
:103518003AF006F920682D213AF019F920686FF081
:1035280079013AF0C4F8206834213AF0D7F82068D5
:1035380009213AF050F91221206838F005FF206877
:1035480022F052FE352130603AF0EAF83068212145
:103558003AF0FDF830686FF001013AF0A8F83068E9
:1035680002213AF0BBF8306809213AF034F93068A2
:103578004FF4806139F033F91021306838F0E4FEF7
:1035880047F2FF50D6F8008048F007F9C0F3072348
:103598008DF82000C0F307408DF821308DF8220007
:1035A8000899404600223BF0BEFF0022FF21306808
:1035B8003BF0C8FF206825F0CDF8874C6FF04041FC
:1035C80020603AF0ADF820686FF040413AF0BFF85B
:1035D80020686FF001013AF06AF8206803213AF098
:1035E8007DF8206809213AF0F6F87C4920684CF00B
:1035F8006FFB6FF07F40266848F0CFF8C0F30723D1
:103608008DF82400C0F307408DF825308DF826008A
:103618000999304600223BF0C8FF20680022FF21AC
:103628003BF0D2FF0022394620683BF0D4FF2868DF
:1036380014F0B8FA6A4C6B4E206015F047FE20680B
:1036480049213AF06DF820682D213AF080F8206879
:1036580003213AF02CF8206848213AF03FF8206816
:1036680009213AF0B8F81221206838F06DFE206878
:1036780022F0BAFD392130603AF052F83068212141
:103688003AF065F830686FF003013AF010F83068E6
:1036980002213AF023F8306809213AF09CF83068A2
:1036A8004FF4806139F09BF81021306838F04CFEF7
:1036B8004D48D6F8008048F070F8C0F307238DF81D
:1036C8002800C0F307408DF829308DF82A000A99A0
:1036D800404600223BF027FF0022FF2130683BF0E4
:1036E80031FF206825F036F8404C6FF040412060EB
:1036F8003AF016F820686FF040413AF028F8206850
:103708006FF0030139F0D3FF2068022139F0E6FF9A
:10371800206809213AF05FF8354920684CF0D8FA5A
:103728006FF07F40266848F038F8C0F307238DF81B
:103738002C00C0F307408DF82D308DF82E000B9922
:10374800304600223BF031FF20680022FF213BF089
:103758003BFF0022394620683BF03DFF286814F003
:1037680021FA244C244E206015F0B0FD2068492130
:1037780039F0D6FF20682D2139F0E9FF20687A2139
:1037880039F095FF2068352139F0A8FF2068092114
:103798003AF021F81221206838F0D6FD206822F08E
:1037A80023FD3521306039F0BBFF3068212139F025
:1037B800CEFF30686FF0010139F079FF30680221DF
:1037C8001CE000BF609E0020EAB20A0044800500A9
:1037D8005C9E0020589E0020549E0020F7B20A00EC
:1037E800509E00204C9E00204848F900489E00202A
:1037F800FDB20A00449E0020409E002039F06EFF72
:103808003068092139F0E7FF30684FF4806138F0FB
:10381800E6FF1021306838F097FD5348D6F800804D
:1038280047F0BBFFC0F307238DF83000C0F3074013
:103838008DF831308DF832000C99404600223BF06B
:1038480072FE0022FF2130683BF07CFE206824F0E5
:1038580081FF464C6FF04041206039F061FF2068DD
:103868006FF0404139F073FF20686FF0010139F0C3
:103878001EFF2068032139F031FF2068092139F043
:10388800AAFF3B4920684CF023FA6FF07F40266876
:1038980047F083FFC0F307238DF83400C0F30740D7
:1038A8008DF835308DF836000D99304600223BF002
:1038B8007CFE20680022FF213BF086FE002239466C
:1038C80020683BF088FE286824F03EFB294C2A49F2
:1038D80020604CF073F820686FF0404139F020FF09
:1038E80020686FF0404139F032FF20687E2139F0BE
:1038F800DEFE2068632139F0F1FE2068092139F0E5
:103908006AFF2068022138F06AFF1021206838F029
:103918001BFD286824F018FB184C194920604CF04E
:103928004DF820686FF0404139F0FAFE20686FF0DA
:10393800404139F00CFF20686FF0840139F0B7FE80
:103948002068642139F0CAFE2068092139F043FF54
:103958002068022138F043FF102120680FB0BDE82D
:10396800F04F38F0F1BC00BF0767FF003C9E002015
:1039780003B30A00389E002098560500349E0020A4
:103988007C5605002DE9F04F0020A1B014F00AF98B
:10399800CF4D1021286038F0D7FCCE482C6847F06E
:1039A800FCFEC0F307238DF80400C0F307408DF830
:1039B80005308DF806000199204600223BF0B3FD42
:1039C8000022FF2128683BF0BDFD286824F0BCFADE
:1039D800C14CC24920604BF0F1FF20686FF04041B4
:1039E80039F09EFE20686FF0404139F0B0FE206843
:1039F800092139F0F0FE2068022138F0F0FE10218C
:103A0800206838F0A1FC286814F0CCF8B44CB54E06
:103A1800206015F05BFC2068582139F081FE206891
:103A28001A2139F094FE20686FF0610139F03FFEE9
:103A380020686FF0590139F051FE2068092139F0EA
:103A4800CAFE1221206838F07FFC206824F082FE2C
:103A58006FF04041306039F063FE30686FF04041EC
:103A680039F075FE30686FF01C0139F020FE3068BF
:103A78006FF0030139F032FEDFF86C8230680921FB
:103A880039F0A9FE994930684CF022F94046376868
:103A980047F083FEC0F307238DF80800C0F3074002
:103AA8008DF809308DF80A00DFF8449238460299FB
:103AB80000223BF07AFD30680022FF213BF084FDB4
:103AC8000022494630683BF086FD206824F042FE1B
:103AD800884E6FF04041306039F022FE30686FF058
:103AE800404139F034FE30686FF0080139F0DFFDED
:103AF80030686FF0040139F0F1FD3068092139F0C0
:103B08006AFE7D4930684CF0E3F84046376847F074
:103B180044FEC0F307238DF80C00C0F307408DF86E
:103B28000D308DF80E000399384600223BF03DFD1C
:103B380030680022FF213BF047FD002249463068EB
:103B48003BF049FD206824F005FE6C4C6FF04041C5
:103B5800206039F0E5FD20686FF0404139F0F7FD4D
:103B680020680F2139F0A3FD20686FF0020139F0B9
:103B7800B5FD634F2068092139F02DFE61492068A1
:103B88004CF0A6F83846266847F007FEC0F307232E
:103B98008DF81000C0F307408DF811308DF8120031
:103BA8000499304600223BF000FD20680022FF21E6
:103BB8003BF00AFD0022494620683BF00CFD2868CE
:103BC80013F0F0FF504C514E206015F07FFB206839
:103BD800732139F0A5FD2068232139F0B8FD20684C
:103BE8006FF07A0139F063FD20686FF0490139F010
:103BF80075FD2068092139F0EEFD1221206838F0A2
:103C0800A3FB206824F0A6FD6FF04041306039F036
:103C180087FD30686FF0404139F099FD30686FF0EA
:103C2800060139F044FD3068032139F057FD30684A
:103C3800092139F0D0FD364930684CF049F86FF069
:103C48007F40D6F8009047F0A8FDC0F307238DF811
:103C58001400C0F307408DF815308DF8160005994B
:103C680048460022DFF8AC903BF09FFC3068002209
:103C7800FF213BF0A9FC0022494630683BF0ABFC31
:103C8800206824F067FD244E6FF04041306039F021
:103C980047FD30686FF0404139F059FD3068062122
:103CA80039F005FDDFF874A03068032139F016FDFE
:103CB8003068092139F08FFD514630684CF008F81A
:103CC8006FF07F40D6F800B047F067FD28E000BFEE
:103CD800189F0020E76E0700149F00202856050053
:103CE800109F00200C9F0020FBFBFF0008B30A0078
:103CF8000C8B0500089F002029B30A00049F0020B0
:103D0800FDFDFF000BB30A00009F0020FC9E002071
:103D18000EB30A00B46A0500F89E0020E9BC0A0048
:103D2800C0F307238DF81800C0F307408DF8193049
:103D38008DF81A000699584600223BF036FC306888
:103D48000022FF213BF040FC0022494630683BF04E
:103D580042FC206824F0FEFCCE4E6FF040413060FB
:103D680039F0DEFC30686FF0404139F0F0FC306823
:103D7800122139F09CFC3068032139F0AFFC30681F
:103D8800092139F028FDC44930684BF0A1FF6FF0D4
:103D98007F40D6F800B047F000FDC0F307238DF848
:103DA8001C00C0F307408DF81D308DF81E000799E0
:103DB800584600223BF0F9FB30680022FF213BF017
:103DC80003FC0022494630683BF005FC206824F0DB
:103DD800C1FCB24E6FF04041306039F0A1FC306850
:103DE8006FF0404139F0B3FC30681F2139F05FFCB7
:103DF8003068032139F072FC3068092139F0EBFC96
:103E0800514630684BF064FF6FF07F40D6F800A051
:103E180047F0C3FCC0F307238DF82000C0F3074028
:103E28008DF821308DF822000899504600223BF089
:103E3800BCFB30680022FF213BF0C6FB002249464C
:103E480030683BF0C8FB206824F084FC944C6FF089
:103E58004041206039F064FC20686FF0404139F03F
:103E680076FC20682B2139F022FC2068032139F0E8
:103E780035FC2068092139F0AEFC8A4920684BF0EE
:103E880027FF6FF07F40266847F087FCC0F30723C1
:103E98008DF82400C0F307408DF825308DF82600F2
:103EA8000999304600223BF080FB20680022FF2160
:103EB8003BF08AFB0022494620683BF08CFB2868CF
:103EC80013F070FE784C794E206015F0FFF92068E9
:103ED800A12139F025FC2068A92139F038FC206897
:103EE800062139F0E4FB20681E2139F0F7FB206831
:103EF800092139F070FC1221206838F025FA206871
:103F080024F028FC6FF04041306039F009FC30683B
:103F18006FF0404139F01BFC3068062139F0C7FBCF
:103F280030686FF0060139F0D9FB3068092139F0A3
:103F380052FC5F4930684BF0CBFE4046D6F8009003
:103F480047F02BFCC0F307238DF82800C0F3074087
:103F58008DF829308DF82A000A99484600223BF04E
:103F680024FB30680022FF213BF02EFB0022514940
:103F780030683BF030FB206824F0ECFB4E4E6FF0CD
:103F88004041306039F0CCFB30686FF0404139F087
:103F9800DEFB30686FF0020139F089FB30682221BE
:103FA80039F09CFB3068092139F015FC4349306829
:103FB8004BF08EFE3846D6F8008047F0EEFBC0F393
:103FC80007238DF82C00C0F307408DF82D308DF8AD
:103FD8002E000B99404600223BF0E7FA3068002299
:103FE800FF213BF0F1FA0022354930683BF0F3FA43
:103FF800206823F0A9FF334C334920604BF0DEFCE6
:1040080020686FF0404139F08BFB20686FF0404129
:1040180039F09DFB20686FF0080139F048FB2068F3
:10402800452139F05BFB2068092139F0D4FB206871
:10403800022138F0D4FB1021206838F085F928686F
:1040480023F082FF214C224920604BF0B7FC206806
:104058006FF0404139F064FB20686FF0404139F05F
:1040680076FB20687E2139F022FB2068632139F035
:1040780035FB2068092139F0AEFB2068022138F0B1
:10408800AEFB1021206838F05FF9286823F05CFF48
:1040980020E000BFF49E002011B30A00F09E00202B
:1040A800EC9E002014B30A00E89E0020E49E002045
:1040B80017B30A00D4950500E09E00201EB30A003D
:1040C80070900500DC9E002044560500D89E002014
:1040D80098560500D24CD34920604BF06FFC2068FD
:1040E8006FF0404139F01CFB20686FF0404139F017
:1040F8002EFB20686FF0840139F0D9FA206864211A
:1041080039F0ECFA2068092139F065FB20680221B2
:1041180038F065FB1021206838F016F9286813F08C
:1041280041FDC14CC14D206015F0D0F82068AE218A
:1041380039F0F6FA2068672139F009FB20687921FF
:1041480039F0B5FA20686FF0570139F0C7FA2068DE
:10415800092139F040FB1221206838F0F5F8206871
:1041680024F0F8FA6FF04041286039F0D9FA28684D
:104178006FF0404139F0EBFA28686FF0410139F0EF
:1041880096FA28686FF0030139F0A8FA286809211F
:1041980039F021FBA64928684BF09AFD38462E686D
:1041A80047F0FBFAC0F307238DF83000C0F307404F
:1041B8008DF831308DF832000C99304600223BF0F2
:1041C800F4F90022FF2128683BF0FEF9206813F07B
:1041D800E9FC984D5121286039F0A2FA286830216D
:1041E80039F0B5FA28686FF0050139F060FA2868E7
:1041F8006FF0010139F072FA2868092139F0EBFAF9
:104208001021286838F0A0F88B482E6847F0C5FAC6
:10421800C0F307238DF83400C0F307408DF835301C
:104228008DF836000D99304600223BF07CF90022CB
:10423800FF2128683BF086F94AF6FF602E6847F0B0
:10424800ACFAC0F307238DF83800C0F307408DF8A7
:1042580039308DF83A000E99002230463BF079F952
:1042680000202E6847F099FAC0F307238DF83C0028
:10427800C0F307408DF83D308DF83E000F99304669
:1042880000223BF07CF90022FF2128683BF086F9E8
:10429800206824F05FFA694E6FF04041306039F0D1
:1042A8003FFA30686FF0404139F051FA30686FF0EA
:1042B8001E0139F0FCF9DFF888A130686FF01101B0
:1042C80039F00CFA3068092139F085FA514630681E
:1042D8004BF0FEFC6FF07F40356847F05EFAC0F3A4
:1042E80007238DF84000C0F307408DF841308DF862
:1042F8004200109928460022524D3BF056F930688A
:104308000022FF213BF060F90022294630683BF08B
:1043180062F9206824F01EFA4B4E6FF0404130607D
:1043280039F0FEF930686FF0404139F010FA306822
:10433800072139F0BCF9454F30686FF0100139F0AA
:10434800CDF93068092139F046FA394630684BF022
:10435800BFFC6FF07F40D6F8008047F01EFAC0F32C
:1043680007238DF84400C0F307408DF845308DF8D9
:1043780046001199404600223BF017F930680022A8
:10438800FF213BF021F90022294630683BF023F950
:10439800206824F0DFF92E4E6FF04041306039F08C
:1043A800BFF930686FF0404139F0D1F930686FF0EB
:1043B8001E0139F07CF9DFF89C9030686FF001013C
:1043C80039F08CF93068092139F005FA4946306826
:1043D8004BF07EFC6FF07F40D6F8008047F0DDF9A7
:1043E800C0F307238DF84800C0F307408DF8493023
:1043F8008DF84A001299404600223BF0D6F8306802
:104408000022FF213BF0E0F80022294630683BF00B
:10441800E2F8206824F09EF90F4E6FF040411DE04D
:10442800D49E00207C560500D09E0020CC9E002003
:1044380024B30A00C89E0020F06C0900C49E002026
:1044480028B30A0050650500C09E00202BB30A005F
:10445800BC9E002030B30A00B89E0020306039F0BE
:104468005FF930686FF0404139F071F93068072121
:1044780039F01DF930686FF0010139F02FF9306813
:10448800092139F0A8F9394630684BF021FC6FF062
:104498007F40D6F8008047F080F9C0F307238DF8F5
:1044A8004C00C0F307408DF84D308DF84E0013993D
:1044B800404600223BF079F830680022FF213BF0AB
:1044C80083F80022294630683BF085F8206824F0FC
:1044D80041F9D74E6FF04041306039F021F930682A
:1044E8006FF0404139F033F930686FF01D0139F051
:1044F800DEF8DFF8408330680D2139F0EFF83068D6
:10450800092139F068F9414630684BF0E1FB6FF05A
:104518007F40D6F800B047F040F9C0F307238DF884
:104528005000C0F307408DF851308DF852001499AF
:10453800584600223BF039F830680022FF213BF052
:1045480043F80022294630683BF045F8206824F0FB
:1045580001F9B94C6FF04041206039F0E1F820686A
:104568006FF0404139F0F3F82068072139F09FF8DF
:1045780020680D2139F0B2F82068092139F02BF9AB
:10458800394620684BF0A4FB6FF07F40266847F05F
:1045980004F9C0F307238DF85400C0F307408DF8E1
:1045A80055308DF856001599304600223AF0FDFF37
:1045B80020680022FF213BF007F8002229462068E6
:1045C8003BF009F89D4B9E4C186813F0EBFA2060FD
:1045D80014F07CFE2068AE2139F0A2F8206867212B
:1045E80039F0B5F82068792139F061F820686FF062
:1045F800250139F073F82068092139F0ECF8122107
:10460800206837F0A1FE206824F0A4F88D4E6FF0E2
:104618004041306039F084F830686FF0404139F03B
:1046280096F830686FF0410139F041F830686FF062
:10463800020139F053F83068092139F0CCF8824981
:1046480030684BF045FB8148D6F800B047F0A5F834
:10465800C0F307238DF85800C0F307408DF8593090
:104668008DF85A001699584600223AF09EFF00220B
:10467800FF2130683AF0A8FF206813F093FA744ECF
:104688005121306039F04CF83068302139F05FF84A
:1046980030686FF0050139F00AF830686FF00101F1
:1046A80039F01CF83068092139F095F81021306884
:1046B80037F04AFE6748D6F800B047F06EF8C0F306
:1046C80007238DF85C00C0F307408DF85D308DF846
:1046D8005E001799584600223AF025FF0022FF2174
:1046E80030683AF02FFF4AF6FF60D6F800B047F07E
:1046F80054F8C0F307238DF86000C0F307408DF825
:1047080061308DF862001899002258463AF021FF6E
:104718000020D6F800B047F040F8C0F307238DF822
:104728006400C0F307408DF865308DF8660019996C
:10473800584600223AF023FF0022FF2130683AF061
:104748002DFF206824F006F8434E6FF0404130609A
:1047580038F0E6FF30686FF0404138F0F8FF306815
:104768006FF01C0138F0A3FF30686FF0100138F0CB
:10477800B5FF3068092139F02EF8514630684BF002
:10478800A7FA6FF07F40D6F800A047F006F8C0F30C
:1047980007238DF86800C0F307408DF869308DF85D
:1047A8006A001A99504600223AF0FFFE306800224B
:1047B800FF213AF009FF0022294630683AF00BFF42
:1047C800206823F0C7FF254E6FF04041306038F075
:1047D800A7FF30686FF0404138F0B9FF3068072113
:1047E80038F065FF30686FF00F0138F077FF3068F8
:1047F800092138F0F0FF394630684BF069FA6FF05C
:104808007F40D6F800A046F0C8FFC0F307238DF814
:104818006C00C0F307408DF86D308DF86E001B9961
:10482800504600223AF0C1FE3068002218E000BF6E
:10483800B49E002033B30A00B09E0020189F0020C9
:10484800AC9E0020A89E002036B30A00FDFDFF00A4
:10485800A49E0020F06C0900A09E00209C9E0020D1
:10486800FF213AF0B1FE0022294630683AF0B3FE43
:10487800206823F06FFF8F4E6FF04041306038F0B2
:104888004FFF30686FF0404138F061FF30686FF0DB
:104898001C0138F00CFF30686FF0010138F01EFF82
:1048A8003068092138F097FF494630684BF010FA14
:1048B8006FF07F40D6F8009046F06FFFC0F30723F3
:1048C8008DF87000C0F307408DF871308DF87200D4
:1048D8001C99484600223AF068FE30680022FF2101
:1048E8003AF072FE0022294630683AF074FE2068D9
:1048F80023F030FF704E6FF04041306038F010FF09
:1049080030686FF0404138F022FF3068072138F0F6
:10491800CEFE30686FF0010138F0E0FE3068092102
:1049280038F059FF394630684BF0D2F96FF07F40C4
:10493800D6F8009046F031FFC0F307238DF87400D5
:10494800C0F307408DF875308DF876001D994846FC
:1049580000223AF02AFE30680022FF213AF034FEA5
:104968000022294630683AF036FE206823F0F2FE2D
:10497800524E6FF04041306038F0D2FE30686FF030
:10498800404138F0E4FE30686FF01C0138F08FFECB
:1049980030680D2138F0A2FE3068092138F01BFF7D
:1049A800414630684BF094F96FF07F40D6F80080AC
:1049B80046F0F3FEC0F307238DF87800C0F30740F4
:1049C8008DF879308DF87A001E99404600223AF029
:1049D800ECFD30680022FF213AF0F6FD002229465E
:1049E80030683AF0F8FD206823F0B4FE344E6FF0DA
:1049F8004041306038F094FE30686FF0404138F044
:104A0800A6FE3068072138F052FE30680D2138F0D4
:104A180065FE3068092138F0DEFE394630684BF013
:104A280057F96FF07F40376846F0B7FEC0F30723A9
:104A38008DF87C00C0F307408DF87D308DF87E003E
:104A48001F99384600223AF0B0FD30680022FF2155
:104A58003AF0BAFD0022294630683AF0BCFD2068D9
:104A680023F072FA174C184920604AF0A7FF206813
:104A78006FF0404138F054FE20686FF0404138F044
:104A880066FE20686FF0410138F011FE20686FF073
:104A98001A0138F023FE2068092138F09CFE2068AE
:104AA800022137F09CFE1021206821B0BDE8F04FAC
:104AB80037F04ABC989E0020949E0020909E0020CB
:104AC8008C9E0020889E0020EC5605002DE9F043BE
:104AD80000208BB013F066F8CE4E1021306037F00E
:104AE80033FC306823F030FACB4CCC4920604AF0D4
:104AF80065FF20686FF0404138F012FE20686FF0C3
:104B0800404138F024FE2068092138F064FE20680E
:104B1800022137F064FE1021206837F015FC306858
:104B280013F040F8BE4CBF4D206014F0CFFB206856
:104B38008C2138F0F5FD20683C2138F008FE20680B
:104B4800062138F0B4FD20686FF0080138F0C6FD82
:104B58002068092138F03FFE1221206837F0F4FB65
:104B6800206823F0F7FD6FF04041286038F0D8FD49
:104B780028686FF0404138F0EAFD28686FF02B0193
:104B880038F095FD28684FF0FF3138F0A7FDDFF8C1
:104B980098922868092138F01EFEA44928684BF02D
:104BA80097F848462F6846F0F8FDC0F307238DF8BC
:104BB8000400C0F307408DF805308DF80600019910
:104BC800384600229A4F3AF0F0FC28680022FF216C
:104BD8003AF0FAFC0022394628683AF0FCFC2068D2
:104BE80023F0B8FD934D6FF04041286038F098FDF0
:104BF80028686FF0404138F0AAFD28686FF0080176
:104C080038F055FD28686FF0040138F067FD286812
:104C1800092138F0E0FD884928684BF059F84846E2
:104C2800D5F8008046F0B9FDC0F307238DF80800D9
:104C3800C0F307408DF809308DF80A000299404604
:104C480000223AF0B2FC28680022FF213AF0BCFCAE
:104C58000022394628683AF0BEFC206823F07AFD25
:104C6800764C6FF04041206038F05AFD20686FF0B4
:104C7800404138F06CFD20681F2138F018FD20688D
:104C88004FF0FF3138F02AFD2068092138F0A3FDE4
:104C98006B4920684BF01CF86A48256846F07DFD92
:104CA800C0F307238DF80C00C0F307408DF80D30D2
:104CB8008DF80E000399284600223AF076FC206809
:104CC8000022FF213AF080FC0022394620683AF0A1
:104CD80082FC306812F066FF5B4C5C4D206014F07B
:104CE800F5FA2068732138F01BFD2068232138F07D
:104CF8002EFD20686FF00B0138F0D9FC20681A21CE
:104D080038F0ECFC2068092138F065FD1221206894
:104D180037F01AFB206823F01DFD6FF04041286032
:104D280038F0FEFC28686FF0404138F010FD286824
:104D38006FF0150138F0BBFC2868042138F0CEFC70
:104D48002868092138F047FD414928684AF0C0FF22
:104D58006FF07F402F6846F020FDC0F307238DF8E1
:104D68001000C0F307408DF811308DF81200049937
:104D780038460022374F3AF018FC28680022FF21F5
:104D88003AF022FC0022394628683AF024FC2068D0
:104D980023F0E0FC304D6FF04041286038F0C0FC53
:104DA80028686FF0404138F0D2FC28686FF00301A2
:104DB80038F07DFCDFF8A4802868032138F08EFCE9
:104DC8002868092138F007FD414628684AF080FF25
:104DD8006FF07F40D5F8009046F0DFFCC0F3072362
:104DE8008DF81400C0F307408DF815308DF81600C3
:104DF8000599484600223AF0D8FB28680022FF218E
:104E08003AF0E2FB0022394628683AF0E4FB2068D1
:104E180026E000BF589F0020549F00202856050018
:104E2800509F00204C9F0020FBFBFF0008B30A00A6
:104E3800D4950500489F002029B30A00449F00200C
:104E48000BB30A00FDFDFF00409F00203C9F00209F
:104E58000EB30A007C750500389F0020E9BC0A00E3
:104E680023F078FCAF4D6FF04041286038F058FCD3
:104E780028686FF0404138F06AFC28680C2138F047
:104E880016FC2868042138F029FC2868092138F024
:104E9800A2FCA54928684AF01BFF6FF07F40D5F8AF
:104EA800009046F07AFCC0F307238DF81800C0F391
:104EB80007408DF819308DF81A00069948460022E7
:104EC8003AF073FB28680022FF213AF07DFB0022AC
:104ED800394628683AF07FFB206823F03BFC934D65
:104EE8006FF04041286038F01BFC28686FF04041A3
:104EF80038F02DFC28681F2138F0D9FB28680321D9
:104F080038F0ECFB2868092138F065FC4146286830
:104F18004AF0DEFE6FF07F40D5F8008046F03DFC99
:104F2800C0F307238DF81C00C0F307408DF81D302F
:104F38008DF81E000799404600223AF036FB286893
:104F48000022FF213AF040FB0022394628683AF057
:104F580042FB206823F0FEFB754C6FF04041206057
:104F680038F0DEFB20686FF0404138F0F0FB206835
:104F7800302138F09CFB2068032138F0AFFB206813
:104F8800092138F028FC6B4920684AF0A1FE6FF02F
:104F98007F40256846F001FCC0F307238DF8200008
:104FA800C0F307408DF821308DF822000899284673
:104FB80000223AF0FAFA20680022FF213AF004FBB6
:104FC8000022394620683AF006FB306812F0EAFD04
:104FD800594C206014F07AF920685B2138F0A0FB66
:104FE8002068282138F0B3FB2068022138F05FFBE5
:104FF80020686FF0540138F071FB2068092138F0FF
:10500800EAFB1221206837F09FF9206823F0A2FB01
:105018004A4C6FF04041206038F082FB20686FF006
:10502800404138F094FB20686FF0050138F03FFBF1
:1050380020684FF0FF3138F051FB2068092138F023
:10504800CAFB3F4920684AF043FE3E48256846F0BF
:10505800A4FBC0F307238DF82400C0F307408DF8A4
:1050680025308DF826000999284600223AF09DFA45
:1050780020680022FF213AF0A7FA0022324920686E
:105088003AF0A9FA306822F05FFF304C30492060CE
:105098004AF094FC20686FF0404138F041FB2068EA
:1050A8006FF0404138F053FB20687E2138F0FFFA5A
:1050B8002068632138F012FB2068092138F08BFB47
:1050C8002068022137F08BFB1021206837F03CF96B
:1050D800306822F039FF1F4C1F4920604AF06EFCEF
:1050E80020686FF0404138F01BFB20686FF04041AA
:1050F80038F02DFB20686FF0840138F0D8FA20686A
:10510800642138F0EBFA2068092138F064FB206844
:10511800022137F064FB102120680BB0BDE8F04392
:1051280037F012B9349F002011B30A00309F0020D5
:105138002C9F002014B30A00289F0020249F0020E1
:105148003BB30A00FEFEFE00A8850500209F002054
:10515800985605001C9F00207C5605002DE9F04359
:1051680000208DB012F01EFDCE4D1021286037F0C2
:10517800EBF8286822F0E8FECB4CCC4920604AF0D6
:105188001DFC20686FF0404138F0CAFA20686FF0C3
:10519800404138F0DCFA2068092138F01CFB20680F
:1051A800022137F01CFB1021206837F0CDF8286861
:1051B80012F0F8FCBE4CBF4E206014F087F820684F
:1051C8008C2138F0ADFA2068272138F0C0FA206821
:1051D8006FF03C0138F06BFA20686FF0590138F035
:1051E8007DFA2068092138F0F6FA1221206837F094
:1051F800ABF8206823F0AEFA6FF04041306038F029
:105208008FFA30686FF0404138F0A1FA30686FF0DB
:105218002B0138F04CFA30684FF0FF3138F05EFA65
:10522800DFF894923068092138F0D5FAA34930683C
:105238004AF04EFD4846376846F0AFFAC0F30723F8
:105248008DF80400C0F307408DF805308DF806008E
:105258000199384600229A4F3AF0A7F9306800229F
:10526800FF213AF0B1F90022394630683AF0B3F933
:10527800206823F06FFA934E6FF04041306038F0A9
:105288004FFA30686FF0404138F061FA30686FF0DB
:10529800080138F00CFA30686FF0040138F01EFA93
:1052A8003068092138F097FA874930684AF010FDCC
:1052B8004846D6F8008046F070FAC0F307238DF808
:1052C8000800C0F307408DF809308DF80A000299EC
:1052D800404600223AF069F930680022FF213AF08E
:1052E80073F90022394630683AF075F9206823F0DE
:1052F80031FA764C6FF04041206038F011FA20689E
:105308006FF0404138F023FA20681F2138F0CFF9B8
:1053180020684FF0FF3138F0E1F92068092138F0B2
:105328005AFA6B4920684AF0D3FC6A48266846F066
:1053380034FAC0F307238DF80C00C0F307408DF84A
:105348000D308DF80E000399304600223AF02DF901
:1053580020680022FF213AF037F9002239462068F8
:105368003AF039F9286812F01DFC5B4C5B4E20605E
:1053780013F0ACFF2068732138F0D2F9206823219C
:1053880038F0E5F92068232138F091F920686FF0AA
:105398004F0138F0A3F92068092138F01CFA1221CE
:1053A800206836F0D1FF206823F0D4F96FF040412F
:1053B800306038F0B5F930686FF0404138F0C7F91F
:1053C80030686FF0150138F072F93068042138F050
:1053D80085F93068092138F0FEF9414930684AF00A
:1053E80077FC6FF07F40376846F0D7F9C0F30723A2
:1053F8008DF81000C0F307408DF811308DF81200B9
:10540800049938460022374F3AF0CFF83068002226
:10541800FF213AF0D9F80022394630683AF0DBF833
:10542800206823F097F9304E6FF04041306038F033
:1054380077F930686FF0404138F089F930686FF0DB
:10544800030138F034F9DFF8A4803068032138F01C
:1054580045F93068092138F0BEF9414630684AF00C
:1054680037FC6FF07F40D6F8009046F096F9C0F30D
:1054780007238DF81400C0F307408DF815308DF818
:1054880016000599484600223AF08FF83068002245
:10549800FF213AF099F80022394630683AF09BF833
:1054A800206825E0B49F0020B09F00202856050002
:1054B800AC9F0020A89F0020FBFBFF0008B30A0058
:1054C800D4950500A49F002029B30A00A09F0020BE
:1054D8000BB30A00FDFDFF009C9F0020989F002051
:1054E8000EB30A007C750500949F0020E9BC0A00F1
:1054F80023F030F9CD4E6FF04041306038F010F9AC
:1055080030686FF0404138F022F930680C2138F0EB
:10551800CEF83068042138F0E1F83068092138F015
:105528005AF9C34930684AF0D3FB6FF07F40D6F888
:10553800009046F032F9C0F307238DF81800C0F345
:1055480007408DF819308DF81A0006994846002250
:105558003AF02BF830680022FF213AF035F80022A3
:10556800394630683AF037F8206823F0F3F8B14E3E
:105578006FF04041306038F0D3F830686FF0404148
:1055880038F0E5F830681F2138F091F830680321C9
:1055980038F0A4F83068092138F01DF94146306820
:1055A8004AF096FB6FF07F40D6F8008046F0F5F899
:1055B800C0F307238DF81C00C0F307408DF81D3099
:1055C8008DF81E0007994046002239F0EEFF30683A
:1055D8000022FF2139F0F8FF00223946306839F0FF
:1055E800FAFF206823F0B6F8934C6FF04041206032
:1055F80038F096F820686FF0404138F0A8F8206835
:10560800302138F054F82068032138F067F8206812
:10561800092138F0E0F8894920684AF059FB6FF011
:105628007F40266846F0B9F8C0F307238DF82000BC
:10563800C0F307408DF821308DF8220008993046D4
:10564800002239F0B2FF20680022FF2139F0BCFFA8
:1056580000223946206839F0BEFF286812F0A2FA05
:10566800774C784E206013F031FE20686B2138F0BB
:1056780057F82068252138F06AF820686FF02D0166
:1056880038F015F82068452138F028F820680921F5
:1056980038F0A1F81221206836F056FE206822F072
:1056A80053FC694930604AF089F930686FF040412D
:1056B80038F036F830686FF0404138F048F8306814
:1056C8006FF01C0137F0F3FF30684FF0FF3138F00E
:1056D80005F83068092138F07EF83068022137F083
:1056E8007EF81021306836F02FFE206823F032F85B
:1056F800564C6FF04041206038F012F820686FF087
:10570800404138F024F820680E2137F0D0FF206897
:10571800002137F0E3FF2068092138F05CF84C4994
:1057280020684AF0D5FA6FF07F40266846F035F8D1
:10573800C0F307238DF82400C0F307408DF8253007
:105748008DF82600434F30460999002239F02DFF85
:1057580020680022FF2139F037FF002239462068EF
:1057680039F039FF286812F01DFA3B4C3B4E206097
:1057780013F0ACFD20687A2137F0D2FF2068282189
:1057880037F0E5FF2068452137F091FF20686FF07A
:105798001D0137F0A3FF2068092138F01CF81221F9
:1057A800206836F0D1FD206822F0CEFB2C4930600D
:1057B8004AF004F930686FF0404137F0B1FF3068C3
:1057C8006FF0404137F0C3FF3068222137F06FFF98
:1057D80030686FF0010137F081FF3068092137F038
:1057E800FAFF3068022136F0FAFF1021306836F0EF
:1057F800ABFD206822F0AEFF1A4C6FF040412060EC
:1058080037F08EFF20686FF0404137F0A0FF206826
:105818006FF0100137F04BFF20684FF0FF3137F081
:105828005DFF2068092137F0D6FF1DE0909F00201A
:1058380011B30A008C9F0020889F002014B30A002F
:10584800849F0020809F0020B45605007C9F002084
:1058580042B30A0044800500789F0020749F00200E
:10586800D0560500709F00207A4920684AF030FA27
:105878007948266845F091FFC0F307238DF8280082
:10588800C0F307408DF829308DF82A000A99304670
:10589800002239F08AFE20680022FF2139F094FEA8
:1058A80000223946206839F096FE286812F07AF905
:1058B8006A4C6B4E206013F009FD20689C2137F07C
:1058C8002FFF20681A2137F042FF2068102137F097
:1058D800EEFE2068112137F001FF2068092137F01A
:1058E8007AFF1221206836F02FFD206822F02CFB69
:1058F8005C4930604AF062F830686FF0404137F038
:105908000FFF30686FF0404137F021FF30686FF0CB
:105918003C0137F0CCFE30686FF0010137F0DEFE55
:105928003068092137F057FF3068022136F057FFF9
:105938001021306836F008FD206822F00BFF4A4C31
:105948006FF04041206037F0EBFE20686FF0404177
:1059580037F0FDFE20680B2137F0A9FE20686FF0B4
:10596800010137F0BBFE2068092137F034FF3F49B9
:1059780020684AF0ADF96FF07F40266845F00DFFCA
:10598800C0F307238DF82C00C0F307408DF82D30A5
:105998008DF82E000B993046002239F006FE20685B
:1059A8000022FF2139F010FE00223946206839F024
:1059B80012FE286822F0C8FA2D4C2E49206049F0C2
:1059C800FDFF20686FF0404137F0AAFE20686FF0B5
:1059D800404137F0BCFE20687E2137F068FE206821
:1059E800632137F07BFE2068092137F0F4FE206838
:1059F800022136F0F4FE1021206836F0A5FC286854
:105A080022F0A2FA1C4C1D49206049F0D7FF2068FB
:105A18006FF0404137F084FE20686FF0404137F066
:105A280096FE20686FF0840137F041FE20686421FB
:105A380037F054FE2068092137F0CDFE2068022196
:105A480036F0CDFE102120680DB0BDE8F04336F0E9
:105A58007BBC00BF3BB30A00FEFEFE006C9F00202B
:105A6800689F002060560500649F002046B30A0026
:105A7800609F0020985605005C9F00207C5605001A
:105A88001FB51CF0C1FD1F4B186014F0A1FD0446A2
:105A980005201CF05BFEC0F307238DF808008DF885
:105AA8000930C0F3074300208DF80A301CF04EFE81
:105AB800C0F307238DF80D30C0F307438DF80E307F
:105AC800114B8DF80C00DDE90212009320460023EB
:105AD8001EF00EF90146204614F0B6FFFEF7F6FF59
