:1000000078520320A1B50000D57303008DB5000020
:100010008DB500008DB500008DB500008DB50000D8
:100020000000000000000000000000001DB70000FC
:100030008DB5000000000000B5B600008DB50000D1
:10004000B1B80000B1B80000B1B80000B1B800000C
:10005000B1B80000B1B80000B1B80000B1B80000FC
:10006000B1B80000B1B80000B1B80000B1B80000EC
:10007000B1B80000B1B80000B1B80000B1B80000DC
:10008000B1B80000B1B80000B1B80000B1B80000CC
:10009000B1B80000B1B80000B1B80000B1B80000BC
:1000A000B1B80000B1B80000B1B80000B1B80000AC
:1000B000B1B80000B1B80000B1B80000B1B800009C
:1000C000B1B80000B1B80000B1B80000B1B800008C
:1000D000B1B80000B1B80000B1B80000B1B800007C
:1000E000B1B80000B1B80000B1B80000B1B800006C
:1000F000B1B80000B1B80000B1B80000B1B800005C
:10010000B1B80000B1B80000B1B80000B1B800004B
:10011000B1B80000B1B80000B1B80000B1B800003B
:10012000B1B80000B1B80000B1B80000B1B800002B
:10013000B1B80000B1B80000B1B80000B1B800001B
:10014000B1B80000B1B80000B1B80000B1B800000B
:04015000B1B8000042
:1001580080EA101404F0F01480EA0410604081EA88
:10016800111404F0F01481EA0411614082EA1214B7
:1001780004F0F01482EA0412624083EA131404F0D3
:10018800F01483EA0413634080EA102404F47F44E3
:1001980080EA0420604081EA112404F47F4481EA63
:1001A8000421614082EA122404F47F4482EA042292
:1001B800624083EA132404F47F4483EA04236340FF
:1001C80081EA500404F0553480EA4400614083EA2F
:1001D800520404F0553482EA4402634082EA9004EF
:1001E80004F0333480EA8400624083EA910404F026
:1001F800333481EA84016340704700BF82EA900487
:1002080004F0333480EA8400624083EA910404F005
:10021800333481EA8401634081EA500404F05534A0
:1002280080EA4400614083EA520404F0553482EACB
:100238004402634080EA102404F47F4480EA0420E6
:10024800604081EA112404F47F4481EA042161407A
:1002580082EA122404F47F4482EA0422624083EA98
:10026800132404F47F4483EA0423634080EA1014CF
:1002780004F0F01480EA0410604081EA111404F0DC
:10028800F01481EA0411614082EA121404F0F014B7
:1002980082EA0412624083EA131404F0F01483EA39
:1002A80004136340704700BF2DE9F14F94464FEAAD
:1002B800930B8A68CB6808684968FFF749FF0BF118
:1002C800060E33E083EA134480EA134582EA1347B3
:1002D80046BA96EA3444604000F00F1684EA0634C1
:1002E80020F00F1684EA161054BA94EA01067240F8
:1002F80002F00F1486EA043622F00F1486EA14126C
:100308004CBA6540694001F00F1485EA043521F0C4
:100318000F1485EA14115CBA67407B4003F00F1490
:1003280087EA043723F00F1487EA1413BCE8F000B7
:100338006040694072407B4000F0E03400F01035C6
:1003480000F00F3040EA540040EAC50080EA90040B
:1003580004F0332480EA8400604001F0E03401F0C6
:10036800103501F00F3141EA540141EAC50181EA33
:10037800910404F0332481EA8401614002F0E034FE
:1003880002F0103502F00F3242EA540242EAC50286
:1003980082EA920404F0332482EA8402624003F081
:1003A800E03403F0103503F00F3343EA540343EA13
:1003B800C50383EA930404F0332483EA8403634087
:1003C80081EA324787EA134581EA354690EA06040E
:1003D80084EA034B82EA1B4280EA044484EA054427
:1003E80083EA144A85EA14448BEA044B84EA3744C6
:1003F80081EA0B4181EA164104EA0A00454082EA93
:1004080004082BEA080041408AEA0B0602EA0600C3
:1004180084EA34438AEA3A4603EA060778404540C4
:10042800414088EA38478BEA3B4007EA000985EAF9
:10043800090583EA0709464006EA0906714085EA84
:10044800010005EA3546464006EA314181EA304175
:1004580081EA364606EA304686EA3546344008EAF6
:10046800010886EA01052A4086EA364003405A40D8
:1004780081EA31431F407C4080EA030709EA070903
:1004880088EA0908544088EA020806EA0A0601EAE6
:100498000B018AEA0B0215408AEA3A4210404540AD
:1004A8008BEA3B4003405E404240174079404D4054
:1004B8004E40E443F64386EA18435D4085EA05402A
:1004C80083EA134386EA034183EA384284EA114304
:1004D80083EA04435FEA3343BEF1010E3FF6F2AE0E
:1004E8001ED4BCE8F0006040694072407B4020BCEC
:1004F800FFF784FE28606960AA60EB60BDE8F08FB2
:100508002DE9E0414FF2F00280EA1031114080EA13
:100518000130484041088208C3084FF0000E4FE7F9
:1005280000F0113001F0113102F0113203F01133F3
:1005380040EA410040EA820040EAC3004FF2F0027C
:1005480080EA1031114080EA01304840BDE8E0817E
:100558002DE9F04F02F11C050646074600EB850819
:1005680051F8040B043A46F8040BF9D14FF0010C8A
:10057800FFF7C6FF5FEA302080EA0C001ECF41403B
:100588004A4053405C401EC62000464517D04FEAFB
:100598004C0C1CF4807F18BFACF1E50C2C2DE7D077
:1005A8003C2D06D1FFF7ACFF06CF41404A4006C6B6
:1005B800100006CF41404A4006C61000D8E736E989
:1005C8000F00FFF7C5FD043D86E80F00F7D1BDE831
:1005D800F08F00BF2DE9F14F03F11C0402EB840CEE
:1005E8004FEA930B8A68CB6808684968FFF7B0FD43
:1005F8003CE9F0006040694072407B400BF1060E18
:100608004EE083EA134480EA134582EA134746BA68
:1006180096EA3444604000F00F1684EA063420F06D
:100628000F1684EA161054BA94EA0106724002F0D2
:100638000F1486EA043622F00F1486EA14124CBA14
:100648006540694001F00F1485EA043521F00F1464
:1006580085EA14115CBA67407B4003F00F1487EAFF
:10066800043723F00F1487EA141344BA44404DBAF0
:100678004D4056BA56405FBA5F4087EA174886EA47
:10068800174B84EA17464FEA38488BEA1B4485EA39
:100698001B4788EA1B4580EA3440694072407B402A
:1006A80000F0703400F0803500F00F3040EA44006C
:1006B80040EAD50080EA900404F0332480EA8400FC
:1006C800604001F0703401F0803501F00F3141EAEB
:1006D800440141EAD50181EA910404F0332481EA16
:1006E8008401614002F0703402F0803502F00F326C
:1006F80042EA440242EAD50282EA920404F0332430
:1007080082EA8402624003F0703403F0803503F01B
:100718000F3343EA440343EAD50383EA930404F01E
:10072800332483EA84036340C943DB4381EA00043A
:1007380083EA044686EA020183EA014382EA3345F2
:1007480083EA14435C4084EA00077FEA040A8AEAE1
:10075800024A8AEA010B87EA11488AEA374A80EA9C
:10076800060181EA1A418AEA030A04EA0A004540B6
:1007780088EA040707EA0B0041408AEA0B0608EA00
:10078800060084EA34428AEA3A4602EA06035840F6
:100798004540414087EA37438BEA3B4003EA00097A
:1007A80085EA090582EA0309464006EA0906714016
:1007B80085EA010005EA3546464006EA314181EA04
:1007C800304181EA364606EA304686EA3546344004
:1007D8000F4086EA010508EA050886EA3640024025
:1007E80088EA020881EA314213405C4080EA020349
:1007F80009EA030987EA0907674088EA040806EA5C
:100808000A0601EA0B018AEA0B0425408AEA3A44FF
:10081800204045408BEA3B4B02EA0B02564084EAF3
:100828000B04234059406E40694087EA364080EA0D
:10083800384080EA060380EA104481EA134585EAD5
:10084800344585EA17427D4082EA354180EA054011
:100858003CE9F0006040694072407B40BEF1010E07
:100868003FF6CFAE20BCFFF7C9FC28606960AA60DC
:10087800EB60BDE8F08F00BFFFF76ABE30B44FF001
:10088800000310F8014B11F8015B013A84EA0504F2
:1008980043EA0403F5D1A3F101034FEAD37030BC56
:1008A800704700BF4FF0000310F8012B013943EAED
:1008B8000203F9D1A3F101034FEAD370704700BFD7
:1008C80030B411F8014B12F8015B6C4000F8014B91
:1008D800013BF6D130BC704781F0004102E000BF17
:1008E80083F0004330B54FEA41044FEA430594EAE8
:1008F800050F08BF90EA020F1FBF54EA000C55EA23
:10090800020C7FEA645C7FEA655C00F0E2804FEAF3
:100918005454D4EB5555B8BF6D420CDD2C4480EAD5
:10092800020281EA030382EA000083EA010180EA05
:10093800020281EA0303362D88BF30BD11F0004F53
:100948004FEA01314FF4801C4CEA113102D0404289
:1009580061EB410113F0004F4FEA03334CEA1333C4
:1009680002D0524263EB430394EA050F00F0A780DC
:10097800A4F10104D5F1200E0DDB02FA0EFC22FAD7
:1009880005F2801841F1000103FA0EF2801843FACB
:1009980005F359410EE0A5F120050EF1200E012ABC
:1009A80003FA0EFC28BF4CF0020C43FA05F3C018FA
:1009B80051EBE37101F0004507D54FF0000EDCF173
:1009C800000C7EEB00006EEB0101B1F5801F1BD31C
:1009D800B1F5001F0CD349085FEA30004FEA3C0C20
:1009E80004F101044FEA445212F5800F80F09A8016
:1009F800BCF1004F08BF5FEA500C50F1000041EB1A
:100A0800045141EA050130BD5FEA4C0C404141EB1D
:100A18000101013C28BFB1F5801FE9D291F0000F18
:100A280004BF01460020B1FA81F308BF2033A3F1C7
:100A38000B03B3F120020CDA0C3208DD02F1140CBE
:100A4800C2F10C0201FA0CF021FA02F10CE002F1F9
:100A58001402D8BFC2F1200C01FA02F120FA0CFCF2
:100A6800DCBF41EA0C019040E41AA2BF01EB04513B
:100A7800294330BD6FEA04041F3C1CDA0C340EDC39
:100A880004F11404C4F1200220FA04F001FA02F37C
:100A980040EA030021FA04F345EA030130BDC4F13A
:100AA8000C04C4F1200220FA02F001FA04F340EA2F
:100AB8000300294630BD21FA04F0294630BD94F0E0
:100AC800000F83F4801306BF81F480110134013DC7
:100AD8004EE77FEA645C18BF7FEA655C29D094EA38
:100AE800050F08BF90EA020F05D054EA000C04BFB6
:100AF8001946104630BD91EA030F1EBF00210020A1
:100B080030BD5FEA545C05D14000494128BF41F03F
:100B1800004130BD14F580043CBF01F5801130BDA3
:100B280001F0004545F0FE4141F470014FF000002E
:100B380030BD7FEA645C1ABF194610467FEA655CDF
:100B48001CBF0B46024650EA013406BF52EA033581
:100B580091EA030F41F4002130BD00BF90F0000F6F
:100B680004BF0021704730B54FF4806404F13204AB
:100B78004FF000054FF0000150E700BF90F0000F64
:100B880004BF0021704730B54FF4806404F132048B
:100B980010F0004548BF40424FF000013EE700BF5B
:100BA80042004FEAE2014FEA31014FEA02701FBFEB
:100BB80012F07F4393F07F4F81F06051704732F01D
:100BC8007F4208BF704793F07F4F04BF41F4002174
:100BD800704730B54FF4607401F0004521F00041D2
:100BE8001CE700BF50EA010208BF704730B54FF05C
:100BF80000050AE050EA010208BF704730B511F05D
:100C0800004502D5404261EB41014FF4806404F194
:100C180032045FEA915C3FF4D8AE4FF003025FEA1A
:100C2800DC0C18BF03325FEADC0C18BF033202EB9E
:100C3800DC02C2F1200300FA03FC20FA02F001FAF8
:100C480003FE40EA0E0021FA02F11444BDE600BF9B
:100C580070B54FF0FF0C4CF4E06C1CEA11541DBF4A
:100C68001CEA135594EA0C0F95EA0C0F00F0DEF815
:100C78002C4481EA030621EA4C5123EA4C5350EAFA
:100C8800013518BF52EA033541F4801143F480134B
:100C980038D0A0FB02CE4FF00005E1FB02E506F0DC
:100CA8000042E0FB03E54FF00006E1FB03569CF031
:100CB800000F18BF4EF0010EA4F1FF04B6F5007F37
:100CC80064F5407404D25FEA4E0E6D4146EB0606A9
:100CD80042EAC62141EA55514FEAC52040EA5E5032
:100CE8004FEACE2EB4F1FD0C88BFBCF5E06F1ED8DC
:100CF800BEF1004F08BF5FEA500E50F1000041EB13
:100D0800045170BD06F0004646EA010140EA0200BF
:100D180081EA0301B4EB5C04C2BFD4EB0C0541EAE1
:100D2800045170BD41F480114FF0000E013C00F3F6
:100D3800AB8014F1360FDEBF002001F0004170BD1A
:100D4800C4F10004203C35DA0C341BDC04F1140433
:100D5800C4F1200500FA05F320FA04F001FA05F2BF
:100D680040EA020001F0004221F0004110EBD3708C
:100D780021FA04F642EB06015EEA430E08BF20EAB8
:100D8800D37070BDC4F10C04C4F1200500FA04F35B
:100D980020FA05F001FA04F240EA020001F00041ED
:100DA80010EBD37041F100015EEA430E08BF20EA60
:100DB800D37070BDC4F1200500FA05F24EEA020EA8
:100DC80020FA04F301FA05F243EA020321FA04F0D7
:100DD80001F0004121FA04F220EA020000EBD3708E
:100DE8005EEA430E08BF20EAD37070BD94F0000F8E
:100DF8000FD101F00046400041EB010111F4801FC2
:100E080008BF013CF7D041EA060195F0000F18BF72
:100E1800704703F00046520043EB030313F4801FAE
:100E280008BF013DF7D043EA0603704794EA0C0F68
:100E38000CEA135518BF95EA0C0F0CD050EA41067E
:100E480018BF52EA4306D1D181EA030101F00041FB
:100E58004FF0000070BD50EA410606BF1046194623
:100E680052EA430619D094EA0C0F02D150EA01362F
:100E780013D195EA0C0F05D152EA03361CBF104670
:100E880019460AD181EA030101F0004141F0FE410F
:100E980041F470014FF0000070BD41F0FE4141F493
:100EA800780170BD70B54FF0FF0C4CF4E06C1CEA93
:100EB80011541DBF1CEA135594EA0C0F95EA0C0F48
:100EC80000F0A7F8A4EB050481EA030E52EA033503
:100ED8004FEA013100F088804FEA03334FF0805524
:100EE80045EA131343EA12634FEA022245EA111551
:100EF80045EA10654FEA00260EF000419D4208BF02
:100F0800964244F1FD0404F5407402D25B084FEAAE
:100F18003202B61A65EB03055B084FEA32024FF45A
:100F280080104FF4002CB6EB020E75EB030E22BFB7
:100F3800B61A754640EA0C005B084FEA3202B6EB77
:100F4800020E75EB030E22BFB61A754640EA5C0026
:100F58005B084FEA3202B6EB020E75EB030E22BFB6
:100F6800B61A754640EA9C005B084FEA3202B6EBB7
:100F7800020E75EB030E22BFB61A754640EADC0076
:100F880055EA060E18D04FEA051545EA16754FEAD8
:100F980006164FEAC30343EA52734FEAC2025FEAF6
:100FA8001C1CC0D111F4801F0BD141EA00014FF085
:100FB80000004FF0004CB6E711F4801F04BF014356
:100FC8000020B4F1FD0C88BFBCF5E06F3FF6AFAE72
:100FD800B5EB030C04BFB6EB020C5FEA500C50F102
:100FE800000041EB045170BD0EF0004E4EEA113185
:100FF80014EB5C04C2BFD4EB0C0541EA045170BD8C
:1010080041F480114FF0000E013C90E645EA060ECF
:101018008DE60CEA135594EA0C0F08BF95EA0C0FFD
:101028003FF43BAF94EA0C0F0AD150EA01347FF445
:1010380034AF95EA0C0F7FF425AF104619462CE71C
:1010480095EA0C0F06D152EA03353FF4FDAE10467F
:10105800194622E750EA410618BF52EA43067FF4D0
:10106800C5AE50EA41047FF40DAF52EA43057FF460
:10107800EBAE12E74FEA4102B2F1E04324BFB3F509
:10108800001CDCF1FE5C0DD901F0004C4FEAC002F7
:101098004CEA5070B2F1004F40EB830008BF20F0DB
:1010A8000100704711F0804F21D113F13872BCBF95
:1010B80001F00040704741F480114FEA5252C2F1EA
:1010C8001802C2F1200C10FA0CF320FA02F018BF33
:1010D80040F001004FEAC1234FEAD32303FA0CFC86
:1010E80040EA0C0023FA02F34FEA4303CCE77FEA15
:1010F800625307D150EA01331EBF4FF0FE4040F45F
:101108004000704701F0004040F0FE4040F400000D
:10111800704700BF80F0004002E000BF81F000414E
:1011280042001FBF5FEA410392EA030F7FEA226C85
:101138007FEA236C6AD04FEA1262D2EB1363C1BF15
:10114800D218414048404140B8BF5B42192B88BF84
:10115800704710F0004F40F4000020F07F4018BFA7
:10116800404211F0004F41F4000121F07F4118BFC7
:10117800494292EA030F3FD0A2F1010241FA03FC6F
:1011880010EB0C00C3F1200301FA03F100F0004357
:1011980002D5494260EB4000B0F5000F13D3B0F11F
:1011A800807F06D340084FEA310102F10102FE2A8E
:1011B80051D2B1F1004F40EBC25008BF20F00100FE
:1011C80040EA03007047490040EB0000013A28BF9D
:1011D800B0F5000FEDD2B0FA80FCACF1080CB2EB20
:1011E8000C0200FA0CF0AABF00EBC250524218439E
:1011F800BCBFD0401843704792F0000F81F4000143
:1012080006BF80F400000132013BB5E74FEA410315
:101218007FEA226C18BF7FEA236C21D092EA030F81
:1012280004D092F0000F08BF0846704790EA010FFB
:101238001CBF0020704712F07F4F04D1400028BF28
:1012480040F00040704712F100723CBF00F500000A
:10125800704700F0004343F0FE4040F40000704740
:101268007FEA226216BF08467FEA236301464202EC
:1012780006BF5FEA412390EA010F40F480007047FF
:101288004FF0000304E000BF10F0004348BF4042A5
:101298005FEA000C08BF704743F0964301464FF0E1
:1012A80000001CE050EA010208BF70474FF000033D
:1012B8000AE000BF50EA010208BF704711F000437E
:1012C80002D5404261EB41015FEA010C02BF84464E
:1012D8000146002043F0B64308BFA3F18053A3F5AD
:1012E8000003BCFA8CF2083AA3EBC25310DB01FAF4
:1012F80002FC634400FA02FCC2F12002BCF1004F78
:1013080020FA02F243EB020008BF20F00100704708
:1013180002F1200201FA02FCC2F1200250EA4C005C
:1013280021FA02F243EB020008BF20EADC707047A2
:101338004FF0FF0C1CEAD0521EBF1CEAD15392EAB0
:101348000C0F93EA0C0F6FD01A4480EA010C40028C
:1013580018BF5FEA41211ED04FF0006343EA5010E6
:1013680043EA5111A0FB01310CF00040B1F5000F28
:101378003EBF490041EAD3715B0040EA010062F1D7
:101388007F02FD2A1DD8B3F1004F40EBC25008BFC1
:1013980020F00100704790F0000F0CF0004C08BFDF
:1013A80049024CEA502040EA51207F3AC2BFD2F1AC
:1013B800FF0340EAC250704740F400004FF00003BA
:1013C800013A5DDC12F1190FDCBF00F000407047F4
:1013D800C2F10002410021FA02F1C2F1200200FA32
:1013E80002FC5FEA310040F1000053EA4C0308BFF9
:1013F80020EADC70704792F0000F00F0004C02BF4A
:10140800400010F4000F013AF9D040EA0C0093F0C4
:10141800000F01F0004C02BF490011F4000F013B1E
:10142800F9D041EA0C018FE70CEAD15392EA0C0F8C
:1014380018BF93EA0C0F0AD030F0004C18BF31F0F7
:10144800004CD8D180EA010000F00040704790F0CD
:10145800000F17BF90F0004F084691F0000F91F071
:10146800004F14D092EA0C0F01D142020FD193EA37
:101478000C0F03D14B0218BF084608D180EA0100BF
:1014880000F0004040F0FE4040F40000704740F09B
:10149800FE4040F4400070474FF0FF0C1CEAD05269
:1014A8001EBF1CEAD15392EA0C0F93EA0C0F69D0C5
:1014B800A2EB030280EA010C49024FEA402037D030
:1014C8004FF0805343EA111143EA10130CF0004027
:1014D8008B4238BF5B0042F17D024FF4000C8B4217
:1014E80024BF5B1A40EA0C00B3EB510F24BFA3EBF7
:1014F800510340EA5C00B3EB910F24BFA3EB9103C7
:1015080040EA9C00B3EBD10F24BFA3EBD10340EA20
:10151800DC001B0118BF5FEA1C1CE0D1FD2A3FF666
:1015280050AF8B4240EBC25008BF20F0010070471B
:101538000CF0004C4CEA50207F32C2BFD2F1FF03BE
:1015480040EAC250704740F400004FF00003013AEF
:1015580037E792F0000F00F0004C02BF400010F493
:10156800000F013AF9D040EA0C0093F0000F01F0A7
:10157800004C02BF490011F4000F013BF9D041EAC9
:101588000C0195E70CEAD15392EA0C0F08D14202FC
:101598007FF47DAF93EA0C0F7FF470AF084676E7CF
:1015A80093EA0C0F04D14B023FF44CAF08466EE7A8
:1015B80030F0004C18BF31F0004CCAD130F0004276
:1015C8007FF45CAF31F000437FF43CAF5FE700BFCE
:1015D8004FF0FF3C06E000BF4FF0010C02E000BFF7
:1015E8004FF0010C4DF804CD4FEA40024FEA410399
:1015F8007FEA226C18BF7FEA236C11D001B052EA4F
:10160800530C18BF90EA010F58BFB2EB030088BF14
:10161800C81738BF6FEAE17018BF40F00100704783
:101628007FEA226C02D15FEA402C05D17FEA236C65
:10163800E4D15FEA412CE1D05DF8040B704700BFAC
:10164800844608466146FFE70FB5FFF7C9FF002843
:1016580048BF10F1000F0FBD4DF808EDFFF7F4FF7C
:101668000CBF012000205DF808FB00BF4DF808ED15
:10167800FFF7EAFF34BF012000205DF808FB00BF38
:101688004DF808EDFFF7E0FF94BF012000205DF85A
:1016980008FB00BF4DF808EDFFF7D2FF94BF01200B
:1016A80000205DF808FB00BF4DF808EDFFF7C8FF04
:1016B80034BF012000205DF808FB00BF4FEA40025C
:1016C800B2F1FE4F0FD34FF09E03B3EB12620DD968
:1016D8004FEA002343F0004310F0004F23FA02F0D2
:1016E80018BF404270474FF00000704712F1610F79
:1016F80001D1420205D110F0004008BF6FF0004050
:1017080070474FF00000704742000ED2B2F1FE4F12
:101718000BD34FF09E03B3EB126209D44FEA0023B8
:1017280043F0004323FA02F070474FF0000070477F
:1017380012F1610F01D1420202D14FF0FF30704720
:101748004FF00000704700BF7BB972B90029BEBFD7
:1017580000204FF0004106E008BF00281CBF6FF0D2
:1017680000414FF0FF3000F057B8ADF1080C6DE9BB
:1017780004CE002909DB002B1ADB00F069F8DDF83C
:1017880004E0DDE9022304B07047404261EB410107
:10179800002B1BDB00F05CF8DDF804E0DDE9022338
:1017A80004B0404261EB4101524263EB430370478E
:1017B800524263EB430300F04BF8DDF804E0DDE947
:1017C800022304B0404261EB41017047524263EB8F
:1017D800430300F03DF8DDF804E0DDE9022304B03E
:1017E800524263EB4303704753B94AB9002908BF13
:1017F80000281CBF4FF0FF314FF0FF3000F00CB84D
:10180800ADF1080C6DE904CE00F022F8DDF804E033
:10181800DDE9022304B07047704700BF10F8012BC0
:1018280011F8013B012A28BF9A42F7D0D01A704715
:10183800034611F8012B03F8012B002AF9D1704750
:10184800034613F8012B002AFBD1181A01387047F8
:101858002DE9F04786468C460846089E154674468C
:101868001946002B40F0C1808542B2FA82F245D970
:101878004AB1C2F1200300FA02FC954094402EFAC6
:1018880003F343EA0C0C4FEA154EA8B2230CBCFB39
:10189800FEF80EFB18CC08FB00F943EA0C43994507
:1018A80028D9EB1808F1FF3704D2994502D9A8F1D5
:1018B80002072B44A3EB0903A4B2B3FBFEFC0EFB07
:1018C8001C330CFB00F044EA0344A04214D92C1941
:1018D8000CF1FF3304D2A04202D9ACF102032C442C
:1018E800241A43EA07401EB1D440002334607360D1
:1018F800BDE8F0874746DDE76346F1E792BB431B47
:1019080001214FEA154EAFB2200CB3FBFEFC0EFBD3
:101918001C330CFB07F840EA0343984561D9EB18E0
:101928000CF1FF3004D2984502D9ACF102002B44E7
:10193800A3EB0803A4B2B3FBFEFC0EFB1C330CFBA9
:1019480007F744EA0344A7424DD92C190CF1FF3399
:1019580004D2A74202D9ACF102032C44E41B43EAA7
:101968000040C0E7C2F120039540944020FA03F1FB
:101978002EFA03F34FEA154E9040AFB20343B1FB82
:10198800FEFC0EFB1C10190C0CFB07F841EA004189
:10199800884522D969180CF1FF3004D2884502D94C
:1019A800ACF102002944A1EB08019BB2B1FBFEFC9B
:1019B8000EFB1C110CFB07F743EA01439F420ED9AB
:1019C800EB180CF1FF3104D29F4202D9ACF10201AD
:1019D8002B44DB1B41EA004193E76046E3E761469D
:1019E800F7E76046A4E76346B8E7834206D916B925
:1019F800002108467CE7C6E900E0F9E7B3FA83F777
:101A08008FB9834201D3724508D8BEEB020460EB5C
:101A1800030301209C461EB9002169E73846FAE70E
:101A2800C6E9004CF8E7C7F1200CBB400EFA07F5F1
:101A380022FA0CF42EFA0CF1BA401C4320FA0CF3EB
:101A4800B8404FEA144901431FFA84FEB3FBF9F882
:101A580009FB18300B0C08FB0EFA43EA00439A45C1
:101A680040D9E31808F1FF3004D29A4502D9A8F109
:101A780002002344A3EB0A0389B2B3FBF9F809FB7C
:101A8800183308FB0EFE41EA03418E452CD9611834
:101A980008F1FF3304D28E4502D9A8F1020321448C
:101AA80043EA0040A1EB0E01A0FB02984145CE4657
:101AB800434602D306D14D4504D20138B9EB020E94
:101AC80068EB0403002EA7D0B5EB0E0261EB03010F
:101AD80001FA0CFC22FA07F3F9404CEA0303C6E9C1
:101AE800003199E74046C5E74346D9E700000000C2
:101AF800D0B504464068FFF741F809A3D3E90023AD
:101B0800FFF7D0F9064620680F46FFF737F8024678
:101B18000B4630463946FEF7E5FED0BDAFF30080F0
:101B28000000000080842E412DE9F04706460F464C
:101B3800904688B051F0EBF84FF47A73A0FB034558
:101B480003FB0155E40B012F44EA45444FEAD53520
:101B580007D122462B463046274933F089FE00201C
:101B680012E0D8F8047025483946FFF757FE70B1DF
:101B780039462348FFF752FE48B130463A462149D4
:101B880033F092FE6FF0040008B0BDE8F0872046FD
:101B980017A3D3E900232946FFF7D6FD05460C46CF
:101BA80010461946184A0023FFF7CEFD80460F4617
:101BB800104619464EF660220023FFF7C5FD8246FF
:101BC8008946104619464FF47A720023FFF7BCFD88
:101BD800CDE902A9CDE90623CDE904012A46234629
:101BE8003046CDE90087094933F042FEB7E700BF28
:101BF800005C2605000000001BB00A002CB00A009B
:101C08002FB00A0038B00A0080EE360050B00A0043
:101C180070B514460646CD17A1FB0201002304FB4C
:101C280005110A22FFF790FD0FA3D3E900230C4DFD
:101C380080FB054520462946FFF786FD06A3D3E924
:101C48000023306029462046FFF77EFD0023054A21
:101C5800FFF77AFD726070BD80A8120100000000D5
:101C6800D8EF2F0040420F0000209BF35E100000C9
:101C780003292DE9FF4105460C4612D0072900F03B
:101C8800B0808F490B6813F0060F00F0A7808D4BCA
:101C98000222029300231846CDE9003337F037FFBC
:101CA8009CE0002A69D0072A40F0888058681A68A2
:101CB800854BC117C2FB0301012871F1000376DBD4
:101CC800D5F80480814B98F81A60C0184FEAD616E8
:101CD80077A3D3E9002341F1000176B2FFF734FD81
:101CE800002E14BF04230223984298F91A7025D0B5
:101CF800002E14BF20231023984221D0002E14BF99
:101D08000823042383421DD0002E14BF1023082368
:101D180098424CD1E6B2314640462D6935F0AEF8CE
:101D2800002811DB6A4B002F4FF03D0233F81430C6
:101D3800AE771CDBA3FB02325B0819E00024E9E75D
:101D48000124E7E70224E5E75D490B685A070BD54C
:101D5800604B0393604B0825029300230422184626
:101D6800CDE9003537F0D3FE6FF0040002E05343AD
:101D7800EB60002004B0BDE8F0811988574B144689
:101D88001F4633F8022B91420ED86868E1B22E69DB
:101D980035F0E8F900280DDA49490B685B07E3D507
:101DA8004F4B03934F4BD6E701340B2CE9D16FF01F
:101DB8001500DFE737F81430B383DAE740490B68DA
:101DC8005F070BD5484B0393484B08220293002327
:101DD800CDE900321846042237F099FE6FF08500ED
:101DE800C8E7002A42D0072A5AD1B4245A68196889
:101DF800354BD017C1FB0320A2FB0431012A04FB99
:101E0800001170F100001DDB3948181841F100017C
:101E180029A3D3E900230024FFF796FC354B33F8B8
:101E2800022B904216D16868E1B22E6935F03DF870
:101E3800002813DA22490B685E0795D52E4B0393C9
:101E48002E4B88E72E48181861F100011AA3D3E930
:101E58000023E0E70134072CE1D1A8E741F217128B
:101E6800284B33F814305343B36182E719881B4B6E
:101E780033F8020B81420FD86868D1B235F0E0F927
:101E88000028BFF676AF0E490B685C077FF56CAF8C
:101E98001D4B03931D4B5EE701320B2AE8D186E701
:101EA80007490B68580799D5194B0393194B8CE7C9
:101EB8003AA3950000000000D8EF2F0000000000B2
:101EC8006C060020B1EA0A0040420F009DD14A008A
:101ED800E49D0500B3EF0A004FEE0A00EC9D0500F3
:101EE8009DEF0A007AEE0A00CBEF0A00A8EE0A007E
:101EF800ECF71700D69D050072EF0A00CBEE0A003A
:101F08001408E8FFC89D05005DEF0A00F2EE0A001C
:101F180089EF0A001CEF0A002DE9F74F0329144640
:101F2800066905D90B1F032B53D96FF0850023E0F1
:101F38000229F7683A4D22D0032923D0012914BF7A
:101F4800B6F90460B6F90660A6FB076732A3D3E9C1
:101F5800002386FB056530462946FFF7F5FB00237D
:101F6800304A206029463046FFF7EEFB00232D4A11
:101F7800FFF7EAFB6260002003B0BDE8F08FB6F916
:101F88000860E1E74FF0000B02F11803DFF894A0B6
:101F98000236019336F9028FA8FB07831EA3D3E903
:101FA800002388FB059848464146FFF7CDFB52467B
:101FB80044F8080B5B4648464146FFF7C5FB5246C6
:101FC8005B46FFF7C1FB019B44F8042C9C42E1D11E
:101FD800D1E70629B5690CD007290ED02A4605296C
:101FE80014BFB6F91010B6F912102046FFF710FE0C
:101FF800C1E72A46B6F91410F7E70E3602F11807BA
:1020080020462A4636F9021F0834FFF701FEA74288
:10201800F6D1B0E7AFF300800010A5D4E8000000C7
:102028003AA3950040420F00034A13680133136036
:102038000122024B1A707047E09C00206B000320BD
:102048001FB503AA02A901A804F096FB019B03216E
:102058006846124A30F0F8FD114B186810B169460D
:102068004DF0A8F8029B032168460C4A30F0ECFDBD
:102078000C4B186810B169464DF09CF8039B03217E
:102088006846064A30F0E0FD074B186810B169460B
:102098004DF090F805B05DF804FB00BFA8AB0A004E
:1020A800609D0020589D0020509D002000B56F4B7A
:1020B80089B01B7883B106A804F04EFC78B16C494E
:1020C8000B685B0708D06B4B01220293002318466C
:1020D800CDE9003332F0ABF909B05DF804FB9DF8A7
:1020E8001A300321644A05A830F0AEFD634B186826
:1020F80010B105A94DF05EF89DF8193003215E4A2C
:1021080005A830F0A1FD5E4B186810B105A94DF087
:1021180051F89DF81B300321574A05A830F094FD6B
:10212800584B186810B105A94DF044F89DF81D30BA
:102138000321514A05A830F087FD534B186810B1A8
:1021480005A94DF037F89DF81E3003214A4A05A825
:1021580030F07AFD4D4B186810B105A94DF02AF8FA
:102168009DF81A300321444A05A830F06DFD484B0C
:10217800186810B105A94DF01DF89DF81930032114
:102188003D4A05A830F060FD424B186810B105A91A
:102198004DF010F89DF81B300321374A05A830F0A0
:1021A80053FD3D4B186810B105A94DF003F89DF893
:1021B8001D300321304A05A830F046FD374B18681A
:1021C80010B105A94CF0F6FF9DF81E3003212A4AEC
:1021D80005A830F039FD324B186810B105A94CF04C
:1021E800E9FF9DF81A300321234A05A830F02CFD99
:1021F8002C4B186810B105A94CF0DCFF9DF819307C
:1022080003211D4A05A830F01FFD274B186810B19F
:1022180005A94CF0CFFF9DF81B300321164A05A8ED
:1022280030F012FD214B186810B105A94CF0C2FF1F
:102238009DF81D300321104A05A830F005FD1C4B00
:10224800186810B105A94CF0B5FF9DF81E300321A0
:10225800094A05A830F0F8FC164B186800283FF426
:102268003BAF05A94CF0A6FF36E700BF6A00032084
:1022780070060020BAA40500A8AB0A003C9E002006
:10228800349E00202C9E0020249E00201C9E0020AE
:10229800989E0020909E0020889E0020809E00200E
:1022A800789E0020FC9D0020F49D0020EC9D0020DD
:1022B800E49D0020DC9D00201FB5C38804468BB92F
:1022C8002D4A80682D4910600A6802F00702022A28
:1022D80038D92B4A0390CDE90132184603220093DE
:1022E80032F0A5F8E388012B12D1234BA2682349C9
:1022F8005A600B6803F00703022B23D9214B039282
:102308000293002303221846CDE9003332F08FF8F8
:10231800E388B3F5A57F15D1A268174B111E18BF26
:102328000121197215490B6803F00703022B09D91B
:10233800154B03920293002303221846CDE900337C
:1023480032F075F82379A3B10C490B6803F0070341
:10235800022B08D90D4B0322029300231846CDE91E
:10236800003332F064F80A4804B0BDE810402BF09E
:1023780031B904B010BD00BFF89C002070060020E1
:10238800D4A40500E1A40500EEA4050001A50500FC
:10239800049D00202DE9E7414FF47A77DFF8648047
:1023A80000214FF4803050F003FC03F0E3FE0646B2
:1023B80003F0EAFE054650F0AAFCA0FB073207FB33
:1023C8000121D80B4FF47A72002340EA4140C90B2F
:1023D800FFF7BAF9414600903046FEF7A9FFFFF72C
:1023E8006DF94146ADF804002846FEF7A1FFFFF756
:1023F8008BF9ADF80600684604F06AF8684604F000
:102408009BF8CDE70000C8422DE9F04FA1B00B4D75
:102418000B4C284650F05EF80346A8B922685507C9
:1024280007D0084A2146CDE901020090012231F087
:10243800FEFF002021B0BDE8F08F00BF243E05005C
:102448007006002015A50500AB685B680BB128462F
:10245800984703F0F9F8B04BB04D1B682B60B04BB0
:102468001B686B60AF4B1B68AB60AF4B1B68EB60C6
:1024780003F034F960B12368590709D0AB4B012246
:1024880002930023AA491846CDE9003331F0CFFF63
:1024980004F0B2F804F080F9A64F0346002840F093
:1024A8005A8301223A70226802F00702022A07D9E9
:1024B800A14A9F49CDE901020090032231F0B7FFFC
:1024C8009E4B18A8189340F20343ADF864301A23C2
:1024D8008DF8663004F0C8F90346002840F02B83D5
:1024E800226802F00702022A19D99DF86020904953
:1024F80008929DF86120009007929DF8622006924C
:102508009DF8662005929DF8652004929DF8632049
:1025180003928B4ACDE90102032231F088FF894EEC
:1025280030464FF0D7FF0346002840F01B8322684F
:10253800520709D032687E490392834A0090CDE958
:102548000102012231F073FF012200217F4850F07F
:1025580045F900227E497F4850F021FC4FF40042A3
:1025680000237C48CDE900232CF0C4FA236803F04B
:102578000703022B09D9784B0322029300236C49E5
:102588001846CDE9003331F052FF03F083FF0346CC
:10259800002800F0F88223685B0709D06F4B0122FE
:1025A800029300231846CDE90033614931F03FFF1B
:1025B800002200230026CDE9062304234FF480627D
:1025C800CDE90336CDE90166654B66490096664854
:1025D8002BF0B8FB654964482BF0F4FA32464FF407
:1025E8007A7163481FF026FF49F0A7FF3B783BB19B
:1025F80032464FF47A715F481FF01CFF49F09DFF87
:102608005D4B186820B100230A225C493AF06AF948
:102618005B4B186820B100230A225A493AF062F944
:10262800594B186820B100230A2258493AF05AF940
:10263800236803F00703022B09D9554B03220293A1
:1026480000233B491846CDE9003331F0F0FE4FF046
:10265800000BDFF84091DFF840A1504A1378002BB7
:1026680000F015820026167003F0DEFC03F082FDF0
:10267800804603F089FD074603F090FD0FAA0B90F2
:102688000EA90DA803F094FD12AA11A910A803F031
:10269800D7FD13A815AA14A903F0EEFD16A804F097
:1026A8005BF9002840F07C82236803F00703022BC3
:1026B80040F2F9809DF85830032206939DF859306E
:1026C8001B4905939DF85A300493354B1B680090BD
:1026D8000393344BCDE90103034631F0A8FE40468D
:1026E800FEF75EFA236803F00703022B40F2DB8053
:1026F80000262D4BCDE904010322029330463346D0
:10270800CDE900660A4931F092FE226802F007021C
:10271800022A40F2C88049E0489E0020E89C002038
:10272800A49E0020089E0020749D00202EA5050070
:10273800700600206A0003205FA50500001E0E0138
:102748006FA50500903E0500F0A50500049D00203A
:1027580031200000000B002020A605003EA6050041
:102768009D23000080030320380A0020A8D30A0014
:1027780049200000B5200000449D00203344030098
:102788002C9D00202F440300389D00202B4403007B
:1027980068A6050000003443D00F49406B000320B1
:1027A800E09C00207BA60500D1A605003846FEF770
:1027B800F7F99D4ACDE90401CDE9016233460322C8
:1027C80030469A49009631F032FE226802F007023C
:1027D800022A68D90B98FEF7E3F9954ACDE9040176
:1027E800CDE901623346032230469049009631F024
:1027F8001EFE226802F00702022A54D90F98FEF73B
:10280800CFF9CDE908010E98FEF7CAF9CDE906011E
:102818000D98FEF7C5F9874ACDE90401CDE90162B3
:102828003346032230468149009631F000FE226883
:1028380002F00702022A36D91298FEF7B1F9CDE95B
:1028480008011198FEF7ACF9CDE906011098FEF7DA
:10285800A7F9794ACDE90401CDE90162334603229B
:1028680030467249009631F0E2FD226802F0070214
:10287800022A18D91598FEF793F9CDE9080114989A
:10288800FEF78EF9CDE906011398FEF789F96B4A30
:10289800CDE90401CDE9016233460322304663499C
:1028A800009631F0C4FD4046FEF77AF9644ACDE956
:1028B8000001202118A830F0C7F9624B186810B140
:1028C80018A94CF077FC604B186810B118A94CF0A7
:1028D80071FC3846FEF764F95C4ACDE90001202115
:1028E80018A830F0B1F95A4B186810B118A94CF073
:1028F80061FC0B98FEF754F9564ACDE900012021F6
:1029080018A830F0A1F9544B186810B118A94CF068
:1029180051FC0D990E9831F0B7FB4946FEF708FDBA
:102928005146FEF7B9FD59460646FEF79FFE20B10F
:1029380030464A49FEF7F4FB06463046FEF730F9C2
:10294800474ACDE90001202118A830F07DF9454B10
:10295800186810B118A94CF02DFC304603F0A8FCFB
:10296800414B0146186808B14CF024FC1098FEF75A
:1029780017F93E4ACDE90001202118A830F064F982
:102988003B4B186810B118A94CF014FC1198FEF7CD
:1029980007F9364ACDE90001202118A830F054F98A
:1029A800344B186810B118A94CF004FC1298FEF7C3
:1029B800F7F82E4ACDE90001202118A830F044F993
:1029C8002D4B186810B118A94CF0F4FB1398FEF7BA
:1029D800E7F8264ACDE90001202118A830F034F99B
:1029E800264B186810B118A94CF0E4FB1498FEF7B0
:1029F800D7F81E4ACDE90001202118A830F024F9A3
:102A08001F4B186810B118A94CF0D4FB1598FEF7A5
:102A1800C7F8164ACDE90001202118A830F014F9AA
:102A2800184B186898B32FE0E9A605007006002037
:102A380000A7050017A705003EA7050079A7050010
:102A4800B1A70500149E0020609E0020B9A70500CC
:102A58006C9E00200EA70500549E00200000B44381
:102A6800C0A70500D49D0020D09D002039A70500EF
:102A7800B09D0020A89D0020A09D00208C9D0020D6
:102A8800849D00207C9D002018A94CF093FB1FF02A
:102A980007FD0023002264482AF0D6FD03460028DB
:102AA80043D1624A92F80880D2E90076226802F09F
:102AB8000702022A0BD95E4ACDE90476CDE9010264
:102AC8005C490322CDF80C80009031F0B0FCB8F1DD
:102AD800000F2AD02368A7F1CF02262A03F00703A4
:102AE80000F29380721F262A6ED8022B09D9524B06
:102AF8000322029300234F491846CDE9003331F0F1
:102B080096FC4E4A052110680130434203F0030346
:102B180000F0030058BF5842002310604FF496722B
:102B2800009355F8200017F047FA00214FF4A470DD
:102B380050F03EF891E5236813F0060F3FF4EFAC30
:102B48003F4B0293002302221846CDE9003339494E
:102B580031F06DFCE3E4236813F0060F3FF4DFACBB
:102B6800384BEEE7236803F00703022B7FF6ECAC43
:102B7800336803220393344B2E49029300231846EB
:102B8800CDE90033DEE4226802F00702022A7FF66C
:102B98000FAD2E4A2749CDE901020090032205E531
:102BA800226802F00702022A7FF67DAE284A3346E1
:102BB800126830460392274A1E49CDE90162009601
:102BC800032231F034FC8AE5A6F59472262A1CD833
:102BD800022B09D9204B03220293002315491846DA
:102BE800CDE9003331F023FC144A06211068033084
:102BF800434203F0030300F0030058BF5842002388
:102C080010604FF4967200938BE7022B8DD9134B0B
:102C1800032202930023CDE903761846CDE9003359
:102C2800044931F004FC80E7049D0020F89C002052
:102C3800C8A7050070060020ECA70500E49C00204A
:102C4800A0A50500C6A505000AA6050058A605000A
:102C5800E09C0020A5A605001BA805004EA80500BD
:102C68002DE9F04F00208FB014F0E8FBD14D102172
:102C7800286038F0DBFD286824F0BEFDCE4CCF4933
:102C880020604CF00DF920686FF0404139F0BAFF30
:102C980020686FF0404139F0CCFF206809213AF0F4
:102CA8000CF82068022139F00CF81021206838F05F
:102CB800BDFD286825F0A6F9C14C6FF040412060A1
:102CC80039F0A0FF20686FF0404139F0B2FF20686A
:102CD8006FF0020139F05DFF20686FF06B0139F089
:102CE8006FFF2068092139F0E8FFB64920684CF0E9
:102CF80061FA6FF07F40266847F0C1FFC0F30723F1
:102D08008DF80400C0F307408DF805308DF80600F3
:102D1800AD4F3046019900223BF0B9FE20680022F1
:102D2800FF213BF0C3FE0022394620683BF0C5FE78
:102D3800286822F0B7F8A54CB721206039F062FF67
:102D48002068B42139F075FF2068092139F0B5FFF2
:102D5800322120684AF059F8286814F06FFB9C4C1F
:102D68009C4E206015F0FEFE20688C2139F04AFF49
:102D78002068232139F05DFF2068032139F009FF1D
:102D880020686FF0180139F01BFF2068092139F01D
:102D980094FF1221206838F049FD206825F032F9A7
:102DA8006FF04041306039F02DFF30686FF04041DE
:102DB80039F03FFF30686FF0360139F0EAFEDFF88E
:102DC80018923068042139F0FBFE3068092139F087
:102DD80074FF494630684CF0EDF96FF07F40D6F843
:102DE800008047F04CFFC0F307238DF80800C0F3BC
:102DF80007408DF809308DF80A00029940460022F4
:102E0800DFF8D8813BF043FE30680022FF213BF019
:102E18004DFE0022414630683BF04FFE206825F009
:102E2800F1F86F4E6FF04041306039F0EBFE3068DA
:102E38006FF0404139F0FDFE30686FF01E0139F047
:102E4800A8FEDFF8A0A13068032139F0B9FE306888
:102E5800092139F032FF514630684CF0ABF96FF078
:102E68007F40D6F800B047F00AFFC0F307238DF87B
:102E78000C00C0F307408DF80D308DF80E00039953
:102E8800584600223BF003FE30680022FF213BF049
:102E98000DFE0022414630683BF00FFE206825F009
:102EA800B1F8514E6FF04041306039F0ABFE3068F8
:102EB8006FF0404139F0BDFE30686FF0040139F021
:102EC80068FE3068042139F07BFE3068092139F04A
:102ED800F4FE494630684CF06DF96FF07F40D6F843
:102EE80000B047F0CCFEC0F307238DF81000C0F304
:102EF80007408DF811308DF81200049958460022C9
:102F08003BF0C5FD30680022FF213BF0CFFD0022D9
:102F1800414630683BF0D1FD206825F073F8334E08
:102F28006FF04041306039F06DFE30686FF040411D
:102F380039F07FFE3068142139F02BFE3068032108
:102F480039F03EFE3068092139F0B7FE5146306845
:102F58004CF030F96FF07F40D6F800A047F08FFEB4
:102F6800C0F307238DF81400C0F307408DF815301F
:102F78008DF816000599504600223BF088FD306810
:102F88000022FF213BF092FD0022414630683BF0D1
:102F980094FD206825F036F8154C6FF0404120600C
:102FA80039F030FE20686FF0404139F042FE206869
:102FB8002B211FE0749D0020709D0020D84A050039
:102FC8006C9D0020C3A50A00246F0500689D0020A1
:102FD800649D0020609D0020F0E00A00507F0500FD
:102FE8005C9D00200EA60A00589D0020549D0020DC
:102FF800509D002039F0CDFD2068032139F0E0FD17
:103008002068092139F059FE494620684CF0D2F869
:103018006FF07F40266847F032FEC0F307238DF833
:103028001800C0F307408DF819308DF81A0006997A
:10303800304600223BF02BFD20680022FF213BF0A8
:1030480035FD0022414620683BF037FD286824F012
:10305800D9FFCE4C6FF04041206039F0D3FD206895
:103068006FF0404139F0E5FD20686FF0040139F058
:1030780090FD2068082139F0A3FD2068092139F066
:103088001CFEC34920684CF095F86FF07F40266815
:1030980047F0F5FDC0F307238DF81C00C0F3074087
:1030A8008DF81D308DF81E000799304600223BF040
:1030B800EEFC20680022FF213BF0F8FC0022B54915
:1030C80020683BF0FAFC286814F0B8F9B24CB34E0B
:1030D800206015F047FD2068492139F093FD2068EC
:1030E8002D2139F0A6FD20686FF0790139F051FDE6
:1030F8002068342139F064FD2068092139F0DDFDAC
:103108001221206838F092FB206822F0C5FC352196
:10311800306039F077FD3068212139F08AFD306858
:103128006FF0010139F035FD3068022139F048FDB2
:103138003068092139F0C1FD30684FF4806138F0FA
:10314800C0FD1021306838F071FB47F2FF50D6F807
:10315800008047F094FDC0F307238DF82000C0F3EA
:1031680007408DF821308DF822000899404600224A
:103178003BF04BFC0022FF2130683BF055FC2068F7
:1031880024F040FF864C6FF04041206039F03AFD52
:1031980020686FF0404139F04CFD20686FF0010164
:1031A80039F0F7FC2068032139F00AFD206809216D
:1031B80039F083FD7B4920684BF0FCFF6FF07F40BE
:1031C800266847F05CFDC0F307238DF82400C0F3A0
:1031D80007408DF825308DF82600099930460022E1
:1031E8003BF055FC20680022FF213BF05FFC0022E9
:1031F800394620683BF061FC286814F01FF96A4CD6
:103208006A4E206015F0AEFC2068492139F0FAFCBE
:1032180020682D2139F00DFD2068032139F0B9FC13
:103228002068482139F0CCFC2068092139F045FD97
:103238001221206838F0FAFA206822F02DFC392192
:10324800306039F0DFFC3068212139F0F2FC306859
:103258006FF0030139F09DFC3068022139F0B0FCB1
:103268003068092139F029FD30684FF4806138F061
:1032780028FD1021306838F0D9FA4D48D6F800807A
:1032880047F0FDFCC0F307238DF82800C0F3074082
:103298008DF829308DF82A000A99404600223BF023
:1032A800B4FB0022FF2130683BF0BEFB206824F00D
:1032B800A9FE404C6FF04041206039F0A3FC206823
:1032C8006FF0404139F0B5FC20686FF0030139F028
:1032D80060FC2068022139F073FC2068092139F06C
:1032E800ECFC354920684BF065FF6FF07F4026689D
:1032F80047F0C5FCC0F307238DF82C00C0F3074046
:103308008DF82D308DF82E000B99304600223BF0B9
:10331800BEFB20680022FF213BF0C8FB0022394693
:1033280020683BF0CAFB286814F088F8234C244E28
:10333800206015F017FC2068492139F063FC2068EB
:103348002D2139F076FC20687A2139F022FC20689A
:10335800352139F035FC2068092139F0AEFC1221FD
:10336800206838F063FA206822F096FB3521306037
:1033780039F048FC3068212139F05BFC30686FF087
:10338800010139F006FC306802211BE04C9D002049
:10339800CFA50A0088740500489D0020449D0020A0
:1033A800409D0020DCA50A003C9D0020389D00209F
:1033B8004848F900349D0020E2A50A00309D00200D
:1033C8002C9D002039F0FCFB3068092139F075FC90
:1033D80030684FF4806138F074FC1021306838F0A0
:1033E80025FA5348D6F8008047F049FCC0F3072374
:1033F8008DF83000C0F307408DF831308DF8320079
:103408000C99404600223BF000FB0022FF21306867
:103418003BF00AFB206824F0F5FD464C6FF0404174
:10342800206039F0EFFB20686FF0404139F001FC73
:1034380020686FF0010139F0ACFB2068032139F0F6
:10344800BFFB2068092139F038FC3B4920684BF064
:10345800B1FE6FF07F40266847F011FCC0F30723E8
:103468008DF83400C0F307408DF835308DF83600FC
:103478000D99304600223BF00AFB20680022FF210C
:103488003BF014FB0022394620683BF016FB286805
:1034980024F0B2F9294C2A4920604BF001FD20683C
:1034A8006FF0404139F0AEFB20686FF0404139F0D1
:1034B800C0FB20687E2139F06CFB2068632139F05D
:1034C8007FFB2068092139F0F8FB2068022138F0D9
:1034D800F8FB1021206838F0A9F9286824F08CF945
:1034E800184C194920604BF0DBFC20686FF0404114
:1034F80039F088FB20686FF0404139F09AFB20686A
:103508006FF0840139F045FB2068642139F058FBDD
:103518002068092139F0D1FB2068022138F0D1FB5D
:10352800102120680FB0BDE8F04F38F07FB900BF18
:103538000767FF00289D0020E8A50A00249D0020B9
:10354800484B0500209D00202C4B05002DE9F04F2D
:103558000020A1B013F072FFCF4D1021286038F081
:1035680065F9CE482C6847F08AFBC0F307238DF82D
:103578000400C0F307408DF805308DF80600019966
:10358800204600223BF041FA0022FF2128683BF048
:103598004BFA286824F030F9C14CC24920604BF03E
:1035A8007FFC20686FF0404139F02CFB20686FF0F9
:1035B800404139F03EFB2068092139F07EFB206844
:1035C800022138F07EFB1021206838F02FF9286896
:1035D80013F034FFB44CB54E206015F0C3FA2068E0
:1035E800582139F00FFB20681A2139F022FB206896
:1035F8006FF0610139F0CDFA20686FF0590139F0A8
:10360800DFFA2068092139F058FB1221206838F0C8
:103618000DF9206824F0F6FC6FF04041306039F075
:10362800F1FA30686FF0404139F003FB30686FF011
:103638001C0139F0AEFA30686FF0030139F0C0FAB6
:10364800DFF86C823068092139F037FB9949306816
:103658004BF0B0FD4046376847F011FBC0F3072335
:103668008DF80800C0F307408DF809308DF80A007E
:10367800DFF844923846029900223BF008FA306895
:103688000022FF213BF012FA0022494630683BF045
:1036980014FA206824F0B6FC884E6FF04041306080
:1036A80039F0B0FA30686FF0404139F0C2FA30684A
:1036B8006FF0080139F06DFA30686FF0040139F0E5
:1036C8007FFA3068092139F0F8FA7D4930684BF003
:1036D80071FD4046376847F0D2FAC0F307238DF8EA
:1036E8000C00C0F307408DF80D308DF80E000399DB
:1036F800384600223BF0CBF930680022FF213BF02E
:10370800D5F90022494630683BF0D7F9206824F003
:1037180079FC6C4C6FF04041206039F073FA2068F6
:103728006FF0404139F085FA20680F2139F031FAFD
:1037380020686FF0020139F043FA634F20680921CD
:1037480039F0BBFA614920684BF034FD38462668E9
:1037580047F095FAC0F307238DF81000C0F307402F
:103768008DF811308DF812000499304600223BF094
:103778008EF920680022FF213BF098F90022494683
:1037880020683BF09AF9286813F058FE504C514EC7
:10379800206015F0E7F92068732139F033FA2068C2
:1037A800232139F046FA20686FF07A0139F0F1F9EF
:1037B80020686FF0490139F003FA2068092139F0CF
:1037C8007CFA1221206838F031F8206824F01AFCBD
:1037D8006FF04041306039F015FA30686FF04041C1
:1037E80039F027FA30686FF0060139F0D2F93068FD
:1037F800032139F0E5F93068092139F05EFA3649D4
:1038080030684BF0D7FC6FF07F40D6F8009047F057
:1038180036FAC0F307238DF81400C0F307408DF87B
:1038280015308DF81600059948460022DFF8AC904F
:103838003BF02DF930680022FF213BF037F90022D8
:10384800494630683BF039F9206824F0DBFB244E08
:103858006FF04041306039F0D5F930686FF0404181
:1038680039F0E7F93068062139F093F9DFF874A0E8
:103878003068032139F0A4F93068092139F01DFABC
:10388800514630684BF096FC6FF07F40D6F800B098
:1038980047F0F5F928E000BF089E0020E76E070012
:1038A800049E0020D84A0500009E0020FC9D0020B0
:1038B800FBFBFF00EDA50A00507F0500F89D0020E6
:1038C8000EA60A00F49D0020FDFDFF00F0A50A00E9
:1038D800F09D0020EC9D0020F3A50A00F85E05008D
:1038E800E89D00207DAF0A00C0F307238DF818007B
:1038F800C0F307408DF819308DF81A00069958461C
:1039080000223BF0C4F830680022FF213BF0CEF8DB
:103918000022494630683BF0D0F8206824F072FB5A
:10392800CE4E6FF04041306039F06CF930686FF07E
:10393800404139F07EF93068122139F02AF93068AF
:10394800032139F03DF93068092139F0B6F9C44945
:1039580030684BF02FFC6FF07F40D6F800B047F08E
:103968008EF9C0F307238DF81C00C0F307408DF8CB
:103978001D308DF81E000799584600223BF087F845
:1039880030680022FF213BF091F800224946306858
:103998003BF093F8206824F035FBB24E6FF04041BD
:1039A800306039F02FF930686FF0404139F041F953
:1039B80030681F2139F0EDF83068032139F000F93B
:1039C8003068092139F079F9514630684BF0F2FB3B
:1039D8006FF07F40D6F800A047F051F9C0F30723F5
:1039E8008DF82000C0F307408DF821308DF82200B3
:1039F8000899504600223BF04AF830680022FF211F
:103A08003BF054F80022494630683BF056F82068ED
:103A180024F0F8FA944C6FF04041206039F0F2F845
:103A280020686FF0404139F004F920682B2139F003
:103A3800B0F82068032139F0C3F82068092139F06B
:103A48003CF98A4920684BF0B5FB6FF07F40266847
:103A580047F015F9C0F307238DF82400C0F3074099
:103A68008DF825308DF826000999304600223BF064
:103A78000EF820680022FF213BF018F80022494682
:103A880020683BF01AF8286813F0D8FC784C794E77
:103A9800206015F067F82068A12139F0B3F8206894
:103AA800A92139F0C6F82068062139F072F8206893
:103AB8001E2139F085F82068092139F0FEF8122115
:103AC800206837F0B3FE206824F09CFA6FF040417C
:103AD800306039F097F830686FF0404139F0A9F854
:103AE8003068062139F055F830686FF0060139F072
:103AF80067F83068092139F0E0F85F4930684BF021
:103B080059FB4046D6F8009047F0B9F8C0F30723B0
:103B18008DF82800C0F307408DF829308DF82A0069
:103B28000A99484600223AF0B2FF30680022FF2185
:103B38003AF0BCFF0022514930683AF0BEFF2068D5
:103B480024F060FA4E4E6FF04041306039F05AF878
:103B580030686FF0404139F06CF830686FF002015E
:103B680039F017F83068222139F02AF8306809212D
:103B780039F0A3F8434930684BF01CFB3846D6F8B7
:103B8800008047F07CF8C0F307238DF82C00C0F3C1
:103B980007408DF82D308DF82E000B9940460022F5
:103BA8003AF075FF30680022FF213AF07FFF0022CB
:103BB800354930683AF081FF206823F01DFE334C08
:103BC800334920604BF06CF920686FF0404139F0C0
:103BD80019F820686FF0404139F02BF820686FF031
:103BE800080138F0D6FF2068452138F0E9FF206841
:103BF800092139F062F82068022138F062F81021B2
:103C0800206837F013FE286823F0F6FD214C22497E
:103C180020604BF045F920686FF0404138F0F2FF22
:103C280020686FF0404139F004F820687E2138F0B0
:103C3800B0FF2068632138F0C3FF2068092139F0FC
:103C48003CF82068022138F03CF81021206837F051
:103C5800EDFD286823F0D0FD20E000BFE49D0020A2
:103C6800F6A50A00E09D0020DC9D0020F9A50A00C9
:103C7800D89D0020D49D0020FCA50A00188A0500C4
:103C8800D09D002003A60A00B4840500CC9D002026
:103C9800F44A0500C89D0020484B0500D24CD34982
:103CA80020604BF0FDF820686FF0404138F0AAFF23
:103CB80020686FF0404138F0BCFF20686FF0840145
:103CC80038F067FF2068642138F07AFF20680921FE
:103CD80038F0F3FF2068022137F0F3FF1021206845
:103CE80037F0A4FD286813F0A9FBC14CC14D206032
:103CF80014F038FF2068AE2138F084FF206867216F
:103D080038F097FF2068792138F043FF20686FF07A
:103D1800570138F055FF2068092138F0CEFF1221ED
:103D2800206837F083FD206824F06CF96FF040417B
:103D3800286038F067FF28686FF0404138F079FF55
:103D480028686FF0410138F024FF28686FF00301FC
:103D580038F036FF2868092138F0AFFFA6492868EF
:103D68004BF028FA38462E6846F089FFC0F307233F
:103D78008DF83000C0F307408DF831308DF83200EF
:103D88000C99304600223AF082FE0022FF21286872
:103D98003AF08CFE206813F051FB984D51212860B1
:103DA80038F030FF2868302138F043FF28686FF07A
:103DB800050138F0EEFE28686FF0010138F000FFC9
:103DC8002868092138F079FF1021286837F02EFD7E
:103DD8008B482E6846F053FFC0F307238DF8340054
:103DE800C0F307408DF835308DF836000D99304610
:103DF80000223AF00AFE0022FF2128683AF014FE59
:103E08004AF6FF602E6846F03AFFC0F307238DF8A4
:103E18003800C0F307408DF839308DF83A000E9914
:103E2800002230463AF007FE00202E6846F027FFB1
:103E3800C0F307238DF83C00C0F307408DF83D30F0
:103E48008DF83E000F99304600223AF00AFE002213
:103E5800FF2128683AF014FE206824F0D3F8694E50
:103E68006FF04041306038F0CDFE30686FF040416F
:103E780038F0DFFE30686FF01E0138F08AFEDFF898
:103E880088A130686FF0110138F09AFE3068092176
:103E980038F013FF514630684BF08CF96FF07F40D3
:103EA800356846F0ECFEC0F307238DF84000C0F3F8
:103EB80007408DF841308DF84200109928460022BD
:103EC800524D3AF0E4FD30680022FF213AF0EEFD51
:103ED8000022294630683AF0F0FD206824F092F874
:103EE8004B4E6FF04041306038F08CFE30686FF018
:103EF800404138F09EFE3068072138F04AFE454FB1
:103F080030686FF0100138F05BFE3068092138F036
:103F1800D4FE394630684BF04DF96FF07F40D6F843
:103F2800008046F0ACFEC0F307238DF84400C0F3D0
:103F380007408DF845308DF846001199404600221B
:103F48003AF0A5FD30680022FF213AF0AFFD0022CB
:103F5800294630683AF0B1FD206824F053F82E4E17
:103F68006FF04041306038F04DFE30686FF04041EE
:103F780038F05FFE30686FF01E0138F00AFEDFF897
:103F88009C9030686FF0010138F01AFE3068092102
:103F980038F093FE494630684BF00CF96FF07F40DB
:103FA800D6F8008046F06BFEC0F307238DF8480072
:103FB800C0F307408DF849308DF84A001299404601
:103FC80000223AF064FD30680022FF213AF06EFDCD
:103FD8000022294630683AF070FD206824F012F873
:103FE8000F4E6FF040411DE0C49D00202C4B050092
:103FF800C09D0020BC9D002009A60A00B89D002095
:10400800F06C0900B49D00200DA60A009459050023
:10401800B09D002010A60A00AC9D002015A60A003D
:10402800A89D0020306038F0EDFD30686FF0404109
:1040380038F0FFFD3068072138F0ABFD30686FF0CD
:10404800010138F0BDFD3068092138F036FE3946E7
:1040580030684BF0AFF86FF07F40D6F8008046F03C
:104068000EFEC0F307238DF84C00C0F307408DF80F
:104078004D308DF84E001399404600223AF007FD66
:1040880030680022FF213AF011FD002229463068ED
:104098003AF013FD206823F0B5FFD74E6FF040418A
:1040A800306038F0AFFD30686FF0404138F0C1FD46
:1040B80030686FF01D0138F06CFDDFF84083306820
:1040C8000D2138F07DFD3068092138F0F6FD4146B4
:1040D80030684BF06FF86FF07F40D6F800B046F0CC
:1040E800CEFDC0F307238DF85000C0F307408DF8CC
:1040F80051308DF852001499584600223AF0C7FC06
:1041080030680022FF213AF0D1FC002229463068AD
:104118003AF0D3FC206823F075FFB94C6FF04041AA
:10412800206038F06FFD20686FF0404138F081FD65
:104138002068072138F02DFD20680D2138F040FD5A
:104148002068092138F0B9FD394620684BF032F86B
:104158006FF07F40266846F092FDC0F307238DF884
:104168005400C0F307408DF855308DF85600159966
:10417800304600223AF08BFC20680022FF213AF0FA
:1041880095FC0022294620683AF097FC9D4B9E4CEE
:10419800186813F053F9206014F0E4FC2068AE218D
:1041A80038F030FD2068672138F043FD2068792118
:1041B80038F0EFFC20686FF0250138F001FD206829
:1041C800092138F07AFD1221206837F02FFB20688A
:1041D80023F018FF8D4E6FF04041306038F012FD2B
:1041E80030686FF0404138F024FD30686FF04101CD
:1041F80038F0CFFC30686FF0020138F0E1FC30682D
:10420800092138F05AFD824930684AF0D3FF8148C5
:10421800D6F800B046F033FDC0F307238DF85800F8
:10422800C0F307408DF859308DF85A001699584652
:1042380000223AF02CFC0022FF2130683AF036FCCC
:10424800206813F0FBF8744E5121306038F0DAFC26
:104258003068302138F0EDFC30686FF0050138F037
:1042680098FC30686FF0010138F0AAFC3068092129
:1042780038F023FD1021306837F0D8FA6748D6F8AF
:1042880000B046F0FCFCC0F307238DF85C00C0F3D7
:1042980007408DF85D308DF85E001799584600226A
:1042A8003AF0B3FB0022FF2130683AF0BDFB4AF632
:1042B800FF60D6F800B046F0E2FCC0F307238DF8A3
:1042C8006000C0F307408DF861308DF862001899DE
:1042D800002258463AF0AFFB0020D6F800B046F06E
:1042E800CEFCC0F307238DF86400C0F307408DF8B7
:1042F80065308DF866001999584600223AF0B1FBEE
:104308000022FF2130683AF0BBFB206823F07AFED8
:10431800434E6FF04041306038F074FC30686FF005
:10432800404138F086FC30686FF01C0138F031FCF1
:1043380030686FF0100138F043FC3068092138F01C
:10434800BCFC514630684AF035FF6FF07F40D6F824
:1043580000A046F094FCC0F307238DF86800C0F372
:1043680007408DF869308DF86A001A995046002286
:104378003AF08DFB30680022FF213AF097FB0022CB
:10438800294630683AF099FB206823F03BFE254E19
:104398006FF04041306038F035FC30686FF04041D4
:1043A80038F047FC3068072138F0F3FB30686FF0CD
:1043B8000F0138F005FC3068092138F07EFC3946D9
:1043C80030684AF0F7FE6FF07F40D6F800A046F05C
:1043D80056FCC0F307238DF86C00C0F307408DF836
:1043E8006D308DF86E001B99504600223AF04FFB55
:1043F8003068002218E000BFA49D002018A60A001B
:10440800A09D0020089E00209C9D0020989D0020D3
:104418001BA60A00FDFDFF00949D0020F06C09001A
:10442800909D00208C9D0020FF213AF03FFB002248
:10443800294630683AF041FB206823F0E3FD8F4EAF
:104448006FF04041306038F0DDFB30686FF040417C
:1044580038F0EFFB30686FF01C0138F09AFB3068D9
:104468006FF0010138F0ACFB3068092138F025FC09
:10447800494630684AF09EFE6FF07F40D6F80090BB
:1044880046F0FDFBC0F307238DF87000C0F307402A
:104498008DF871308DF872001C99484600223AF068
:1044A800F6FA30680022FF213AF000FB0022294684
:1044B80030683AF002FB206823F0A4FD704E6FF0DC
:1044C8004041306038F09EFB30686FF0404138F072
:1044D800B0FB3068072138F05CFB30686FF00101F1
:1044E80038F06EFB3068092138F0E7FB3946306850
:1044F8004AF060FE6FF07F40D6F8009046F0BFFBB0
:10450800C0F307238DF87400C0F307408DF87530A9
:104518008DF876001D99484600223AF0B8FA3068BE
:104528000022FF213AF0C2FA0022294630683AF008
:10453800C4FA206823F066FD524E6FF040413060A7
:1045480038F060FB30686FF0404138F072FB30683B
:104558006FF01C0138F01DFB30680D2138F030FB7E
:104568003068092138F0A9FB414630684AF022FE3C
:104578006FF07F40D6F8008046F081FBC0F3072338
:104588008DF87800C0F307408DF879308DF87A00FF
:104598001E99404600223AF07AFA30680022FF213C
:1045A8003AF084FA0022294630683AF086FA206800
:1045B80023F028FD344E6FF04041306038F022FB84
:1045C80030686FF0404138F034FB3068072138F02C
:1045D800E0FA30680D2138F0F3FA3068092138F034
:1045E8006CFB394630684AF0E5FD6FF07F4037686C
:1045F80046F045FBC0F307238DF87C00C0F3074065
:104608008DF87D308DF87E001F99384600223AF0EB
:104618003EFA30680022FF213AF048FA0022294683
:1046280030683AF04AFA206823F0E6F8174C18493F
:1046380020604AF035FC20686FF0404138F0E2FA1B
:1046480020686FF0404138F0F4FA20686FF04101BB
:1046580038F09FFA20686FF01A0138F0B1FA206834
:10466800092138F02AFB2068022137F02AFB1021A3
:10467800206821B0BDE8F04F37F0D8B8889D0020F9
:10468800849D0020809D00207C9D0020789D002036
:104698009C4B05002DE9F04300208BB012F0CEFEB4
:1046A800CE4E1021306037F0C1F8306823F0A4F8FE
:1046B800CB4CCC4920604AF0F3FB20686FF04041B6
:1046C80038F0A0FA20686FF0404138F0B2FA20685C
:1046D800092138F0F2FA2068022137F0F2FA1021A5
:1046E800206837F0A3F8306812F0A8FEBE4CBF4D22
:1046F800206014F037FA20688C2138F083FA20689B
:104708003C2138F096FA2068062138F042FA2068F1
:104718006FF0080138F054FA2068092138F0CDFA12
:104728001221206837F082F8206823F06BFC6FF0C4
:104738004041286038F066FA28686FF0404138F048
:1047480078FA28686FF02B0138F023FA28684FF0C0
:10475800FF3138F035FADFF898922868092138F0E7
:10476800ACFAA44928684AF025FD48462F6846F067
:1047780086FAC0F307238DF80400C0F307408DF8CC
:1047880005308DF806000199384600229A4F3AF014
:104798007EF928680022FF213AF088F9002239467C
:1047A80028683AF08AF9206823F02CFC934D6FF0C2
:1047B8004041286038F026FA28686FF0404138F008
:1047C80038FA28686FF0080138F0E3F928686FF0C4
:1047D800040138F0F5F92868092138F06EFA88499B
:1047E80028684AF0E7FC4846D5F8008046F047FAC2
:1047F800C0F307238DF80800C0F307408DF809308F
:104808008DF80A000299404600223AF040F92868DB
:104818000022FF213AF04AF90022394628683AF086
:104828004CF9206823F0EEFB764C6FF04041206095
:1048380038F0E8F920686FF0404138F0FAF920685C
:104848001F2138F0A6F920684FF0FF3138F0B8F989
:104858002068092138F031FA6B4920684AF0AAFC2F
:104868006A48256846F00BFAC0F307238DF80C0058
:10487800C0F307408DF80D308DF80E0003992846D7
:1048880000223AF004F920680022FF213AF00EF9DC
:104898000022394620683AF010F9306812F0CEFD4F
:1048A8005B4C5C4D206014F05DF92068732138F092
:1048B800A9F92068232138F0BCF920686FF00B01B2
:1048C80038F067F920681A2138F07AF92068092148
:1048D80038F0F3F91221206836F0A8FF206823F099
:1048E80091FB6FF04041286038F08CF928686FF030
:1048F800404138F09EF928686FF0150138F049F901
:104908002868042138F05CF92868092138F0D5F9BD
:10491800414928684AF04EFC6FF07F402F6846F006
:10492800AEF9C0F307238DF81000C0F307408DF8E7
:1049380011308DF81200049938460022374F3AF0AA
:10494800A6F828680022FF213AF0B0F8002239467C
:1049580028683AF0B2F8206823F054FB304D6FF025
:104968004041286038F04EF928686FF0404138F02F
:1049780060F928686FF0030138F00BF9DFF8A480BC
:104988002868032138F01CF92868092138F095F9BE
:10499800414628684AF00EFC6FF07F40D5F8009039
:1049A80046F06DF9C0F307238DF81400C0F30740F3
:1049B8008DF815308DF816000599484600223AF012
:1049C80066F828680022FF213AF070F8002239467C
:1049D80028683AF072F8206826E000BF489E002058
:1049E800449E0020D84A0500409E00203C9E00209E
:1049F800FBFBFF00EDA50A00188A0500389E002081
:104A08000EA60A00349E0020F0A50A00FDFDFF0056
:104A1800309E00202C9E0020F3A50A00C0690500E6
:104A2800289E00207DAF0A0023F0ECFAAF4D6FF00E
:104A38004041286038F0E6F828686FF0404138F0C7
:104A4800F8F828680C2138F0A4F82868042138F010
:104A5800B7F82868092138F030F9A54928684AF0DC
:104A6800A9FB6FF07F40D5F8009046F008F9C0F335
:104A780007238DF81800C0F307408DF819308DF81A
:104A88001A000699484600223AF001F828680022E0
:104A9800FF213AF00BF80022394628683AF00DF861
:104AA800206823F0AFFA934D6FF04041286038F04A
:104AB800A9F828686FF0404138F0BBF828681F2132
:104AC80038F067F82868032138F07AF8286809214F
:104AD80038F0F3F8414628684AF06CFB6FF07F40E5
:104AE800D5F8008046F0CBF8C0F307238DF81C00FA
:104AF800C0F307408DF81D308DF81E000799404619
:104B0800002239F0C4FF28680022FF2139F0CEFFC7
:104B180000223946286839F0D0FF206823F072FA5D
:104B2800754C6FF04041206038F06CF820686FF0E9
:104B3800404138F07EF82068302138F02AF82068A3
:104B4800032138F03DF82068092138F0B6F86B49A0
:104B580020684AF02FFB6FF07F40256846F08FF8F9
:104B6800C0F307238DF82000C0F307408DF82130EB
:104B78008DF8220008992846002239F088FF20681D
:104B88000022FF2139F092FF00223946206839F0CF
:104B980094FF306812F052FC594C206013F0E2FF89
:104BA80020685B2138F02EF82068282138F041F879
:104BB8002068022137F0EDFF20686FF0540137F0CC
:104BC800FFFF2068092138F078F81221206836F0B4
:104BD8002DFE206823F016FA4A4C6FF04041206001
:104BE80038F010F820686FF0404138F022F820685B
:104BF8006FF0050137F0CDFF20684FF0FF3137F037
:104C0800DFFF2068092138F058F83F4920684AF04A
:104C1800D1FA3E48256846F032F8C0F307238DF8EC
:104C28002400C0F307408DF825308DF82600099937
:104C38002846002239F02BFF20680022FF2139F096
:104C480035FF00223249206839F037FF306822F0FA
:104C5800D3FD304C304920604AF022F920686FF0CB
:104C6800404137F0CFFF20686FF0404137F0E1FF57
:104C780020687E2137F08DFF2068632137F0A0FF80
:104C88002068092138F019F82068022137F019F84E
:104C98001021206836F0CAFD306822F0ADFD1F4CA7
:104CA8001F4920604AF0FCF820686FF0404137F057
:104CB800A9FF20686FF0404137F0BBFF20686FF014
:104CC800840137F066FF2068642137F079FF206897
:104CD800092137F0F2FF2068022136F0F2FF102197
:104CE80020680BB0BDE8F04336F0A0BD249E00203C
:104CF800F6A50A00209E00201C9E0020F9A50A00A7
:104D0800189E0020149E002020A60A00FEFEFE0029
:104D1800EC790500109E0020484B05000C9E0020F1
:104D28002C4B05002DE9F04300208DB012F086FBD6
:104D3800CE4D1021286036F079FD286822F05CFD00
:104D4800CB4CCC4920604AF0ABF820686FF040416A
:104D580037F058FF20686FF0404137F06AFF20684D
:104D6800092137F0AAFF2068022136F0AAFF102196
:104D7800206836F05BFD286812F060FBBE4CBF4E21
:104D8800206013F0EFFE20688C2137F03BFF20688D
:104D9800272137F04EFF20686FF03C0137F0F9FE0D
:104DA80020686FF0590137F00BFF2068092137F0B0
:104DB80084FF1221206836F039FD206823F022F99B
:104DC8006FF04041306037F01DFF30686FF04041B0
:104DD80037F02FFF30686FF02B0137F0DAFE3068BC
:104DE8004FF0FF3137F0ECFEDFF89492306809217C
:104DF80037F063FFA34930684AF0DCF94846376862
:104E080045F03DFFC0F307238DF80400C0F30740C9
:104E18008DF805308DF806000199384600229A4F22
:104E280039F035FE30680022FF2139F03FFE0022BC
:104E38003946306839F041FE206823F0E3F8934E94
:104E48006FF04041306037F0DDFE30686FF0404170
:104E580037F0EFFE30686FF0080137F09AFE3068DF
:104E68006FF0040137F0ACFE3068092137F025FFF8
:104E7800874930684AF09EF94846D6F8008045F0E0
:104E8800FEFEC0F307238DF80800C0F307408DF835
:104E980009308DF80A0002994046002239F0F7FDE2
:104EA80030680022FF2139F001FE002239463068BF
:104EB80039F003FE206823F0A5F8764C6FF04041E6
:104EC800206037F09FFE20686FF0404137F0B1FE58
:104ED80020681F2137F05DFE20684FF0FF3137F062
:104EE8006FFE2068092137F0E8FE6B4920684AF018
:104EF80061F96A48266845F0C2FEC0F307238DF8B9
:104F08000C00C0F307408DF80D308DF80E000399A2
:104F18003046002239F0BBFD20680022FF2139F01D
:104F2800C5FD00223946206839F0C7FD286812F00F
:104F380085FA5B4C5B4E206013F014FE20687321E9
:104F480037F060FE2068232137F073FE20682321A4
:104F580037F01FFE20686FF04F0137F031FE2068F0
:104F6800092137F0AAFE1221206836F05FFC20687C
:104F780023F048F86FF04041306037F043FE306866
:104F88006FF0404137F055FE30686FF0150137F08B
:104F980000FE3068042137F013FE3068092137F02D
:104FA8008CFE414930684AF005F96FF07F40376858
:104FB80045F065FEC0F307238DF81000C0F30740E5
:104FC8008DF811308DF81200049938460022374FB9
:104FD80039F05DFD30680022FF2139F067FD0022BD
:104FE8003946306839F069FD206823F00BF8304EF7
:104FF8006FF04041306037F005FE30686FF0404197
:1050080037F017FE30686FF0030137F0C2FDDFF8A4
:10501800A4803068032137F0D3FD3068092137F0C8
:105028004CFE414630684AF0C5F86FF07F40D6F82C
:10503800009045F024FEC0F307238DF81400C0F358
:1050480007408DF815308DF816000599484600225E
:1050580039F01DFD30680022FF2139F027FD0022BC
:105068003946306839F029FD206825E0A49E0020E3
:10507800A09E0020D84A05009C9E0020989E0020F3
:10508800FBFBFF00EDA50A00188A0500949E00208E
:105098000EA60A00909E0020F0A50A00FDFDFF0064
:1050A8008C9E0020889E0020F3A50A00C069050098
:1050B800849E00207DAF0A0022F0A4FFCD4E6FF041
:1050C8004041306037F09EFD30686FF0404137F066
:1050D800B0FD30680C2137F05CFD3068042137F0F2
:1050E8006FFD3068092137F0E8FDC34930684AF0A0
:1050F80061F86FF07F40D6F8009045F0C0FDC0F32E
:1051080007238DF81800C0F307408DF819308DF883
:105118001A0006994846002239F0B9FC3068002286
:10512800FF2139F0C3FC00223946306839F0C5FC4C
:10513800206822F067FFB14E6FF04041306037F0D1
:1051480061FD30686FF0404137F073FD30681F2112
:1051580037F01FFD3068032137F032FD3068092130
:1051680037F0ABFD414630684AF024F86FF07F40D5
:10517800D6F8008045F083FDC0F307238DF81C00A6
:10518800C0F307408DF81D308DF81E000799404682
:10519800002239F07CFC30680022FF2139F086FCBF
:1051A80000223946306839F088FC206822F02AFF4E
:1051B800934C6FF04041206037F024FD20686FF079
:1051C800404137F036FD2068302137F0E2FC206896
:1051D800032137F0F5FC2068092137F06EFD894975
:1051E800206849F0E7FF6FF07F40266845F047FDEB
:1051F800C0F307238DF82000C0F307408DF8213055
:105208008DF8220008993046002239F040FC2068C9
:105218000022FF2139F04AFC00223946206839F083
:105228004CFC286812F00AF9774C784E206013F08D
:1052380099FC20686B2137F0E5FC2068252137F0C0
:10524800F8FC20686FF02D0137F0A3FC2068452199
:1052580037F0B6FC2068092137F02FFD12212068AD
:1052680036F0E4FA206822F0C7FA6949306049F05C
:1052780017FE30686FF0404137F0C4FC30686FF0BB
:10528800404137F0D6FC30686FF01C0137F081FCE4
:1052980030684FF0FF3137F093FC3068092137F060
:1052A8000CFD3068022136F00CFD1021306836F014
:1052B800BDFA206822F0A6FE564C6FF040412060EF
:1052C80037F0A0FC20686FF0404137F0B2FC20684E
:1052D8000E2137F05EFC2068002137F071FC206851
:1052E800092137F0EAFC4C49206849F063FF6FF068
:1052F8007F40266845F0C3FCC0F307238DF82400DF
:10530800C0F307408DF825308DF82600434F30460E
:105318000999002239F0BBFB20680022FF2139F0EF
:10532800C5FB00223946206839F0C7FB286812F00F
:1053380085F83B4C3B4E206013F014FC20687A2122
:1053480037F060FC2068282137F073FC206845217D
:1053580037F01FFC20686FF01D0137F031FC206822
:10536800092137F0AAFC1221206836F05FFA20687C
:1053780022F042FA2C49306049F092FD30686FF013
:10538800404137F03FFC30686FF0404137F051FC46
:105398003068222137F0FDFB30686FF0010137F0EB
:1053A8000FFC3068092137F088FC3068022136F09C
:1053B80088FC1021306836F039FA206822F022FE85
:1053C8001A4C6FF04041206037F01CFC20686FF0E9
:1053D800404137F02EFC20686FF0100137F0D9FB00
:1053E80020684FF0FF3137F0EBFB2068092137F0D8
:1053F80064FC1DE0809E0020F6A50A007C9E00202B
:10540800789E0020F9A50A00749E0020709E002056
:10541800644B05006C9E002027A60A0088740500CE
:10542800689E0020649E0020804B0500609E00203E
:105438007A49206849F0BEFE7948266845F01FFC85
:10544800C0F307238DF82800C0F307408DF82930F2
:105458008DF82A000A993046002239F018FB206896
:105468000022FF2139F022FB00223946206839F05A
:1054780024FB286811F0E2FF6A4C6B4E206013F0A1
:1054880071FB20689C2137F0BDFB20681A2137F09A
:10549800D0FB2068102137F07CFB2068112137F001
:1054A8008FFB2068092137F008FC1221206836F0AC
:1054B800BDF9206822F0A0F95C49306049F0F0FCA1
:1054C80030686FF0404137F09DFB30686FF0404125
:1054D80037F0AFFB30686FF03C0137F05AFB3068AB
:1054E8006FF0010137F06CFB3068092137F0E5FBFC
:1054F8003068022136F0E5FB1021306836F096F965
:10550800206822F07FFD4A4C6FF04041206037F060
:1055180079FB20686FF0404137F08BFB20680B2146
:1055280037F037FB20686FF0010137F049FB20683E
:10553800092137F0C2FB3F49206849F03BFE6FF074
:105548007F40266845F09BFBC0F307238DF82C00AD
:10555800C0F307408DF82D308DF82E000B9930469A
:10556800002239F094FA20680022FF2139F09EFACF
:1055780000223946206839F0A0FA286822F03CF960
:105588002D4C2E49206049F08BFC20686FF040417B
:1055980037F038FB20686FF0404137F04AFB20684D
:1055A8007E2137F0F6FA2068632137F009FB20687E
:1055B800092137F082FB2068022136F082FB102196
:1055C800206836F033F9286822F016F91C4C1D497A
:1055D800206049F065FC20686FF0404137F012FB0D
:1055E80020686FF0404137F024FB20686FF0840199
:1055F80037F0CFFA2068642137F0E2FA20680921F1
:1056080037F05BFB2068022136F05BFB1021206835
:105618000DB0BDE8F04336F009B900BF20A60A0076
:10562800FEFEFE005C9E0020589E0020104B0500E8
:10563800549E00202BA60A00509E0020484B0500CF
:105648004C9E00202C4B05001FB51CF029FC1F4B5D
:10565800186014F009FC044605201CF0C3FCC0F3D4
:1056680007238DF808008DF80930C0F307430020A0
:105678008DF80A301CF0B6FCC0F307238DF80D3006
:10568800C0F307438DF80E30114B8DF80C00DDE99F
:1056980002120093204600231DF076FF01462046A3
:1056A80014F01EFEFEF7F6FFFFF73CFBFDF74EFF7A
:1056B800FDF7D6FA002011F0C1FE064B1860064B24
:1056C800186804B0BDE8104039F0AFBE1C9D00203A
:1056D8005C640500A89E0020489E00202DE9F04F3C
:1056E800B64BB74EB74D3360B74BDFF8E082B84CD6
:1056F8002B60B84BB84FC8F800302368B74A03F09E
:105708000703022B9DB03A6043D94FF00009B44B10
:105718000392029303224B4621464846CDE900995D
:105728002EF09AFE236803F00703022B31D9336861
:1057380003220393AB4B2146CDE9019348464B46E0
:10574800CDF800902EF088FE236803F00703022BA3
:105758001FD92B6803220393A34B2146CDE901935C
:1057680048464B46CDF800902EF076FE236803F0AD
:105778000703022B0DD9D8F80030032203939B4B63
:105788002146CDE9019348464B46CDF800902EF0CE
:1057980063FE38682EF05EFE0346002840F018824B
:1057A8002268510707D0924A8949CDE901020122AE
:1057B80000902EF051FE30682EF04CFE0346002873
:1057C80040F015822268520707D08A4A8049CDE9FD
:1057D8000102012200902EF03FFE28682EF03AFECA
:1057E8000346002840F012822268510707D0824AF7
:1057F8007749CDE90102012200902EF02DFED8F85C
:1058080000002EF027FE0346002840F00E82226892
:10581800520707D0794A6E49CDE90102012200906A
:105828002EF01AFE38682EF015FE002800F00C82C3
:10583800DFF8CCA150462EF00DFE002800F01782AC
:10584800236803F00703022B0CD9DAF8003003228F
:1058580003936C4B5E49029300231846CDE900334D
:105868002EF0FAFD4FF008090023CDE91633022384
:105878008DF860309DF86030DAF8082043F00203B4
:105888008DF86030D2F808B01FFA89F301225C481D
:1058980016A9D847034670B9226802F00702022AFF
:1058A80009D9594A4A49CDE90102CDF80C90032299
:1058B80000902EF0D1FD09F10109B9F1780FD3D18B
:1058C800D8F800002EF0C6FD002835D00A234FF086
:1058D80000090321D8F8000016AACDE916392EF0E0
:1058E800CAFD0028236880F2D18113F0060F0BD07F
:1058F800464B0390CDE9019302224B464846344972
:10590800CDF800902EF0A8FD0721D8F8000016AABF
:105918002EF0B1FD0028236880F2C98113F0060F2C
:105928000AD03B4B03900293002302221846CDE98C
:10593800003327492EF090FD28682EF08BFDE0B14A
:105948000A234FF000084021286816AACDE9163826
:105958002EF091FD0028236880F2B98113F0060F1C
:105968000BD02C4B0390CDE90183022243464046DD
:105978001749CDF800802EF06FFD38682EF06AFDCB
:10598800002864D038682EF061FD8046002840F079
:10599800D981DFF88490DFF884A04A460D21386861
:1059A8002EF076FD5246102138682EF071FD2368DE
:1059B80003F00703022B4AD932E000BFD83E0500A6
:1059C800209F00201C9F0020FC3E0500189F0020FF
:1059D80008070020203F0500249F0020B43E050052
:1059E80033A60A004DA60A0068A60A0083A60A0084
:1059F8009EA60A00BFA80A00D0A60A00F3A60A00BD
:105A0800B83D050016A70A002DA70A0062A70A00DC
:105A1800ADA70A00F6A70A00109F0020089F0020E3
:105A2800DAF8043003220693DAF80030404605938A
:105A3800D9F80430AE490493D9F80030CDF8008085
:105A48000393AC4BCDE9018343462EF005FD28684E
:105A58002EF000FD10B328682EF0F8FC0746002849
:105A680040F08081DFF890820E21424628682EF0AF
:105A78000FFD236803F00703022B0FD9D8F8043071
:105A880003220493D8F80030384603939B4B984977
:105A9800CDE9017300973B462EF0DEFC30682EF00E
:105AA800D9FC00283BD030682EF0D4FC03460028EF
:105AB80040F068812268510707D0914A8C49CDE9A6
:105AC8000102012200902EF0C7FC8E4F884E3868E4
:105AD8002EF0BCFC0446002840F065828A4D0B215C
