:020000040000FA
:10000000B0720320C5B60000BB730300B1B6000098
:10001000B1B60000B1B60000B1B60000B1B6000044
:1000200000000000000000000000000041B80000D7
:10003000B1B6000000000000D9B70000B1B6000062
:10004000D5B90000D5B90000D5B90000D5B9000078
:10005000D5B90000D5B90000D5B90000D5B9000068
:10006000D5B90000D5B90000D5B90000D5B9000058
:10007000D5B90000D5B90000D5B90000D5B9000048
:10008000D5B90000D5B90000D5B90000D5B9000038
:10009000D5B90000D5B90000D5B90000D5B9000028
:1000A000D5B90000D5B90000D5B90000D5B9000018
:1000B000D5B90000D5B90000D5B90000D5B9000008
:1000C000D5B90000D5B90000D5B90000D5B90000F8
:1000D000D5B90000D5B90000D5B90000D5B90000E8
:1000E000D5B90000D5B90000D5B90000D5B90000D8
:1000F000D5B90000D5B90000D5B90000D5B90000C8
:10010000D5B90000D5B90000D5B90000D5B90000B7
:10011000D5B90000D5B90000D5B90000D5B90000A7
:10012000D5B90000D5B90000D5B90000D5B9000097
:10013000D5B90000D5B90000D5B90000D5B9000087
:10014000D5B90000D5B90000D5B90000D5B9000077
:04015000D5B900001D
:1001580080EA101404F0F01480EA0410604081EA88
:10016800111404F0F01481EA0411614082EA1214B7
:1001780004F0F01482EA0412624083EA131404F0D3
:10018800F01483EA0413634080EA102404F47F44E3
:1001980080EA0420604081EA112404F47F4481EA63
:1001A8000421614082EA122404F47F4482EA042292
:1001B800624083EA132404F47F4483EA04236340FF
:1001C80081EA500404F0553480EA4400614083EA2F
:1001D800520404F0553482EA4402634082EA9004EF
:1001E80004F0333480EA8400624083EA910404F026
:1001F800333481EA84016340704700BF82EA900487
:1002080004F0333480EA8400624083EA910404F005
:10021800333481EA8401634081EA500404F05534A0
:1002280080EA4400614083EA520404F0553482EACB
:100238004402634080EA102404F47F4480EA0420E6
:10024800604081EA112404F47F4481EA042161407A
:1002580082EA122404F47F4482EA0422624083EA98
:10026800132404F47F4483EA0423634080EA1014CF
:1002780004F0F01480EA0410604081EA111404F0DC
:10028800F01481EA0411614082EA121404F0F014B7
:1002980082EA0412624083EA131404F0F01483EA39
:1002A80004136340704700BF2DE9F14F94464FEAAD
:1002B800930B8A68CB6808684968FFF749FF0BF118
:1002C800060E33E083EA134480EA134582EA1347B3
:1002D80046BA96EA3444604000F00F1684EA0634C1
:1002E80020F00F1684EA161054BA94EA01067240F8
:1002F80002F00F1486EA043622F00F1486EA14126C
:100308004CBA6540694001F00F1485EA043521F0C4
:100318000F1485EA14115CBA67407B4003F00F1490
:1003280087EA043723F00F1487EA1413BCE8F000B7
:100338006040694072407B4000F0E03400F01035C6
:1003480000F00F3040EA540040EAC50080EA90040B
:1003580004F0332480EA8400604001F0E03401F0C6
:10036800103501F00F3141EA540141EAC50181EA33
:10037800910404F0332481EA8401614002F0E034FE
:1003880002F0103502F00F3242EA540242EAC50286
:1003980082EA920404F0332482EA8402624003F081
:1003A800E03403F0103503F00F3343EA540343EA13
:1003B800C50383EA930404F0332483EA8403634087
:1003C80081EA324787EA134581EA354690EA06040E
:1003D80084EA034B82EA1B4280EA044484EA054427
:1003E80083EA144A85EA14448BEA044B84EA3744C6
:1003F80081EA0B4181EA164104EA0A00454082EA93
:1004080004082BEA080041408AEA0B0602EA0600C3
:1004180084EA34438AEA3A4603EA060778404540C4
:10042800414088EA38478BEA3B4007EA000985EAF9
:10043800090583EA0709464006EA0906714085EA84
:10044800010005EA3546464006EA314181EA304175
:1004580081EA364606EA304686EA3546344008EAF6
:10046800010886EA01052A4086EA364003405A40D8
:1004780081EA31431F407C4080EA030709EA070903
:1004880088EA0908544088EA020806EA0A0601EAE6
:100498000B018AEA0B0215408AEA3A4210404540AD
:1004A8008BEA3B4003405E404240174079404D4054
:1004B8004E40E443F64386EA18435D4085EA05402A
:1004C80083EA134386EA034183EA384284EA114304
:1004D80083EA04435FEA3343BEF1010E3FF6F2AE0E
:1004E8001ED4BCE8F0006040694072407B4020BCEC
:1004F800FFF784FE28606960AA60EB60BDE8F08FB2
:100508002DE9E0414FF2F00280EA1031114080EA13
:100518000130484041088208C3084FF0000E4FE7F9
:1005280000F0113001F0113102F0113203F01133F3
:1005380040EA410040EA820040EAC3004FF2F0027C
:1005480080EA1031114080EA01304840BDE8E0817E
:100558002DE9F04F02F11C050646074600EB850819
:1005680051F8040B043A46F8040BF9D14FF0010C8A
:10057800FFF7C6FF5FEA302080EA0C001ECF41403B
:100588004A4053405C401EC62000464517D04FEAFB
:100598004C0C1CF4807F18BFACF1E50C2C2DE7D077
:1005A8003C2D06D1FFF7ACFF06CF41404A4006C6B6
:1005B800100006CF41404A4006C61000D8E736E989
:1005C8000F00FFF7C5FD043D86E80F00F7D1BDE831
:1005D800F08F00BF2DE9F14F03F11C0402EB840CEE
:1005E8004FEA930B8A68CB6808684968FFF7B0FD43
:1005F8003CE9F0006040694072407B400BF1060E18
:100608004EE083EA134480EA134582EA134746BA68
:1006180096EA3444604000F00F1684EA063420F06D
:100628000F1684EA161054BA94EA0106724002F0D2
:100638000F1486EA043622F00F1486EA14124CBA14
:100648006540694001F00F1485EA043521F00F1464
:1006580085EA14115CBA67407B4003F00F1487EAFF
:10066800043723F00F1487EA141344BA44404DBAF0
:100678004D4056BA56405FBA5F4087EA174886EA47
:10068800174B84EA17464FEA38488BEA1B4485EA39
:100698001B4788EA1B4580EA3440694072407B402A
:1006A80000F0703400F0803500F00F3040EA44006C
:1006B80040EAD50080EA900404F0332480EA8400FC
:1006C800604001F0703401F0803501F00F3141EAEB
:1006D800440141EAD50181EA910404F0332481EA16
:1006E8008401614002F0703402F0803502F00F326C
:1006F80042EA440242EAD50282EA920404F0332430
:1007080082EA8402624003F0703403F0803503F01B
:100718000F3343EA440343EAD50383EA930404F01E
:10072800332483EA84036340C943DB4381EA00043A
:1007380083EA044686EA020183EA014382EA3345F2
:1007480083EA14435C4084EA00077FEA040A8AEAE1
:10075800024A8AEA010B87EA11488AEA374A80EA9C
:10076800060181EA1A418AEA030A04EA0A004540B6
:1007780088EA040707EA0B0041408AEA0B0608EA00
:10078800060084EA34428AEA3A4602EA06035840F6
:100798004540414087EA37438BEA3B4003EA00097A
:1007A80085EA090582EA0309464006EA0906714016
:1007B80085EA010005EA3546464006EA314181EA04
:1007C800304181EA364606EA304686EA3546344004
:1007D8000F4086EA010508EA050886EA3640024025
:1007E80088EA020881EA314213405C4080EA020349
:1007F80009EA030987EA0907674088EA040806EA5C
:100808000A0601EA0B018AEA0B0425408AEA3A44FF
:10081800204045408BEA3B4B02EA0B02564084EAF3
:100828000B04234059406E40694087EA364080EA0D
:10083800384080EA060380EA104481EA134585EAD5
:10084800344585EA17427D4082EA354180EA054011
:100858003CE9F0006040694072407B40BEF1010E07
:100868003FF6CFAE20BCFFF7C9FC28606960AA60DC
:10087800EB60BDE8F08F00BFFFF76ABE30B44FF001
:10088800000310F8014B11F8015B013A84EA0504F2
:1008980043EA0403F5D1A3F101034FEAD37030BC56
:1008A800704700BF4FF0000310F8012B013943EAED
:1008B8000203F9D1A3F101034FEAD370704700BFD7
:1008C80030B411F8014B12F8015B6C4000F8014B91
:1008D800013BF6D130BC704781F0004102E000BF17
:1008E80083F0004330B54FEA41044FEA430594EAE8
:1008F800050F08BF90EA020F1FBF54EA000C55EA23
:10090800020C7FEA645C7FEA655C00F0E2804FEAF3
:100918005454D4EB5555B8BF6D420CDD2C4480EAD5
:10092800020281EA030382EA000083EA010180EA05
:10093800020281EA0303362D88BF30BD11F0004F53
:100948004FEA01314FF4801C4CEA113102D0404289
:1009580061EB410113F0004F4FEA03334CEA1333C4
:1009680002D0524263EB430394EA050F00F0A780DC
:10097800A4F10104D5F1200E0DDB02FA0EFC22FAD7
:1009880005F2801841F1000103FA0EF2801843FACB
:1009980005F359410EE0A5F120050EF1200E012ABC
:1009A80003FA0EFC28BF4CF0020C43FA05F3C018FA
:1009B80051EBE37101F0004507D54FF0000EDCF173
:1009C800000C7EEB00006EEB0101B1F5801F1BD31C
:1009D800B1F5001F0CD349085FEA30004FEA3C0C20
:1009E80004F101044FEA445212F5800F80F09A8016
:1009F800BCF1004F08BF5FEA500C50F1000041EB1A
:100A0800045141EA050130BD5FEA4C0C404141EB1D
:100A18000101013C28BFB1F5801FE9D291F0000F18
:100A280004BF01460020B1FA81F308BF2033A3F1C7
:100A38000B03B3F120020CDA0C3208DD02F1140CBE
:100A4800C2F10C0201FA0CF021FA02F10CE002F1F9
:100A58001402D8BFC2F1200C01FA02F120FA0CFCF2
:100A6800DCBF41EA0C019040E41AA2BF01EB04513B
:100A7800294330BD6FEA04041F3C1CDA0C340EDC39
:100A880004F11404C4F1200220FA04F001FA02F37C
:100A980040EA030021FA04F345EA030130BDC4F13A
:100AA8000C04C4F1200220FA02F001FA04F340EA2F
:100AB8000300294630BD21FA04F0294630BD94F0E0
:100AC800000F83F4801306BF81F480110134013DC7
:100AD8004EE77FEA645C18BF7FEA655C29D094EA38
:100AE800050F08BF90EA020F05D054EA000C04BFB6
:100AF8001946104630BD91EA030F1EBF00210020A1
:100B080030BD5FEA545C05D14000494128BF41F03F
:100B1800004130BD14F580043CBF01F5801130BDA3
:100B280001F0004545F0FE4141F470014FF000002E
:100B380030BD7FEA645C1ABF194610467FEA655CDF
:100B48001CBF0B46024650EA013406BF52EA033581
:100B580091EA030F41F4002130BD00BF90F0000F6F
:100B680004BF0021704730B54FF4806404F13204AB
:100B78004FF000054FF0000150E700BF90F0000F64
:100B880004BF0021704730B54FF4806404F132048B
:100B980010F0004548BF40424FF000013EE700BF5B
:100BA80042004FEAE2014FEA31014FEA02701FBFEB
:100BB80012F07F4393F07F4F81F06051704732F01D
:100BC8007F4208BF704793F07F4F04BF41F4002174
:100BD800704730B54FF4607401F0004521F00041D2
:100BE8001CE700BF50EA010208BF704730B54FF05C
:100BF80000050AE050EA010208BF704730B511F05D
:100C0800004502D5404261EB41014FF4806404F194
:100C180032045FEA915C3FF4D8AE4FF003025FEA1A
:100C2800DC0C18BF03325FEADC0C18BF033202EB9E
:100C3800DC02C2F1200300FA03FC20FA02F001FAF8
:100C480003FE40EA0E0021FA02F11444BDE600BF9B
:100C580070B54FF0FF0C4CF4E06C1CEA11541DBF4A
:100C68001CEA135594EA0C0F95EA0C0F00F0DEF815
:100C78002C4481EA030621EA4C5123EA4C5350EAFA
:100C8800013518BF52EA033541F4801143F480134B
:100C980038D0A0FB02CE4FF00005E1FB02E506F0DC
:100CA8000042E0FB03E54FF00006E1FB03569CF031
:100CB800000F18BF4EF0010EA4F1FF04B6F5007F37
:100CC80064F5407404D25FEA4E0E6D4146EB0606A9
:100CD80042EAC62141EA55514FEAC52040EA5E5032
:100CE8004FEACE2EB4F1FD0C88BFBCF5E06F1ED8DC
:100CF800BEF1004F08BF5FEA500E50F1000041EB13
:100D0800045170BD06F0004646EA010140EA0200BF
:100D180081EA0301B4EB5C04C2BFD4EB0C0541EAE1
:100D2800045170BD41F480114FF0000E013C00F3F6
:100D3800AB8014F1360FDEBF002001F0004170BD1A
:100D4800C4F10004203C35DA0C341BDC04F1140433
:100D5800C4F1200500FA05F320FA04F001FA05F2BF
:100D680040EA020001F0004221F0004110EBD3708C
:100D780021FA04F642EB06015EEA430E08BF20EAB8
:100D8800D37070BDC4F10C04C4F1200500FA04F35B
:100D980020FA05F001FA04F240EA020001F00041ED
:100DA80010EBD37041F100015EEA430E08BF20EA60
:100DB800D37070BDC4F1200500FA05F24EEA020EA8
:100DC80020FA04F301FA05F243EA020321FA04F0D7
:100DD80001F0004121FA04F220EA020000EBD3708E
:100DE8005EEA430E08BF20EAD37070BD94F0000F8E
:100DF8000FD101F00046400041EB010111F4801FC2
:100E080008BF013CF7D041EA060195F0000F18BF72
:100E1800704703F00046520043EB030313F4801FAE
:100E280008BF013DF7D043EA0603704794EA0C0F68
:100E38000CEA135518BF95EA0C0F0CD050EA41067E
:100E480018BF52EA4306D1D181EA030101F00041FB
:100E58004FF0000070BD50EA410606BF1046194623
:100E680052EA430619D094EA0C0F02D150EA01362F
:100E780013D195EA0C0F05D152EA03361CBF104670
:100E880019460AD181EA030101F0004141F0FE410F
:100E980041F470014FF0000070BD41F0FE4141F493
:100EA800780170BD70B54FF0FF0C4CF4E06C1CEA93
:100EB80011541DBF1CEA135594EA0C0F95EA0C0F48
:100EC80000F0A7F8A4EB050481EA030E52EA033503
:100ED8004FEA013100F088804FEA03334FF0805524
:100EE80045EA131343EA12634FEA022245EA111551
:100EF80045EA10654FEA00260EF000419D4208BF02
:100F0800964244F1FD0404F5407402D25B084FEAAE
:100F18003202B61A65EB03055B084FEA32024FF45A
:100F280080104FF4002CB6EB020E75EB030E22BFB7
:100F3800B61A754640EA0C005B084FEA3202B6EB77
:100F4800020E75EB030E22BFB61A754640EA5C0026
:100F58005B084FEA3202B6EB020E75EB030E22BFB6
:100F6800B61A754640EA9C005B084FEA3202B6EBB7
:100F7800020E75EB030E22BFB61A754640EADC0076
:100F880055EA060E18D04FEA051545EA16754FEAD8
:100F980006164FEAC30343EA52734FEAC2025FEAF6
:100FA8001C1CC0D111F4801F0BD141EA00014FF085
:100FB80000004FF0004CB6E711F4801F04BF014356
:100FC8000020B4F1FD0C88BFBCF5E06F3FF6AFAE72
:100FD800B5EB030C04BFB6EB020C5FEA500C50F102
:100FE800000041EB045170BD0EF0004E4EEA113185
:100FF80014EB5C04C2BFD4EB0C0541EA045170BD8C
:1010080041F480114FF0000E013C90E645EA060ECF
:101018008DE60CEA135594EA0C0F08BF95EA0C0FFD
:101028003FF43BAF94EA0C0F0AD150EA01347FF445
:1010380034AF95EA0C0F7FF425AF104619462CE71C
:1010480095EA0C0F06D152EA03353FF4FDAE10467F
:10105800194622E750EA410618BF52EA43067FF4D0
:10106800C5AE50EA41047FF40DAF52EA43057FF460
:10107800EBAE12E74FEA4102B2F1E04324BFB3F509
:10108800001CDCF1FE5C0DD901F0004C4FEAC002F7
:101098004CEA5070B2F1004F40EB830008BF20F0DB
:1010A8000100704711F0804F21D113F13872BCBF95
:1010B80001F00040704741F480114FEA5252C2F1EA
:1010C8001802C2F1200C10FA0CF320FA02F018BF33
:1010D80040F001004FEAC1234FEAD32303FA0CFC86
:1010E80040EA0C0023FA02F34FEA4303CCE77FEA15
:1010F800625307D150EA01331EBF4FF0FE4040F45F
:101108004000704701F0004040F0FE4040F400000D
:10111800704700BF80F0004002E000BF81F000414E
:1011280042001FBF5FEA410392EA030F7FEA226C85
:101138007FEA236C6AD04FEA1262D2EB1363C1BF15
:10114800D218414048404140B8BF5B42192B88BF84
:10115800704710F0004F40F4000020F07F4018BFA7
:10116800404211F0004F41F4000121F07F4118BFC7
:10117800494292EA030F3FD0A2F1010241FA03FC6F
:1011880010EB0C00C3F1200301FA03F100F0004357
:1011980002D5494260EB4000B0F5000F13D3B0F11F
:1011A800807F06D340084FEA310102F10102FE2A8E
:1011B80051D2B1F1004F40EBC25008BF20F00100FE
:1011C80040EA03007047490040EB0000013A28BF9D
:1011D800B0F5000FEDD2B0FA80FCACF1080CB2EB20
:1011E8000C0200FA0CF0AABF00EBC250524218439E
:1011F800BCBFD0401843704792F0000F81F4000143
:1012080006BF80F400000132013BB5E74FEA410315
:101218007FEA226C18BF7FEA236C21D092EA030F81
:1012280004D092F0000F08BF0846704790EA010FFB
:101238001CBF0020704712F07F4F04D1400028BF28
:1012480040F00040704712F100723CBF00F500000A
:10125800704700F0004343F0FE4040F40000704740
:101268007FEA226216BF08467FEA236301464202EC
:1012780006BF5FEA412390EA010F40F480007047FF
:101288004FF0000304E000BF10F0004348BF4042A5
:101298005FEA000C08BF704743F0964301464FF0E1
:1012A80000001CE050EA010208BF70474FF000033D
:1012B8000AE000BF50EA010208BF704711F000437E
:1012C80002D5404261EB41015FEA010C02BF84464E
:1012D8000146002043F0B64308BFA3F18053A3F5AD
:1012E8000003BCFA8CF2083AA3EBC25310DB01FAF4
:1012F80002FC634400FA02FCC2F12002BCF1004F78
:1013080020FA02F243EB020008BF20F00100704708
:1013180002F1200201FA02FCC2F1200250EA4C005C
:1013280021FA02F243EB020008BF20EADC707047A2
:101338004FF0FF0C1CEAD0521EBF1CEAD15392EAB0
:101348000C0F93EA0C0F6FD01A4480EA010C40028C
:1013580018BF5FEA41211ED04FF0006343EA5010E6
:1013680043EA5111A0FB01310CF00040B1F5000F28
:101378003EBF490041EAD3715B0040EA010062F1D7
:101388007F02FD2A1DD8B3F1004F40EBC25008BFC1
:1013980020F00100704790F0000F0CF0004C08BFDF
:1013A80049024CEA502040EA51207F3AC2BFD2F1AC
:1013B800FF0340EAC250704740F400004FF00003BA
:1013C800013A5DDC12F1190FDCBF00F000407047F4
:1013D800C2F10002410021FA02F1C2F1200200FA32
:1013E80002FC5FEA310040F1000053EA4C0308BFF9
:1013F80020EADC70704792F0000F00F0004C02BF4A
:10140800400010F4000F013AF9D040EA0C0093F0C4
:10141800000F01F0004C02BF490011F4000F013B1E
:10142800F9D041EA0C018FE70CEAD15392EA0C0F8C
:1014380018BF93EA0C0F0AD030F0004C18BF31F0F7
:10144800004CD8D180EA010000F00040704790F0CD
:10145800000F17BF90F0004F084691F0000F91F071
:10146800004F14D092EA0C0F01D142020FD193EA37
:101478000C0F03D14B0218BF084608D180EA0100BF
:1014880000F0004040F0FE4040F40000704740F09B
:10149800FE4040F4400070474FF0FF0C1CEAD05269
:1014A8001EBF1CEAD15392EA0C0F93EA0C0F69D0C5
:1014B800A2EB030280EA010C49024FEA402037D030
:1014C8004FF0805343EA111143EA10130CF0004027
:1014D8008B4238BF5B0042F17D024FF4000C8B4217
:1014E80024BF5B1A40EA0C00B3EB510F24BFA3EBF7
:1014F800510340EA5C00B3EB910F24BFA3EB9103C7
:1015080040EA9C00B3EBD10F24BFA3EBD10340EA20
:10151800DC001B0118BF5FEA1C1CE0D1FD2A3FF666
:1015280050AF8B4240EBC25008BF20F0010070471B
:101538000CF0004C4CEA50207F32C2BFD2F1FF03BE
:1015480040EAC250704740F400004FF00003013AEF
:1015580037E792F0000F00F0004C02BF400010F493
:10156800000F013AF9D040EA0C0093F0000F01F0A7
:10157800004C02BF490011F4000F013BF9D041EAC9
:101588000C0195E70CEAD15392EA0C0F08D14202FC
:101598007FF47DAF93EA0C0F7FF470AF084676E7CF
:1015A80093EA0C0F04D14B023FF44CAF08466EE7A8
:1015B80030F0004C18BF31F0004CCAD130F0004276
:1015C8007FF45CAF31F000437FF43CAF5FE700BFCE
:1015D8004FF0FF3C06E000BF4FF0010C02E000BFF7
:1015E8004FF0010C4DF804CD4FEA40024FEA410399
:1015F8007FEA226C18BF7FEA236C11D001B052EA4F
:10160800530C18BF90EA010F58BFB2EB030088BF14
:10161800C81738BF6FEAE17018BF40F00100704783
:101628007FEA226C02D15FEA402C05D17FEA236C65
:10163800E4D15FEA412CE1D05DF8040B704700BFAC
:10164800844608466146FFE70FB5FFF7C9FF002843
:1016580048BF10F1000F0FBD4DF808EDFFF7F4FF7C
:101668000CBF012000205DF808FB00BF4DF808ED15
:10167800FFF7EAFF34BF012000205DF808FB00BF38
:101688004DF808EDFFF7E0FF94BF012000205DF85A
:1016980008FB00BF4DF808EDFFF7D2FF94BF01200B
:1016A80000205DF808FB00BF4DF808EDFFF7C8FF04
:1016B80034BF012000205DF808FB00BF4FEA40025C
:1016C800B2F1FE4F0FD34FF09E03B3EB12620DD968
:1016D8004FEA002343F0004310F0004F23FA02F0D2
:1016E80018BF404270474FF00000704712F1610F79
:1016F80001D1420205D110F0004008BF6FF0004050
:1017080070474FF00000704742000ED2B2F1FE4F12
:101718000BD34FF09E03B3EB126209D44FEA0023B8
:1017280043F0004323FA02F070474FF0000070477F
:1017380012F1610F01D1420202D14FF0FF30704720
:101748004FF00000704700BF7BB972B90029BEBFD7
:1017580000204FF0004106E008BF00281CBF6FF0D2
:1017680000414FF0FF3000F057B8ADF1080C6DE9BB
:1017780004CE002909DB002B1ADB00F069F8DDF83C
:1017880004E0DDE9022304B07047404261EB410107
:10179800002B1BDB00F05CF8DDF804E0DDE9022338
:1017A80004B0404261EB4101524263EB430370478E
:1017B800524263EB430300F04BF8DDF804E0DDE947
:1017C800022304B0404261EB41017047524263EB8F
:1017D800430300F03DF8DDF804E0DDE9022304B03E
:1017E800524263EB4303704753B94AB9002908BF13
:1017F80000281CBF4FF0FF314FF0FF3000F00CB84D
:10180800ADF1080C6DE904CE00F022F8DDF804E033
:10181800DDE9022304B07047704700BF10F8012BC0
:1018280011F8013B012A28BF9A42F7D0D01A704715
:10183800034611F8012B03F8012B002AF9D1704750
:10184800034613F8012B002AFBD1181A01387047F8
:101858002DE9F04786468C460846089E154674468C
:101868001946002B40F0C1808542B2FA82F245D970
:101878004AB1C2F1200300FA02FC954094402EFAC6
:1018880003F343EA0C0C4FEA154EA8B2230CBCFB39
:10189800FEF80EFB18CC08FB00F943EA0C43994507
:1018A80028D9EB1808F1FF3704D2994502D9A8F1D5
:1018B80002072B44A3EB0903A4B2B3FBFEFC0EFB07
:1018C8001C330CFB00F044EA0344A04214D92C1941
:1018D8000CF1FF3304D2A04202D9ACF102032C442C
:1018E800241A43EA07401EB1D440002334607360D1
:1018F800BDE8F0874746DDE76346F1E792BB431B47
:1019080001214FEA154EAFB2200CB3FBFEFC0EFBD3
:101918001C330CFB07F840EA0343984561D9EB18E0
:101928000CF1FF3004D2984502D9ACF102002B44E7
:10193800A3EB0803A4B2B3FBFEFC0EFB1C330CFBA9
:1019480007F744EA0344A7424DD92C190CF1FF3399
:1019580004D2A74202D9ACF102032C44E41B43EAA7
:101968000040C0E7C2F120039540944020FA03F1FB
:101978002EFA03F34FEA154E9040AFB20343B1FB82
:10198800FEFC0EFB1C10190C0CFB07F841EA004189
:10199800884522D969180CF1FF3004D2884502D94C
:1019A800ACF102002944A1EB08019BB2B1FBFEFC9B
:1019B8000EFB1C110CFB07F743EA01439F420ED9AB
:1019C800EB180CF1FF3104D29F4202D9ACF10201AD
:1019D8002B44DB1B41EA004193E76046E3E761469D
:1019E800F7E76046A4E76346B8E7834206D916B925
:1019F800002108467CE7C6E900E0F9E7B3FA83F777
:101A08008FB9834201D3724508D8BEEB020460EB5C
:101A1800030301209C461EB9002169E73846FAE70E
:101A2800C6E9004CF8E7C7F1200CBB400EFA07F5F1
:101A380022FA0CF42EFA0CF1BA401C4320FA0CF3EB
:101A4800B8404FEA144901431FFA84FEB3FBF9F882
:101A580009FB18300B0C08FB0EFA43EA00439A45C1
:101A680040D9E31808F1FF3004D29A4502D9A8F109
:101A780002002344A3EB0A0389B2B3FBF9F809FB7C
:101A8800183308FB0EFE41EA03418E452CD9611834
:101A980008F1FF3304D28E4502D9A8F1020321448C
:101AA80043EA0040A1EB0E01A0FB02984145CE4657
:101AB800434602D306D14D4504D20138B9EB020E94
:101AC80068EB0403002EA7D0B5EB0E0261EB03010F
:101AD80001FA0CFC22FA07F3F9404CEA0303C6E9C1
:101AE800003199E74046C5E74346D9E700000000C2
:101AF800D0B504464068FFF741F809A3D3E90023AD
:101B0800FFF7D0F9064620680F46FFF737F8024678
:101B18000B4630463946FEF7E5FED0BDAFF30080F0
:101B28000000000080842E412DE9F04706460F464C
:101B3800904688B051F0B9FA4FF47A73A0FB034588
:101B480003FB0155E40B012F44EA45444FEAD53520
:101B580007D122462B463046274933F07CFE002029
:101B680012E0D8F8047025483946FFF757FE70B1DF
:101B780039462348FFF752FE48B130463A462149D4
:101B880033F085FE6FF0040008B0BDE8F08720460A
:101B980017A3D3E900232946FFF7D6FD05460C46CF
:101BA80010461946184A0023FFF7CEFD80460F4617
:101BB800104619464EF660220023FFF7C5FD8246FF
:101BC8008946104619464FF47A720023FFF7BCFD88
:101BD800CDE902A9CDE90623CDE904012A46234629
:101BE8003046CDE90087094933F035FEB7E700BF35
:101BF800005C26050000000085B40A0096B40A00BF
:101C080099B40A00A2B40A0080EE3600BAB40A00F9
:101C180070B514460646CD17A1FB0201002304FB4C
:101C280005110A22FFF790FD0FA3D3E900230C4DFD
:101C380080FB054520462946FFF786FD06A3D3E924
:101C48000023306029462046FFF77EFD0023054A21
:101C5800FFF77AFD726070BD80A8120100000000D5
:101C6800D8EF2F0040420F0000209BF35E100000C9
:101C780003292DE9FF4105460C4612D0072900F03B
:101C8800B0808F490B6813F0060F00F0A7808D4BCA
:101C98000222029300231846CDE9003338F0CAF82F
:101CA8009CE0002A69D0072A40F0888058681A68A2
:101CB800854BC117C2FB0301012871F1000376DBD4
:101CC800D5F80480814B98F81A60C0184FEAD616E8
:101CD80077A3D3E9002341F1000176B2FFF734FD81
:101CE800002E14BF04230223984298F91A7025D0B5
:101CF800002E14BF20231023984221D0002E14BF99
:101D08000823042383421DD0002E14BF1023082368
:101D180098424CD1E6B2314640462D6935F0A1F8DB
:101D2800002811DB6A4B002F4FF03D0233F81430C6
:101D3800AE771CDBA3FB02325B0819E00024E9E75D
:101D48000124E7E70224E5E75D490B685A070BD54C
:101D5800604B0393604B0825029300230422184626
:101D6800CDE9003538F066F86FF0040002E053431F
:101D7800EB60002004B0BDE8F0811988574B144689
:101D88001F4633F8022B91420ED86868E1B22E69DB
:101D980035F0DBF900280DDA49490B685B07E3D514
:101DA8004F4B03934F4BD6E701340B2CE9D16FF01F
:101DB8001500DFE737F81430B383DAE740490B68DA
:101DC8005F070BD5484B0393484B08220293002327
:101DD800CDE900321846042238F02CF86FF085005F
:101DE800C8E7002A42D0072A5AD1B4245A68196889
:101DF800354BD017C1FB0320A2FB0431012A04FB99
:101E0800001170F100001DDB3948181841F100017C
:101E180029A3D3E900230024FFF796FC354B33F8B8
:101E2800022B904216D16868E1B22E6935F030F87D
:101E3800002813DA22490B685E0795D52E4B0393C9
:101E48002E4B88E72E48181861F100011AA3D3E930
:101E58000023E0E70134072CE1D1A8E741F217128B
:101E6800284B33F814305343B36182E719881B4B6E
:101E780033F8020B81420FD86868D1B235F0D3F934
:101E88000028BFF676AF0E490B685C077FF56CAF8C
:101E98001D4B03931D4B5EE701320B2AE8D186E701
:101EA80007490B68580799D5194B0393194B8CE7C9
:101EB8003AA3950000000000D8EF2F0000000000B2
:101EC8006C06002017EF0A0040420F009DD14A001F
:101ED800A4A1050019F40A00B5F20A00ACA1050096
:101EE80003F40A00E0F20A0031F40A000EF30A00D3
:101EF800ECF7170096A10500D8F30A0031F30A00A1
:101F08001408E8FF88A10500C3F30A0058F30A0083
:101F1800EFF30A0082F30A002DE9F74F032914466C
:101F2800066905D90B1F032B53D96FF0850023E0F1
:101F38000229F7683A4D22D0032923D0012914BF7A
:101F4800B6F90460B6F90660A6FB076732A3D3E9C1
:101F5800002386FB056530462946FFF7F5FB00237D
:101F6800304A206029463046FFF7EEFB00232D4A11
:101F7800FFF7EAFB6260002003B0BDE8F08FB6F916
:101F88000860E1E74FF0000B02F11803DFF894A0B6
:101F98000236019336F9028FA8FB07831EA3D3E903
:101FA800002388FB059848464146FFF7CDFB52467B
:101FB80044F8080B5B4648464146FFF7C5FB5246C6
:101FC8005B46FFF7C1FB019B44F8042C9C42E1D11E
:101FD800D1E70629B5690CD007290ED02A4605296C
:101FE80014BFB6F91010B6F912102046FFF710FE0C
:101FF800C1E72A46B6F91410F7E70E3602F11807BA
:1020080020462A4636F9021F0834FFF701FEA74288
:10201800F6D1B0E7AFF300800010A5D4E8000000C7
:102028003AA3950040420F00034A13680133136036
:102038000122024B1A707047189D00209F00032050
:1020480000B589B007AA06A905A804F027FC059BD6
:102058000321274A04A830F0E7FD264B1B6803B389
:10206800184604A94DF074FA069B0321204A04A8D7
:1020780030F0DAFD204B1B6803B3184604A94DF075
:1020880067FA079B03211A4A04A830F0CDFD1B4BC1
:102098001B6803B3184604A94DF05AFA09B05DF855
:1020A80004FB17490A685207DED0164A1846CDE9DC
:1020B80001320093012232F0ADF9D5E710490A68E0
:1020C8005007DED0104A1846CDE9013200930122AC
:1020D80032F0A0F9D5E70A490A685207DED00B4A60
:1020E8001846CDE901320093012232F093F9D5E781
:1020F80012B00A00989D0020909D0020889D002025
:10210800700600207AA8050099A80500B8A805005F
:1021180000B56F4B89B01B7883B106A804F0AEFCFC
:1021280078B16C490B685B0708D06B4B01220293AE
:1021380000231846CDE9003332F06CF909B05DF898
:1021480004FB9DF81A300321644A05A830F06CFDA1
:10215800634B186810B105A94DF0FAF99DF81930CC
:1021680003215E4A05A830F05FFD5E4B186810B188
:1021780005A94DF0EDF99DF81B300321574A05A834
:1021880030F052FD584B186810B105A94DF0E0F930
:102198009DF81D300321514A05A830F045FD534BE9
:1021A800186810B105A94DF0D3F99DF81E30032128
:1021B8004A4A05A830F038FD4D4B186810B105A9FA
:1021C8004DF0C6F99DF81A300321444A05A830F0AD
:1021D8002BFD484B186810B105A94DF0B9F99DF8C9
:1021E800193003213D4A05A830F01EFD424B1868FE
:1021F80010B105A94DF0ACF99DF81B300321374A01
:1022080005A830F011FD3D4B186810B105A94DF037
:102218009FF99DF81D300321304A05A830F004FDD0
:10222800374B186810B105A94DF092F99DF81E308A
:1022380003212A4A05A830F0F7FC324B186810B180
:1022480005A94DF085F99DF81A300321234A05A800
:1022580030F0EAFC2C4B186810B105A94DF078F95C
:102268009DF8193003211D4A05A830F0DDFC274BE5
:10227800186810B105A94DF06BF99DF81B300321C2
:10228800164A05A830F0D0FC214B186810B105A9F2
:102298004DF05EF99DF81D300321104A05A830F075
:1022A800C3FC1C4B186810B105A94DF051F99DF8F5
:1022B8001E300321094A05A830F0B6FC164B1868F1
:1022C80000283FF43BAF05A94DF042F936E700BFBF
:1022D8009E00032070060020D7A8050012B00A004F
:1022E800709E0020689E0020609E0020589E00205E
:1022F800509E0020CC9E0020C49E0020BC9E002042
:10230800B49E0020AC9E0020309E0020289E002015
:10231800209E0020189E0020109E00201FB5C38814
:1023280004468BB92D4A80682D4910600A6802F06E
:102338000702022A38D92B4A0390CDE90132184600
:102348000322009332F066F8E388012B12D1234B65
:10235800A26823495A600B6803F00703022B23D9AC
:10236800214B03920293002303221846CDE9003340
:1023780032F050F8E388B3F5A57F15D1A268174B62
:10238800111E18BF0121197215490B6803F00703C4
:10239800022B09D9154B03920293002303221846F6
:1023A800CDE9003332F036F82379A3B10C490B6834
:1023B80003F00703022B08D90D4B032202930023D5
:1023C8001846CDE9003332F025F80A4804B0BDE8D4
:1023D80010402BF0EFB804B010BD00BF309D0020B6
:1023E80070060020F1A80500FEA805000BA905004D
:1023F8001EA905003C9D00201FB50F490B6803F07E
:102408000703022B08D90D4B032202930023184619
:10241800CDE9003331F0FEFF002038F038F8002213
:1024280000230748CDE9002340F6CD4200232CF0D5
:1024380051FB05B05DF804FB7006002032A90500C9
:10244800380B00202DE9E7414FF47A77DFF86880F0
:1024580000214FF4803050F079FD03F01DFF06464F
:1024680003F024FF054650F020FEA0FB073207FBCF
:102478000121D80B4FF47A72002340EA4140C90B7E
:10248800FFF762F9414600903046FEF751FFFFF72B
:1024980015F94146ADF804002846FEF749FFFFF755
:1024A80033F9ADF80600FFF7A7FF684604F0A2F875
:1024B800684604F0D3F8CBE70000C8422DE9F04F96
:1024C800A1B00B4D0B4C284650F0D2F90346A8B9E1
:1024D8002268550707D0084A2146CDE90102009035
:1024E800012231F097FF002021B0BDE8F08F00BF36
:1024F800C0410500700600204AA90500AB685B686A
:102508000BB12846984703F031F9AE4BAE4D1B6826
:102518002B60AE4B1B686B60AD4B1B68AB60AD4B63
:102528001B68EB6003F06CF960B12368580709D0A9
:10253800A94B012202930023A8491846CDE900338C
:1025480031F068FF13F060FC0346002800F06A834E
:102558002368590709D0A24B012202930023CDE931
:10256800003318469D4931F055FF00229D499E4889
:1025780050F0E3FD04F0D2F804F0A0F99B4F0346B5
:10258800002840F0848301223A70226802F0070292
:10259800022A07D9964A9149CDE9010200900322FF
:1025A80031F038FF934B18A8189340F20343ADF865
:1025B80064301A238DF8663004F0E8F903460028E1
:1025C80040F05583226802F00702022A19D99DF8C3
:1025D8006020824908929DF86120009007929DF83A
:1025E800622006929DF8662005929DF86520049267
:1025F8009DF863200392804ACDE90102032231F05D
:1026080009FF7E4E304650F033F90346002840F06B
:1026180045832268520709D0326870490392784A84
:102628000090CDE90102012231F0F4FE01220021DF
:10263800744850F0A1FA00227349744850F07DFDA7
:102648004FF4004200237148CDE900232CF042FAF0
:10265800236803F00703022B09D96D4B0322029369
:1026680000235E491846CDE9003331F0D3FE03F06C
:10267800A3FF0346002800F0228323685B0709D0E4
:10268800644B0122029300231846CDE900335349D5
:1026980031F0C0FE002200230026CDE906230423E2
:1026A8004FF48062CDE90336CDE901665A4B5B49A8
:1026B80000965B482BF036FB5A4959482BF072FAC2
:1026C80032464FF47A7158481FF0B0FE4AF003F9C9
:1026D8003B783BB132464FF47A7154481FF0A6FE5E
:1026E8004AF0F9F8524B186820B100230A225149E0
:1026F8003AF0C6FA504B186820B100230A224F4915
:102708003AF0BEFA4E4B186820B100230A224D4910
:102718003AF0B6FA236803F00703022B09D94A4BAB
:102728000322029300232D491846CDE9003331F0E6
:1027380071FE4FF0000BDFF81491DFF814A1454A41
:102748001378002B00F019820026167003F0FEFCA7
:1027580003F0A2FD804603F0A9FD074603F0B0FD93
:102768000FAA0B900EA90DA803F0B4FD12AA11A987
:1027780010A803F0F7FD13A815AA14A903F00EFE7C
:1027880016A804F07BF9002840F0A682236803F01D
:102798000703022B40F2FC809DF858300322069371
:1027A8009DF859300D4905939DF85A3004932A4BEA
:1027B8001B6800900393294BCDE90103034631F0D0
:1027C80029FE4DE07C9E0020209D0020D89E002000
:1027D8003C9E0020A89D002063A9050070060020EB
:1027E80094A905000B440300380B00209E00032029
:1027F800C9A90500000F0A03D9A905002C42050044
:102808005AAA05003C9D002031200000000B002042
:102818008AAA0500A8AA05004D240000B8030320D1
:10282800380A00200ED80A004920000019210000AB
:102838007C9D002019440300649D0020154403007A
:10284800709D002011440300D2AA05000000344303
:10285800D00F49409F000320189D0020E5AA0500DD
:102868004046FEF79DF9236803F00703022B40F268
:102878008F8000269F4BCDE9040103220293304646
:102888003346CDE900669C4931F0C4FD226802F068
:102898000702022A7CD93846FEF782F9974ACDE921
:1028A8000401CDE90162334603223046924900967D
:1028B80031F0B0FD226802F00702022A68D90B98AD
:1028C800FEF76EF98E4ACDE90401CDE9016233467F
:1028D800032230468849009631F09CFD226802F0B8
:1028E8000702022A54D90F98FEF75AF9CDE90801D0
:1028F8000E98FEF755F9CDE906010D98FEF750F947
:10290800804ACDE90401CDE901623346032230460D
:102918007949009631F07EFD226802F00702022A0A
:1029280036D91298FEF73CF9CDE908011198FEF75F
:1029380037F9CDE906011098FEF732F9724ACDE968
:102948000401CDE901623346032230466A49009604
:1029580031F060FD226802F00702022A18D91598A2
:10296800FEF71EF9CDE908011498FEF719F9CDE92B
:1029780006011398FEF714F9644ACDE90401CDE97C
:1029880001623346032230465B49009631F042FD2E
:102998004046FEF705F95E4ACDE90001202118A856
:1029A80030F042F95B4B186810B118A94CF0D0FD13
:1029B800594B186810B118A94CF0CAFD3846FEF7F3
:1029C800EFF8564ACDE90001202118A830F02CF97B
:1029D800534B186810B118A94CF0BAFD0B98FEF7C4
:1029E800DFF8504ACDE90001202118A830F01CF981
:1029F8004D4B186810B118A94CF0AAFD0D990E9806
:102A080031F032FB4946FEF793FC5146FEF744FD90
:102A180059460646FEF72AFE20B130464349FEF7DE
:102A28007FFB06463046FEF7BBF8414ACDE9000178
:102A3800202118A830F0F8F83E4B186810B118A9F2
:102A48004CF086FD304603F0C5FC3B4B0146186848
:102A580008B14CF07DFD1098FEF7A2F8374ACDE991
:102A68000001202118A830F0DFF8354B186810B1A4
:102A780018A94CF06DFD1198FEF792F82F4ACDE990
:102A88000001202118A830F0CFF82E4B186810B19B
:102A980018A94CF05DFD1298FEF782F8274ACDE997
:102AA8000001202118A830F0BFF8274B186810B192
:102AB80018A94CF04DFD1398FEF772F81F4ACDE99E
:102AC8000001202118A830F0AFF8204B186810B189
:102AD80018A94CF03DFD1498FEF762F8174ACDE9A5
:102AE8000001202118A830F09FF8194B1868A0B3EE
:102AF80030E000BF3BAB05007006002053AB05007B
:102B08006AAB050081AB0500A8AB0500E3AB050087
:102B18001BAC0500489E0020949E002023AC0500B5
:102B2800A09E002078AB0500889E00200000B443DA
:102B38002AAC0500089E0020049E0020A3AB0500D7
:102B4800E49D0020DC9D0020D49D0020C09D002035
:102B5800B89D002018A94CF0FBFC1598FEF720F84A
:102B6800804ACDE90001202118A830F05DF87E4B9D
:102B7800186810B118A94CF0EBFC1FF08DFC00236D
:102B880000227A482AF050FD0346002844D1784AAA
:102B980092F80880D2E90076226802F00702022A39
:102BA8000BD9744ACDE90476CDE9010272490322B2
:102BB800CDF80C80009031F02DFCB8F1000F2BD02F
:102BC8002368A7F1CF02262A03F0070300F2B98091
:102BD800721F262A00F29480022B09D9674B032220
:102BE8000293002364491846CDE9003331F012FC02
:102BF800634A052110680130434203F0030300F0E3
:102C0800030058BF5842002310604FF49672009397
:102C180055F8200017F0CCF900214FF4A47050F0BB
:102C280095F98CE5226802F00702022A07D9554A6D
:102C38005149CDE901020090032231F0EBFB00205D
:102C480037F025FC00214FF4804050F07FF9002038
:102C580037F020FC236803F00703022B7FF685ACCE
:102C6800494B032202930023CDE9003379E423681A
:102C780013F0060F3FF4C5AC444B02930023022225
:102C88001846CDE900333C4931F0C4FBB9E4236868
:102C980013F0060F3FF4B5AC3D4BEEE7236803F0A5
:102CA8000703022B7FF6C2AC336803220393394B28
:102CB8003149029300231846CDE90033B4E4226871
:102CC80002F00702022A7FF6E5AC334A2A49CDE929
:102CD800010200900322DBE4226802F00702022AC4
:102CE8007FF656AE2D4A33461268304603922C4A78
:102CF8002149CDE901620096032231F08BFBAFE553
:102D0800A6F59472262A1CD8022B09D9254B032232
:102D18000293002318491846CDE9003331F07AFBB5
:102D2800174A062110680330434203F0030300F0FA
:102D3800030058BF5842002310604FF49672009366
:102D480066E7022B7FF668AF174B03220293002336
:102D5800CDE903761846CDE90033074931F05AFB2F
:102D68005AE700BFA3AB0500B09D00203C9D0020A2
:102D7800309D002032AC05007006002056AC0500DE
:102D88001C9D0020A5A90500B6A905000AAA0500F2
:102D980030AA050074AA0500C2AA0500189D0020E3
:102DA8000FAB050085AC0500B8AC05002DE9F04F68
:102DB80000208FB014F03EFBD24D1021286038F06F
:102DC80003FF286824F008FDCF4CD04920604CF060
:102DD80035FA20686FF040413AF0E2F820686FF069
:102DE80040413AF0F4F8206809213AF034F92068B3
:102DF800022139F034F91021206838F0E5FE2868FE
:102E080025F0F0F8C24C6FF0404120603AF0C8F865
:102E180020686FF040413AF0DAF820686FF002015C
:102E28003AF085F820686FF06B013AF097F820685F
:102E380009213AF010F9B74920684CF089FB6FF086
:102E48007F40266848F0E9F8C0F307238DF80400AE
:102E5800C0F307408DF805308DF80600AE4F3046B8
:102E6800019900223BF0E1FF20680022FF213BF09E
:102E7800EBFF0022394620683BF0EDFF286814F08C
:102E8800D9FAA64CA64E206015F068FE20688C2161
:102E98003AF086F8206823213AF099F8206803214F
:102EA8003AF045F820686FF018013AF057F82068B2
:102EB80009213AF0D0F81221206838F085FE206800
:102EC80025F090F86FF0404130603AF069F83068CA
:102ED8006FF040413AF07BF830686FF036013AF015
:102EE80026F8DFF84092306804213AF037F8306865
:102EF80009213AF0B0F8494630684CF029FB6FF0E8
:102F08007F40D6F8008048F088F8C0F307238DF892
:102F18000800C0F307408DF809308DF80A000299BF
:102F280040460022DFF800823BF07FFF3068002235
:102F3800FF213BF089FF0022414630683BF08BFFC0
:102F4800206825F04FF8794E6FF0404130603AF034
:102F580027F830686FF040413AF039F830686FF080
:102F68001E0139F0E4FFDFF8C8A13068032139F009
:102F7800F5FF306809213AF06EF8514630684CF098
:102F8800E7FA6FF07F40D6F800B048F046F8C0F393
:102F980007238DF80C00C0F307408DF80D308DF82D
:102FA8000E000399584600223BF03FFF306800228C
:102FB800FF213BF049FF0022414630683BF04BFFC0
:102FC800206825F00FF85B4E6FF04041306039F013
:102FD800E7FF30686FF0404139F0F9FF30686FF073
:102FE800040139F0A4FF3068042139F0B7FF3068D4
:102FF80009213AF030F8494630684CF0A9FA6FF0E8
:103008007F40D6F800B048F008F8C0F307238DF8E1
:103018001000C0F307408DF811308DF812000499A4
:10302800584600223BF001FF30680022FF213BF0A8
:103038000BFF0022414630683BF00DFF206824F06A
:10304800D1FF3D4E6FF04041306039F0A9FF306844
:103058006FF0404139F0BBFF3068142139F067FF49
:103068003068032139F07AFF3068092139F0F3FF1D
:10307800514630684CF06CFA6FF07F40D6F800A0EB
:1030880047F0CBFFC0F307238DF81400C0F30740C7
:103098008DF815308DF816000599504600223BF042
:1030A800C4FE30680022FF213BF0CEFE00224146DC
:1030B80030683BF0D0FE206824F094FF1F4C6FF07E
:1030C8004041206039F06CFF20686FF0404139F0D2
:1030D8007EFF20682B2139F02AFF2068032139F070
:1030E8003DFF2068092139F0B6FF494620684CF0B9
:1030F8002FFA6FF07F40266847F08FFFC0F3072351
:103108001EE000BFA89D0020A49D0020784E050069
:10311800A09D00202DAA0A00E47205009C9D0020B5
:10312800989D002056E50A0010830500949D002014
:1031380078AA0A00909D00208C9D0020889D002080
:103148008DF81800C0F307408DF819308DF81A0073
:103158000699304600223BF068FE20680022FF21D5
:103168003BF072FE0022414620683BF074FE28685E
:1031780024F038FFCE4C6FF04041206039F010FF4A
:1031880020686FF0404139F022FF20686FF0040199
:1031980039F0CDFE2068082139F0E0FE20680921C9
:1031A80039F059FFC34920684CF0D2F96FF07F40DD
:1031B800266847F032FFC0F307238DF81C00C0F3E0
:1031C80007408DF81D308DF81E0007993046002203
:1031D8003BF02BFE20680022FF213BF035FE002249
:1031E800B54920683BF037FE286814F023F9B34C42
:1031F800B34E206015F0B2FC2068492139F0D0FEAA
:1032080020682D2139F0E3FE20686FF0790139F04C
:103218008EFE2068342139F0A1FE2068092139F09A
:103228001AFF1221206838F0CFFC206822F024FC15
:103238003521306039F0B4FE3068212139F0C7FEFD
:1032480030686FF0010139F072FE3068022139F000
:1032580085FE3068092139F0FEFE30684FF4806140
:1032680038F0FDFE1021306838F0AEFC47F2FF5010
:10327800D6F8008047F0D1FEC0F307238DF8200070
:10328800C0F307408DF821308DF822000899404698
:1032980000223BF088FD0022FF2130683BF092FDC0
:1032A800206824F09FFE874C6FF04041206039F081
:1032B80077FE20686FF0404139F089FE20686FF092
:1032C800010139F034FE2068032139F047FE2068F7
:1032D800092139F0C0FE7C4920684CF039F96FF0BB
:1032E8007F40266847F099FEC0F307238DF8240035
:1032F800C0F307408DF825308DF82600099930462F
:1033080000223BF092FD20680022FF213BF09CFD4B
:103318000022394620683BF09EFD286814F08AF8A0
:103328006A4C6B4E206015F019FC2068492139F071
:1033380037FE20682D2139F04AFE2068032139F034
:10334800F6FD2068482139F009FE2068092139F086
:1033580082FE1221206838F037FC206822F08CFBAE
:103368003921306039F01CFE3068212139F02FFEF8
:1033780030686FF0030139F0DAFD3068022139F066
:10338800EDFD3068092139F066FE30684FF4806140
:1033980038F065FE1021306838F016FC4D48D6F834
:1033A800008047F03AFEC0F307238DF82800C0F3E9
:1033B80007408DF829308DF82A000A9940460022E6
:1033C8003BF0F1FC0022FF2130683BF0FBFC206859
:1033D80024F008FE404C6FF04041206039F0E0FDD9
:1033E80020686FF0404139F0F2FD20686FF003016A
:1033F80039F09DFD2068022139F0B0FD20680921CF
:1034080039F029FE354920684CF0A2F86FF07F406A
:10341800266847F002FEC0F307238DF82C00C0F39E
:1034280007408DF82D308DF82E000B99304600227C
:103438003BF0FBFC20680022FF213BF005FD002249
:10344800394620683BF007FD286813F0F3FF244C49
:10345800244E206015F082FB2068492139F0A0FD38
:1034680020682D2139F0B3FD20687A2139F05FFDFD
:103478002068352139F072FD2068092139F0EBFD0B
:103488001221206838F0A0FB206822F0F5FA3521D7
:10349800306039F085FD3068212139F098FD3068B9
:1034A8006FF0010139F043FD306802211CE000BFD4
:1034B800849D002039AA0A0048780500809D0020D4
:1034C8007C9D0020789D002046AA0A00749D00205B
:1034D800709D00204848F9006C9D00204CAA0A0005
:1034E800689D0020649D002039F038FD306809216E
:1034F80039F0B1FD30684FF4806138F0B0FD10212B
:10350800306838F061FB5348D6F8008047F085FDF5
:10351800C0F307238DF83000C0F307408DF8313031
:103528008DF832000C99404600223BF03CFC00220A
:10353800FF2130683BF046FC206824F053FD464CE0
:103548006FF04041206039F02BFD20686FF040415A
:1035580039F03DFD20686FF0010139F0E8FC206882
:10356800032139F0FBFC2068092139F074FD3B493F
:1035780020684BF0EDFF6FF07F40266847F04DFD67
:10358800C0F307238DF83400C0F307408DF83530B9
:103598008DF836000D99304600223BF046FC206835
:1035A8000022FF213BF050FC0022394620683BF006
:1035B80052FC286824F010F9294C2A4920604BF065
:1035C8003DFE20686FF0404139F0EAFC20686FF05A
:1035D800404139F0FCFC20687E2139F0A8FC2068C5
:1035E800632139F0BBFC2068092139F034FD2068DB
:1035F800022138F034FD1021206838F0E5FA2868F7
:1036080024F0EAF8184C194920604BF017FE20689E
:103618006FF0404139F0C4FC20686FF0404139F048
:10362800D6FC20686FF0840139F081FC20686421A1
:1036380039F094FC2068092139F00DFD2068022139
:1036480038F00DFD102120680FB0BDE8F04F38F0BC
:10365800BBBA00BF0767FF00609D002052AA0A009E
:103668005C9D0020E84E0500589D0020CC4E0500CA
:103678002DE9F04F0020A1B013F0DCFECF4D102152
:10368800286038F0A1FACE482C6847F0C6FCC0F391
:1036980007238DF80400C0F307408DF805308DF836
:1036A80006000199204600223BF07DFB0022FF2105
:1036B80028683BF087FB286824F08EF8C14CC24983
:1036C80020604BF0BBFD20686FF0404139F068FC8A
:1036D80020686FF0404139F07AFC2068092139F000
:1036E800BAFC2068022138F0BAFC1021206838F0B2
:1036F8006BFA286813F09EFEB44CB54E206015F0A6
:103708002DFA2068582139F04BFC20681A2139F02D
:103718005EFC20686FF0610139F009FC20686FF0E9
:10372800590139F01BFC2068092139F094FC122159
:10373800206838F049FA206824F054FC6FF04041C2
:10374800306039F02DFC30686FF0404139F03FFCB3
:1037580030686FF01C0139F0EAFB30686FF0030144
:1037680039F0FCFBDFF86C823068092139F073FC12
:10377800994930684BF0ECFE4046376847F04DFCFD
:10378800C0F307238DF80800C0F307408DF809300F
:103798008DF80A00DFF844923846029900223BF07F
:1037A80044FB30680022FF213BF04EFB00224946D3
:1037B80030683BF050FB206824F014FC884E6FF012
:1037C8004041306039F0ECFB30686FF0404139F02F
:1037D800FEFB30686FF0080139F0A9FB30686FF024
:1037E800040139F0BBFB3068092139F034FC7D490C
:1037F80030684BF0ADFE4046376847F00EFCC0F32A
:1038080007238DF80C00C0F307408DF80D308DF8B4
:103818000E000399384600223BF007FB306800226F
:10382800FF213BF011FB0022494630683BF013FBB7
:10383800206824F0D7FB6C4C6FF04041206039F0D1
:10384800AFFB20686FF0404139F0C1FB20680F21C1
:1038580039F06DFB20686FF0020139F07FFB634F90
:103868002068092139F0F7FB614920684BF070FEA8
:103878003846266847F0D1FBC0F307238DF81000BF
:10388800C0F307408DF811308DF8120004993046C6
:1038980000223BF0CAFA20680022FF213BF0D4FA4C
:1038A8000022494620683BF0D6FA286813F0C2FD8A
:1038B800504C514E206015F051F92068732139F0B1
:1038C8006FFB2068232139F082FB20686FF07A01B2
:1038D80039F02DFB20686FF0490139F03FFB206873
:1038E800092139F0B8FB1221206838F06DF92068F9
:1038F80024F078FB6FF04041306039F051FB3068BC
:103908006FF0404139F063FB30686FF0060139F021
:103918000EFB3068032139F021FB3068092139F0AA
:103928009AFB364930684BF013FE6FF07F40D6F8AB
:10393800009047F072FBC0F307238DF81400C0F322
:1039480007408DF815308DF8160005994846002275
:10395800DFF8AC903BF069FA30680022FF213BF0B9
:1039680073FA0022494630683BF075FA206824F063
:1039780039FB244E6FF04041306039F011FB30685C
:103988006FF0404139F023FB3068062139F0CFFA57
:10399800DFF874A03068032139F0E0FA30680921B3
:1039A80039F059FB514630684BF0D2FD6FF07F403B
:1039B800D6F800B047F031FB28E000BF3C9E00205D
:1039C800E76E0700389E0020784E0500349E0020E0
:1039D800309E0020FBFBFF0057AA0A001083050059
:1039E8002C9E002078AA0A00289E0020FDFDFF00DA
:1039F8005AAA0A00249E0020209E00205DAA0A00E0
:103A0800B86205001C9E0020E7B30A00C0F3072334
:103A18008DF81800C0F307408DF819308DF81A009A
:103A28000699584600223BF000FA30680022FF2130
:103A38003BF00AFA0022494630683BF00CFA20684D
:103A480024F0D0FACE4E6FF04041306039F0A8FA39
:103A580030686FF0404139F0BAFA3068122139F015
:103A680066FA3068032139F079FA3068092139F0AB
:103A7800F2FAC44930684BF06BFD6FF07F40D6F81E
:103A880000B047F0CAFAC0F307238DF81C00C0F352
:103A980007408DF81D308DF81E0007995846002202
:103AA8003BF0C3F930680022FF213BF0CDF900223A
:103AB800494630683BF0CFF9206824F093FAB24EBB
:103AC8006FF04041306039F06BFA30686FF0404178
:103AD80039F07DFA30681F2139F029FA306803215E
:103AE80039F03CFA3068092139F0B5FA51463068A6
:103AF8004BF02EFD6FF07F40D6F800A047F08DFA0E
:103B0800C0F307238DF82000C0F307408DF821305B
:103B18008DF822000899504600223BF086F930685B
:103B28000022FF213BF090F90022494630683BF023
:103B380092F9206824F056FA944C6FF040412060C6
:103B480039F02EFA20686FF0404139F040FA2068C9
:103B58002B2139F0ECF92068032139F0FFF92068AE
:103B6800092139F078FA8A4920684BF0F1FC6FF0A6
:103B78007F40266847F051FAC0F307238DF82400E8
:103B8800C0F307408DF825308DF826000999304696
:103B980000223BF04AF920680022FF213BF054F94B
:103BA8000022494620683BF056F9286813F042FC89
:103BB800784C794E206014F0D1FF2068A12139F0AB
:103BC800EFF92068A92139F002FA2068062139F0B6
:103BD800AEF920681E2139F0C1F92068092139F0B1
:103BE8003AFA1221206837F0EFFF206824F0FAF93A
:103BF8006FF04041306039F0D3F930686FF04041E0
:103C080039F0E5F93068062139F091F930686FF03C
:103C1800060139F0A3F93068092139F01CFA5F4927
:103C280030684BF095FC4046D6F8009047F0F5F91F
:103C3800C0F307238DF82800C0F307408DF829301A
:103C48008DF82A000A99484600223BF0EEF83068C1
:103C58000022FF213BF0F8F80022514930683BF080
:103C6800FAF8206824F0BEF94E4E6FF040413060FB
:103C780039F096F930686FF0404139F0A8F93068AA
:103C88006FF0020139F053F93068222139F066F9F2
:103C98003068092139F0DFF9434930684BF058FCA6
:103CA8003846D6F8008047F0B8F9C0F307238DF8F6
:103CB8002C00C0F307408DF82D308DF82E000B999D
:103CC800404600223BF0B1F830680022FF213BF06B
:103CD800BBF80022354930683BF0BDF8206823F076
:103CE8007BFD334C334920604BF0A8FA20686FF015
:103CF800404139F055F920686FF0404139F067F9D3
:103D080020686FF0080139F012F92068452139F070
:103D180025F92068092139F09EF92068022138F038
:103D28009EF91021206837F04FFF286823F054FDD2
:103D3800214C224920604BF081FA20686FF0404105
:103D480039F02EF920686FF0404139F040F92068C9
:103D58007E2139F0ECF82068632139F0FFF82068FB
:103D6800092139F078F92068022138F078F9102112
:103D7800206837F029FF286823F02EFD20E000BFD7
:103D8800189E002060AA0A00149E0020109E0020A1
:103D980063AA0A000C9E0020089E002066AA0A005A
:103DA800D88D0500049E00206DAA0A0074880500BD
:103DB800009E0020944E0500FC9D0020E84E050062
:103DC800D24CD34920604BF039FA20686FF040415B
:103DD80039F0E6F820686FF0404139F0F8F82068CB
:103DE8006FF0840139F0A3F82068642139F0B6F83F
:103DF8002068092139F02FF92068022138F02FF9BD
:103E08001021206837F0E0FE286813F013FBC14C3E
:103E1800C14D206014F0A2FE2068AE2139F0C0F830
:103E28002068672139F0D3F82068792139F07FF8C4
:103E380020686FF0570139F091F82068092139F0AE
:103E48000AF91221206837F0BFFE206824F0CAF86A
:103E58006FF04041286039F0A3F828686FF04041BE
:103E680039F0B5F828686FF0410139F060F8286832
:103E78006FF0030139F072F82868092139F0EBF87E
:103E8800A64928684BF064FB38462E6847F0C5F809
:103E9800C0F307238DF83000C0F307408DF83130A8
:103EA8008DF832000C99304600223AF0BEFF00220D
:103EB800FF2128683AF0C8FF206813F0BBFA984D34
:103EC8005121286039F06CF82868302139F07FF8E2
:103ED80028686FF0050139F02AF828686FF00101A9
:103EE80039F03CF82868092139F0B5F8102128681C
:103EF80037F06AFE8B482E6847F08FF8C0F3072327
:103F08008DF83400C0F307408DF835308DF8360051
:103F18000D99304600223AF046FF0022FF2128681A
:103F28003AF050FF4AF6FF602E6847F076F8C0F383
:103F380007238DF83800C0F307408DF839308DF825
:103F48003A000E99002230463AF043FF00202E68CE
:103F580047F063F8C0F307238DF83C00C0F307402F
:103F68008DF83D308DF83E000F99304600223AF02A
:103F780046FF0022FF2128683AF050FF206824F00D
:103F880031F8694E6FF04041306039F009F8306817
:103F98006FF0404139F01BF830686FF01E0138F0BF
:103FA800C6FFDFF888A130686FF0110138F0D6FF3E
:103FB8003068092139F04FF8514630684BF0C8FA9B
:103FC8006FF07F40356847F028F8C0F307238DF875
:103FD8004000C0F307408DF841308DF84200109939
:103FE80028460022524D3AF020FF30680022FF2177
:103FF8003AF02AFF0022294630683AF02CFF206860
:1040080023F0F0FF4B4E6FF04041306038F0C8FFAE
:1040180030686FF0404138F0DAFF3068072138F037
:1040280086FF454F30686FF0100138F097FF306811
:10403800092139F010F8394630684BF089FA6FF0E9
:104048007F40D6F8008046F0E8FFC0F307238DF8DC
:104058004400C0F307408DF845308DF846001199AB
:10406800404600223AF0E1FE30680022FF213AF093
:10407800EBFE0022294630683AF0EDFE206823F076
:10408800B1FF2E4E6FF04041306038F089FF306844
:104098006FF0404138F09BFF30686FF01E0138F038
:1040A80046FFDFF89C9030686FF0010138F056FF4A
:1040B8003068092138F0CFFF494630684BF048FA9C
:1040C8006FF07F40D6F8008046F0A7FFC0F30723C3
:1040D8008DF84800C0F307408DF849308DF84A0044
:1040E8001299404600223AF0A0FE30680022FF21D3
:1040F8003AF0AAFE0022294630683AF0ACFE206861
:1041080023F070FF0F4E6FF040411DE0F89D002036
:10411800CC4E0500F49D0020F09D002073AA0A00F3
:10412800EC9D0020F06C0900E89D002077AA0A00A9
:10413800545D0500E49D00207AAA0A00E09D002055
:104148007FAA0A00DC9D0020306038F029FF306823
:104158006FF0404138F03BFF3068072138F0E7FE48
:1041680030686FF0010138F0F9FE3068092138F045
:1041780072FF394630684BF0EBF96FF07F40D6F8A4
:10418800008046F04AFFC0F307238DF84C00C0F3C7
:1041980007408DF84D308DF84E00139940460022A7
:1041A8003AF043FE30680022FF213AF04DFE00222B
:1041B800294630683AF04FFE206823F013FFD74EA7
:1041C8006FF04041306038F0EBFE30686FF04041EE
:1041D80038F0FDFE30686FF01D0138F0A8FEDFF8FA
:1041E800408330680D2138F0B9FE3068092138F075
:1041F80032FF414630684BF0ABF96FF07F40D6F89C
:1042080000B046F00AFFC0F307238DF85000C0F352
:1042180007408DF851308DF8520014995846002205
:104228003AF003FE30680022FF213AF00DFE00222A
:10423800294630683AF00FFE206823F0D3FEB94CC7
:104248006FF04041206038F0ABFE20686FF04041CD
:1042580038F0BDFE2068072138F069FE20680D217E
:1042680038F07CFE2068092138F0F5FE39462068D0
:104278004BF06EF96FF07F40266846F0CEFEC0F333
:1042880007238DF85400C0F307408DF855308DF89A
:1042980056001599304600223AF0C7FD20680022E2
:1042A800FF213AF0D1FD0022294620683AF0D3FDDB
:1042B8009D4B9E4C186813F0BDF8206014F04EFC1E
:1042C8002068AE2138F06CFE2068672138F07FFE48
:1042D8002068792138F02BFE20686FF0250138F02E
:1042E8003DFE2068092138F0B6FE1221206837F01B
:1042F8006BFC206823F076FE8D4E6FF040413060F5
:1043080038F04EFE30686FF0404138F060FE30689B
:104318006FF0410138F00BFE30686FF0020138F0A1
:104328001DFE3068092138F096FE824930684BF04E
:104338000FF98148D6F800B046F06FFEC0F30723A6
:104348008DF85800C0F307408DF859308DF85A00A1
:104358001699584600223AF068FD0022FF2130687D
:104368003AF072FD206813F065F8744E5121306000
:1043780038F016FE3068302138F029FE30686FF0CA
:10438800050138F0D4FD30686FF0010138F0E6FD22
:104398003068092138F05FFE1021306837F014FCCE
:1043A8006748D6F800B046F038FEC0F307238DF80A
:1043B8005C00C0F307408DF85D308DF85E001799FA
:1043C800584600223AF0EFFC0022FF2130683AF00C
:1043D800F9FC4AF6FF60D6F800B046F01EFEC0F3BE
:1043E80007238DF86000C0F307408DF861308DF821
:1043F80062001899002258463AF0EBFC0020D6F8E3
:1044080000B046F00AFEC0F307238DF86400C0F33D
:1044180007408DF865308DF86600199958460022D6
:104428003AF0EDFC0022FF2130683AF0F7FC2068F2
:1044380023F0D8FD434E6FF04041306038F0B0FDB6
:1044480030686FF0404138F0C2FD30686FF01C01F1
:1044580038F06DFD30686FF0100138F07FFD30687E
:10446800092138F0F8FD514630684BF071F86FF0CB
:104478007F40D6F800A046F0D0FDC0F307238DF8A2
:104488006800C0F307408DF869308DF86A001A9902
:10449800504600223AF0C9FC30680022FF213AF069
:1044A800D3FC0022294630683AF0D5FC206823F076
:1044B80099FD254E6FF04041306038F071FD30684D
:1044C8006FF0404138F083FD3068072138F02FFD48
:1044D80030686FF00F0138F041FD3068092138F07D
:1044E800BAFD394630684BF033F86FF07F40D6F8A4
:1044F80000A046F092FDC0F307238DF86C00C0F3CE
:1045080007408DF86D308DF86E001B9950460022DB
:104518003AF08BFC3068002218E000BFD89D0020DC
:1045280082AA0A00D49D00203C9E0020D09D002035
:10453800CC9D002085AA0A00FDFDFF00C89D002033
:10454800F06C0900C49D0020C09D0020FF213AF0B6
:104558007BFC0022294630683AF07DFC206823F075
:1045680041FD8F4E6FF04041306038F019FD3068E2
:104578006FF0404138F02BFD30686FF01C0138F0C7
:10458800D6FC30686FF0010138F0E8FC306809218A
:1045980038F061FD494630684AF0DAFF6FF07F4035
:1045A800D6F8009046F039FDC0F307238DF8700067
:1045B800C0F307408DF871308DF872001C99484699
:1045C80000223AF032FC30680022FF213AF03CFC2D
:1045D8000022294630683AF03EFC206823F002FDAC
:1045E800704E6FF04041306038F0DAFC30686FF0A0
:1045F800404138F0ECFC3068072138F098FC30680E
:104608006FF0010138F0AAFC3068092138F023FD69
:10461800394630684AF09CFF6FF07F40D6F800902A
:1046280046F0FBFCC0F307238DF87400C0F3074085
:104638008DF875308DF876001D99484600223AF0BD
:10464800F4FB30680022FF213AF0FEFB00222946E5
:1046580030683AF000FC206823F0C4FC524E6FF03A
:104668004041306038F09CFC30686FF0404138F0D1
:10467800AEFC30686FF01C0138F059FC30680D2131
:1046880038F06CFC3068092138F0E5FC41463068A8
:104698004AF05EFF6FF07F40D6F8008046F0BDFC20
:1046A800C0F307238DF87800C0F307408DF8793000
:1046B8008DF87A001E99404600223AF0B6FB306821
:1046C8000022FF213AF0C0FB0022294630683AF068
:1046D800C2FB206823F086FC344E6FF04041306006
:1046E80038F05EFC30686FF0404138F070FC30689C
:1046F800072138F01CFC30680D2138F02FFC306899
:10470800092138F0A8FC394630684AF021FF6FF0DB
:104718007F40376846F081FCC0F307238DF87C00A2
:10472800C0F307408DF87D308DF87E001F9938461C
:1047380000223AF07AFB30680022FF213AF084FB2D
:104748000022294630683AF086FB206823F044F8B6
:10475800174C184920604AF071FD20686FF04041FD
:1047680038F01EFC20686FF0404138F030FC2068BB
:104778006FF0410138F0DBFB20686FF01A0138F068
:10478800EDFB2068092138F066FC2068022137F02B
:1047980066FC1021206821B0BDE8F04F37F014BA4C
:1047A800BC9D0020B89D0020B49D0020B09D002035
:1047B800AC9D00203C4F05002DE9F04300208BB054
:1047C80012F038FECE4E1021306037F0FDF9306817
:1047D80023F002F8CB4CCC4920604AF02FFD20682A
:1047E8006FF0404138F0DCFB20686FF0404138F052
:1047F800EEFB2068092138F02EFC2068022137F0F2
:104808002EFC1021206837F0DFF9306812F012FE14
:10481800BE4CBF4D206014F0A1F920688C2138F0FF
:10482800BFFB20683C2138F0D2FB2068062138F015
:104838007EFB20686FF0080138F090FB20680921A2
:1048480038F009FC1221206837F0BEF9206823F0FF
:10485800C9FB6FF04041286038F0A2FB28686FF070
:10486800404138F0B4FB28686FF02B0138F05FFB4B
:1048780028684FF0FF3138F071FBDFF8989228680C
:10488800092138F0E8FBA44928684AF061FE484647
:104898002F6846F0C2FBC0F307238DF80400C0F36D
:1048A80007408DF805308DF806000199384600223A
:1048B8009A4F3AF0BAFA28680022FF213AF0C4FA6F
:1048C8000022394628683AF0C6FA206823F08AFBA5
:1048D800934D6FF04041286038F062FB28686FF014
:1048E800404138F074FB28686FF0080138F01FFB6E
:1048F80028686FF0040138F031FB2868092138F086
:10490800AAFB884928684AF023FE4846D5F8008063
:1049180046F083FBC0F307238DF80800C0F3074077
:104928008DF809308DF80A000299404600223AF0C5
:104938007CFA28680022FF213AF086FA00223946DC
:1049480028683AF088FA206823F04CFB764C6FF020
:104958004041206038F024FB20686FF0404138F077
:1049680036FB20681F2138F0E2FA20684FF0FF314B
:1049780038F0F4FA2068092138F06DFB6B4920689B
:104988004AF0E6FD6A48256846F047FBC0F307236E
:104998008DF80C00C0F307408DF80D308DF80E002F
:1049A8000399284600223AF040FA20680022FF21A5
:1049B8003AF04AFA0022394620683AF04CFA306850
:1049C80012F038FD5B4C5C4D206014F0C7F820688D
:1049D800732138F0E5FA2068232138F0F8FA2068C6
:1049E8006FF00B0138F0A3FA20681A2138F0B6FAF4
:1049F8002068092138F02FFB1221206837F0E4F8ED
:104A0800206823F0EFFA6FF04041286038F0C8FAC8
:104A180028686FF0404138F0DAFA28686FF015011D
:104A280038F085FA2868042138F098FA28680921AE
:104A380038F011FB414928684AF08AFD6FF07F4041
:104A48002F6846F0EAFAC0F307238DF81000C0F388
:104A580007408DF811308DF812000499384600226D
:104A6800374F3AF0E2F928680022FF213AF0ECF9D2
:104A78000022394628683AF0EEF9206823F0B2FAA5
:104A8800304D6FF04041286038F08AFA28686FF09E
:104A9800404138F09CFA28686FF0030138F047FA73
:104AA800DFF8A4802868032138F058FA286809211B
:104AB80038F0D1FA414628684AF04AFD6FF07F4045
:104AC800D5F8009046F0A9FAC0F307238DF8140032
:104AD800C0F307408DF815308DF816000599484643
:104AE80000223AF0A2F928680022FF213AF0ACF936
:104AF8000022394628683AF0AEF9206826E000BF5F
:104B08007C9E0020789E0020784E0500749E002030
:104B1800709E0020FBFBFF0057AA0A00D88D0500F5
:104B28006C9E002078AA0A00689E00205AAA0A00F3
:104B3800FDFDFF00649E0020609E00205DAA0A0023
:104B4800806D05005C9E0020E7B30A0023F04AFA56
:104B5800AF4D6FF04041286038F022FA28686FF0B6
:104B6800404138F034FA28680C2138F0E0F9286818
:104B7800042138F0F3F92868092138F06CFAA549BE
:104B880028684AF0E5FC6FF07F40D5F8009046F0C1
:104B980044FAC0F307238DF81800C0F307408DF8D6
:104BA80019308DF81A000699484600223AF03DF966
:104BB80028680022FF213AF047F900223946286880
:104BC8003AF049F9206823F00DFA934D6FF040410F
:104BD800286038F0E5F928686FF0404138F0F7F9B7
:104BE80028681F2138F0A3F92868032138F0B6F99E
:104BF8002868092138F02FFA414628684AF0A8FCAD
:104C08006FF07F40D5F8008046F007FAC0F307231D
:104C18008DF81C00C0F307408DF81D308DF81E007C
:104C28000799404600223AF000F928680022FF213F
:104C38003AF00AF90022394628683AF00CF9206857
:104C480023F0D0F9754C6FF04041206038F0A8F996
:104C580020686FF0404138F0BAF92068302138F008
:104C680066F92068032138F079F92068092138F0BD
:104C7800F2F96B4920684AF06BFC6FF07F402568B9
:104C880046F0CBF9C0F307238DF82000C0F30740A6
:104C98008DF821308DF822000899284600223AF034
:104CA800C4F820680022FF213AF0CEF800223946E5
:104CB80020683AF0D0F8306812F0BCFB594C2060FC
:104CC80013F04CFF20685B2138F06AF9206828212E
:104CD80038F07DF92068022138F029F920686FF052
:104CE800540138F03BF92068092138F0B4F9122151
:104CF800206836F069FF206823F074F94A4C6FF099
:104D08004041206038F04CF920686FF0404138F09D
:104D18005EF920686FF0050138F009F920684FF056
:104D2800FF3138F01BF92068092138F094F93F4920
:104D380020684AF00DFC3E48256846F06EF9C0F33D
:104D480007238DF82400C0F307408DF825308DF82F
:104D580026000999284600223AF067F820680022C0
:104D6800FF213AF071F80022324920683AF073F8CE
:104D7800306822F031FD304C304920604AF05EFA4C
:104D880020686FF0404138F00BF920686FF040411F
:104D980038F01DF920687E2138F0C9F820686321B1
:104DA80038F0DCF82068092138F055F9206802212C
:104DB80037F055F91021206836F006FF306822F0E8
:104DC8000BFD1F4C1F4920604AF038FA20686FF02D
:104DD800404138F0E5F820686FF0404138F0F7F8C6
:104DE80020686FF0840138F0A2F82068642138F058
:104DF800B5F82068092138F02EF92068022137F02B
:104E08002EF9102120680BB0BDE8F04336F0DCBE67
:104E1800589E002060AA0A00549E0020509E002040
:104E280063AA0A004C9E0020489E00208AAA0A0015
:104E3800FEFEFE00AC7D0500449E0020E84E050005
:104E4800409E0020CC4E05002DE9F04300208DB097
:104E580012F0F0FACE4D1021286036F0B5FE286821
:104E680022F0BAFCCB4CCC4920604AF0E7F9206824
:104E78006FF0404138F094F820686FF0404138F006
:104E8800A6F82068092138F0E6F82068022137F0F2
:104E9800E6F81021206836F097FE286812F0CAFA62
:104EA800BE4CBF4E206013F059FE20688C2138F0AC
:104EB80077F82068272138F08AF820686FF03C01DD
:104EC80038F035F820686FF0590138F047F8206855
:104ED800092138F0C0F81221206836F075FE2068E4
:104EE80023F080F86FF04041306038F059F83068AE
:104EF8006FF0404138F06BF830686FF02B0138F0F4
:104F080016F830684FF0FF3138F028F8DFF894923F
:104F18003068092138F09FF8A34930684AF018FB37
:104F28004846376846F079F8C0F307238DF804003F
:104F3800C0F307408DF805308DF806000199384612
:104F480000229A4F39F071FF30680022FF2139F0B2
:104F58007BFF00223946306839F07DFF206823F056
:104F680041F8934E6FF04041306038F019F83068DE
:104F78006FF0404138F02BF830686FF0080137F0D7
:104F8800D6FF30686FF0040137F0E8FF3068092178
:104F980038F061F8874930684AF0DAFA4846D6F8B6
:104FA800008046F03AF8C0F307238DF80800C0F3F4
:104FB80007408DF809308DF80A0002994046002212
:104FC80039F033FF30680022FF2139F03DFF00221D
:104FD8003946306839F03FFF206823F003F8764CF3
:104FE8006FF04041206037F0DBFF20686FF04041F0
:104FF80037F0EDFF20681F2137F099FF20684FF048
:10500800FF3137F0ABFF2068092138F024F86B49ED
:1050180020684AF09DFA6A48266845F0FEFFC0F30A
:1050280007238DF80C00C0F307408DF80D308DF87C
:105038000E0003993046002239F0F7FE206800225E
:10504800FF2139F001FF00223946206839F003FFBB
:10505800286812F0EFF95B4C5B4E206013F07EFD80
:105068002068732137F09CFF2068232137F0AFFFB9
:105078002068232137F05BFF20686FF04F0137F07D
:105088006DFF2068092137F0E6FF1221206836F00D
:105098009BFD206822F0A6FF6FF04041306037F09A
:1050A8007FFF30686FF0404137F091FF30686FF054
:1050B800150137F03CFF3068042137F04FFF3068A6
:1050C800092137F0C8FF414930684AF041FA6FF0CA
:1050D8007F40376845F0A1FFC0F307238DF8100023
:1050E800C0F307408DF811308DF812000499384646
:1050F8000022374F39F099FE30680022FF2139F03D
:10510800A3FE00223946306839F0A5FE206822F057
:1051180069FF304E6FF04041306037F041FF306832
:105128006FF0404137F053FF30686FF0030137F0FC
:10513800FEFEDFF8A4803068032137F00FFF3068E7
:10514800092137F088FF414630684AF001FA6FF0CC
:105158007F40D6F8009045F060FFC0F307238DF834
:105168001400C0F307408DF815308DF81600059926
:105178004846002239F059FE30680022FF2139F0F4
:1051880063FE00223946306839F065FE206825E064
:10519800D89E0020D49E0020784E0500D09E002086
:1051A800CC9E0020FBFBFF0057AA0A00D88D050003
:1051B800C89E002078AA0A00C49E00205AAA0A00A5
:1051C800FDFDFF00C09E0020BC9E00205DAA0A00D5
:1051D800806D0500B89E0020E7B30A0022F002FFA8
:1051E800CD4E6FF04041306037F0DAFE30686FF036
:1051F800404137F0ECFE30680C2137F098FE3068FB
:10520800042137F0ABFE3068092137F024FFC34989
:1052180030684AF09DF96FF07F40D6F8009045F06D
:10522800FCFEC0F307238DF81800C0F307408DF883
:1052380019308DF81A0006994846002239F0F5FD14
:1052480030680022FF2139F0FFFD0022394630681E
:1052580039F001FE206822F0C5FEB14E6FF04041E2
:10526800306037F09DFE30686FF0404137F0AFFE98
:1052780030681F2137F05BFE3068032137F06EFE7F
:105288003068092137F0E7FE414630684AF060F996
:105298006FF07F40D6F8008045F0BFFEC0F30723CB
:1052A8008DF81C00C0F307408DF81D308DF81E00E6
:1052B80007994046002239F0B8FD30680022FF21E6
:1052C80039F0C2FD00223946306839F0C4FD206843
:1052D80022F088FE934C6FF04041206037F060FE6A
:1052E80020686FF0404137F072FE2068302137F0B7
:1052F8001EFE2068032137F031FE2068092137F0AF
:10530800AAFE894920684AF023F96FF07F40266891
:1053180045F083FEC0F307238DF82000C0F3074053
:105328008DF821308DF8220008993046002239F096
:105338007CFD20680022FF2139F086FD00223946D5
:10534800206839F088FD286812F074F8774C784E98
:10535800206013F003FC20686B2137F021FE2068E1
:10536800252137F034FE20686FF02D0137F0DFFD7E
:105378002068452137F0F2FD2068092137F06BFEDF
:105388001221206836F020FC206822F025FA6949AD
:10539800306049F053FF30686FF0404137F000FE4D
:1053A80030686FF0404137F012FE30686FF01C0132
:1053B80037F0BDFD30684FF0FF3137F0CFFD306872
:1053C800092137F048FE3068022136F048FE1021E6
:1053D800306836F0F9FB206822F004FE564C6FF076
:1053E8004041206037F0DCFD20686FF0404137F025
:1053F800EEFD20680E2137F09AFD2068002137F075
:10540800ADFD2068092137F026FE4C4920684AF096
:105418009FF86FF07F40266845F0FFFDC0F3072333
:105428008DF82400C0F307408DF825308DF826004C
:10543800434F30460999002239F0F7FC20680022D2
:10544800FF2139F001FD00223946206839F003FDBB
:10545800286811F0EFFF3B4C3B4E206013F07EFBB9
:1054680020687A2137F09CFD2068282137F0AFFDAD
:105478002068452137F05BFD20686FF01D0137F08B
:105488006DFD2068092137F0E6FD1221206836F00D
:105498009BFB206822F0A0F92C49306049F0CEFE31
:1054A80030686FF0404137F07BFD30686FF0404165
:1054B80037F08DFD3068222137F039FD30686FF004
:1054C800010137F04BFD3068092137F0C4FD306821
:1054D800022136F0C4FD1021306836F075FB2068D3
:1054E80022F080FD1A4C6FF04041206037F058FDE3
:1054F80020686FF0404137F06AFD20686FF01001B6
:1055080037F015FD20684FF0FF3137F027FD206890
:10551800092137F0A0FD1DE0B49E002060AA0A0012
:10552800B09E0020AC9E002063AA0A00A89E00201E
:10553800A49E0020044F0500A09E002091AA0A0006
:10554800487805009C9E0020989E0020204F05006A
:10555800949E00207A49206849F0FAFF7948266825
:1055680045F05BFDC0F307238DF82800C0F3074022
:105578008DF829308DF82A000A993046002239F032
:1055880054FC20680022FF2139F05EFC00223946D5
:10559800206839F060FC286811F04CFF6A4C6B4EAB
:1055A800206013F0DBFA20689C2137F0F9FC2068B2
:1055B8001A2137F00CFD2068102137F0B8FC20685C
:1055C800112137F0CBFC2068092137F044FD122166
:1055D800206836F0F9FA206822F0FEF85C4930605D
:1055E80049F02CFE30686FF0404137F0D9FC306844
:1055F8006FF0404137F0EBFC30686FF03C0137F05A
:1056080096FC30686FF0010137F0A8FC306809217A
:1056180037F021FD3068022136F021FD1021306875
:1056280036F0D2FA206822F0DDFC4A4C6FF0404197
:10563800206037F0B5FC20686FF0404137F0C7FCB8
:1056480020680B2137F073FC20686FF0010137F0F8
:1056580085FC2068092137F0FEFC3F49206849F0A5
:1056680077FF6FF07F40266845F0D7FCC0F307232B
:105678008DF82C00C0F307408DF82D308DF82E00E2
:105688000B993046002239F0D0FB20680022FF2118
:1056980039F0DAFB00223946206839F0DCFB28684B
:1056A80022F09AF82D4C2E49206049F0C7FD206859
:1056B8006FF0404137F074FC20686FF0404137F0DC
:1056C80086FC20687E2137F032FC2068632137F0A1
:1056D80045FC2068092137F0BEFC2068022136F01D
:1056E800BEFC1021206836F06FFA286822F074F8A2
:1056F8001C4C1D49206049F0A1FD20686FF0404115
:1057080037F04EFC20686FF0404137F060FC2068AD
:105718006FF0840137F00BFC2068642137F01EFC21
:105728002068092137F097FC2068022136F097FCA1
:10573800102120680DB0BDE8F04336F045BA00BF2F
:105748008AAA0A00FEFEFE00909E00208C9E002081
:10575800B04E0500889E002095AA0A00849E00206D
:10576800E84E0500809E0020CC4E05001FB51CF0B9
:1057780093FB1F4B186014F073FB044605201CF0C4
:105788002DFCC0F307238DF808008DF80930C0F30D
:10579800074300208DF80A301CF020FCC0F30723D3
:1057A8008DF80D30C0F307438DF80E30114B8DF88E
:1057B8000C00DDE902120093204600231DF0E0FEF4
:1057C8000146204614F088FDFEF7F6FFFFF73CFB84
:1057D800FDF74EFFFDF7EAFA002011F02BFE064B0D
:1057E8001860064B186804B0BDE8104039F0EBBFEC
:1057F800549D00201C680500DC9E00207C9E002033
:105808002DE9F04FB64BB74EB74D3360B74BDFF8C5
:10581800E082B84C2B60B84BB84FC8F8003023680A
:10582800B74A03F00703022B9DB03A6043D94FF003
:105838000009B44B0392029303224B462146484683
:10584800CDE900992EF0FBFD236803F00703022B36
:1058580031D9336803220393AB4B2146CDE9019339
:1058680048464B46CDF800902EF0E9FD236803F03A
:105878000703022B1FD92B6803220393A34B21464E
:10588800CDE9019348464B46CDF800902EF0D7FD60
:10589800236803F00703022B0DD9D8F80030032240
:1058A80003939B4B2146CDE9019348464B46CDF8DF
:1058B80000902EF0C4FD38682EF0BFFD0346002886
:1058C80040F018822268510707D0924A8949CDE9E9
:1058D8000102012200902EF0B2FD30682EF0ADFDDD
:1058E8000346002840F015822268520707D08A4AEA
:1058F8008049CDE90102012200902EF0A0FD286820
:105908002EF09BFD0346002840F0128222685107C2
:1059180007D0824A7749CDE90102012200902EF092
:105928008EFDD8F800002EF088FD0346002840F0D0
:105938000E822268520707D0794A6E49CDE90102E2
:10594800012200902EF07BFD38682EF076FD0028AD
:1059580000F00C82DFF8CCA150462EF06EFD002836
:1059680000F01782236803F00703022B0CD9DAF83A
:105978000030032203936C4B5E49029300231846C0
:10598800CDE900332EF05BFD4FF008090023CDE987
:10599800163302238DF860309DF86030DAF808205D
:1059A80043F002038DF86030D2F808B01FFA89F38B
:1059B80001225C4816A9D847034670B9226802F04C
:1059C8000702022A09D9594A4A49CDE90102CDF804
:1059D8000C90032200902EF032FD09F10109B9F173
:1059E800780FD3D1D8F800002EF027FD002835D045
:1059F8000A234FF000090321D8F8000016AACDE9C0
:105A080016392EF02BFD0028236880F2D18113F07F
:105A1800060F0BD0464B0390CDE9019302224B466B
:105A280048463449CDF800902EF009FD0721D8F8F2
:105A3800000016AA2EF012FD0028236880F2C98102
:105A480013F0060F0AD03B4B039002930023022267
:105A58001846CDE9003327492EF0F1FC28682EF0CE
:105A6800ECFCE0B10A234FF000084021286816AA90
:105A7800CDE916382EF0F2FC0028236880F2B981AF
:105A880013F0060F0BD02C4B0390CDE901830222B3
:105A9800434640461749CDF800802EF0D0FC3868C0
:105AA8002EF0CBFC002864D038682EF0C2FC80466B
:105AB800002840F0D981DFF88490DFF884A04A46B6
:105AC8000D2138682EF0D7FC5246102138682EF088
