:020000040000FA
:10000000C0730320F1B900003F7B0300DDB900009D
:10001000DDB90000DDB90000DDB90000DDB9000088
:100020000000000000000000000000006DBB0000A8
:10003000DDB900000000000005BB0000DDB90000D4
:1000400001BD000001BD000001BD000001BD0000B8
:1000500001BD000001BD000001BD000001BD0000A8
:1000600001BD000001BD000001BD000001BD000098
:1000700001BD000001BD000001BD000001BD000088
:1000800001BD000001BD000001BD000001BD000078
:1000900001BD000001BD000001BD000001BD000068
:1000A00001BD000001BD000001BD000001BD000058
:1000B00001BD000001BD000001BD000001BD000048
:1000C00001BD000001BD000001BD000001BD000038
:1000D00001BD000001BD000001BD000001BD000028
:1000E00001BD000001BD000001BD000001BD000018
:1000F00001BD000001BD000001BD000001BD000008
:1001000001BD000001BD000001BD000001BD0000F7
:1001100001BD000001BD000001BD000001BD0000E7
:1001200001BD000001BD000001BD000001BD0000D7
:1001300001BD000001BD000001BD000001BD0000C7
:1001400001BD000001BD000001BD000001BD0000B7
:0401500001BD0000ED
:1001580080EA101404F0F01480EA0410604081EA88
:10016800111404F0F01481EA0411614082EA1214B7
:1001780004F0F01482EA0412624083EA131404F0D3
:10018800F01483EA0413634080EA102404F47F44E3
:1001980080EA0420604081EA112404F47F4481EA63
:1001A8000421614082EA122404F47F4482EA042292
:1001B800624083EA132404F47F4483EA04236340FF
:1001C80081EA500404F0553480EA4400614083EA2F
:1001D800520404F0553482EA4402634082EA9004EF
:1001E80004F0333480EA8400624083EA910404F026
:1001F800333481EA84016340704700BF82EA900487
:1002080004F0333480EA8400624083EA910404F005
:10021800333481EA8401634081EA500404F05534A0
:1002280080EA4400614083EA520404F0553482EACB
:100238004402634080EA102404F47F4480EA0420E6
:10024800604081EA112404F47F4481EA042161407A
:1002580082EA122404F47F4482EA0422624083EA98
:10026800132404F47F4483EA0423634080EA1014CF
:1002780004F0F01480EA0410604081EA111404F0DC
:10028800F01481EA0411614082EA121404F0F014B7
:1002980082EA0412624083EA131404F0F01483EA39
:1002A80004136340704700BF2DE9F14F94464FEAAD
:1002B800930B8A68CB6808684968FFF749FF0BF118
:1002C800060E33E083EA134480EA134582EA1347B3
:1002D80046BA96EA3444604000F00F1684EA0634C1
:1002E80020F00F1684EA161054BA94EA01067240F8
:1002F80002F00F1486EA043622F00F1486EA14126C
:100308004CBA6540694001F00F1485EA043521F0C4
:100318000F1485EA14115CBA67407B4003F00F1490
:1003280087EA043723F00F1487EA1413BCE8F000B7
:100338006040694072407B4000F0E03400F01035C6
:1003480000F00F3040EA540040EAC50080EA90040B
:1003580004F0332480EA8400604001F0E03401F0C6
:10036800103501F00F3141EA540141EAC50181EA33
:10037800910404F0332481EA8401614002F0E034FE
:1003880002F0103502F00F3242EA540242EAC50286
:1003980082EA920404F0332482EA8402624003F081
:1003A800E03403F0103503F00F3343EA540343EA13
:1003B800C50383EA930404F0332483EA8403634087
:1003C80081EA324787EA134581EA354690EA06040E
:1003D80084EA034B82EA1B4280EA044484EA054427
:1003E80083EA144A85EA14448BEA044B84EA3744C6
:1003F80081EA0B4181EA164104EA0A00454082EA93
:1004080004082BEA080041408AEA0B0602EA0600C3
:1004180084EA34438AEA3A4603EA060778404540C4
:10042800414088EA38478BEA3B4007EA000985EAF9
:10043800090583EA0709464006EA0906714085EA84
:10044800010005EA3546464006EA314181EA304175
:1004580081EA364606EA304686EA3546344008EAF6
:10046800010886EA01052A4086EA364003405A40D8
:1004780081EA31431F407C4080EA030709EA070903
:1004880088EA0908544088EA020806EA0A0601EAE6
:100498000B018AEA0B0215408AEA3A4210404540AD
:1004A8008BEA3B4003405E404240174079404D4054
:1004B8004E40E443F64386EA18435D4085EA05402A
:1004C80083EA134386EA034183EA384284EA114304
:1004D80083EA04435FEA3343BEF1010E3FF6F2AE0E
:1004E8001ED4BCE8F0006040694072407B4020BCEC
:1004F800FFF784FE28606960AA60EB60BDE8F08FB2
:100508002DE9E0414FF2F00280EA1031114080EA13
:100518000130484041088208C3084FF0000E4FE7F9
:1005280000F0113001F0113102F0113203F01133F3
:1005380040EA410040EA820040EAC3004FF2F0027C
:1005480080EA1031114080EA01304840BDE8E0817E
:100558002DE9F04F02F11C050646074600EB850819
:1005680051F8040B043A46F8040BF9D14FF0010C8A
:10057800FFF7C6FF5FEA302080EA0C001ECF41403B
:100588004A4053405C401EC62000464517D04FEAFB
:100598004C0C1CF4807F18BFACF1E50C2C2DE7D077
:1005A8003C2D06D1FFF7ACFF06CF41404A4006C6B6
:1005B800100006CF41404A4006C61000D8E736E989
:1005C8000F00FFF7C5FD043D86E80F00F7D1BDE831
:1005D800F08F00BF2DE9F14F03F11C0402EB840CEE
:1005E8004FEA930B8A68CB6808684968FFF7B0FD43
:1005F8003CE9F0006040694072407B400BF1060E18
:100608004EE083EA134480EA134582EA134746BA68
:1006180096EA3444604000F00F1684EA063420F06D
:100628000F1684EA161054BA94EA0106724002F0D2
:100638000F1486EA043622F00F1486EA14124CBA14
:100648006540694001F00F1485EA043521F00F1464
:1006580085EA14115CBA67407B4003F00F1487EAFF
:10066800043723F00F1487EA141344BA44404DBAF0
:100678004D4056BA56405FBA5F4087EA174886EA47
:10068800174B84EA17464FEA38488BEA1B4485EA39
:100698001B4788EA1B4580EA3440694072407B402A
:1006A80000F0703400F0803500F00F3040EA44006C
:1006B80040EAD50080EA900404F0332480EA8400FC
:1006C800604001F0703401F0803501F00F3141EAEB
:1006D800440141EAD50181EA910404F0332481EA16
:1006E8008401614002F0703402F0803502F00F326C
:1006F80042EA440242EAD50282EA920404F0332430
:1007080082EA8402624003F0703403F0803503F01B
:100718000F3343EA440343EAD50383EA930404F01E
:10072800332483EA84036340C943DB4381EA00043A
:1007380083EA044686EA020183EA014382EA3345F2
:1007480083EA14435C4084EA00077FEA040A8AEAE1
:10075800024A8AEA010B87EA11488AEA374A80EA9C
:10076800060181EA1A418AEA030A04EA0A004540B6
:1007780088EA040707EA0B0041408AEA0B0608EA00
:10078800060084EA34428AEA3A4602EA06035840F6
:100798004540414087EA37438BEA3B4003EA00097A
:1007A80085EA090582EA0309464006EA0906714016
:1007B80085EA010005EA3546464006EA314181EA04
:1007C800304181EA364606EA304686EA3546344004
:1007D8000F4086EA010508EA050886EA3640024025
:1007E80088EA020881EA314213405C4080EA020349
:1007F80009EA030987EA0907674088EA040806EA5C
:100808000A0601EA0B018AEA0B0425408AEA3A44FF
:10081800204045408BEA3B4B02EA0B02564084EAF3
:100828000B04234059406E40694087EA364080EA0D
:10083800384080EA060380EA104481EA134585EAD5
:10084800344585EA17427D4082EA354180EA054011
:100858003CE9F0006040694072407B40BEF1010E07
:100868003FF6CFAE20BCFFF7C9FC28606960AA60DC
:10087800EB60BDE8F08F00BFFFF76ABE30B44FF001
:10088800000310F8014B11F8015B013A84EA0504F2
:1008980043EA0403F5D1A3F101034FEAD37030BC56
:1008A800704700BF4FF0000310F8012B013943EAED
:1008B8000203F9D1A3F101034FEAD370704700BFD7
:1008C80030B411F8014B12F8015B6C4000F8014B91
:1008D800013BF6D130BC704781F0004102E000BF17
:1008E80083F0004330B54FEA41044FEA430594EAE8
:1008F800050F08BF90EA020F1FBF54EA000C55EA23
:10090800020C7FEA645C7FEA655C00F0E2804FEAF3
:100918005454D4EB5555B8BF6D420CDD2C4480EAD5
:10092800020281EA030382EA000083EA010180EA05
:10093800020281EA0303362D88BF30BD11F0004F53
:100948004FEA01314FF4801C4CEA113102D0404289
:1009580061EB410113F0004F4FEA03334CEA1333C4
:1009680002D0524263EB430394EA050F00F0A780DC
:10097800A4F10104D5F1200E0DDB02FA0EFC22FAD7
:1009880005F2801841F1000103FA0EF2801843FACB
:1009980005F359410EE0A5F120050EF1200E012ABC
:1009A80003FA0EFC28BF4CF0020C43FA05F3C018FA
:1009B80051EBE37101F0004507D54FF0000EDCF173
:1009C800000C7EEB00006EEB0101B1F5801F1BD31C
:1009D800B1F5001F0CD349085FEA30004FEA3C0C20
:1009E80004F101044FEA445212F5800F80F09A8016
:1009F800BCF1004F08BF5FEA500C50F1000041EB1A
:100A0800045141EA050130BD5FEA4C0C404141EB1D
:100A18000101013C28BFB1F5801FE9D291F0000F18
:100A280004BF01460020B1FA81F308BF2033A3F1C7
:100A38000B03B3F120020CDA0C3208DD02F1140CBE
:100A4800C2F10C0201FA0CF021FA02F10CE002F1F9
:100A58001402D8BFC2F1200C01FA02F120FA0CFCF2
:100A6800DCBF41EA0C019040E41AA2BF01EB04513B
:100A7800294330BD6FEA04041F3C1CDA0C340EDC39
:100A880004F11404C4F1200220FA04F001FA02F37C
:100A980040EA030021FA04F345EA030130BDC4F13A
:100AA8000C04C4F1200220FA02F001FA04F340EA2F
:100AB8000300294630BD21FA04F0294630BD94F0E0
:100AC800000F83F4801306BF81F480110134013DC7
:100AD8004EE77FEA645C18BF7FEA655C29D094EA38
:100AE800050F08BF90EA020F05D054EA000C04BFB6
:100AF8001946104630BD91EA030F1EBF00210020A1
:100B080030BD5FEA545C05D14000494128BF41F03F
:100B1800004130BD14F580043CBF01F5801130BDA3
:100B280001F0004545F0FE4141F470014FF000002E
:100B380030BD7FEA645C1ABF194610467FEA655CDF
:100B48001CBF0B46024650EA013406BF52EA033581
:100B580091EA030F41F4002130BD00BF90F0000F6F
:100B680004BF0021704730B54FF4806404F13204AB
:100B78004FF000054FF0000150E700BF90F0000F64
:100B880004BF0021704730B54FF4806404F132048B
:100B980010F0004548BF40424FF000013EE700BF5B
:100BA80042004FEAE2014FEA31014FEA02701FBFEB
:100BB80012F07F4393F07F4F81F06051704732F01D
:100BC8007F4208BF704793F07F4F04BF41F4002174
:100BD800704730B54FF4607401F0004521F00041D2
:100BE8001CE700BF50EA010208BF704730B54FF05C
:100BF80000050AE050EA010208BF704730B511F05D
:100C0800004502D5404261EB41014FF4806404F194
:100C180032045FEA915C3FF4D8AE4FF003025FEA1A
:100C2800DC0C18BF03325FEADC0C18BF033202EB9E
:100C3800DC02C2F1200300FA03FC20FA02F001FAF8
:100C480003FE40EA0E0021FA02F11444BDE600BF9B
:100C580070B54FF0FF0C4CF4E06C1CEA11541DBF4A
:100C68001CEA135594EA0C0F95EA0C0F00F0DEF815
:100C78002C4481EA030621EA4C5123EA4C5350EAFA
:100C8800013518BF52EA033541F4801143F480134B
:100C980038D0A0FB02CE4FF00005E1FB02E506F0DC
:100CA8000042E0FB03E54FF00006E1FB03569CF031
:100CB800000F18BF4EF0010EA4F1FF04B6F5007F37
:100CC80064F5407404D25FEA4E0E6D4146EB0606A9
:100CD80042EAC62141EA55514FEAC52040EA5E5032
:100CE8004FEACE2EB4F1FD0C88BFBCF5E06F1ED8DC
:100CF800BEF1004F08BF5FEA500E50F1000041EB13
:100D0800045170BD06F0004646EA010140EA0200BF
:100D180081EA0301B4EB5C04C2BFD4EB0C0541EAE1
:100D2800045170BD41F480114FF0000E013C00F3F6
:100D3800AB8014F1360FDEBF002001F0004170BD1A
:100D4800C4F10004203C35DA0C341BDC04F1140433
:100D5800C4F1200500FA05F320FA04F001FA05F2BF
:100D680040EA020001F0004221F0004110EBD3708C
:100D780021FA04F642EB06015EEA430E08BF20EAB8
:100D8800D37070BDC4F10C04C4F1200500FA04F35B
:100D980020FA05F001FA04F240EA020001F00041ED
:100DA80010EBD37041F100015EEA430E08BF20EA60
:100DB800D37070BDC4F1200500FA05F24EEA020EA8
:100DC80020FA04F301FA05F243EA020321FA04F0D7
:100DD80001F0004121FA04F220EA020000EBD3708E
:100DE8005EEA430E08BF20EAD37070BD94F0000F8E
:100DF8000FD101F00046400041EB010111F4801FC2
:100E080008BF013CF7D041EA060195F0000F18BF72
:100E1800704703F00046520043EB030313F4801FAE
:100E280008BF013DF7D043EA0603704794EA0C0F68
:100E38000CEA135518BF95EA0C0F0CD050EA41067E
:100E480018BF52EA4306D1D181EA030101F00041FB
:100E58004FF0000070BD50EA410606BF1046194623
:100E680052EA430619D094EA0C0F02D150EA01362F
:100E780013D195EA0C0F05D152EA03361CBF104670
:100E880019460AD181EA030101F0004141F0FE410F
:100E980041F470014FF0000070BD41F0FE4141F493
:100EA800780170BD70B54FF0FF0C4CF4E06C1CEA93
:100EB80011541DBF1CEA135594EA0C0F95EA0C0F48
:100EC80000F0A7F8A4EB050481EA030E52EA033503
:100ED8004FEA013100F088804FEA03334FF0805524
:100EE80045EA131343EA12634FEA022245EA111551
:100EF80045EA10654FEA00260EF000419D4208BF02
:100F0800964244F1FD0404F5407402D25B084FEAAE
:100F18003202B61A65EB03055B084FEA32024FF45A
:100F280080104FF4002CB6EB020E75EB030E22BFB7
:100F3800B61A754640EA0C005B084FEA3202B6EB77
:100F4800020E75EB030E22BFB61A754640EA5C0026
:100F58005B084FEA3202B6EB020E75EB030E22BFB6
:100F6800B61A754640EA9C005B084FEA3202B6EBB7
:100F7800020E75EB030E22BFB61A754640EADC0076
:100F880055EA060E18D04FEA051545EA16754FEAD8
:100F980006164FEAC30343EA52734FEAC2025FEAF6
:100FA8001C1CC0D111F4801F0BD141EA00014FF085
:100FB80000004FF0004CB6E711F4801F04BF014356
:100FC8000020B4F1FD0C88BFBCF5E06F3FF6AFAE72
:100FD800B5EB030C04BFB6EB020C5FEA500C50F102
:100FE800000041EB045170BD0EF0004E4EEA113185
:100FF80014EB5C04C2BFD4EB0C0541EA045170BD8C
:1010080041F480114FF0000E013C90E645EA060ECF
:101018008DE60CEA135594EA0C0F08BF95EA0C0FFD
:101028003FF43BAF94EA0C0F0AD150EA01347FF445
:1010380034AF95EA0C0F7FF425AF104619462CE71C
:1010480095EA0C0F06D152EA03353FF4FDAE10467F
:10105800194622E750EA410618BF52EA43067FF4D0
:10106800C5AE50EA41047FF40DAF52EA43057FF460
:10107800EBAE12E74FEA4102B2F1E04324BFB3F509
:10108800001CDCF1FE5C0DD901F0004C4FEAC002F7
:101098004CEA5070B2F1004F40EB830008BF20F0DB
:1010A8000100704711F0804F21D113F13872BCBF95
:1010B80001F00040704741F480114FEA5252C2F1EA
:1010C8001802C2F1200C10FA0CF320FA02F018BF33
:1010D80040F001004FEAC1234FEAD32303FA0CFC86
:1010E80040EA0C0023FA02F34FEA4303CCE77FEA15
:1010F800625307D150EA01331EBF4FF0FE4040F45F
:101108004000704701F0004040F0FE4040F400000D
:10111800704700BF80F0004002E000BF81F000414E
:1011280042001FBF5FEA410392EA030F7FEA226C85
:101138007FEA236C6AD04FEA1262D2EB1363C1BF15
:10114800D218414048404140B8BF5B42192B88BF84
:10115800704710F0004F40F4000020F07F4018BFA7
:10116800404211F0004F41F4000121F07F4118BFC7
:10117800494292EA030F3FD0A2F1010241FA03FC6F
:1011880010EB0C00C3F1200301FA03F100F0004357
:1011980002D5494260EB4000B0F5000F13D3B0F11F
:1011A800807F06D340084FEA310102F10102FE2A8E
:1011B80051D2B1F1004F40EBC25008BF20F00100FE
:1011C80040EA03007047490040EB0000013A28BF9D
:1011D800B0F5000FEDD2B0FA80FCACF1080CB2EB20
:1011E8000C0200FA0CF0AABF00EBC250524218439E
:1011F800BCBFD0401843704792F0000F81F4000143
:1012080006BF80F400000132013BB5E74FEA410315
:101218007FEA226C18BF7FEA236C21D092EA030F81
:1012280004D092F0000F08BF0846704790EA010FFB
:101238001CBF0020704712F07F4F04D1400028BF28
:1012480040F00040704712F100723CBF00F500000A
:10125800704700F0004343F0FE4040F40000704740
:101268007FEA226216BF08467FEA236301464202EC
:1012780006BF5FEA412390EA010F40F480007047FF
:101288004FF0000304E000BF10F0004348BF4042A5
:101298005FEA000C08BF704743F0964301464FF0E1
:1012A80000001CE050EA010208BF70474FF000033D
:1012B8000AE000BF50EA010208BF704711F000437E
:1012C80002D5404261EB41015FEA010C02BF84464E
:1012D8000146002043F0B64308BFA3F18053A3F5AD
:1012E8000003BCFA8CF2083AA3EBC25310DB01FAF4
:1012F80002FC634400FA02FCC2F12002BCF1004F78
:1013080020FA02F243EB020008BF20F00100704708
:1013180002F1200201FA02FCC2F1200250EA4C005C
:1013280021FA02F243EB020008BF20EADC707047A2
:101338004FF0FF0C1CEAD0521EBF1CEAD15392EAB0
:101348000C0F93EA0C0F6FD01A4480EA010C40028C
:1013580018BF5FEA41211ED04FF0006343EA5010E6
:1013680043EA5111A0FB01310CF00040B1F5000F28
:101378003EBF490041EAD3715B0040EA010062F1D7
:101388007F02FD2A1DD8B3F1004F40EBC25008BFC1
:1013980020F00100704790F0000F0CF0004C08BFDF
:1013A80049024CEA502040EA51207F3AC2BFD2F1AC
:1013B800FF0340EAC250704740F400004FF00003BA
:1013C800013A5DDC12F1190FDCBF00F000407047F4
:1013D800C2F10002410021FA02F1C2F1200200FA32
:1013E80002FC5FEA310040F1000053EA4C0308BFF9
:1013F80020EADC70704792F0000F00F0004C02BF4A
:10140800400010F4000F013AF9D040EA0C0093F0C4
:10141800000F01F0004C02BF490011F4000F013B1E
:10142800F9D041EA0C018FE70CEAD15392EA0C0F8C
:1014380018BF93EA0C0F0AD030F0004C18BF31F0F7
:10144800004CD8D180EA010000F00040704790F0CD
:10145800000F17BF90F0004F084691F0000F91F071
:10146800004F14D092EA0C0F01D142020FD193EA37
:101478000C0F03D14B0218BF084608D180EA0100BF
:1014880000F0004040F0FE4040F40000704740F09B
:10149800FE4040F4400070474FF0FF0C1CEAD05269
:1014A8001EBF1CEAD15392EA0C0F93EA0C0F69D0C5
:1014B800A2EB030280EA010C49024FEA402037D030
:1014C8004FF0805343EA111143EA10130CF0004027
:1014D8008B4238BF5B0042F17D024FF4000C8B4217
:1014E80024BF5B1A40EA0C00B3EB510F24BFA3EBF7
:1014F800510340EA5C00B3EB910F24BFA3EB9103C7
:1015080040EA9C00B3EBD10F24BFA3EBD10340EA20
:10151800DC001B0118BF5FEA1C1CE0D1FD2A3FF666
:1015280050AF8B4240EBC25008BF20F0010070471B
:101538000CF0004C4CEA50207F32C2BFD2F1FF03BE
:1015480040EAC250704740F400004FF00003013AEF
:1015580037E792F0000F00F0004C02BF400010F493
:10156800000F013AF9D040EA0C0093F0000F01F0A7
:10157800004C02BF490011F4000F013BF9D041EAC9
:101588000C0195E70CEAD15392EA0C0F08D14202FC
:101598007FF47DAF93EA0C0F7FF470AF084676E7CF
:1015A80093EA0C0F04D14B023FF44CAF08466EE7A8
:1015B80030F0004C18BF31F0004CCAD130F0004276
:1015C8007FF45CAF31F000437FF43CAF5FE700BFCE
:1015D8004FF0FF3C06E000BF4FF0010C02E000BFF7
:1015E8004FF0010C4DF804CD4FEA40024FEA410399
:1015F8007FEA226C18BF7FEA236C11D001B052EA4F
:10160800530C18BF90EA010F58BFB2EB030088BF14
:10161800C81738BF6FEAE17018BF40F00100704783
:101628007FEA226C02D15FEA402C05D17FEA236C65
:10163800E4D15FEA412CE1D05DF8040B704700BFAC
:10164800844608466146FFE70FB5FFF7C9FF002843
:1016580048BF10F1000F0FBD4DF808EDFFF7F4FF7C
:101668000CBF012000205DF808FB00BF4DF808ED15
:10167800FFF7EAFF34BF012000205DF808FB00BF38
:101688004DF808EDFFF7E0FF94BF012000205DF85A
:1016980008FB00BF4DF808EDFFF7D2FF94BF01200B
:1016A80000205DF808FB00BF4DF808EDFFF7C8FF04
:1016B80034BF012000205DF808FB00BF4FEA40025C
:1016C800B2F1FE4F0FD34FF09E03B3EB12620DD968
:1016D8004FEA002343F0004310F0004F23FA02F0D2
:1016E80018BF404270474FF00000704712F1610F79
:1016F80001D1420205D110F0004008BF6FF0004050
:1017080070474FF00000704742000ED2B2F1FE4F12
:101718000BD34FF09E03B3EB126209D44FEA0023B8
:1017280043F0004323FA02F070474FF0000070477F
:1017380012F1610F01D1420202D14FF0FF30704720
:101748004FF00000704700BF7BB972B90029BEBFD7
:1017580000204FF0004106E008BF00281CBF6FF0D2
:1017680000414FF0FF3000F057B8ADF1080C6DE9BB
:1017780004CE002909DB002B1ADB00F069F8DDF83C
:1017880004E0DDE9022304B07047404261EB410107
:10179800002B1BDB00F05CF8DDF804E0DDE9022338
:1017A80004B0404261EB4101524263EB430370478E
:1017B800524263EB430300F04BF8DDF804E0DDE947
:1017C800022304B0404261EB41017047524263EB8F
:1017D800430300F03DF8DDF804E0DDE9022304B03E
:1017E800524263EB4303704753B94AB9002908BF13
:1017F80000281CBF4FF0FF314FF0FF3000F00CB84D
:10180800ADF1080C6DE904CE00F022F8DDF804E033
:10181800DDE9022304B07047704700BF10F8012BC0
:1018280011F8013B012A28BF9A42F7D0D01A704715
:10183800034611F8012B03F8012B002AF9D1704750
:10184800034613F8012B002AFBD1181A01387047F8
:101858002DE9F04786468C460846089E154674468C
:101868001946002B40F0C1808542B2FA82F245D970
:101878004AB1C2F1200300FA02FC954094402EFAC6
:1018880003F343EA0C0C4FEA154EA8B2230CBCFB39
:10189800FEF80EFB18CC08FB00F943EA0C43994507
:1018A80028D9EB1808F1FF3704D2994502D9A8F1D5
:1018B80002072B44A3EB0903A4B2B3FBFEFC0EFB07
:1018C8001C330CFB00F044EA0344A04214D92C1941
:1018D8000CF1FF3304D2A04202D9ACF102032C442C
:1018E800241A43EA07401EB1D440002334607360D1
:1018F800BDE8F0874746DDE76346F1E792BB431B47
:1019080001214FEA154EAFB2200CB3FBFEFC0EFBD3
:101918001C330CFB07F840EA0343984561D9EB18E0
:101928000CF1FF3004D2984502D9ACF102002B44E7
:10193800A3EB0803A4B2B3FBFEFC0EFB1C330CFBA9
:1019480007F744EA0344A7424DD92C190CF1FF3399
:1019580004D2A74202D9ACF102032C44E41B43EAA7
:101968000040C0E7C2F120039540944020FA03F1FB
:101978002EFA03F34FEA154E9040AFB20343B1FB82
:10198800FEFC0EFB1C10190C0CFB07F841EA004189
:10199800884522D969180CF1FF3004D2884502D94C
:1019A800ACF102002944A1EB08019BB2B1FBFEFC9B
:1019B8000EFB1C110CFB07F743EA01439F420ED9AB
:1019C800EB180CF1FF3104D29F4202D9ACF10201AD
:1019D8002B44DB1B41EA004193E76046E3E761469D
:1019E800F7E76046A4E76346B8E7834206D916B925
:1019F800002108467CE7C6E900E0F9E7B3FA83F777
:101A08008FB9834201D3724508D8BEEB020460EB5C
:101A1800030301209C461EB9002169E73846FAE70E
:101A2800C6E9004CF8E7C7F1200CBB400EFA07F5F1
:101A380022FA0CF42EFA0CF1BA401C4320FA0CF3EB
:101A4800B8404FEA144901431FFA84FEB3FBF9F882
:101A580009FB18300B0C08FB0EFA43EA00439A45C1
:101A680040D9E31808F1FF3004D29A4502D9A8F109
:101A780002002344A3EB0A0389B2B3FBF9F809FB7C
:101A8800183308FB0EFE41EA03418E452CD9611834
:101A980008F1FF3304D28E4502D9A8F1020321448C
:101AA80043EA0040A1EB0E01A0FB02984145CE4657
:101AB800434602D306D14D4504D20138B9EB020E94
:101AC80068EB0403002EA7D0B5EB0E0261EB03010F
:101AD80001FA0CFC22FA07F3F9404CEA0303C6E9C1
:101AE800003199E74046C5E74346D9E700000000C2
:101AF800D0B504464068FFF741F809A3D3E90023AD
:101B0800FFF7D0F9064620680F46FFF737F8024678
:101B18000B4630463946FEF7E5FED0BDAFF30080F0
:101B28000000000080842E412DE9F04706460F464C
:101B3800904688B051F07BFE4FF47A73A0FB0345C2
:101B480003FB0155E40B012F44EA45444FEAD53520
:101B580007D122462B463046274934F03EFA00206A
:101B680012E0D8F8047025483946FFF757FE70B1DF
:101B780039462348FFF752FE48B130463A462149D4
:101B880034F047FA6FF0040008B0BDE8F08720464B
:101B980017A3D3E900232946FFF7D6FD05460C46CF
:101BA80010461946184A0023FFF7CEFD80460F4617
:101BB800104619464EF660220023FFF7C5FD8246FF
:101BC8008946104619464FF47A720023FFF7BCFD88
:101BD800CDE902A9CDE90623CDE904012A46234629
:101BE8003046CDE90087094934F0F7F9B7E700BF77
:101BF800005C260500000000D4BC0A00E5BC0A0011
:101C0800E8BC0A00F1BC0A0080EE360009BD0A00F3
:101C180070B514460646CD17A1FB0201002304FB4C
:101C280005110A22FFF790FD0FA3D3E900230C4DFD
:101C380080FB054520462946FFF786FD06A3D3E924
:101C48000023306029462046FFF77EFD0023054A21
:101C5800FFF77AFD726070BD80A8120100000000D5
:101C6800D8EF2F0040420F0000209BF35E100000C9
:101C780003292DE9FF4105460C4612D0072900F03B
:101C8800B0808F490B6813F0060F00F0A7808D4BCA
:101C98000222029300231846CDE9003338F08CFC69
:101CA8009CE0002A69D0072A40F0888058681A68A2
:101CB800854BC117C2FB0301012871F1000376DBD4
:101CC800D5F80480814B98F81A60C0184FEAD616E8
:101CD80077A3D3E9002341F1000176B2FFF734FD81
:101CE800002E14BF04230223984298F91A7025D0B5
:101CF800002E14BF20231023984221D0002E14BF99
:101D08000823042383421DD0002E14BF1023082368
:101D180098424CD1E6B2314640462D6935F063FC15
:101D2800002811DB6A4B002F4FF03D0233F81430C6
:101D3800AE771CDBA3FB02325B0819E00024E9E75D
:101D48000124E7E70224E5E75D490B685A070BD54C
:101D5800604B0393604B0825029300230422184626
:101D6800CDE9003538F028FC6FF0040002E0534359
:101D7800EB60002004B0BDE8F0811988574B144689
:101D88001F4633F8022B91420ED86868E1B22E69DB
:101D980035F09DFD00280DDA49490B685B07E3D54E
:101DA8004F4B03934F4BD6E701340B2CE9D16FF01F
:101DB8001500DFE737F81430B383DAE740490B68DA
:101DC8005F070BD5484B0393484B08220293002327
:101DD800CDE900321846042238F0EEFB6FF085009A
:101DE800C8E7002A42D0072A5AD1B4245A68196889
:101DF800354BD017C1FB0320A2FB0431012A04FB99
:101E0800001170F100001DDB3948181841F100017C
:101E180029A3D3E900230024FFF796FC354B33F8B8
:101E2800022B904216D16868E1B22E6935F0F2FBB8
:101E3800002813DA22490B685E0795D52E4B0393C9
:101E48002E4B88E72E48181861F100011AA3D3E930
:101E58000023E0E70134072CE1D1A8E741F217128B
:101E6800284B33F814305343B36182E719881B4B6E
:101E780033F8020B81420FD86868D1B235F095FD6E
:101E88000028BFF676AF0E490B685C077FF56CAF8C
:101E98001D4B03931D4B5EE701320B2AE8D186E701
:101EA80007490B68580799D5194B0393194B8CE7C9
:101EB8003AA3950000000000D8EF2F0000000000B2
:101EC8006C0600206AF70A0040420F009DD14A00C4
:101ED80044A905006CFC0A0008FB0A004CA905008F
:101EE80056FC0A0033FB0A0084FC0A0061FB0A0066
:101EF800ECF7170036A905002BFC0A0084FB0A0042
:101F08001408E8FF28A9050016FC0A00ABFB0A0024
:101F180042FC0A00D5FB0A002DE9F74F03291446B5
:101F2800066905D90B1F032B53D96FF0850023E0F1
:101F38000229F7683A4D22D0032923D0012914BF7A
:101F4800B6F90460B6F90660A6FB076732A3D3E9C1
:101F5800002386FB056530462946FFF7F5FB00237D
:101F6800304A206029463046FFF7EEFB00232D4A11
:101F7800FFF7EAFB6260002003B0BDE8F08FB6F916
:101F88000860E1E74FF0000B02F11803DFF894A0B6
:101F98000236019336F9028FA8FB07831EA3D3E903
:101FA800002388FB059848464146FFF7CDFB52467B
:101FB80044F8080B5B4648464146FFF7C5FB5246C6
:101FC8005B46FFF7C1FB019B44F8042C9C42E1D11E
:101FD800D1E70629B5690CD007290ED02A4605296C
:101FE80014BFB6F91010B6F912102046FFF710FE0C
:101FF800C1E72A46B6F91410F7E70E3602F11807BA
:1020080020462A4636F9021F0834FFF701FEA74288
:10201800F6D1B0E7AFF300800010A5D4E8000000C7
:102028003AA3950040420F000122014B1A707047F5
:10203800B0010320034A1368013313600122024BE5
:102048001A707047B89D0020AF01032007B5002023
:1020580038F0DFFD002200230548CDE9002340F6D3
:10206800CD4200232DF0F0F803B05DF804FB00BF6B
:10207800700B002000B589B007AA06A905A804F0CE
:10208800A3FD059B0321274A04A831F087F9264BB5
:102098001B6803B3184604A94DF01CFE069B0321D8
:1020A800204A04A831F07AF9204B1B6803B318467C
:1020B80004A94DF00FFE079B03211A4A04A831F02A
:1020C8006DF91B4B1B6803B3184604A94DF002FEBB
:1020D80009B05DF804FB17490A685207DED0164AB2
:1020E8001846CDE901320093012232F050FDD5E7C0
:1020F80010490A685007DED0104A1846CDE9013267
:102108000093012232F043FDD5E70A490A685207D5
:10211800DED00B4A1846CDE901320093012232F095
:1021280036FDD5E767B80A006C9E0020649E002043
:102138005C9E0020700600201AB0050039B005002A
:1021480058B0050000B56F4B89B01B7883B106A85D
:1021580004F02AFE78B16C490B685B0708D06B4B1A
:102168000122029300231846CDE9003332F00FFD17
:1021780009B05DF804FB9DF81A300321644A05A8EC
:1021880031F00CF9634B186810B105A94DF0A2FDA8
:102198009DF8193003215E4A05A831F0FFF85E4B1F
:1021A800186810B105A94DF095FD9DF81B30032165
:1021B800574A05A831F0F2F8584B186810B105A92C
:1021C8004DF088FD9DF81D300321514A05A831F0D6
:1021D800E5F8534B186810B105A94DF07BFD9DF843
:1021E8001E3003214A4A05A831F0D8F84D4B18682B
:1021F80010B105A94DF06EFD9DF81A300321444A2F
:1022080005A831F0CBF8484B186810B105A94DF076
:1022180061FD9DF8193003213D4A05A831F0BEF84B
:10222800424B186810B105A94DF054FD9DF81B30BC
:102238000321374A05A831F0B1F83D4B186810B1B1
:1022480005A94DF047FD9DF81D300321304A05A82A
:1022580031F0A4F8374B186810B105A94DF03AFDD4
:102268009DF81E3003212A4A05A831F097F8324B11
:10227800186810B105A94DF02DFD9DF81A300321FD
:10228800234A05A831F08AF82C4B186810B105A923
:102298004DF020FD9DF8193003211D4A05A831F0A5
:1022A8007DF8274B186810B105A94DF013FD9DF86E
:1022B8001B300321164A05A831F070F8214B186825
:1022C80010B105A94DF006FD9DF81D300321104AF7
:1022D80005A831F063F81C4B186810B105A94DF03A
:1022E800F9FC9DF81E300321094A05A831F056F87B
:1022F800164B186800283FF43BAF05A94DF0EAFCDF
:1023080036E700BFAE0103207006002077B0050055
:1023180067B80A00449F00203C9F0020349F00209B
:102328002C9F0020249F0020A09F0020989F002021
:10233800909F0020889F0020809F0020049F0020FD
:10234800FC9E0020F49E0020EC9E0020E49E0020CD
:1023580013B5084C204651F0BEFA0022002320464F
:10236800CDE900234FF4F01200232CF06DFF02B0EA
:1023780010BD00BF380B00201FB5C38804468BB9B9
:10238800324A8068324910600A6802F00702022A5D
:1023980040D9304A0390CDE9013218460322009310
:1023A80032F0F5FBE388012B12D1284BA2682849AB
:1023B8005A600B6803F00703022B2BD9264B0392B4
:1023C8000293002303221846CDE9003332F0DFFBE5
:1023D800E388B3F5A57F1DD1A2681C4B111E18BF59
:1023E800012119721A490B6803F00703022B09D956
:1023F8001A4B03920293002303221846CDE90033B7
:1024080032F0C5FBA3682BB1154B1B78CBB115482F
:102418002BF08AFC2379BBB10D490B6803F0070345
:10242800022B08D9104B0322029300231846CDE94A
:10243800003332F0ACFB0D4804B0BDE810402BF07F
:1024480073BCFFF785FFE5E704B010BDD09D002001
:102458007006002091B005009EB00500ABB00500E5
:10246800B1010320F89D0020BEB00500109E002099
:1024780008B505482BF058FC044B1B781BB9BDE880
:102488000840FFF765BF08BDF89D0020B101032093
:1024980007B5012038F0BDFB002200230548CDE92F
:1024A800002340F6CD4200232CF0CEFE03B05DF8A9
:1024B80004FB00BFA80B0020F7B5224C224F23785D
:1024C80033B14FF0FF324FF0FF3320482BF066FC5A
:1024D8004FF48030002151F0FBF82378002BEED127
:1024E80004F05EF8064604F065F8054651F09FF9D9
:1024F80003464FF47A70A3FB003200FB0121D80B8E
:102508004FF47A72002340EA4140C90BFFF71CF9E7
:10251800394600903046FEF70BFFFFF7CFF83946F3
:10252800ADF804002846FEF703FFFFF7EDF8ADF815
:102538000600FFF7ADFF684604F0E6F9684604F0C8
:1025480017FABCE7B10103200000C842E09D002053
:102558002DE9F04F0B480C4EA1B0306050F04AFD09
:102568000A4C0346B0B92268520707D0084A2146E8
:10257800CDE901020090012232F009FB002021B0D0
:10258800BDE8F08F44490500DC9D0020700600205E
:10259800D2B00500306832F009FB03F06BFAB14B9A
:1025A800B14D1B682B60B14B1B686B60B04B1B684F
:1025B800AB60B04B1B68EB6003F0A6FA60B1236810
:1025C8005F0709D0AC4B012202930023214618462D
:1025D800CDE9003332F0DBFA13F026FF034600287A
:1025E80000F007842368580709D0A44B01220293FE
:1025F8000023CDE900331846A14932F0C8FA002279
:10260800A049A14851F05BF90022A049A04851F027
:1026180056F9A04804F012FA012200219E4850F011
:102628006DFE012200219D4850F068FE00229C4961
:102638009C4851F044F9FFF78BFE9B4813F030FF9C
:102648000346002800F001842368590709D0974BF6
:102658000122029300231846CDE90033884932F05D
:1026680096FA04F0F1F904F0BFFADFF84482034661
:10267800002840F00884012288F80020226802F02F
:102688000702022A07D98B4A7D49CDE90102009049
:10269800032232F07CFA884B18A8189340F20343BF
:1026A800ADF864301A238DF8663004F005FB034654
:1026B800002840F0D883226802F00702022A19D9BC
:1026C8009DF860206E4908929DF86120009007925D
:1026D8009DF8622006929DF8662005929DF8652077
:1026E80004929DF863200392744ACDE90102032203
:1026F80032F04DFA724F384650F07CFC0346002801
:1027080040F0C8832268520709D03A685C490392AE
:102718006C4A0090CDE90102012232F038FA012218
:102728000021694850F0EAFD00226849684851F0E4
:10273800C6F84FF4004200236548CDE900232CF089
:1027480083FD236803F00703022B09D9614B032299
:10275800029300234A491846CDE9003332F017FAAC
:1027680004F0B4F80346002800F0A58323685B074B
:1027780009D0594B0122029300231846CDE90033B2
:102788003F4932F004FA002200230027CDE906234E
:1027980004234FF48062CDE90337CDE901774F4B2D
:1027A8004F4900974F482BF077FE4F494D482BF083
:1027B800B3FD3A464FF47A714C4820F0F1F94AF0EB
:1027C8004CFC98F800303BB13A464FF47A714848CF
:1027D80020F0E6F94AF041FC464B186820B1002386
:1027E8000A2245493AF00EFE444B186820B10023EE
:1027F8000A2243493AF006FE424B186820B10023EA
:102808000A2241493AF0FEFD236803F00703022B30
:1028180009D93E4B03220293002319491846CDE9F2
:10282800003332F0B4F9DFF8E890DFF8E8A0DFF819
:10283800E88098F80030002B00F0B180374F3B78E3
:10284800002B40F0AC80226802F00702022A69D906
:10285800334A1846CDE9013209490322009332F080
:1028680096F95FE0509F0020C09D0020AC9F00209B
:10287800109F00207C9E0020EBB005001CB10500D5
:1028880070060020854B0300A80B00207F4B030037
:10289800700B002055200000F89D0020E09D0020CE
:1028A80031200000380B00207924000053B10500C6
:1028B800AE0103207AB10500000F0A038AB10500B2
:1028C800B04905000BB20500109E00203D20000015
:1028D800000B00203BB2050059B20500C1240000DE
:1028E800C8040320380A002061E00A007D200000A7
:1028F8004D210000509E0020934B0300389E00207D
:102908008F4B0300449E00208B4B030083B20500CD
:1029180085EBD13E00001CC1B0010320B1010320AA
:1029280096B20500306818B183681B6803B19847F0
:1029380001233B70002388F800303B78B3B10023B3
:102948004FF40042AA482BF029FA0346002840F029
:10295800ED82226802F00702022A07D9A54AA64991
:10296800CDE901020322009032F011F93068002805
:1029780040F04083002322683B7002F00702022ADD
:1029880008D99E4A1846CDE901329B490322009393
:1029980032F0FDF89A482BF0C7F9FFF7D9FC994AAD
:1029A8001378002B00F0D081974B1F78002F40F050
:1029B800CB81177003F04EFD03F0F2FD834603F060
:1029C800F9FD804603F000FE0FAA0B900EA90DA892
:1029D80003F00AFE12AA11A910A803F04DFE13A8CD
:1029E80015AA14A903F064FE16A804F0DDF900285E
:1029F80040F00383236803F00703022B40F2AD8005
:102A08009DF85830032206939DF859307A4905936A
:102A18009DF85A3004937D4B1B68009003937C4BC0
:102A2800CDE90103034632F0B2F85846FEF7B8F88C
:102A3800236803F00703022B40F28F800027754BB1
:102A4800CDE904010322029338463B46CDE90077DD
:102A5800694932F09CF8226802F00702022A7CD900
:102A68004046FEF79DF86C4ACDE90401CDE90172B4
:102A78003B46032238466049009732F088F82268BE
:102A880002F00702022A68D90B98FEF789F8634A10
:102A9800CDE90401CDE901723B4603223846564987
:102AA800009732F074F8226802F00702022A54D91B
:102AB8000F98FEF775F8CDE908010E98FEF770F843
:102AC800CDE906010D98FEF76BF8554ACDE90401EA
:102AD800CDE901723B46032238464749009732F058
:102AE80056F8226802F00702022A36D91298FEF731
:102AF80057F8CDE908011198FEF752F8CDE906011B
:102B08001098FEF74DF8474ACDE90401CDE9017266
:102B18003B46032238463849009732F038F8226895
:102B280002F00702022A18D91598FEF739F8CDE9FC
:102B380008011498FEF734F8CDE906011398FEF75A
:102B48002FF8394ACDE90401CDE901723B46032249
:102B580038462949009732F01AF85846FEF720F807
:102B6800324ACDE90001202118A830F017FC304B7B
:102B7800186810B118A94DF0ADF82E4B186810B1AF
:102B880018A94DF0A7F84046FEF70AF82A4ACDE9F9
:102B98000001202118A830F001FC284B186810B15A
:102BA80018A94DF097F80B98FDF7FAFF244ACDE9DC
:102BB8000001202118A830F0F1FB224B186810B151
:102BC80018A94DF087F80D990E9831F007FE1E49A7
:102BD800FEF7AEFB1D49FEF75FFC00210746FEF736
:102BE80045FDC0B338461A49FEF79AFA32E000BFED
:102BF800F89D0020B7B205007006002027B3050035
:102C0800E09D0020AF010320B1010320B89D002002
:102C18003AB3050090B30500A8B30500BFB305009B
:102C2800D6B30500FDB3050038B4050070B405003F
:102C38001C9F0020689F002078B40500749F002026
:102C4800CDB305005C9F002000003443D00F4940FD
:102C58000000B44307463846FDF7A2FF9C4ACDE979
:102C68000001202118A830F099FB9A4B186810B180
:102C780018A94DF02FF8384603F036FD964B01465B
:102C8800186808B14DF026F81098FDF789FF934AA7
:102C9800CDE90001202118A830F080FB904B18687E
:102CA80010B118A94DF016F81198FDF779FF8B4A65
:102CB800CDE90001202118A830F070FB894B186875
:102CC80010B118A94DF006F81298FDF769FF834A6C
:102CD800CDE90001202118A830F060FB824B18686C
:102CE80010B118A94CF0F6FF1398FDF759FF7B4A6D
:102CF800CDE90001202118A830F050FB7B4B186863
:102D080010B118A94CF0E6FF1498FDF749FF734A73
:102D1800CDE90001202118A830F040FB744B186859
:102D280010B118A94CF0D6FF1598FDF739FF6B4A7A
:102D3800CDE90001202118A830F030FB6D4B186850
:102D480010B118A94CF0C6FF1FF060FF0023002245
:102D580069482BF023F80346002844D1674A92F8C3
:102D680008B0D2E90087226802F00702022A0BD9CC
:102D7800634ACDE90487CDE9010262490322CDF80F
:102D88000CB0009031F003FFBBF1000F2BD023688B
:102D9800A8F1CF02262A03F0070300F263817A1F05
:102DA800262A00F23E81022B09D9574B03220293AF
:102DB800002354491846CDE9003331F0E8FE534A60
:102DC800052110680130434203F0030300F00300BB
:102DD80058BF5842002310604FF49672009355F87C
:102DE800200017F09FFC00214FF4A47050F070FCF5
:102DF8001DE5226802F00702022A07D9444A414920
:102E0800CDE901020090032231F0C1FE002037F025
:102E180000FF012037F0FDFE00214FF4804050F004
:102E280057FC002037F0F8FE012037F0F5FE236844
:102E380003F00703022B7FF6E2AB364B0322029323
:102E48000023CDE90033FFF7D6BB226802F0070262
:102E5800022A7FF606AC304A2A49CDE901020090E1
:102E68000322FFF7FCBB236813F0060F3FF442ACC4
:102E78002A4B0293002302221846CDE90033214948
:102E880031F085FE36E4236813F0060F3FF432ACC8
:102E9800234BEEE7236803F00703022B7FF63FACD2
:102EA8003B68032203931F4B1649029300231846DD
:102EB800CDE9003331E4226802F00702022A7FF6E6
:102EC80062AC194A0F49CDE901020090032258E487
:102ED8007FB40500DC9E0020D89E0020F8B30500D2
:102EE800B89E0020B09E0020A89E0020949E00203E
:102EF8008C9E0020849E0020109E0020D09D0020E3
:102F080087B4050070060020ABB40500BC9D002006
:102F18002DB105003EB1050066B10500BBB1050045
:102F2800E1B1050025B2050073B2050003F092FA7D
:102F380018AA16A915A803F09FFB236803F0070336
:102F4800022B18D91898FDF72BFECDE90801169821
:102F5800FDF726FECDE906011598FDF721FE494B40
:102F6800CDE904010293002303221846CDE900337A
:102F7800454931F00CFEDDF8548044494046FEF7DF
:102F880089FB00283FF4D9AC49464046FEF778FB58
:102F980000283FF4D2ACDDF8588051464046FEF791
:102FA80079FB00283FF4C9AC40463949FEF768FB75
:102FB80000283FF4C2ACDDF8608036494046FEF791
:102FC80069FB00283FF4B9AC40463349FEF758FB8B
:102FD80000283FF4B2AC236803F00703022B7FF606
:102FE800C5AC2E4B03220293002327491846CDE98E
:102FF8000033B9E431F0DAFDBCE4226802F00702DC
:10300800022A7FF6AAAD264A3B4612683846039242
:10301800244A1D49CDE901720097032231F0B7FD1A
:1030280003E5A7F59472262A1CD8022B09D91E4B52
:1030380003220293002314491846CDE9003331F0E6
:10304800A6FD1A4A062110680330434203F0030321
:1030580000F0030058BF5842002310604FF49672E6
:103068000093BCE6022B7FF6BEAE114B03220293FF
:103078000023CDE903871846CDE90033024931F032
:1030880086FDB0E6CFB2050070060020B81E05BE6A
:10309800EC51F8C0EC511840F6288C40FFB20500FE
:1030A800B89D002064B30500DAB40500BC9D00207B
:1030B8000DB505002DE9F04F00208FB014F074FD18
:1030C800D24D1021286039F041F9286824F03EFFDC
:1030D800CF4CD04920604CF073FC20686FF0404121
:1030E8003AF020FB20686FF040413AF032FB20684C
:1030F80009213AF072FB2068022139F072FB102195
:10310800206839F023F9286825F026FBC24C6FF0B7
:10311800404120603AF006FB20686FF040413AF0E9
:1031280018FB20686FF002013AF0C3FA20686FF0CC
:103138006B013AF0D5FA206809213AF04EFBB749FD
:1031480020684CF0C7FD6FF07F40266848F027FBE9
:10315800C0F307238DF80400C0F307408DF805304D
:103168008DF80600AE4F3046019900223CF01FFA58
:1031780020680022FF213CF029FA00223946206805
:103188003CF02BFA286814F00FFDA64CA64E2060E0
:1031980016F09EF820688C213AF0C4FA20682321A2
:1031A8003AF0D7FA206803213AF083FA20686FF0E2
:1031B80018013AF095FA206809213AF00EFB12211D
:1031C800206839F0C3F8206825F0C6FA6FF040414E
:1031D80030603AF0A7FA30686FF040413AF0B9FA37
:1031E80030686FF036013AF064FADFF840923068E0
:1031F80004213AF075FA306809213AF0EEFA4946A6
:1032080030684CF067FD6FF07F40D6F8008048F0DA
:10321800C6FAC0F307238DF80800C0F307408DF8FD
:1032280009308DF80A00029940460022DFF8008232
:103238003CF0BDF930680022FF213CF0C7F90022BC
:10324800414630683CF0C9F9206825F085FA794E86
:103258006FF0404130603AF065FA30686FF04041F5
:103268003AF077FA30686FF01E013AF022FADFF888
:10327800C8A1306803213AF033FA306809213AF0DE
:10328800ACFA514630684CF025FD6FF07F40D6F817
:1032980000B048F084FAC0F307238DF80C00C0F39F
:1032A80007408DF80D308DF80E000399584600221E
:1032B8003CF07DF930680022FF213CF087F90022BC
:1032C800414630683CF089F9206825F045FA5B4EA4
:1032D8006FF0404130603AF025FA30686FF04041B5
:1032E8003AF037FA30686FF004013AF0E2F93068E2
:1032F80004213AF0F5F9306809213AF06EFA4946A6
:1033080030684CF0E7FC6FF07F40D6F800B048F02A
:1033180046FAC0F307238DF81000C0F307408DF874
:1033280011308DF812000499584600223CF03FF9FC
:1033380030680022FF213CF049F9002241463068FC
:103348003CF04BF9206825F007FA3D4E6FF04041FC
:1033580030603AF0E7F930686FF040413AF0F9F937
:10336800306814213AF0A5F9306803213AF0B8F929
:10337800306809213AF031FA514630684CF0AAFC1D
:103388006FF07F40D6F800A048F009FAC0F3072391
:103398008DF81400C0F307408DF815308DF816002D
:1033A8000599504600223CF002F930680022FF21BE
:1033B8003CF00CF90022414630683CF00EF92068D8
:1033C80025F0CAF91F4C6FF0404120603AF0AAF985
:1033D80020686FF040413AF0BCF920682B213AF0A0
:1033E80068F9206803213AF07BF9206809213AF04E
:1033F800F4F9494620684CF06DFC6FF07F40266870
:1034080048F0CDF9C0F307231EE000BF7C9E0020E2
:10341800789E0020F8550500749E002082B20A00AC
:10342800847A0500709E00206C9E0020A9ED0A0099
:10343800B08A0500689E0020CDB20A00649E002074
:10344800609E00205C9E00208DF81800C0F30740A5
:103458008DF819308DF81A000699304600223CF094
:10346800A6F820680022FF213CF0B0F8002241466F
:1034780020683CF0B2F8286825F06EF9CE4C6FF061
:10348800404120603AF04EF920686FF040413AF030
:1034980060F920686FF004013AF00BF92068082100
:1034A8003AF01EF9206809213AF097F9C3492068D3
:1034B8004CF010FC6FF07F40266848F070F9C0F3BC
:1034C80007238DF81C00C0F307408DF81D308DF8D8
:1034D8001E000799304600223CF069F82068002257
:1034E800FF213CF073F80022B54920683CF075F8DC
:1034F800286814F059FBB34CB34E206015F0E8FE71
:10350800206849213AF00EF920682D213AF021F976
:1035180020686FF079013AF0CCF8206834213AF04D
:10352800DFF8206809213AF058F91221206838F0AC
:103538000DFF206822F05AFE352130603AF0F2F88B
:10354800306821213AF005F930686FF001013AF04E
:10355800B0F8306802213AF0C3F8306809213AF02F
:103568003CF930684FF4806139F03BF9102130683C
:1035780038F0ECFE47F2FF50D6F8008048F00FF91B
:10358800C0F307238DF82000C0F307408DF82130E1
:103598008DF822000899404600223BF0C6FF002221
:1035A800FF2130683BF0D0FF206825F0D5F8874C24
:1035B8006FF0404120603AF0B5F820686FF0404164
:1035C8003AF0C7F820686FF001013AF072F8206805
:1035D80003213AF085F8206809213AF0FEF87C4981
:1035E80020684CF077FB6FF07F40266848F0D7F8EA
:1035F800C0F307238DF82400C0F307408DF8253069
:103608008DF826000999304600223BF0D0FF20684B
:103618000022FF213BF0DAFF0022394620683BF008
:10362800DCFF286814F0C0FA6A4C6B4E206015F075
:103638004FFE206849213AF075F820682D213AF0AC
:1036480088F8206803213AF034F8206848213AF0D5
:1036580047F8206809213AF0C0F81221206838F0AC
:1036680075FE206822F0C2FD392130603AF05AF820
:10367800306821213AF06DF830686FF003013AF0B4
:1036880018F8306802213AF02BF8306809213AF02E
:10369800A4F830684FF4806139F0A3F8102130683D
:1036A80038F054FE4D48D6F8008048F078F8C0F35A
:1036B80007238DF82800C0F307408DF829308DF8CE
:1036C8002A000A99404600223BF02FFF0022FF21E2
:1036D80030683BF039FF206825F03EF8404C6FF029
:1036E800404120603AF01EF820686FF040413AF0FF
:1036F80030F820686FF0030139F0DBFF2068022101
:1037080039F0EEFF206809213AF067F8354920685A
:103718004CF0E0FA6FF07F40266848F040F8C0F3BC
:1037280007238DF82C00C0F307408DF82D308DF855
:103738002E000B99304600223BF039FF206800220A
:10374800FF213BF043FF0022394620683BF045FF4C
:10375800286814F029FA244C244E206015F0B8FD8E
:103768002068492139F0DEFF20682D2139F0F1FF6A
:1037780020687A2139F09DFF2068352139F0B0FFA3
:10378800206809213AF029F81221206838F0DEFD76
:10379800206822F02BFD3521306039F0C3FF3068F6
:1037A800212139F0D6FF30686FF0010139F081FF2F
:1037B800306802211CE000BF589E00208EB20A002B
:1037C800E87F0500549E0020509E00204C9E00205B
:1037D8009BB20A00489E0020449E00204848F900F9
:1037E800409E0020A1B20A003C9E0020389E002086
:1037F80039F076FF3068092139F0EFFF30684FF46F
:10380800806138F0EEFF1021306838F09FFD534892
:10381800D6F8008047F0C3FFC0F307238DF83000C7
:10382800C0F307408DF831308DF832000C994046CE
:1038380000223BF07AFE0022FF2130683BF084FE34
:10384800206824F089FF464C6FF04041206039F031
:1038580069FF20686FF0404139F07BFF20686FF006
:10386800010139F026FF2068032139F039FF20686B
:10387800092139F0B2FF3B4920684CF02BFA6FF070
:103888007F40266847F08BFFC0F307238DF834008C
:10389800C0F307408DF835308DF836000D99304665
:1038A80000223BF084FE20680022FF213BF08EFEC0
:1038B8000022394620683BF090FE286824F046FB39
:1038C800294C2A4920604CF07BF820686FF0404171
:1038D80039F028FF20686FF0404139F03AFF20683E
:1038E8007E2139F0E6FE2068632139F0F9FE206870
:1038F800092139F072FF2068022138F072FF102187
:10390800206838F023FD286824F020FB184C19495A
:1039180020604CF055F820686FF0404139F002FF04
:1039280020686FF0404139F014FF20686FF084017F
:1039380039F0BFFE2068642139F0D2FE20680921E1
:1039480039F04BFF2068022138F04BFF1021206826
:103958000FB0BDE8F04F38F0F9BC00BF0767FF00B3
:10396800349E0020A7B20A00309E00206856050049
:103978002C9E00204C5605002DE9F04F0020A1B0E8
:1039880014F012F9CF4D1021286038F0DFFCCE4832
:103998002C6847F004FFC0F307238DF80400C0F338
:1039A80007408DF805308DF8060001992046002261
:1039B8003BF0BBFD0022FF2128683BF0C5FD2868CD
:1039C80024F0C4FAC14CC24920604BF0F9FF2068CA
:1039D8006FF0404139F0A6FE20686FF0404139F0A1
:1039E800B8FE2068092139F0F8FE2068022138F075
:1039F800F8FE1021206838F0A9FC286814F0D4F8E3
:103A0800B44CB54E206015F063FC2068582139F09D
:103A180089FE20681A2139F09CFE20686FF0610148
:103A280039F047FE20686FF0590139F059FE2068D7
:103A3800092139F0D2FE1221206838F087FC20686D
:103A480024F08AFE6FF04041306039F06BFE306838
:103A58006FF0404139F07DFE30686FF01C0139F09D
:103A680028FE30686FF0030139F03AFEDFF86C8207
:103A78003068092139F0B1FE994930684CF02AF9CB
:103A88004046376847F08BFEC0F307238DF80800DF
:103A9800C0F307408DF809308DF80A00DFF844922A
:103AA8003846029900223BF082FD30680022FF214F
:103AB8003BF08CFD0022494630683BF08EFD2068C3
:103AC80024F04AFE884E6FF04041306039F02AFEFB
:103AD80030686FF0404139F03CFE30686FF0080103
:103AE80039F0E7FD30686FF0040139F0F9FD30680E
:103AF800092139F072FE7D4930684CF0EBF84046F8
:103B0800376847F04CFEC0F307238DF80C00C0F36C
:103B180007408DF80D308DF80E00039938460022C5
:103B28003BF045FD30680022FF213BF04FFD0022AD
:103B3800494630683BF051FD206824F00DFE6C4C7E
:103B48006FF04041206039F0EDFD20686FF0404192
:103B580039F0FFFD20680F2139F0ABFD20686FF0C8
:103B6800020139F0BDFD634F2068092139F035FEA7
:103B7800614920684CF0AEF83846266847F00FFED9
:103B8800C0F307238DF81000C0F307408DF81130FB
:103B98008DF812000499304600223BF008FD206899
:103BA8000022FF213BF012FD0022494620683BF02D
:103BB80014FD286813F0F8FF504C514E206015F0A2
:103BC80087FB2068732139F0ADFD2068232139F087
:103BD800C0FD20686FF07A0139F06BFD20686FF046
:103BE800490139F07DFD2068092139F0F6FD1221DF
:103BF800206838F0ABFB206824F0AEFD6FF0404140
:103C0800306039F08FFD30686FF0404139F0A1FD28
:103C180030686FF0060139F04CFD3068032139F047
:103C28005FFD3068092139F0D8FD364930684CF01D
:103C380051F86FF07F40D6F8009047F0B0FDC0F320
:103C480007238DF81400C0F307408DF815308DF860
:103C58001600059948460022DFF8AC903BF0A7FC17
:103C680030680022FF213BF0B1FC00224946306851
:103C78003BF0B3FC206824F06FFD244E6FF0404108
:103C8800306039F04FFD30686FF0404139F061FD28
:103C98003068062139F00DFDDFF874A03068032183
:103CA80039F01EFD3068092139F097FD514630681A
:103CB8004CF010F86FF07F40D6F800B047F06FFD79
:103CC80028E000BF109F0020E76E07000C9F00202F
:103CD800F8550500089F0020049F0020FBFBFF000B
:103CE800ACB20A00B08A0500009F0020CDB20A00DD
:103CF800FC9E0020FDFDFF00AFB20A00F89E0020E8
:103D0800F49E0020B2B20A00586A0500F09E002016
:103D18003CBC0A00C0F307238DF81800C0F3074025
:103D28008DF819308DF81A000699584600223BF094
:103D38003EFC30680022FF213BF048FC0022494647
:103D480030683BF04AFC206824F006FDCE4E6FF048
:103D58004041306039F0E6FC30686FF0404139F09E
:103D6800F8FC3068122139F0A4FC3068032139F0DE
:103D7800B7FC3068092139F030FDC44930684BF090
:103D8800A9FF6FF07F40D6F800B047F008FDC0F3F8
:103D980007238DF81C00C0F307408DF81D308DF8FF
:103DA8001E000799584600223BF001FC30680022AB
:103DB800FF213BF00BFC0022494630683BF00DFC2C
:103DC800206824F0C9FCB24E6FF04041306039F0F1
:103DD800A9FC30686FF0404139F0BBFC30681F2106
:103DE80039F067FC3068032139F07AFC3068092122
:103DF80039F0F3FC514630684BF06CFF6FF07F40B0
:103E0800D6F800A047F0CBFCC0F307238DF82000BC
:103E1800C0F307408DF821308DF8220008995046EC
:103E280000223BF0C4FB30680022FF213BF0CEFBB0
:103E38000022494630683BF0D0FB206824F08CFC17
:103E4800944C6FF04041206039F06CFC20686FF0B2
:103E5800404139F07EFC20682B2139F02AFC20688B
:103E6800032139F03DFC2068092139F0B6FC8A4964
:103E780020684BF02FFF6FF07F40266847F08FFCDB
:103E8800C0F307238DF82400C0F307408DF82530D0
:103E98008DF826000999304600223BF088FB2068FF
:103EA8000022FF213BF092FB0022494620683BF0AC
:103EB80094FB286813F078FE784C794E206015F052
:103EC80007FA2068A12139F02DFC2068A92139F0D2
:103ED80040FC2068062139F0ECFB20681E2139F0EF
:103EE800FFFB2068092139F078FC1221206838F09E
:103EF8002DFA206824F030FC6FF04041306039F032
:103F080011FC30686FF0404139F023FC306806211D
:103F180039F0CFFB30686FF0060139F0E1FB30680B
:103F2800092139F05AFC5F4930684BF0D3FE40460E
:103F3800D6F8009047F033FCC0F307238DF828002B
:103F4800C0F307408DF829308DF82A000A994846B1
:103F580000223BF02CFB30680022FF213BF036FBAF
:103F68000022514930683BF038FB206824F0F4FB0C
:103F78004E4E6FF04041306039F0D4FB30686FF03E
:103F8800404139F0E6FB30686FF0020139F091FBEF
:103F98003068222139F0A4FB3068092139F01DFC72
:103FA800434930684BF096FE3846D6F8008047F013
:103FB800F6FBC0F307238DF82C00C0F307408DF8FB
:103FC8002D308DF82E000B99404600223BF0EFFA79
:103FD80030680022FF213BF0F9FA002235493068A9
:103FE8003BF0FBFA206823F0B1FF334C33492060E3
:103FF8004BF0E6FC20686FF0404139F093FB2068F5
:104008006FF0404139F0A5FB20686FF0080139F0E6
:1040180050FB2068452139F063FB2068092139F0FD
:10402800DCFB2068022138F0DCFB1021206838F026
:104038008DF9286823F08AFF214C224920604BF033
:10404800BFFC20686FF0404139F06CFB20686FF0CE
:10405800404139F07EFB20687E2139F02AFB206838
:10406800632139F03DFB2068092139F0B6FB20684F
:10407800022138F0B6FB1021206838F067F928686B
:1040880023F064FF20E000BFEC9E0020B5B20A00D8
:10409800E89E0020E49E0020B8B20A00E09E0020BE
:1040A800DC9E0020BBB20A0078950500D89E00204F
:1040B800C2B20A0014900500D49E002014560500D0
:1040C800D09E002068560500D24CD34920604BF0A2
:1040D80077FC20686FF0404139F024FB20686FF0CE
:1040E800404139F036FB20686FF0840139F0E1FA7D
:1040F8002068642139F0F4FA2068092139F06DFB51
:104108002068022138F06DFB1021206838F01EF974
:10411800286813F049FDC14CC14D206015F0D8F84E
:104128002068AE2139F0FEFA2068672139F011FBCA
:104138002068792139F0BDFA20686FF0570139F00D
:10414800CFFA2068092139F048FB1221206838F09D
:10415800FDF8206824F000FB6FF04041286039F03A
:10416800E1FA28686FF0404139F0F3FA28686FF0F7
:10417800410139F09EFA28686FF0030139F0B0FA6E
:104188002868092139F029FBA64928684BF0A2FDC7
:1041980038462E6847F003FBC0F307238DF830003C
:1041A800C0F307408DF831308DF832000C99304655
:1041B80000223BF0FCF90022FF2128683BF006FAB8
:1041C800206813F0F1FC984D5121286039F0AAFAC3
:1041D8002868302139F0BDFA28686FF0050139F0F8
:1041E80068FA28686FF0010139F07AFA286809211D
:1041F80039F0F3FA1021286838F0A8F88B482E68AF
:1042080047F0CDFAC0F307238DF83400C0F3074018
:104218008DF835308DF836000D99304600223BF088
:1042280084F90022FF2128683BF08EF94AF6FF60E6
:104238002E6847F0B4FAC0F307238DF83800C0F3AE
:1042480007408DF839308DF83A000E990022304633
:104258003BF081F900202E6847F0A1FAC0F307234C
:104268008DF83C00C0F307408DF83D308DF83E00D6
:104278000F99304600223BF084F90022FF2128687C
:104288003BF08EF9206824F067FA694E6FF04041E0
:10429800306039F047FA30686FF0404139F059FA28
:1042A80030686FF01E0139F004FADFF888A1306831
:1042B8006FF0110139F014FA3068092139F08DFADC
:1042C800514630684BF006FD6FF07F40356847F087
:1042D80066FAC0F307238DF84000C0F307408DF855
:1042E80041308DF84200109928460022524D3BF08B
:1042F8005EF930680022FF213BF068F90022294668
:1043080030683BF06AF9206824F026FA4B4E6FF0CB
:104318004041306039F006FA30686FF0404139F0BA
:1043280018FA3068072139F0C4F9454F30686FF042
:10433800100139F0D5F93068092139F04EFA3946BB
:1043480030684BF0C7FC6FF07F40D6F8008047F02C
:1043580026FAC0F307238DF84400C0F307408DF810
:1043680045308DF846001199404600223BF01FF970
:1043780030680022FF213BF029F9002229463068E5
:104388003BF02BF9206824F0E7F92E4E6FF04041FE
:10439800306039F0C7F930686FF0404139F0D9F929
:1043A80030686FF01E0139F084F9DFF89C903068AE
:1043B8006FF0010139F094F93068092139F00DFAEC
:1043C800494630684BF086FC6FF07F40D6F8008095
:1043D80047F0E5F9C0F307238DF84800C0F307401C
:1043E8008DF849308DF84A001299404600223BF07A
:1043F800DEF830680022FF213BF0E8F80022294669
:1044080030683BF0EAF8206824F0A6F90F4E6FF008
:1044180040411DE0CC9E00204C560500C89E00205F
:10442800C49E0020C8B20A00C09E0020F06C09009B
:10443800BC9E0020CCB20A00F4640500B89E00209F
:10444800CFB20A00B49E0020D4B20A00B09E002069
:10445800306039F067F930686FF0404139F079F928
:104468003068072139F025F930686FF0010139F01B
:1044780037F93068092139F0B0F9394630684BF01E
:1044880029FC6FF07F40D6F8008047F088F9C0F328
:1044980007238DF84C00C0F307408DF84D308DF898
:1044A8004E001399404600223BF081F83068002204
:1044B800FF213BF08BF80022294630683BF08DF84D
:1044C800206824F049F9D74E6FF04041306039F048
:1044D80029F930686FF0404139F03BF930686FF0E6
:1044E8001D0139F0E6F8DFF8408330680D2139F016
:1044F800F7F83068092139F070F9414630684BF017
:10450800E9FB6FF07F40D6F800B047F048F9C0F3F8
:1045180007238DF85000C0F307408DF851308DF80F
:1045280052001499584600223BF041F830680022A6
:10453800FF213BF04BF80022294630683BF04DF84C
:10454800206824F009F9B94C6FF04041206039F037
:10455800E9F820686FF0404139F0FBF8206807213E
:1045680039F0A7F820680D2139F0BAF82068092138
:1045780039F033F9394620684BF0ACFB6FF07F40D7
:10458800266847F00CF9C0F307238DF85400C0F3F0
:1045980007408DF855308DF85600159930460022A1
:1045A8003BF005F820680022FF213BF00FF80022BD
:1045B800294620683BF011F89D4B9E4C186813F073
:1045C800F3FA206014F084FE2068AE2139F0AAF8CE
:1045D8002068672139F0BDF82068792139F069F839
:1045E80020686FF0250139F07BF82068092139F03F
:1045F800F4F81221206837F0A9FE206824F0ACF8FE
:104608008D4E6FF04041306039F08CF830686FF0B3
:10461800404139F09EF830686FF0410139F049F8AF
:1046280030686FF0020139F05BF83068092139F021
:10463800D4F8824930684BF04DFB8148D6F800B079
:1046480047F0ADF8C0F307238DF85800C0F30740D2
:104658008DF859308DF85A001699584600223AF0CC
:10466800A6FF0022FF2130683AF0B0FF206813F05F
:104678009BFA744E5121306039F054F8306830217B
:1046880039F067F830686FF0050139F012F83068D2
:104698006FF0010139F024F83068092139F09DF8EC
:1046A8001021306837F052FE6748D6F800B047F05E
:1046B80076F8C0F307238DF85C00C0F307408DF847
:1046C8005D308DF85E001799584600223AF02DFFAC
:1046D8000022FF2130683AF037FF4AF6FF60D6F82B
:1046E80000B047F05CF8C0F307238DF86000C0F312
:1046F80007408DF861308DF86200189900225846FD
:104708003AF029FF0020D6F800B047F048F8C0F387
:1047180007238DF86400C0F307408DF865308DF8E5
:1047280066001999584600223AF02BFF0022FF2113
:1047380030683AF035FF206824F00EF8434E6FF0E9
:104748004041306038F0EEFF30686FF0404139F09A
:1047580000F830686FF01C0138F0ABFF30686FF07C
:10476800100138F0BDFF3068092139F036F851469C
:1047780030684BF0AFFA6FF07F40D6F800A047F0F2
:104788000EF8C0F307238DF86800C0F307408DF8D2
:1047980069308DF86A001A99504600223AF007FFEE
:1047A80030680022FF213AF011FF002229463068C4
:1047B8003AF013FF206823F0CFFF254E6FF04041F9
:1047C800306038F0AFFF30686FF0404138F0C1FF1B
:1047D8003068072138F06DFF30686FF00F0138F04E
:1047E8007FFF3068092138F0F8FF394630684BF010
:1047F80071FA6FF07F40D6F800A046F0D0FFC0F302
:1048080007238DF86C00C0F307408DF86D308DF8E4
:104818006E001B99504600223AF0C9FE306800220B
:1048280018E000BFAC9E0020D7B20A00A89E002066
:10483800109F0020A49E0020A09E0020DAB20A004B
:10484800FDFDFF009C9E0020F06C0900989E002052
:10485800949E0020FF213AF0B9FE002229463068D4
:104868003AF0BBFE206823F077FF8F4E6FF040418F
:10487800306038F057FF30686FF0404138F069FF1A
:1048880030686FF01C0138F014FF30686FF00101D8
:1048980038F026FF3068092138F09FFF4946306814
:1048A8004BF018FA6FF07F40D6F8009046F077FF8B
:1048B800C0F307238DF87000C0F307408DF87130FE
:1048C8008DF872001C99484600223AF070FE306854
:1048D8000022FF213AF07AFE0022294630683AF099
:1048E8007CFE206823F038FF704E6FF04041306046
:1048F80038F018FF30686FF0404138F02AFF306810
:10490800072138F0D6FE30686FF0010138F0E8FE74
:104918003068092138F061FF394630684BF0DAF920
:104928006FF07F40D6F8009046F039FFC0F30723B8
:104938008DF87400C0F307408DF875308DF8760057
:104948001D99484600223AF032FE30680022FF21C5
:104958003AF03CFE0022294630683AF03EFE2068D4
:1049680023F0FAFE524E6FF04041306038F0DAFE24
:1049780030686FF0404138F0ECFE30686FF01C0191
:1049880038F097FE30680D2138F0AAFE306809210A
:1049980038F023FF414630684BF09CF96FF07F40B8
:1049A800D6F8008046F0FBFEC0F307238DF87800A8
:1049B800C0F307408DF879308DF87A001E9940468B
:1049C80000223AF0F4FD30680022FF213AF0FEFDA3
:1049D8000022294630683AF000FE206823F0BCFE29
:1049E800344E6FF04041306038F09CFE30686FF014
:1049F800404138F0AEFE3068072138F05AFE306882
:104A08000D2138F06DFE3068092138F0E6FE394690
:104A180030684BF05FF96FF07F40376846F0BFFEB3
:104A2800C0F307238DF87C00C0F307408DF87D3074
:104A38008DF87E001F99384600223AF0B8FD30689C
:104A48000022FF213AF0C2FD0022294630683AF0E0
:104A5800C4FD206823F07AFA174C184920604AF000
:104A6800AFFF20686FF0404138F05CFE20686FF0BF
:104A7800404138F06EFE20686FF0410138F019FEB1
:104A880020686FF01A0138F02BFE2068092138F0F1
:104A9800A4FE2068022137F0A4FE1021206821B06E
:104AA800BDE8F04F37F052BC909E00208C9E00204D
:104AB800889E0020849E0020809E0020BC56050011
:104AC8002DE9F04300208BB013F06EF8CE4E102184
:104AD800306037F03BFC306823F038FACB4CCC49D7
:104AE80020604AF06DFF20686FF0404138F01AFEF0
:104AF80020686FF0404138F02CFE2068092138F01A
:104B08006CFE2068022137F06CFE1021206837F017
:104B18001DFC306813F048F8BE4CBF4D206014F0FF
:104B2800D7FB20688C2138F0FDFD20683C2138F047
:104B380010FE2068062138F0BCFD20686FF00801DF
:104B480038F0CEFD2068092138F047FE1221206890
:104B580037F0FCFB206823F0FFFD6FF04041286030
:104B680038F0E0FD28686FF0404138F0F2FD286821
:104B78006FF02B0138F09DFD28684FF0FF3138F0B9
:104B8800AFFDDFF898922868092138F026FEA4497D
:104B980028684BF09FF848462F6846F000FEC0F39F
:104BA80007238DF80400C0F307408DF805308DF811
:104BB80006000199384600229A4F3AF0F8FC286816
:104BC8000022FF213AF002FD0022394628683AF017
:104BD80004FD206823F0C0FD934D6FF0404128602C
:104BE80038F0A0FD28686FF0404138F0B2FD286821
:104BF8006FF0080138F05DFD28686FF0040138F0A7
:104C08006FFD2868092138F0E8FD884928684BF0CD
:104C180061F84846D5F8008046F0C1FDC0F3072387
:104C28008DF80800C0F307408DF809308DF80A00A8
:104C38000299404600223AF0BAFC28680022FF2177
:104C48003AF0C4FC0022394628683AF0C6FC2068CD
:104C580023F082FD764C6FF04041206038F062FD11
:104C680020686FF0404138F074FD20681F2138F04B
:104C780020FD20684FF0FF3138F032FD206809210F
:104C880038F0ABFD6B4920684BF024F86A4825687A
:104C980046F085FDC0F307238DF80C00C0F30740EC
:104CA8008DF80D308DF80E000399284600223AF051
:104CB8007EFC20680022FF213AF088FC0022394659
:104CC80020683AF08AFC306812F06EFF5B4C5C4D4D
:104CD800206014F0FDFA2068732138F023FD206865
:104CE800232138F036FD20686FF00B0138F0E1FC25
:104CF80020681A2138F0F4FC2068092138F06DFD8D
:104D08001221206837F022FB206823F025FD6FF080
:104D18004041286038F006FD28686FF0404138F0BF
:104D280018FD28686FF0150138F0C3FC28680421C5
:104D380038F0D6FC2868092138F04FFD4149286829
:104D48004AF0C8FF6FF07F402F6846F028FDC0F397
:104D580007238DF81000C0F307408DF811308DF847
:104D68001200049938460022374F3AF020FC286890
:104D78000022FF213AF02AFC0022394628683AF03E
:104D88002CFC206823F0E8FC304D6FF0404128608F
:104D980038F0C8FC28686FF0404138F0DAFC286821
:104DA8006FF0030138F085FCDFF8A4802868032140
:104DB80038F096FC2868092138F00FFD414628682C
:104DC8004AF088FF6FF07F40D5F8009046F0E7FC86
:104DD800C0F307238DF81400C0F307408DF8153091
:104DE8008DF816000599484600223AF0E0FB28683D
:104DF8000022FF213AF0EAFB0022394628683AF0FF
:104E0800ECFB206826E000BF509F00204C9F00204C
:104E1800F8550500489F0020449F0020FBFBFF0039
:104E2800ACB20A0078950500409F0020CDB20A0078
:104E38003C9F0020AFB20A00FDFDFF00389F002014
:104E4800349F0020B2B20A0020750500309F002070
:104E58003CBC0A0023F080FCAF4D6FF04041286055
:104E680038F060FC28686FF0404138F072FC286820
:104E78000C2138F01EFC2868042138F031FC286821
:104E8800092138F0AAFCA54928684AF023FF6FF0E9
:104E98007F40D5F8009046F082FCC0F307238DF8D8
:104EA8001800C0F307408DF819308DF81A000699DC
:104EB800484600223AF07BFB28680022FF213AF09E
:104EC80085FB0022394628683AF087FB206823F0E2
:104ED80043FC934D6FF04041286038F023FC28686C
:104EE8006FF0404138F035FC28681F2138F0E1FBAD
:104EF8002868032138F0F4FB2868092138F06DFC94
:104F0800414628684AF0E6FE6FF07F40D5F80080F9
:104F180046F045FCC0F307238DF81C00C0F307409A
:104F28008DF81D308DF81E000799404600223AF092
:104F38003EFB28680022FF213AF048FB0022394650
:104F480028683AF04AFB206823F006FC754C6FF09D
:104F58004041206038F0E6FB20686FF0404138F0AF
:104F6800F8FB2068302138F0A4FB2068032138F0D2
:104F7800B7FB2068092138F030FC6B4920684AF0FB
:104F8800A9FE6FF07F40256846F009FCC0F30723AF
:104F98008DF82000C0F307408DF821308DF82200ED
:104FA8000899284600223AF002FB20680022FF21D7
:104FB8003AF00CFB0022394620683AF00EFB3068C4
:104FC80012F0F2FD594C206014F082F920685B2140
:104FD80038F0A8FB2068282138F0BBFB20680221A4
:104FE80038F067FB20686FF0540138F079FB2068CF
:104FF800092138F0F2FB1221206837F0A7F9206860
:1050080023F0AAFB4A4C6FF04041206038F08AFB3D
:1050180020686FF0404138F09CFB20686FF0050174
:1050280038F047FB20684FF0FF3138F059FB206813
:10503800092138F0D2FB3F4920684AF04BFE3E4830
:10504800256846F0ACFBC0F307238DF82400C0F3B5
:1050580007408DF825308DF826000999284600224A
:105068003AF0A5FA20680022FF213AF0AFFA0022B0
:10507800324920683AF0B1FA306822F067FF304CC4
:10508800304920604AF09CFC20686FF0404138F0BD
:1050980049FB20686FF0404138F05BFB20687E21B7
:1050A80038F007FB2068632138F01AFB20680921D3
:1050B80038F093FB2068022137F093FB1021206819
:1050C80037F044F9306822F041FF1F4C1F49206037
:1050D8004AF076FC20686FF0404138F023FB2068E6
:1050E8006FF0404138F035FB20686FF0840138F0EC
:1050F800E0FA2068642138F0F3FA2068092138F0D2
:105108006CFB2068022137F06CFB102120680BB083
:10511800BDE8F04337F01AB92C9F0020B5B20A0059
:10512800289F0020249F0020B8B20A00209F00205A
:105138001C9F0020DFB20A00FEFEFE004C85050021
:10514800189F002068560500149F00204C56050043
:105158002DE9F04300208DB012F026FDCE4D102130
:10516800286037F0F3F8286822F0F0FECB4CCC49E1
:1051780020604AF025FC20686FF0404138F0D2FAF0
:1051880020686FF0404138F0E4FA2068092138F0CF
:1051980024FB2068022137F024FB1021206837F017
:1051A800D5F8286812F000FDBE4CBF4E206014F000
:1051B8008FF820688C2138F0B5FA2068272138F05C
:1051C800C8FA20686FF03C0138F073FA20686FF075
:1051D800590138F085FA2068092138F0FEFA1221C1
:1051E800206837F0B3F8206823F0B6FA6FF0404132
:1051F800306038F097FA30686FF0404138F0A9FA1B
:1052080030686FF02B0138F054FA30684FF0FF31F6
:1052180038F066FADFF894923068092138F0DDFA40
:10522800A34930684AF056FD4846376846F0B7FA51
:10523800C0F307238DF80400C0F307408DF805304C
:105248008DF806000199384600229A4F3AF0AFF9D6
:1052580030680022FF213AF0B9F900223946306857
:105268003AF0BBF9206823F077FA934E6FF040418B
:10527800306038F057FA30686FF0404138F069FA1A
:1052880030686FF0080138F014FA30686FF00401E4
:1052980038F026FA3068092138F09FFA87493068D3
:1052A8004AF018FD4846D6F8008046F078FAC0F370
:1052B80007238DF80800C0F307408DF809308DF8F2
:1052C8000A000299404600223AF071F9306800223B
:1052D800FF213AF07BF90022394630683AF07DF92F
:1052E800206823F039FA764C6FF04041206038F09E
:1052F80019FA20686FF0404138F02BFA20681F2116
:1053080038F0D7F920684FF0FF3138F0E9F9206814
:10531800092138F062FA6B4920684AF0DBFC6A48D8
:10532800266846F03CFAC0F307238DF80C00C0F35A
:1053380007408DF80D308DF80E0003993046002295
:105348003AF035F920680022FF213AF03FF90022AF
:10535800394620683AF041F9286812F025FC5B4C80
:105368005B4E206013F0B4FF2068732138F0DAF93F
:105378002068232138F0EDF92068232138F099F9C5
:1053880020686FF04F0138F0ABF92068092138F038
:1053980024FA1221206836F0D9FF206823F0DCF9BE
:1053A8006FF04041306038F0BDF930686FF040412F
:1053B80038F0CFF930686FF0150138F07AF93068B5
:1053C800042138F08DF93068092138F006FA41498E
:1053D80030684AF07FFC6FF07F40376846F0DFF9AD
:1053E800C0F307238DF81000C0F307408DF8113083
:1053F8008DF81200049938460022374F3AF0D7F852
:1054080030680022FF213AF0E1F80022394630687E
:105418003AF0E3F8206823F09FF9304E6FF04041EE
:10542800306038F07FF930686FF0404138F091F91A
:1054380030686FF0030138F03CF9DFF8A480306879
:10544800032138F04DF93068092138F0C6F9414692
:1054580030684AF03FFC6FF07F40D6F8009046F085
:105468009EF9C0F307238DF81400C0F307408DF8A8
:1054780015308DF816000599484600223AF097F83D
:1054880030680022FF213AF0A1F80022394630683E
:105498003AF0A3F8206825E0AC9F0020A89F0020E0
:1054A800F8550500A49F0020A09F0020FBFBFF00EB
:1054B800ACB20A00789505009C9F0020CDB20A0086
:1054C800989F0020AFB20A00FDFDFF00949F0020C6
:1054D800909F0020B2B20A00207505008C9F002022
:1054E8003CBC0A0023F038F9CD4E6FF040413060E3
:1054F80038F018F930686FF0404138F02AF9306810
:105508000C2138F0D6F83068042138F0E9F8306812
:10551800092138F062F9C34930684AF0DBFB6FF0C3
:105528007F40D6F8009046F03AF9C0F307238DF88B
:105538001800C0F307408DF819308DF81A00069945
:10554800484600223AF033F830680022FF213AF04A
:105558003DF80022394630683AF03FF8206823F0D9
:10556800FBF8B14E6FF04041306038F0DBF830683E
:105578006FF0404138F0EDF830681F2138F099F8A5
:105588003068032138F0ACF83068092138F025F983
:10559800414630684AF09EFB6FF07F40D6F80080A5
:1055A80046F0FDF8C0F307238DF81C00C0F3074050
:1055B8008DF81D308DF81E0007994046002239F0FD
:1055C800F6FF30680022FF213AF000F80022394641
:1055D80030683AF002F8206823F0BEF8934C6FF078
:1055E8004041206038F09EF820686FF0404138F064
:1055F800B0F82068302138F05CF82068032138F0D2
:105608006FF82068092138F0E8F8894920684AF0DD
:1056180061FB6FF07F40266846F0C1F8C0F30723AE
:105628008DF82000C0F307408DF821308DF8220056
:1056380008993046002239F0BAFF20680022FF217D
:1056480039F0C4FF00223946206839F0C6FF2868BF
:1056580012F0AAFA774C784E206013F039FE2068D1
:105668006B2138F05FF82068252138F072F820683F
:105678006FF02D0138F01DF82068452138F030F81A
:105688002068092138F0A9F81221206836F05EFE5A
:10569800206822F05BFC694930604AF091F9306873
:1056A8006FF0404138F03EF830686FF0404138F014
:1056B80050F830686FF01C0137F0FBFF30684FF08E
:1056C800FF3138F00DF83068092138F086F8306875
:1056D800022137F086F81021306836F037FE20684E
:1056E80023F03AF8564C6FF04041206038F01AF831
:1056F80020686FF0404138F02CF820680E2137F010
:10570800D8FF2068002137F0EBFF2068092138F026
:1057180064F84C4920684AF0DDFA6FF07F4026684B
:1057280046F03DF8C0F307238DF82400C0F3074086
:105738008DF825308DF82600434F30460999002210
:1057480039F035FF20680022FF2139F03FFF0022A1
:105758003946206839F041FF286812F025FA3B4C99
:105768003B4E206013F0B4FD20687A2137F0DAFF51
:105778002068282137F0EDFF2068452137F099FF90
:1057880020686FF01D0137F0ABFF2068092138F061
:1057980024F81221206836F0D9FD206822F0D6FBC3
:1057A8002C4930604AF00CF930686FF0404137F00E
:1057B800B9FF30686FF0404137F0CBFF30682221E5
:1057C80037F077FF30686FF0010137F089FF3068F4
:1057D800092138F002F83068022137F002F8102168
:1057E800306836F0B3FD206822F0B6FF1A4C6FF02F
:1057F8004041206037F096FF20686FF0404137F055
:10580800A8FF20686FF0100137F053FF20684FF0B1
:10581800FF3137F065FF2068092137F0DEFF1DE012
:10582800889F0020B5B20A00849F0020809F002036
:10583800B8B20A007C9F0020789F0020845605009B
:10584800749F0020E6B20A00E87F0500709F0020E0
:105858006C9F0020A0560500689F00207A492068A8
:105868004AF038FA7948266845F099FFC0F30723CB
:105878008DF82800C0F307408DF829308DF82A00EC
:105888000A993046002239F092FE20680022FF2152
:1058980039F09CFE00223946206839F09EFE2868BF
:1058A80012F082F96A4C6B4E206013F011FD2068EB
:1058B8009C2137F037FF20681A2137F04AFF20680B
:1058C800102137F0F6FE2068112137F009FF206813
:1058D800092137F082FF1221206836F037FD206851
:1058E80022F034FB5C4930604AF06AF830686FF0A7
:1058F800404137F017FF30686FF0404137F029FF1B
:1059080030686FF03C0137F0D4FE30686FF0010169
:1059180037F0E6FE3068092137F05FFF3068022172
:1059280036F05FFF1021306836F010FD206822F055
:1059380013FF4A4C6FF04041206037F0F3FE2068B7
:105948006FF0404137F005FF20680B2137F0B1FEBA
:1059580020686FF0010137F0C3FE2068092137F095
:105968003CFF3F4920684AF0B5F96FF07F40266850
:1059780045F015FFC0F307238DF82C00C0F307404E
:105988008DF82D308DF82E000B993046002239F015
:105998000EFE20680022FF2139F018FE0022394649
:1059A800206839F01AFE286822F0D0FA2D4C2E49CA
:1059B80020604AF005F820686FF0404137F0B2FEE9
:1059C80020686FF0404137F0C4FE20687E2137F030
:1059D80070FE2068632137F083FE2068092137F0C4
:1059E800FCFE2068022136F0FCFE1021206836F00B
:1059F800ADFC286822F0AAFA1C4C1D49206049F029
:105A0800DFFF20686FF0404137F08CFE20686FF0B0
:105A1800404137F09EFE20686FF0840137F049FE60
:105A28002068642137F05CFE2068092137F0D5FE34
:105A38002068022136F0D5FE102120680DB0BDE89F
:105A4800F04336F083BC00BFDFB20A00FEFEFE0062
:105A5800649F0020609F0020305605005C9F002056
:105A6800EAB20A00589F002068560500549F00209B
:105A78004C5605001FB51CF0C9FD1F4B186014F0EB
:105A8800A9FD044605201CF063FEC0F307238DF82A
:105A980008008DF80930C0F3074300208DF80A305C
:105AA8001CF056FEC0F307238DF80D30C0F30743F2
:105AB8008DF80E30114B8DF80C00DDE902120093C1
:105AC800204600231EF016F90146204614F0BEFFBA
