:020000040000FA
:1000000050140320998E00009F890200858E000005
:10001000858E0000858E0000858E0000858E000094
:10002000000000000000000000000000159000002B
:10003000858E000000000000AD8F0000858E00005E
:10004000A9910000A9910000A9910000A9910000C8
:10005000A9910000A9910000A9910000A9910000B8
:10006000A9910000A9910000A9910000A9910000A8
:10007000A9910000A9910000A9910000A991000098
:10008000A9910000A9910000A9910000A991000088
:10009000A9910000A9910000A9910000A991000078
:1000A000A9910000A9910000A9910000A991000068
:1000B000A9910000A9910000A9910000A991000058
:1000C000A9910000A9910000A9910000A991000048
:1000D000A9910000A9910000A9910000A991000038
:1000E000A9910000A9910000A9910000A991000028
:1000F000A9910000A9910000A9910000A991000018
:10010000A9910000A9910000A9910000A991000007
:10011000A9910000A9910000A9910000A9910000F7
:10012000A9910000A9910000A9910000A9910000E7
:10013000A9910000A9910000A9910000A9910000D7
:10014000A9910000A9910000A9910000A9910000C7
:04015000A991000071
:1001580081F0004102E000BF83F0004330B54FEA70
:1001680041044FEA430594EA050F08BF90EA020FDD
:100178001FBF54EA000C55EA020C7FEA645C7FEA70
:10018800655C00F0E2804FEA5454D4EB5555B8BF93
:100198006D420CDD2C4480EA020281EA030382EA04
:1001A800000083EA010180EA020281EA0303362D96
:1001B80088BF30BD11F0004F4FEA01314FF4801C69
:1001C8004CEA113102D0404261EB410113F0004F7B
:1001D8004FEA03334CEA133302D0524263EB430332
:1001E80094EA050F00F0A780A4F10104D5F1200ED0
:1001F8000DDB02FA0EFC22FA05F2801841F100012B
:1002080003FA0EF2801843FA05F359410EE0A5F1FE
:1002180020050EF1200E012A03FA0EFC28BF4CF02F
:10022800020C43FA05F3C01851EBE37101F00045E5
:1002380007D54FF0000EDCF1000C7EEB00006EEBF2
:100248000101B1F5801F1BD3B1F5001F0CD349087C
:100258005FEA30004FEA3C0C04F101044FEA4452D3
:1002680012F5800F80F09A80BCF1004F08BF5FEA5A
:10027800500C50F1000041EB045141EA050130BD3A
:100288005FEA4C0C404141EB0101013C28BFB1F54C
:10029800801FE9D291F0000F04BF01460020B1FA97
:1002A80081F308BF2033A3F10B03B3F120020CDA6A
:1002B8000C3208DD02F1140CC2F10C0201FA0CF048
:1002C80021FA02F10CE002F11402D8BFC2F1200CAD
:1002D80001FA02F120FA0CFCDCBF41EA0C01904063
:1002E800E41AA2BF01EB0451294330BD6FEA0404AC
:1002F8001F3C1CDA0C340EDC04F11404C4F1200297
:1003080020FA04F001FA02F340EA030021FA04F3A8
:1003180045EA030130BDC4F10C04C4F1200220FAFF
:1003280002F001FA04F340EA0300294630BD21FA3D
:1003380004F0294630BD94F0000F83F4801306BF03
:1003480081F480110134013D4EE77FEA645C18BFF7
:100358007FEA655C29D094EA050F08BF90EA020F8E
:1003680005D054EA000C04BF1946104630BD91EA86
:10037800030F1EBF0021002030BD5FEA545C05D189
:100388004000494128BF41F0004130BD14F58004C8
:100398003CBF01F5801130BD01F0004545F0FE413C
:1003A80041F470014FF0000030BD7FEA645C1ABF71
:1003B800194610467FEA655C1CBF0B46024650EAA8
:1003C800013406BF52EA033591EA030F41F40021D4
:1003D80030BD00BF90F0000F04BF0021704730B55A
:1003E8004FF4806404F132044FF000054FF000012F
:1003F80050E700BF90F0000F04BF0021704730B5F0
:100408004FF4806404F1320410F0004548BF4042C4
:100418004FF000013EE700BF42004FEAE2014FEA19
:1004280031014FEA02701FBF12F07F4393F07F4FF4
:1004380081F06051704732F07F4208BF704793F0F7
:100448007F4F04BF41F40021704730B54FF460740A
:1004580001F0004521F000411CE700BF50EA01020D
:1004680008BF704730B54FF000050AE050EA0102B6
:1004780008BF704730B511F0004502D5404261EB26
:1004880041014FF4806404F132045FEA915C3FF467
:10049800D8AE4FF003025FEADC0C18BF03325FEA04
:1004A800DC0C18BF033202EBDC02C2F1200300FAB5
:1004B80003FC20FA02F001FA03FE40EA0E0021FADA
:1004C80002F11444BDE600BF70B54FF0FF0C4CF4C8
:1004D800E06C1CEA11541DBF1CEA135594EA0C0F7A
:1004E80095EA0C0F00F0DEF82C4481EA030621EAB5
:1004F8004C5123EA4C5350EA013518BF52EA0335F0
:1005080041F4801143F4801338D0A0FB02CE4FF0A1
:100518000005E1FB02E506F00042E0FB03E54FF0D1
:100528000006E1FB03569CF0000F18BF4EF0010EC9
:10053800A4F1FF04B6F5007F64F5407404D25FEAC5
:100548004E0E6D4146EB060642EAC62141EA555178
:100558004FEAC52040EA5E504FEACE2EB4F1FD0CBA
:1005680088BFBCF5E06F1ED8BEF1004F08BF5FEA38
:10057800500E50F1000041EB045170BD06F00046EA
:1005880046EA010140EA020081EA0301B4EB5C0497
:10059800C2BFD4EB0C0541EA045170BD41F480118F
:1005A8004FF0000E013C00F3AB8014F1360FDEBFB4
:1005B800002001F0004170BDC4F10004203C35DA90
:1005C8000C341BDC04F11404C4F1200500FA05F313
:1005D80020FA04F001FA05F240EA020001F00042B4
:1005E80021F0004110EBD37021FA04F642EB06012A
:1005F8005EEA430E08BF20EAD37070BDC4F10C0454
:10060800C4F1200500FA04F320FA05F001FA04F217
:1006180040EA020001F0004110EBD37041F1000103
:100628005EEA430E08BF20EAD37070BDC4F120050E
:1006380000FA05F24EEA020E20FA04F301FA05F276
:1006480043EA020321FA04F001F0004121FA04F21E
:1006580020EA020000EBD3705EEA430E08BF20EAEE
:10066800D37070BD94F0000F0FD101F00046400028
:1006780041EB010111F4801F08BF013CF7D041EAAA
:10068800060195F0000F18BF704703F000465200AE
:1006980043EB030313F4801F08BF013DF7D043EA7F
:1006A8000603704794EA0C0F0CEA135518BF95EA35
:1006B8000C0F0CD050EA410618BF52EA4306D1D1BC
:1006C80081EA030101F000414FF0000070BD50EADB
:1006D800410606BF1046194652EA430619D094EA65
:1006E8000C0F02D150EA013613D195EA0C0F05D14F
:1006F80052EA03361CBF104619460AD181EA0301A3
:1007080001F0004141F0FE4141F470014FF000005A
:1007180070BD41F0FE4141F4780170BD70B54FF0F5
:10072800FF0C4CF4E06C1CEA11541DBF1CEA135575
:1007380094EA0C0F95EA0C0F00F0A7F8A4EB050457
:1007480081EA030E52EA03354FEA013100F088804E
:100758004FEA03334FF0805545EA131343EA126317
:100768004FEA022245EA111545EA10654FEA0026CC
:100778000EF000419D4208BF964244F1FD0404F585
:10078800407402D25B084FEA3202B61A65EB0305E1
:100798005B084FEA32024FF480104FF4002CB6EB9E
:1007A800020E75EB030E22BFB61A754640EA0C001E
:1007B8005B084FEA3202B6EB020E75EB030E22BF5E
:1007C800B61A754640EA5C005B084FEA3202B6EB9F
:1007D800020E75EB030E22BFB61A754640EA9C005E
:1007E8005B084FEA3202B6EB020E75EB030E22BF2E
:1007F800B61A754640EADC0055EA060E18D04FEAEC
:10080800051545EA16754FEA06164FEAC30343EA8B
:1008180052734FEAC2025FEA1C1CC0D111F4801F58
:100828000BD141EA00014FF000004FF0004CB6E751
:1008380011F4801F04BF01430020B4F1FD0C88BFF0
:10084800BCF5E06F3FF6AFAEB5EB030C04BFB6EBFB
:10085800020C5FEA500C50F1000041EB045170BDEE
:100868000EF0004E4EEA113114EB5C04C2BFD4EB1B
:100878000C0541EA045170BD41F480114FF0000E9F
:10088800013C90E645EA060E8DE60CEA135594EA1B
:100898000C0F08BF95EA0C0F3FF43BAF94EA0C0F1E
:1008A8000AD150EA01347FF434AF95EA0C0F7FF493
:1008B80025AF104619462CE795EA0C0F06D152EAE7
:1008C80003353FF4FDAE1046194622E750EA4106CB
:1008D80018BF52EA43067FF4C5AE50EA41047FF4DC
:1008E8000DAF52EA43057FF4EBAE12E74FEA41023F
:1008F80012F5001215D211D56FF47873B3EB62526A
:1009080012D94FEAC12343F0004343EA505311F090
:10091800004F23FA02F018BF404270474FF0000022
:10092800704750EA013005D111F0004008BF6FF060
:10093800004070474FF00000704700BF4FEA410287
:10094800B2F1E04324BFB3F5001CDCF1FE5C0DD925
:1009580001F0004C4FEAC0024CEA5070B2F1004F6F
:1009680040EB830008BF20F00100704711F0804F72
:1009780021D113F13872BCBF01F00040704741F437
:1009880080114FEA5252C2F11802C2F1200C10FA3B
:100998000CF320FA02F018BF40F001004FEAC1231F
:1009A8004FEAD32303FA0CFC40EA0C0023FA02F3C3
:1009B8004FEA4303CCE77FEA625307D150EA013399
:1009C8001EBF4FF0FE4040F44000704701F0004069
:1009D80040F0FE4040F40000704700BF80F0004047
:1009E80002E000BF81F0004142001FBF5FEA4103FF
:1009F80092EA030F7FEA226C7FEA236C6AD04FEAFF
:100A08001262D2EB1363C1BFD21841404840414043
:100A1800B8BF5B42192B88BF704710F0004F40F4F5
:100A2800000020F07F4018BF404211F0004F41F411
:100A3800000121F07F4118BF494292EA030F3FD0DD
:100A4800A2F1010241FA03FC10EB0C00C3F12003F0
:100A580001FA03F100F0004302D5494260EB40007F
:100A6800B0F5000F13D3B0F1807F06D340084FEAEA
:100A7800310102F10102FE2A51D2B1F1004F40EBDF
:100A8800C25008BF20F0010040EA03007047490047
:100A980040EB0000013A28BFB0F5000FEDD2B0FAE4
:100AA80080FCACF1080CB2EB0C0200FA0CF0AABF07
:100AB80000EBC25052421843BCBFD04018437047A5
:100AC80092F0000F81F4000106BF80F400000132AB
:100AD800013BB5E74FEA41037FEA226C18BF7FEA82
:100AE800236C21D092EA030F04D092F0000F08BFC4
:100AF8000846704790EA010F1CBF0020704712F0AB
:100B08007F4F04D1400028BF40F00040704712F1E9
:100B180000723CBF00F50000704700F0004343F04E
:100B2800FE4040F4000070477FEA226216BF084684
:100B38007FEA23630146420206BF5FEA412390EA47
:100B4800010F40F4800070474FF0000304E000BF3D
:100B580010F0004348BF40425FEA000C08BF7047EE
:100B680043F0964301464FF000001CE050EA0102B2
:100B780008BF70474FF000030AE000BF50EA0102C7
:100B880008BF704711F0004302D5404261EB4101B4
:100B98005FEA010C02BF84460146002043F0B643D9
:100BA80008BFA3F18053A3F50003BCFA8CF2083AFE
:100BB800A3EBC25310DB01FA02FC634400FA02FC07
:100BC800C2F12002BCF1004F20FA02F243EB02000E
:100BD80008BF20F00100704702F1200201FA02FC70
:100BE800C2F1200250EA4C0021FA02F243EB020063
:100BF80008BF20EADC7070474FF0FF0C1CEAD052A7
:100C08001EBF1CEAD15392EA0C0F93EA0C0F6FD067
:100C18001A4480EA010C400218BF5FEA41211ED045
:100C28004FF0006343EA501043EA5111A0FB013131
:100C38000CF00040B1F5000F3EBF490041EAD37106
:100C48005B0040EA010062F17F02FD2A1DD8B3F182
:100C5800004F40EBC25008BF20F00100704790F0F1
:100C6800000F0CF0004C08BF49024CEA502040EA43
:100C780051207F3AC2BFD2F1FF0340EAC250704709
:100C880040F400004FF00003013A5DDC12F1190F47
:100C9800DCBF00F000407047C2F10002410021FAB9
:100CA80002F1C2F1200200FA02FC5FEA310040F1D1
:100CB800000053EA4C0308BF20EADC70704792F04A
:100CC800000F00F0004C02BF400010F4000F013A82
:100CD800F9D040EA0C0093F0000F01F0004C02BF7D
:100CE800490011F4000F013BF9D041EA0C018FE7EC
:100CF8000CEAD15392EA0C0F18BF93EA0C0F0AD0F2
:100D080030F0004C18BF31F0004CD8D180EA010017
:100D180000F00040704790F0000F17BF90F0004FB0
:100D2800084691F0000F91F0004F14D092EA0C0F92
:100D380001D142020FD193EA0C0F03D14B0218BF25
:100D4800084608D180EA010000F0004040F0FE406B
:100D580040F40000704740F0FE4040F44000704707
:100D68004FF0FF0C1CEAD0521EBF1CEAD15392EA86
:100D78000C0F93EA0C0F69D0A2EB030280EA010C76
:100D880049024FEA402037D04FF0805343EA11110F
:100D980043EA10130CF000408B4238BF5B0042F16D
:100DA8007D024FF4000C8B4224BF5B1A40EA0C0012
:100DB800B3EB510F24BFA3EB510340EA5C00B3EB44
:100DC800910F24BFA3EB910340EA9C00B3EBD10F32
:100DD80024BFA3EBD10340EADC001B0118BF5FEA84
:100DE8001C1CE0D1FD2A3FF650AF8B4240EBC250AD
:100DF80008BF20F0010070470CF0004C4CEA50206E
:100E08007F32C2BFD2F1FF0340EAC250704740F4BC
:100E180000004FF00003013A37E792F0000F00F0AE
:100E2800004C02BF400010F4000F013AF9D040EA2C
:100E38000C0093F0000F01F0004C02BF490011F4C0
:100E4800000F013BF9D041EA0C0195E70CEAD153B8
:100E580092EA0C0F08D142027FF47DAF93EA0C0F9F
:100E68007FF470AF084676E793EA0C0F04D14B0283
:100E78003FF44CAF08466EE730F0004C18BF31F035
:100E8800004CCAD130F000427FF45CAF31F000432F
:100E98007FF43CAF5FE700BF4FF0FF3C06E000BFC8
:100EA8004FF0010C02E000BF4FF0010C4DF804CDEB
:100EB8004FEA40024FEA41037FEA226C18BF7FEAFB
:100EC800236C11D001B052EA530C18BF90EA010FFD
:100ED80058BFB2EB030088BFC81738BF6FEAE1708C
:100EE80018BF40F0010070477FEA226C02D15FEA28
:100EF800402C05D17FEA236CE4D15FEA412CE1D094
:100F08005DF8040B704700BF844608466146FFE75A
:100F18000FB5FFF7C9FF002848BF10F1000F0FBD3C
:100F28004DF808EDFFF7F4FF0CBF012000205DF835
:100F380008FB00BF4DF808EDFFF7EAFF34BF0120BA
:100F480000205DF808FB00BF4DF808EDFFF7E0FF53
:100F580094BF012000205DF808FB00BF4DF808EDA4
:100F6800FFF7D2FF94BF012000205DF808FB00BF07
:100F78004DF808EDFFF7C8FF34BF012000205DF8E9
:100F880008FB00BF7BB972B90029BEBF00204FF033
:100F9800004106E008BF00281CBF6FF000414FF079
:100FA800FF3000F057B8ADF1080C6DE904CE002908
:100FB80009DB002B1ADB00F069F8DDF804E0DDE955
:100FC800022304B07047404261EB4101002B1BDB58
:100FD80000F05CF8DDF804E0DDE9022304B04042EB
:100FE80061EB4101524263EB43037047524263EBAA
:100FF800430300F04BF8DDF804E0DDE9022304B018
:10100800404261EB41017047524263EB430300F0F9
:101018003DF8DDF804E0DDE9022304B0524263EB59
:101028004303704753B94AB9002908BF00281CBFB9
:101038004FF0FF314FF0FF3000F00CB8ADF1080C65
:101048006DE904CE00F022F8DDF804E0DDE90223C2
:1010580004B07047704700BF10F8012B11F8013B2E
:10106800012A28BF9A42F7D0D01A7047034611F8D0
:10107800012B03F8012B002AF9D17047034613F816
:10108800012B002AFBD1181A013870472DE9F047C7
:1010980086468C460846089E154674461946002B17
:1010A80040F0C1808542B2FA82F245D94AB1C2F114
:1010B800200300FA02FC954094402EFA03F343EA19
:1010C8000C0C4FEA154EA8B2230CBCFBFEF80EFB25
:1010D80018CC08FB00F943EA0C43994528D9EB18CA
:1010E80008F1FF3704D2994502D9A8F102072B4429
:1010F800A3EB0903A4B2B3FBFEFC0EFB1C330CFBF1
:1011080000F044EA0344A04214D92C190CF1FF332F
:1011180004D2A04202D9ACF102032C44241A43EAB7
:1011280007401EB1D440002334607360BDE8F087E7
:101138004746DDE76346F1E792BB431B01214FEACF
:10114800154EAFB2200CB3FBFEFC0EFB1C330CFBA0
:1011580007F840EA0343984561D9EB180CF1FF30D2
:1011680004D2984502D9ACF102002B44A3EB080342
:10117800A4B2B3FBFEFC0EFB1C330CFB07F744EADE
:101188000344A7424DD92C190CF1FF3304D2A742CE
:1011980002D9ACF102032C44E41B43EA0040C0E747
:1011A800C2F120039540944020FA03F12EFA03F38C
:1011B8004FEA154E9040AFB20343B1FBFEFC0EFB65
:1011C8001C10190C0CFB07F841EA0041884522D98C
:1011D80069180CF1FF3004D2884502D9ACF102003D
:1011E8002944A1EB08019BB2B1FBFEFC0EFB1C11CC
:1011F8000CFB07F743EA01439F420ED9EB180CF1A9
:10120800FF3104D29F4202D9ACF102012B44DB1B0F
:1012180041EA004193E76046E3E76146F7E7604645
:10122800A4E76346B8E7834206D916B90021084601
:101238007CE7C6E900E0F9E7B3FA83F78FB98342A0
:1012480001D3724508D8BEEB020460EB030301200A
:101258009C461EB9002169E73846FAE7C6E9004C02
:10126800F8E7C7F1200CBB400EFA07F522FA0CF498
:101278002EFA0CF1BA401C4320FA0CF3B8404FEA9E
:10128800144901431FFA84FEB3FBF9F809FB18302F
:101298000B0C08FB0EFA43EA00439A4540D9E318C1
:1012A80008F1FF3004D29A4502D9A8F1020023447C
:1012B800A3EB0A0389B2B3FBF9F809FB183308FB5F
:1012C8000EFE41EA03418E452CD9611808F1FF331F
:1012D80004D28E4502D9A8F10203214443EA004012
:1012E800A1EB0E01A0FB02984145CE46434602D32E
:1012F80006D14D4504D20138B9EB020E68EB040360
:10130800002EA7D0B5EB0E0261EB030101FA0CFC2D
:1013180022FA07F3F9404CEA0303C6E9003199E7DA
:101328004046C5E74346D9E770B50D4E7068FFF7EC
:1013380061F809A3D3E90023FFF7F0F90446306800
:101348000D46FFF757F802460B4620462946FEF79A
:1013580005FFFFF7F3FA70BD0000000080842E41FE
:10136800A08D00200000000070B50D4E7068FFF7DA
:1013780041F809A3D3E90023FFF7D0F90446306800
:101388000D46FFF737F802460B4620462946FEF77A
:10139800E5FEFFF7D3FA70BD0000000080842E41FF
:1013A800988D00200000000070B50D4E7068FFF7A2
:1013B80021F809A3D3E90023FFF7B0F90446306800
:1013C8000D46FFF717F802460B4620462946FEF75A
:1013D800C5FEFFF7B3FA70BD0000000080842E41FF
:1013E800908D0020000000002DE9F843264C0746A8
:1013F80060680E461546FEF7FDFF21A3D3E90023DA
:10140800FFF78CF9804620688946FEF7F3FF02460D
:101418000B4640464946FEF7A1FEFFF78FFA3860B3
:10142800E068FEF7E7FF16A3D3E90023FFF776F994
:101438008046A0688946FEF7DDFF02460B46404617
:101448004946FEF78BFEFFF779FA30606069FEF7D0
:10145800D1FF0BA3D3E90023FFF760F90646206903
:101468000F46FEF7C7FF02460B4630463946FEF7E1
:1014780075FEFFF763FA2860BDE8F883AFF30080D4
:101488000000000080842E41788D002000000000BC
:101498002DE9F04706460F46904688B040F0EDFB30
:1014A8004FF47A73A0FB034503FB0155E40B012FAE
:1014B80044EA45444FEAD53507D122462B46304603
:1014C800274926F02AF9002012E0D8F804702548A8
:1014D8003946FFF7C1FD70B139462348FFF7BCFD17
:1014E80048B130463A46214926F033F96FF00400F6
:1014F80008B0BDE8F087204617A3D3E900232946A2
:10150800FFF740FD05460C4610461946184A0023C9
:10151800FFF738FD80460F46104619464EF6602202
:101528000023FFF72FFD82468946104619464FF4DF
:101538007A720023FFF726FDCDE902A9CDE906233B
:10154800CDE904012A4623463046CDE900870949FA
:1015580026F0E3F8B7E700BF005C260500000000AE
:10156800D9860900EA860900ED860900F686090091
:1015780080EE36000E870900D0B504460846FEF70F
:1015880039FF0022144BFEF79FFF0022134BFFF791
:10159800C5F80DA3D3E90023FEF796FF06460F46CC
:1015A800FFF7A4F90AA3D3E900232060394630469F
:1015B800FEF78AFFFFF79AF9094B90FBF3F202FB5B
:1015C80013006060D0BD00BF6811F16346DF913F32
:1015D8000000000080842E410080214000408F40A0
:1015E80040420F0000000000D0B504460846FEF750
:1015F80001FF0FA3D3E90023FEF766FF0EA3D3E98B
:101608000023FFF78BF806460F46FFF76FF90CA388
:10161800D3E90023206039463046FEF755FFFFF72F
:1016280065F9094B90FBF3F202FB13006060D0BD33
:1016380000000040019D334000000000C0FFDF4073
:101648000000000080842E4140420F0070B58AB02F
:1016580000F0CCFCFFF768FE0646FFF785FE05465E
:10166800FFF7A2FE05AA044604A903A8FFF7BCFEDB
:101678003046FEF7D1FE484ACDE90001102106A800
:1016880023F0D2FC454B06A918683DF021FC444BD9
:1016980006A918683DF01CFC2846FEF7BDFE414A25
:1016A800CDE90001102106A823F0BEFC3E4B06A997
:1016B80018683DF00DFC2046FEF7AEFE3B4ACDE92A
:1016C8000001102106A823F0AFFC394B06A91868C1
:1016D8003DF0FEFB0399049824F0C6FE3549FFF758
:1016E8008BFA3549FFF73CFB00210446FFF722FC43
:1016F80020B120463149FFF777F904462046FEF726
:101708008BFE2F4ACDE90001102106A823F08CFC9E
:101718002C4B06A918683DF0DBFB20462A49FFF749
:101728001DFC00282CD120462849FFF703FC38BBB4
:1017380020462749FFF7FEFB20BB20462549FFF737
:10174800F9FB08BB20462449FFF7F4FBF0B9204613
:101758002249FFF7EFFBD8B920462149FFF7EAFBFA
:10176800C0B920492046FFF7E5FB1F491F4B002859
:1017780008BF19461E4B18683DF0AAFB0AB070BD99
:101788001C49F7E71C49F5E71C49F3E71C49F1E751
:101798001C49EFE71C49EDE7BC820400B08E00202D
:1017A800FC8E0020C4820400088F0020CB82040035
:1017B800F08E002000003443D00F49400000B443AD
:1017C800D4820400708E002000C0A8430000B441F9
:1017D800000087420000E14200801D4300804A4328
:1017E80000807743004092435CA30900B98204005B
:1017F8006C8E00206AD70D00B082040070D70D00EF
:10180800B3820400D0830900B6820400C3883BB9C0
:1018180082680C4B1A60037993B10B4821F092BF90
:10182800012B03D18268074B5A60F4E7B3F5A57F13
:10183800F1D18368034A003B18BF01231372EAE71A
:10184800704700BF448D0020508D00202DE9F04FD7
:1018580087B07F4D7F4C28463FF07CFF034670B928
:101868002268550707D07C4A2146CDE9010200903D
:10187800012224F0B0FF002007B0BDE8F08FAB686C
:101888005B680BB12846984703F042F9734B744DD7
:101898001B682B60734B1B686B60734B1B68AB60DA
:1018A800724B1B68EB6000F0FDF860B123685907C4
:1018B80009D06F4B01220293002366491846CDE9EF
:1018C800003324F088FF6B4E30463FF043FF034659
:1018D80000287DD12268520709D032685D490392F9
:1018E800654A0090CDE90102012224F074FF01222B
:1018F800002162483FF0DFFF00224FF4FA616048A0
:1019080017F0E8F9236803F00703022B09D95D4BA8
:101918000322029300234F491846CDE9003324F0EF
:101928005AFF564F584EDFF8648117F009FA002322
:101938000022384621F03AFF0346002842D1D6E972
:1019480000A9226896F808B002F00702022A0BD90B
:101958004F4ACDE904A9CDE901023E490322CDF859
:101968000CB0009024F037FFBBF1000F2AD0236899
:10197800AAF1CF02262A03F007035AD8A9F10502D3
:10198800262A35D8022B09D9424B03220293002379
:1019980030491846CDE9003324F01DFF3E4A0521A1
:1019A80010680130434203F0030300F0030058BFFE
:1019B8005842002310604FF49672009355F82000A7
:1019C8000EF04AFF00214FF4A47040F0A7F8ACE7EE
:1019D800236803F00703022B89D933680322039392
:1019E8002E4B1C49029300231846CDE900337CE7AF
:1019F800A9F59472262A1CD8022B09D9284B032250
:101A08000293002313491846CDE9003324F0E3FE7E
:101A1800214A062110680330434203F0030300F013
:101A2800030058BF5842002310604FF49672009389
:101A3800C4E7022BC6D9002303221846CDE903A91F
:101A4800CDE900330349CDF8088024F0C4FEB9E796
:101A58007C24040004030020DC820400E48E0020BF
:101A6800348D0020408F0020A48E0020108E00208E
:101A7800F5820400E824040026830400508D002029
:101A88005516000056830400448D0020EF8304009F
:101A9800698304008D830400308D00204083040096
:101AA800BC8304002DE9F04FBA4BBB4EBB4F3360EB
:101AB800BB4BBC4DBC4C3B60BC4BDFF8F4822B608D
:101AC8002368BC4A03F00703022B8FB0C8F8002034
:101AD80042D94FF00009B84B0392029303224B46B8
:101AE80021464846CDE9009924F08AFE236803F090
:101AF8000703022B30D9336803220393AF4B2146E7
:101B0800CDE9019348464B46CDF8009024F078FE85
:101B1800236803F00703022B1ED93B6803220393B3
:101B2800A74B2146CDE9019348464B46CDF8009096
:101B380024F066FE236803F00703022B0CD92B68F8
:101B4800032203939F4B2146CDE9019348464B4618
:101B5800CDF8009024F054FED8F8000024F04EFE92
:101B68000346002840F08A812268510707D0964A28
:101B78008D49CDE901020122009024F041FE306830
:101B880024F03CFE0346002840F087812268520773
:101B980007D08E4A8449CDE901020122009024F041
:101BA8002FFE386824F02AFE0346002840F084817E
:101BB8002268510707D0864A7B49CDE901020122F4
:101BC800009024F01DFE286824F018FE0346002823
:101BD80040F081812268520707D07E4A7249CDE9D8
:101BE80001020122009024F00BFED8F8000024F036
:101BF80005FE002800F07E81DFF8DCA1504624F0C5
:101C0800FDFD002800F08881236803F00703022BFC
:101C18000CD9DAF8003003220393704B624902931F
:101C280000231846CDE9003324F0EAFD4FF00809F7
:101C38000023CDE90B3302238DF834309DF834307E
:101C4800DAF8082043F002038DF83430D2F808B0EF
:101C58001FFA89F3012260480BA9D847034670B9D7
:101C6800226802F00702022A09D95D4A4E49CDE9E5
:101C78000102CDF80C900322009024F0C1FD09F177
:101C88000109B9F1780FD3D1D8F8000024F0B6FDD6
:101C980098B3D8F8000024F0ADFD8146002840F044
:101CA8004A81DFF840A1DFF840B152460D21D8F84B
:101CB800000024F0B4FD5A461021D8F8000024F0A2
:101CC800AEFD236803F00703022B16D9DBF80430B6
:101CD80003220693DBF8003048460593DAF804300F
:101CE80031490493DAF80030CDF8009003933F4B64
:101CF800CDE901934B4624F083FD386824F07EFD3E
:101D080018B3386824F076FD8046002840F0248116
:101D1800DFF8DC900E214A46386824F080FD2368FD
:101D280003F00703022B10D9D9F8043003220493D7
:101D3800D9F80030404603932E4B1B49CDE9018367
:101D4800CDF80080434624F05BFD306824F056FD52
:101D5800002863D0306824F04DFD0746002840F085
:101D68000B81DFF894800B214246306824F057FD40
:101D7800236803F00703022B50D9D8F81430032244
:101D88000893D8F8103038460793D8F80C3006492D
:101D9800069333E030250400B08D0020AC8D002080
:101DA80054250400A88D00204C0300207825040049
:101DB800B48D00200C2504001C8404003684040023
:101DC800518404006C84040087840400A8840400FF
:101DD800CB840400EE840400102404001185040060
:101DE80028850400A08D0020988D00205D850400C2
:101DF800908D00209D850400788D0020D8F808304B
:101E08000593D8F804300493D8F80030009703936A
:101E1800694BCDE901733B4624F0F2FC286824F0B5
:101E2800EDFC38B3286824F0E5FC0646002840F0AD
:101E3800B380624F03213A46286824F0F0FC2368F7
:101E480003F00703022B15D97B69032208933B692A
:101E580030460793FB685A490693BB6805937B682D
:101E680004933B6800960393564BCDE901633346D0
:101E780024F0C6FC00200FB0BDE8F08F236803F003
:101E88000703022B7FF67BAE4F4B032202930023FE
:101E98004B491846CDE900336FE6236803F0070382
:101EA800022B7FF67EAE494B03220293002344495E
:101EB8001846CDE9003372E6236803F00703022BC6
:101EC8007FF681AE424B0322029300233C49184619
:101ED800CDE9003375E6236803F00703022B7FF68C
:101EE80084AE3C4B03220293002335491846CDE9C2
:101EF800003378E6306824F081FC00287FF47CAE5B
:101F0800386824F07BFC00287FF476AE286824F03B
:101F180075FC00287FF470AE23685B073FF4B4AE0D
:101F28002D4B01220293002325491846CDE90033A1
:101F380024F066FCA8E6236858073FF4DEAE274B7A
:101F48000122029300231E491846CDE90033CDF83B
:101F58000C9024F055FCD0E6236859073FF4F5AE01
:101F68001F4B03900293002301221846CDE900334A
:101F7800134924F045FCE8E623685A073FF44EAFBE
:101F8800184B03900293002301221846CDE9003331
:101F98000B4924F035FC41E723685B073FF46AAF3F
:101FA800114B03900293002301221846CDE9003318
:101FB800034924F025FC5DE7D5850400608D0020E9
:101FC8004C0300201F86040098840400BA8404008F
:101FD800DD840400008504003F850400808504003A
:101FE800B7850400018604004B8604001FB5404CE9
:101FF800206824F003FC90B1206824F0FBFB002843
:1020080057DA3C490B685B0709D03B4B03900293B6
:10201800002301221846CDE9003324F0F1FB374CA8
:10202800206824F0EBFB90B1206824F0E3FB002843
:102038004ADA30490B685C0709D0314B03900293A8
:10204800002301221846CDE9003324F0D9FB2D4C9A
:10205800206824F0D3FB90B1206824F0CBFB002843
:1020680038DA24490B685A0709D0274B03900293A2
:10207800002301221846CDE9003324F0C1FB234C8C
:10208800206824F0BBFB90B1206824F0B3FB002843
:1020980026DA18490B685B0709D01D4B0390029399
:1020A800002301221846CDE9003324F0A9FB04B02F
:1020B80010BD20680D21174A24F0B1FB1021164AE3
:1020C800206824F0ACFBAAE70E21144A206824F00B
:1020D800A6FBBCE70B21124A206824F0A0FBCEE740
:1020E8000321104A206804B0BDE8104024F097BBD3
:1020F800B48D00204C03002085850400AC8D0020A1
:10210800BC850400B08D002006860400A88D002040
:1021180050860400A08D0020988D0020908D00200E
:10212800788D0020608D00202DE9F04F00208FB0C1
:102138000BF0D4FDD14D1021286029F005FA28684C
:102148001BF0AAFFCE4CCF4920603CF037FD206839
:102158006FF040412AF0E4FB20686FF040412AF01C
:10216800F6FB206809212AF036FC2068022129F0B4
:1021780036FC1021206829F0E7F928681CF092FB4A
:10218800C14C6FF0404120602AF0CAFB20686FF014
:1021980040412AF0DCFB20686FF002012AF087FB3F
:1021A80020686FF06B012AF099FB206809212AF05A
:1021B80012FCB64920683CF08BFE6FF07F40266821
:1021C80038F0EBFBC0F307238DF80400C0F3074099
:1021D8008DF805308DF80600AD4F30460199002284
:1021E8002CF0E3FA20680022FF212CF0EDFA0022FF
:1021F800394620682CF0EFFA286819F0A3FAA54CA4
:10220800B72120602AF08CFB2068B4212AF09FFBBC
:10221800206809212AF0DFFB322120683AF083FC8C
:1022280028680BF05BFD9C4C9C4E20600DF0EAF892
:1022380020688C212AF074FB206823212AF087FB70
:10224800206803212AF033FB20686FF018012AF078
:1022580045FB206809212AF0BEFB1221206829F0DD
:1022680073F920681CF01EFB6FF0404130602AF0C3
:1022780057FB30686FF040412AF069FB30686FF017
:1022880036012AF014FBDFF81892306804212AF08E
:1022980025FB306809212AF09EFB494630683CF04E
:1022A80017FE6FF07F40D6F8008038F076FBC0F359
:1022B80007238DF80800C0F307408DF809308DF822
:1022C8000A00029940460022DFF8D8812CF06DFA06
:1022D80030680022FF212CF077FA0022414630684E
:1022E8002CF079FA20681CF0DDFA6F4E6FF040414F
:1022F80030602AF015FB30686FF040412AF027FB68
:1023080030686FF01E012AF0D2FADFF8A0A1306819
:1023180003212AF0E3FA306809212AF05CFB5146D0
:1023280030683CF0D5FD6FF07F40D6F800B038F04B
:1023380034FBC0F307238DF80C00C0F307408DF879
:102348000D308DF80E000399584600222CF02DFA16
:1023580030680022FF212CF037FA0022414630680D
:102368002CF039FA20681CF09DFA514E6FF040416C
:1023780030602AF0D5FA30686FF040412AF0E7FA69
:1023880030686FF004012AF092FA306804212AF0CC
:10239800A5FA306809212AF01EFB494630683CF04E
:1023A80097FD6FF07F40D6F800B038F0F6FAC0F32A
:1023B80007238DF81000C0F307408DF811308DF811
:1023C80012000499584600222CF0EFF930680022D8
:1023D800FF212CF0F9F90022414630682CF0FBF976
:1023E80020681CF05FFA334E6FF0404130602AF0ED
:1023F80097FA30686FF040412AF0A9FA3068142142
:102408002AF055FA306803212AF068FA3068092161
:102418002AF0E1FA514630683CF05AFD6FF07F40EF
:10242800D6F800A038F0B9FAC0F307238DF81400E5
:10243800C0F307408DF815308DF816000599504601
:1024480000222CF0B2F930680022FF212CF0BCF9F0
:102458000022414630682CF0BEF920681CF022FAB0
:10246800154C6FF0404120602AF05AFA20686FF04E
:1024780040412AF06CFA20682B211FE0108E0020C2
:102488000C8E0020A82F0400088E0020B9830900B4
:10249800CC4E0400048E0020008E0020FC8D00200D
:1024A80052A00900F85E0400F88D00200484090099
:1024B800F48D0020F08D0020EC8D00202AF0F7F933
:1024C800206803212AF00AFA206809212AF083FAF1
:1024D800494620683CF0FCFC6FF07F40266838F0E5
:1024E8005CFAC0F307238DF81800C0F307408DF895
:1024F80019308DF81A000699304600222CF055F94B
:1025080020680022FF212CF05FF900224146206854
:102518002CF061F928681CF0C5F9CE4C6FF04041E9
:1025280020602AF0FDF920686FF040412AF00FFA88
:1025380020686FF004012AF0BAF9206808212AF00F
:10254800CDF9206809212AF046FAC34920683CF0F1
:10255800BFFC6FF07F40266838F01FFAC0F30723EE
:102568008DF81C00C0F307408DF81D308DF81E0053
:102578000799304600222CF018F920680022FF2124
:102588002CF022F90022B54920682CF024F928689B
:102598000BF0A4FBB24CB34E20600CF033FF206864
:1025A80049212AF0BDF920682D212AF0D0F92068A8
:1025B8006FF079012AF07BF9206834212AF08EF92E
:1025C800206809212AF007FA1221206828F0BCFFA8
:1025D800206819F0B1FE352130602AF0A1F9306881
:1025E80021212AF0B4F930686FF001012AF05FF96F
:1025F800306802212AF072F9306809212AF0EBF9D3
:1026080030684FF4806129F0EAF91021306828F029
:102618009BFF47F2FF50D6F8008038F0BEF9C0F3B0
:1026280007238DF82000C0F307408DF821308DF87E
:1026380022000899404600222CF075F80022FF215C
:1026480030682CF07FF820681CF02CF9864C6FF06D
:10265800404120602AF064F920686FF040412AF078
:1026680076F920686FF001012AF021F9206803212A
:102678002AF034F9206809212AF0ADF97B4920684D
:102688003CF026FC6FF07F40266838F086F9C0F3EE
:1026980007238DF82400C0F307408DF825308DF806
:1026A80026000999304600222CF07FF82068002285
:1026B800FF212CF089F80022394620682CF08BF88D
:1026C80028680BF00BFB6A4C6A4E20600CF09AFEEF
:1026D800206849212AF024F920682D212AF037F9A9
:1026E800206803212AF0E3F8206848212AF0F6F848
:1026F800206809212AF06FF91221206828F024FFA8
:10270800206819F019FE392130602AF009F930687B
:1027180021212AF01CF930686FF003012AF0C7F86C
:10272800306802212AF0DAF8306809212AF053F9D2
:1027380030684FF4806129F052F91021306828F090
:1027480003FF4D48D6F8008038F027F9C0F3072377
:102758008DF82800C0F307408DF829308DF82A003D
:102768000A99404600222BF0DEFF0022FF21306844
:102778002BF0E8FF20681CF095F8404C6FF04041C2
:1027880020602AF0CDF820686FF040412AF0DFF889
:1027980020686FF003012AF08AF8206802212AF0E5
:1027A8009DF8206809212AF016F9354920683CF07F
:1027B8008FFB6FF07F40266838F0EFF8C0F30723EF
:1027C8008DF82C00C0F307408DF82D308DF82E00C1
:1027D8000B99304600222BF0E8FF20680022FF21E9
:1027E8002BF0F2FF0022394620682BF0F4FF28680E
:1027F8000BF074FA234C244E20600CF003FE206882
:1028080049212AF08DF820682D212AF0A0F82068A7
:102818007A212AF04CF8206835212AF05FF82068E0
:1028280009212AF0D8F81221206828F08DFE2068A6
:1028380019F082FD352130602AF072F830682121C4
:102848002AF085F830686FF001012AF030F8306816
:1028580002211BE0E88D0020C583090030540400E4
:10286800E48D0020E08D0020DC8D0020D28309005B
:10287800D88D0020D48D00204848F900D08D002044
:10288800D8830900CC8D0020C88D00202AF026F8B6
:10289800306809212AF09FF830684FF4806129F0E8
:1028A8009EF81021306828F04FFE5348D6F8008073
:1028B80038F073F8C0F307238DF83000C0F30740F1
:1028C8008DF831308DF832000C99404600222BF0FB
:1028D8002AFF0022FF2130682BF034FF20681BF00C
:1028E800E1FF464C6FF0404120602AF019F820685B
:1028F8006FF040412AF02BF820686FF0010129F0B1
:10290800D6FF2068032129F0E9FF206809212AF071
:1029180062F83B4920683CF0DBFA6FF07F4026689C
:1029280038F03BF8C0F307238DF83400C0F30740B4
:102938008DF835308DF836000D99304600222BF091
:1029480034FF20680022FF212BF03EFF0022394689
:1029580020682BF040FF28681BF09EFB294C2A4971
:1029680020603CF02BF920686FF0404129F0D8FF37
:1029780020686FF0404129F0EAFF20687E2129F0A5
:1029880096FF2068632129F0A9FF206809212AF011
:1029980022F82068022129F022F81021206828F066
:1029A800D3FD28681BF078FB184C194920603CF0CF
:1029B80005F920686FF0404129F0B2FF20686FF0F8
:1029C800404129F0C4FF20686FF0840129F06FFFAF
:1029D8002068642129F082FF2068092129F0FBFF83
:1029E8002068022128F0FBFF102120680FB0BDE805
:1029F800F04F28F0A9BD00BF0767FF00C48D002075
:102A0800DE830900C08D002018300400BC8D002032
:102A1800FC2F04002DE9F04F0020A1B00BF05EF967
:102A2800CF4D1021286028F08FFDCE482C6837F054
:102A3800B4FFC0F307238DF80400C0F307408DF8F6
:102A480005308DF806000199204600222BF06BFE18
:102A58000022FF2128682BF075FE28681BF01CFB5C
:102A6800C14CC24920603CF0A9F820686FF0404191
:102A780029F056FF20686FF0404129F068FF206870
:102A8800092129F0A8FF2068022128F0A8FF1021B9
:102A9800206828F059FD28680BF020F9B44CB54E91
:102AA80020600CF0AFFC2068582129F039FF20681D
:102AB8001A2129F04CFF20686FF0610129F0F7FE18
:102AC80020686FF0590129F009FF2068092129F0D1
:102AD80082FF1221206828F037FD20681BF0E2FEF3
:102AE8006FF04041306029F01BFF30686FF04041C3
:102AF80029F02DFF30686FF01C0129F0D8FE3068EE
:102B08006FF0030129F0EAFEDFF86C8230680921D2
:102B180029F061FF994930683CF0DAF94046376896
:102B280037F03BFFC0F307238DF80800C0F30740D8
:102B38008DF809308DF80A00DFF84492384602997A
:102B480000222BF032FE30680022FF212BF03CFEE1
:102B58000022494630682BF03EFE20681BF0A2FE9A
:102B6800884E6FF04041306029F0DAFE30686FF02F
:102B7800404129F0ECFE30686FF0080129F097FE1B
:102B880030686FF0040129F0A9FE3068092129F0A6
:102B980022FF7D4930683CF09BF94046376837F0A2
:102BA800FCFEC0F307238DF80C00C0F307408DF836
:102BB8000D308DF80E000399384600222BF0F5FDF4
:102BC80030680022FF212BF0FFFD002249463068C3
:102BD8002BF001FE20681BF065FE6C4C6FF0404145
:102BE800206029F09DFE20686FF0404129F0AFFE7B
:102BF80020680F2129F05BFE20686FF0020129F0A0
:102C08006DFE634F2068092129F0E5FE61492068BF
:102C18003CF05EF93846266837F0BFFEC0F307235C
:102C28008DF81000C0F307408DF811308DF81200B0
:102C38000499304600222BF0B8FD20680022FF21BD
:102C48002BF0C2FD0022494620682BF0C4FD2868FD
:102C58000BF044F8504C514E20600CF0D3FB206828
:102C6800732129F05DFE2068232129F070FE206879
:102C78006FF07A0129F01BFE20686FF0490129F0F6
:102C88002DFE2068092129F0A6FE1221206828F0CF
:102C98005BFC20681BF006FE6FF04041306029F0B5
:102CA8003FFE30686FF0404129F051FE30686FF008
:102CB800060129F0FCFD3068032129F00FFE306879
:102CC800092129F088FE364930683CF001F96FF097
:102CD8007F40D6F8009037F060FEC0F307238DF8E8
:102CE8001400C0F307408DF815308DF816000599CB
:102CF80048460022DFF8AC902BF057FD30680022E0
:102D0800FF212BF061FD0022494630682BF063FD5E
:102D180020681BF0C7FD244E6FF04041306029F059
:102D2800FFFD30686FF0404129F011FE3068062140
:102D380029F0BDFDDFF874A03068032129F0CEFD2D
:102D48003068092129F047FE514630683CF0C0F848
:102D58006FF07F40D6F800B037F01FFE28E000BFC4
:102D6800A48E0020E76E0700A08E0020A82F040084
:102D78009C8E0020988E0020FBFBFF00E383090057
:102D8800F85E0400948E002004840900908E0020D0
:102D9800FDFDFF00E68309008C8E0020888E002050
:102DA800E9830900A03E0400848E002034860900CF
:102DB800C0F307238DF81800C0F307408DF81930C9
:102DC8008DF81A000699584600222BF0EEFC306860
:102DD8000022FF212BF0F8FC0022494630682BF036
:102DE800FAFC20681BF05EFDCE4E6FF0404130606B
:102DF80029F096FD30686FF0404129F0A8FD306851
:102E0800122129F054FD3068032129F067FD30684C
:102E1800092129F0E0FDC44930683CF059F86FF009
:102E28007F40D6F800B037F0B8FDC0F307238DF81F
:102E38001C00C0F307408DF81D308DF81E0007995F
:102E4800584600222BF0B1FC30680022FF212BF0FD
:102E5800BBFC0022494630682BF0BDFC20681BF003
:102E680021FDB24E6FF04041306029F059FD3068C5
:102E78006FF0404129F06BFD30681F2129F017FDE4
:102E88003068032129F02AFD3068092129F0A3FDC3
:102E9800514630683CF01CF86FF07F40D6F800A02F
:102EA80037F07BFDC0F307238DF82000C0F30740FF
:102EB8008DF821308DF822000899504600222BF019
:102EC80074FC30680022FF212BF07EFC002249466A
:102ED80030682BF080FC20681BF0E4FC944C6FF009
:102EE8004041206029F01CFD20686FF0404129F026
:102EF8002EFD20682B2129F0DAFC2068032129F017
:102F0800EDFC2068092129F066FD8A4920683BF01C
:102F1800DFFF6FF07F40266837F03FFDC0F30723DF
:102F28008DF82400C0F307408DF825308DF8260071
:102F38000999304600222BF038FC20680022FF2136
:102F48002BF042FC0022494620682BF044FC2868FC
:102F58000AF0C4FE784C794E20600CF053FA2068D1
:102F6800A12129F0DDFC2068A92129F0F0FC2068C6
:102F7800062129F09CFC20681E2129F0AFFC20685E
:102F8800092129F028FD1221206828F0DDFA20689F
:102F98001BF088FC6FF04041306029F0C1FC3068BC
:102FA8006FF0404129F0D3FC3068062129F07FFCFE
:102FB80030686FF0060129F091FC3068092129F08A
:102FC8000AFD5F4930683BF083FF4046D6F8009021
:102FD80037F0E3FCC0F307238DF82800C0F307405F
:102FE8008DF829308DF82A000A99484600222BF0DE
:102FF800DCFB30680022FF212BF0E6FB0022514960
:1030080030682BF0E8FB20681BF04CFC4E4E6FF04C
:103018004041306029F084FC30686FF0404129F06D
:1030280096FC30686FF0020129F041FC30682221DB
:1030380029F054FC3068092129F0CDFC4349306857
:103048003BF046FF3846D6F8008037F0A6FCC0F3C0
:1030580007238DF82C00C0F307408DF82D308DF82C
:103068002E000B99404600222BF09FFB306800226F
:10307800FF212BF0A9FB0022354930682BF0ABFB70
:1030880020681BF009F8334C334920603BF096FD6B
:1030980020686FF0404129F043FC20686FF0404100
:1030A80029F055FC20686FF0080129F000FC206821
:1030B800452129F013FC2068092129F08CFC20689F
:1030C800022128F08CFC1021206828F03DFA28689D
:1030D8001AF0E2FF214C224920603BF06FFD206886
:1030E8006FF0404129F01CFC20686FF0404129F046
:1030F8002EFC20687E2129F0DAFB2068632129F064
:10310800EDFB2068092129F066FC2068022128F0DF
:1031180066FC1021206828F017FA28681AF0BCFF0E
:1031280020E000BF808E0020EC8309007C8E002008
:10313800788E0020EF830900748E0020708E0020A6
:10314800F2830900C06904006C8E0020F98309002D
:103158005C640400688E0020C42F0400648E002084
:1031680018300400D24CD34920603BF027FD20687A
:103178006FF0404129F0D4FB20686FF0404129F0FE
:10318800E6FB20686FF0840129F091FB2068642138
:1031980029F0A4FB2068092129F01DFC20680221E0
:1031A80028F01DFC1021206828F0CEF928680AF0C4
:1031B80095FDC14CC14D20600CF024F92068AE216A
:1031C80029F0AEFB2068672129F0C1FB206879212E
:1031D80029F06DFB20686FF0570129F07FFB20680C
:1031E800092129F0F8FB1221206828F0ADF92068A0
:1031F8001BF058FB6FF04041286029F091FB2868CC
:103208006FF0404129F0A3FB28686FF0410129F0D5
:103218004EFB28686FF0030129F060FB286809213C
:1032280029F0D9FBA64928683BF052FE38462E689B
:1032380037F0B3FBC0F307238DF83000C0F3074025
:103248008DF831308DF832000C99304600222BF081
:10325800ACFA0022FF2128682BF0B6FA20680AF0A1
:103268003DFD984D5121286029F05AFB28683021EE
:1032780029F06DFB28686FF0050129F018FB286814
:103288006FF0010129F02AFB2868092129F0A3FB26
:103298001021286828F058F98B482E6837F07DFBF4
:1032A800C0F307238DF83400C0F307408DF835309C
:1032B8008DF836000D99304600222BF034FA0022A2
:1032C800FF2128682BF03EFA4AF6FF602E6837F097
:1032D80064FBC0F307238DF83800C0F307408DF86E
:1032E80039308DF83A000E99002230462BF031FA29
:1032F80000202E6837F051FBC0F307238DF83C00FF
:10330800C0F307408DF83D308DF83E000F993046E8
:1033180000222BF034FA0022FF2128682BF03EFA15
:1033280020681BF0BFFA694E6FF04041306029F009
:10333800F7FA30686FF0404129F009FB30686FF008
:103348001E0129F0B4FADFF888A130686FF0110186
:1033580029F0C4FA3068092129F03DFB514630684C
:103368003BF0B6FD6FF07F40356837F016FBC0F3D1
:1033780007238DF84000C0F307408DF841308DF8E1
:103388004200109928460022524D2BF00EFA306860
:103398000022FF212BF018FA0022294630682BF072
:1033A8001AFA20681BF07EFA4B4E6FF040413060ED
:1033B80029F0B6FA30686FF0404129F0C8FA306851
:1033C800072129F074FA454F30686FF0100129F091
:1033D80085FA3068092129F0FEFA394630683BF051
:1033E80077FD6FF07F40D6F8008037F0D6FAC0F34B
:1033F80007238DF84400C0F307408DF845308DF859
:1034080046001199404600222BF0CFF9306800227F
:10341800FF212BF0D9F90022294630682BF0DBF97F
:1034280020681BF03FFA2E4E6FF04041306029F0C3
:1034380077FA30686FF0404129F089FA30686FF008
:103448001E0129F034FADFF89C9030686FF0010112
:1034580029F044FA3068092129F0BDFA4946306854
:103468003BF036FD6FF07F40D6F8008037F095FAD4
:10347800C0F307238DF84800C0F307408DF84930A2
:103488008DF84A001299404600222BF08EF93068D8
:103498000022FF212BF098F90022294630682BF0F2
:1034A8009AF920681BF0FEF90F4E6FF040411DE0BD
:1034B800608E0020FC2F04005C8E0020588E0020B7
:1034C800FF830900548E0020F06C0900508E002004
:1034D800038409003C3904004C8E0020068409004E
:1034E800488E00200B840900448E0020306029F0AB
:1034F80017FA30686FF0404129F029FA306807213F
:1035080029F0D5F930686FF0010129F0E7F9306842
:10351800092129F060FA394630683BF0D9FC6FF090
:103528007F40D6F8008037F038FAC0F307238DF8CB
:103538004C00C0F307408DF84D308DF84E001399BC
:10354800404600222BF031F930680022FF212BF091
:103558003BF90022294630682BF03DF920681BF022
:10356800A1F9D74E6FF04041306029F0D9F93068A1
:103578006FF0404129F0EBF930686FF01D0129F038
:1035880096F9DFF8408330680D2129F0A7F93068F3
:10359800092129F020FA414630683BF099FC6FF088
:1035A8007F40D6F800B037F0F8F9C0F307238DF85C
:1035B8005000C0F307408DF851308DF8520014992F
:1035C800584600222BF0F1F830680022FF212BF03A
:1035D800FBF80022294630682BF0FDF820681BF024
:1035E80061F9B94C6FF04041206029F099F92068E1
:1035F8006FF0404129F0ABF92068072129F057F90D
:1036080020680D2129F06AF92068092129F0E3F9D9
:10361800394620683BF05CFC6FF07F40266837F045
:10362800BCF9C0F307238DF85400C0F307408DF8A8
:1036380055308DF856001599304600222BF0B5F814
:1036480020680022FF212BF0BFF8002229462068BD
:103658002BF0C1F89D4B9E4C18680AF03FFB206088
:103668000BF0D0FE2068AE2129F05AF920686721B6
:1036780029F06DF92068792129F019F920686FF08F
:10368800250129F02BF92068092129F0A4F9122134
:10369800206827F059FF20681BF004F98D4E6FF061
:1036A8004041306029F03CF930686FF0404129F022
:1036B8004EF930686FF0410129F0F9F830686FF081
:1036C800020129F00BF93068092129F084F98249AF
:1036D80030683BF0FDFB8148D6F800B037F05DF963
:1036E800C0F307238DF85800C0F307408DF8593010
:1036F8008DF85A001699584600222BF056F80022E9
:10370800FF2130682BF060F820680AF0E7FA744E61
:103718005121306029F004F93068302129F017F977
:1037280030686FF0050129F0C2F830686FF00101C8
:1037380029F0D4F83068092129F04DF910213068B2
:1037480027F002FF6748D6F800B037F026F9C0F333
:1037580007238DF85C00C0F307408DF85D308DF8C5
:103768005E001799584600222AF0DDFF0022FF214B
:1037780030682AF0E7FF4AF6FF60D6F800B037F065
:103788000CF9C0F307238DF86000C0F307408DF8EB
:1037980061308DF862001899002258462AF0D9FF46
:1037A8000020D6F800B037F0F8F8C0F307238DF8FA
:1037B8006400C0F307408DF865308DF866001999EC
:1037C800584600222AF0DBFF0022FF2130682AF049
:1037D800E5FF20681BF066F8434E6FF0404130600B
:1037E80029F09EF830686FF0404129F0B0F8306851
:1037F8006FF01C0129F05BF830686FF0100129F0B8
:103808006DF83068092129F0E6F8514630683BF038
:103818005FFB6FF07F40D6F800A037F0BEF8C0F32A
:1038280007238DF86800C0F307408DF869308DF8DC
:103838006A001A99504600222AF0B7FF3068002221
:10384800FF212AF0C1FF0022294630682AF0C3FF71
:1038580020681BF027F8254E6FF04041306029F0B2
:103868005FF830686FF0404129F071F8306807213F
:1038780029F01DF830686FF00F0129F02FF8306833
:10388800092129F0A8F8394630683BF021FB6FF090
:103898007F40D6F800A037F080F8C0F307238DF8F2
:1038A8006C00C0F307408DF86D308DF86E001B99E1
:1038B800504600222AF079FF3068002218E000BF45
:1038C800408E00200E8409003C8E0020A48E00202B
:1038D800388E0020348E002011840900FDFDFF0081
:1038E800308E0020F06C09002C8E0020288E0020DD
:1038F800FF212AF069FF0022294630682AF06BFF71
:1039080020681AF0CFFF8F4E6FF04041306029F0E9
:1039180007F830686FF0404129F019F830686FF007
:103928001C0128F0C4FF30686FF0010128F0D6FFB1
:103938003068092129F04FF8494630683BF0C8FA49
:103948006FF07F40D6F8009037F027F8C0F30723D0
:103958008DF87000C0F307408DF871308DF8720053
:103968001C99484600222AF020FF30680022FF21D7
:103978002AF02AFF0022294630682AF02CFF206806
:103988001AF090FF704E6FF04041306028F0C8FF89
:1039980030686FF0404128F0DAFF3068072128F0DE
:1039A80086FF30686FF0010128F098FF3068092120
:1039B80029F011F8394630683BF08AFA6FF07F40F9
:1039C800D6F8009036F0E9FFC0F307238DF87400AD
:1039D800C0F307408DF875308DF876001D9948467C
:1039E80000222AF0E2FE30680022FF212AF0ECFED5
:1039F8000022294630682AF0EEFE20681AF052FFAD
:103A0800524E6FF04041306028F08AFF30686FF006
:103A1800404128F09CFF30686FF01C0128F047FFF8
:103A280030680D2128F05AFF3068092128F0D3FFAB
:103A3800414630683BF04CFA6FF07F40D6F8008082
:103A480036F0ABFFC0F307238DF87800C0F30740CA
:103A58008DF879308DF87A001E99404600222AF0B8
:103A6800A4FE30680022FF212AF0AEFE002229467B
:103A780030682AF0B0FE20681AF014FF344E6FF058
:103A88004041306028F04CFF30686FF0404128F02A
:103A98005EFF3068072128F00AFF30680D2128F002
:103AA8001DFF3068092128F096FF394630683BF041
:103AB8000FFA6FF07F40376836F06FFFC0F30723C7
:103AC8008DF87C00C0F307408DF87D308DF87E00BE
:103AD8001F99384600222AF068FE30680022FF212C
:103AE8002AF072FE0022294630682AF074FE206807
:103AF8001AF0D2FA174C184920603BF05FF820689A
:103B08006FF0404128F00CFF20686FF0404128F02A
:103B18001EFF20686FF0410128F0C9FE20686FF091
:103B28001A0128F0DBFE2068092128F054FF2068DC
:103B3800022127F054FF1021206821B0BDE8F04F82
:103B480027F002BD248E0020208E00201C8E00202D
:103B5800188E0020148E00206C3004002DE9F043EC
:103B680000208BB00AF0BAF8CE4E1021306027F052
:103B7800EBFC30681AF090FACB4CCC4920603BF053
:103B88001DF820686FF0404128F0CAFE20686FF0E9
:103B9800404128F0DCFE2068092128F01CFF20683D
:103BA800022127F01CFF1021206827F0CDFC306887
:103BB8000AF094F8BE4CBF4D20600BF023FC20683F
:103BC8008C2128F0ADFE20683C2128F0C0FE20683A
:103BD800062128F06CFE20686FF0080128F07EFEB0
:103BE8002068092128F0F7FE1221206827F0ACFC94
:103BF80020681AF057FE6FF04041286028F090FEC8
:103C080028686FF0404128F0A2FE28686FF02B0169
:103C180028F04DFE28684FF0FF3128F05FFEDFF8EE
:103C280098922868092128F0D6FEA44928683BF014
:103C38004FF948462F6836F0B0FEC0F307238DF8D9
:103C48000400C0F307408DF805308DF8060001998F
:103C5800384600229A4F2AF0A8FD28680022FF2142
:103C68002AF0B2FD0022394628682AF0B4FD2068FF
:103C78001AF018FE934D6FF04041286028F050FE6E
:103C880028686FF0404128F062FE28686FF008014C
:103C980028F00DFE28686FF0040128F01FFE286840
:103CA800092128F098FE884928683BF011F9484610
:103CB800D5F8008036F071FEC0F307238DF80800B0
:103CC800C0F307408DF809308DF80A000299404684
:103CD80000222AF06AFD28680022FF212AF074FDDC
:103CE8000022394628682AF076FD20681AF0DAFDA5
:103CF800764C6FF04041206028F012FE20686FF08B
:103D0800404128F024FE20681F2128F0D0FD2068BB
:103D18004FF0FF3128F0E2FD2068092128F05BFE12
:103D28006B4920683BF0D4F86A48256836F035FEC0
:103D3800C0F307238DF80C00C0F307408DF80D3051
:103D48008DF80E000399284600222AF02EFD2068DF
:103D58000022FF212AF038FD0022394620682AF087
:103D68003AFD306809F0BAFF5B4C5C4D20600BF0FF
:103D780049FB2068732128F0D3FD2068232128F00F
:103D8800E6FD20686FF00B0128F091FD20681A21EC
:103D980028F0A4FD2068092128F01DFE12212068C2
:103DA80027F0D2FB20681AF07DFD6FF040412860B3
:103DB80028F0B6FD28686FF0404128F0C8FD286853
:103DC8006FF0150128F073FD2868042128F086FD9E
:103DD8002868092128F0FFFD414928683BF078F858
:103DE8006FF07F402F6836F0D8FDC0F307238DF8B9
:103DF8001000C0F307408DF811308DF812000499B7
:103E080038460022374F2AF0D0FC28680022FF21CC
:103E18002AF0DAFC0022394628682AF0DCFC2068FF
:103E28001AF040FD304D6FF04041286028F078FDD1
:103E380028686FF0404128F08AFD28686FF0030178
:103E480028F035FDDFF8A4802868032128F046FD16
:103E58002868092128F0BFFD414628683BF038F85A
:103E68006FF07F40D5F8009036F097FDC0F3072338
:103E78008DF81400C0F307408DF815308DF8160042
:103E88000599484600222AF090FC28680022FF2164
:103E98002AF09AFC0022394628682AF09CFC2068FF
:103EA80026E000BFE48E0020E08E0020A82F04004A
:103EB800DC8E0020D88E0020FBFBFF00E383090086
:103EC800C0690400D48E002004840900D08E00202C
:103ED800E6830900FDFDFF00CC8E0020C88E00207F
:103EE800E983090068490400C48E0020348609006B
:103EF8001AF0D8FCAF4D6FF04041286028F010FD53
:103F080028686FF0404128F022FD28680C2128F02D
:103F1800CEFC2868042128F0E1FC2868092128F053
:103F28005AFDA54928683AF0D3FF6FF07F40D5F8CD
:103F3800009036F032FDC0F307238DF81800C0F367
:103F480007408DF819308DF81A0006994846002266
:103F58002AF02BFC28680022FF212AF035FC0022D9
:103F6800394628682AF037FC20681AF09BFC934DE4
:103F78006FF04041286028F0D3FC28686FF040417A
:103F880028F0E5FC28681F2128F091FC2868032107
:103F980028F0A4FC2868092128F01DFD414628685E
:103FA8003AF096FF6FF07F40D5F8008036F0F5FCC8
:103FB800C0F307238DF81C00C0F307408DF81D30AF
:103FC8008DF81E000799404600222AF0EEFB28686B
:103FD8000022FF212AF0F8FB0022394628682AF03F
:103FE800FAFB20681AF05EFC754C6FF040412060C7
:103FF80028F096FC20686FF0404128F0A8FC206863
:10400800302128F054FC2068032128F067FC206840
:10401800092128F0E0FC6B4920683AF059FF6FF05D
:104028007F40256836F0B9FCC0F307238DF82000DF
:10403800C0F307408DF821308DF8220008992846F2
:1040480000222AF0B2FB20680022FF212AF0BCFBE4
:104058000022394620682AF0BEFB306809F03EFE8F
:10406800594C20600BF0CEF920685B2128F058FCF1
:104078002068282128F06BFC2068022128F017FC12
:1040880020686FF0540128F029FC2068092128F0E5
:10409800A2FC1221206827F057FA20681AF002FCC7
:1040A8004A4C6FF04041206028F03AFC20686FF0DD
:1040B800404128F04CFC20686FF0050128F0F7FB20
:1040C80020684FF0FF3128F009FC2068092128F00A
:1040D80082FC3F4920683AF0FBFE3E48256836F0EE
:1040E8005CFCC0F307238DF82400C0F307408DF86B
:1040F80025308DF826000999284600222AF055FB1C
:1041080020680022FF212AF05FFB00223249206844
:104118002AF061FB306819F0BFFF304C304920604D
:104128003AF04CFD20686FF0404128F0F9FB206818
:104138006FF0404128F00BFC20687E2128F0B7FB87
:104148002068632128F0CAFB2068092128F043FC75
:104158002068022127F043FC1021206827F0F4F999
:10416800306819F099FF1F4C1F4920603AF026FD6E
:1041780020686FF0404128F0D3FB20686FF0404181
:1041880028F0E5FB20686FF0840128F090FB206898
:10419800642128F0A3FB2068092128F01CFC206872
:1041A800022127F01CFC102120680BB0BDE8F04369
:1041B80027F0CAB9C08E0020EC830900BC8E00200D
:1041C800B88E0020EF830900B48E0020B08E002046
:1041D80016840900FEFEFE0094590400AC8E0020EF
:1041E80018300400A88E0020FC2F04002DE9F043AD
:1041F80000208DB009F072FDCE4D1021286027F007
:10420800A3F9286819F048FFCB4CCC4920603AF054
:10421800D5FC20686FF0404128F082FB20686FF0E1
:10422800404128F094FB2068092128F0D4FB20683D
:10423800022127F0D4FB1021206827F085F928688F
:1042480009F04CFDBE4CBF4E20600BF0DBF8206837
:104258008C2128F065FB2068272128F078FB20684E
:104268006FF03C0128F023FB20686FF0590128F01B
:1042780035FB2068092128F0AEFB1221206827F0C1
:1042880063F920681AF00EFB6FF04041306028F0A7
:1042980047FB30686FF0404128F059FB30686FF0F9
:1042A8002B0128F004FB30684FF0FF3128F016FB93
:1042B800DFF894923068092128F08DFBA349306813
:1042C8003AF006FE4846376836F067FBC0F3072326
:1042D8008DF80400C0F307408DF805308DF806000E
:1042E8000199384600229A4F2AF05FFA3068002276
:1042F800FF212AF069FA0022394630682AF06BFA61
:1043080020681AF0CFFA934E6FF04041306028F0E1
:1043180007FB30686FF0404128F019FB30686FF0F8
:10432800080128F0C4FA30686FF0040128F0D6FAC2
:104338003068092128F04FFB874930683AF0C8FDFA
:104348004846D6F8008036F028FBC0F307238DF8DE
:104358000800C0F307408DF809308DF80A0002996B
:10436800404600222AF021FA30680022FF212AF074
:104378002BFA0022394630682AF02DFA20681AF004
:1043880091FA764C6FF04041206028F0C9FA206815
:104398006FF0404128F0DBFA20681F2128F087FAE7
:1043A80020684FF0FF3128F099FA2068092128F099
:1043B80012FB6B4920683AF08BFD6A48266836F094
:1043C800ECFAC0F307238DF80C00C0F307408DF812
:1043D8000D308DF80E000399304600222AF0E5F9D9
:1043E80020680022FF212AF0EFF9002239462068D0
:1043F8002AF0F1F9286809F071FC5B4C5B4E2060EB
:104408000BF000F82068732128F08AFA206823212D
:1044180028F09DFA2068232128F049FA20686FF0D7
:104428004F0128F05BFA2068092128F0D4FA1221FC
:10443800206827F089F820681AF034FA6FF04041B4
:10444800306028F06DFA30686FF0404128F07FFA4C
:1044580030686FF0150128F02AFA3068042128F036
:104468003DFA3068092128F0B6FA414930683AF037
:104478002FFD6FF07F40376836F08FFAC0F30723BF
:104488008DF81000C0F307408DF811308DF8120038
:10449800049938460022374F2AF087F930680022FD
:1044A800FF212AF091F90022394630682AF093F961
:1044B80020681AF0F7F9304E6FF04041306028F06C
:1044C8002FFA30686FF0404128F041FA30686FF0F9
:1044D800030128F0ECF9DFF8A4803068032128F004
:1044E800FDF93068092128F076FA414630683AF03B
:1044F800EFFC6FF07F40D6F8009036F04EFAC0F32C
:1045080007238DF81400C0F307408DF815308DF897
:1045180016000599484600222AF047F9306800221B
:10452800FF212AF051F90022394630682AF053F960
:10453800206825E0408F00203C8F0020A82F040031
:10454800388F0020348F0020FBFBFF00E383090035
:10455800C0690400308F0020048409002C8F0020DB
:10456800E6830900FDFDFF00288F0020248F00202E
:10457800E983090068490400208F00203486090077
:104588001AF090F9CD4E6FF04041306028F0C8F92C
:1045980030686FF0404128F0DAF930680C2128F0D3
:1045A80086F93068042128F099F93068092128F043
:1045B80012FAC34930683AF08BFC6FF07F40D6F8A6
:1045C800009036F0EAF9C0F307238DF81800C0F31D
:1045D80007408DF819308DF81A00069948460022D0
:1045E8002AF0E3F830680022FF212AF0EDF80022D3
:1045F800394630682AF0EFF820681AF053F9B14EBE
:104608006FF04041306028F08BF930686FF040411E
:1046180028F09DF930681F2128F049F930680321F6
:1046280028F05CF93068092128F0D5F9414630684E
:104638003AF04EFC6FF07F40D6F8008036F0ADF9C6
:10464800C0F307238DF81C00C0F307408DF81D3018
:104658008DF81E000799404600222AF0A6F8306817
:104668000022FF212AF0B0F80022394630682AF0EB
:10467800B2F820681AF016F9934C6FF040412060A8
:1046880028F04EF920686FF0404128F060F9206862
:10469800302128F00CF92068032128F01FF9206840
:1046A800092128F098F9894920683AF011FC6FF03F
:1046B8007F40266836F071F9C0F307238DF8200093
:1046C800C0F307408DF821308DF822000899304654
:1046D80000222AF06AF820680022FF212AF074F8E4
:1046E8000022394620682AF076F8286809F0F6FA98
:1046F800774C784E20600AF085FE20686B2128F000
:104708000FF92068252128F022F920686FF02D0183
:1047180028F0CDF82068452128F0E0F82068092124
:1047280028F059F91221206826F00EFF206819F0A8
:10473800B3FC694930603AF041FA30686FF04041A3
:1047480028F0EEF830686FF0404128F000F9306842
:104758006FF01C0128F0ABF830684FF0FF3128F0FB
:10476800BDF83068092128F036F93068022127F0B1
:1047780036F91021306826F0E7FE20681AF092F822
:10478800564C6FF04041206028F0CAF820686FF05E
:10479800404128F0DCF820680E2128F088F82068CD
:1047A800002128F09BF82068092128F014F94C49C9
:1047B80020683AF08DFB6FF07F40266836F0EDF800
:1047C800C0F307238DF82400C0F307408DF8253087
:1047D8008DF82600434F30460999002229F0E5FF5D
:1047E80020680022FF2129F0EFFF002239462068C7
:1047F80029F0F1FF286809F071FA3B4C3B4E206024
:104808000AF000FE20687A2128F08AF8206828211A
:1048180028F09DF82068452128F049F820686FF0B5
:104828001D0128F05BF82068092128F0D4F812212E
:10483800206826F089FE206819F02EFC2C4930608B
:104848003AF0BCF930686FF0404128F069F83068F8
:104858006FF0404128F07BF83068222128F027F8D3
:1048680030686FF0010128F039F83068092128F024
:10487800B2F83068022127F0B2F81021306826F02B
:1048880063FE20681AF00EF81A4C6FF04041206061
:1048980028F046F820686FF0404128F058F8206862
:1048A8006FF0100128F003F820684FF0FF3128F06E
:1048B80015F82068092128F08EF81DE01C8F0020CB
:1048C800EC830900188F0020148F0020EF83090063
:1048D800108F00200C8F002034300400088F002037
:1048E8001D84090030540400048F0020008F00202C
:1048F80050300400FC8E00207A4920683AF0E8FA2B
:104908007948266836F049F8C0F307238DF828005F
:10491800C0F307408DF829308DF82A000A993046EF
:10492800002229F042FF20680022FF2129F04CFFD5
:1049380000223946206829F04EFF286809F0CEF990
:104948006A4C6B4E20600AF05DFD20689C2127F0C0
:10495800E7FF20681A2127F0FAFF2068102127F0C6
:10496800A6FF2068112127F0B9FF2068092128F047
:1049780032F81221206826F0E7FD206819F08CFB38
:104988005C4930603AF01AF930686FF0404127F01E
:10499800C7FF30686FF0404127F0D9FF30686FF0EB
:1049A8003C0127F084FF30686FF0010127F096FF83
:1049B8003068092128F00FF83068022127F00FF835
:1049C8001021306826F0C0FD206819F06BFF4A4CB2
:1049D8006FF04041206027F0A3FF20686FF040414E
:1049E80027F0B5FF20680B2127F061FF20686FF0E2
:1049F800010127F073FF2068092127F0ECFF3F49E8
:104A080020683AF065FA6FF07F40266835F0C5FFF8
:104A1800C0F307238DF82C00C0F307408DF82D3024
:104A28008DF82E000B993046002229F0BEFE206832
:104A38000022FF2129F0C8FE00223946206829F00B
:104A4800CAFE286819F028FB2D4C2E4920603AF040
:104A5800B5F820686FF0404127F062FF20686FF0DA
:104A6800404127F074FF20687E2127F020FF20684E
:104A7800632127F033FF2068092127F0ACFF206865
:104A8800022126F0ACFF1021206826F05DFD286881
:104A980019F002FB1C4C1D4920603AF08FF8206881
:104AA8006FF0404127F03CFF20686FF0404127F04D
:104AB8004EFF20686FF0840127F0F9FE206864211A
:104AC80027F00CFF2068092127F085FF20680221C4
:104AD80026F085FF102120680DB0BDE8F04326F0D0
:104AE80033BD00BF16840900FEFEFE00F88E0020CC
:104AF800F48E0020E02F0400F08E002021840900AD
:104B0800EC8E002018300400E88E0020FC2F0400F2
:104B18001FB513F015FE1F4B18600BF0F5FD04468A
:104B2800052013F0AFFEC0F307238DF808008DF8B9
:104B38000930C0F3074300208DF80A3013F0A2FEB5
:104B4800C0F307238DF80D30C0F307438DF80E30FE
:104B5800114B8DF80C00DDE902120093204600236A
:104B680015F062F9014620460CF00AF8FEF7F6FF48
:104B7800FFF73CFBFDF74EFFFDF7D6FA002009F0E2
:104B8800ADF8064B1860064B186804B0BDE8104035
:104B98002AF0D9BAB88D002004440400448F0020BC
:104BA800E48E00202DE9F04F046885B0A2686448BF
:104BB800B2F5004F2CBF08230423551C0833A5EB7E
:104BC800D305B5FA85F5C5F120052B46894621465A
:104BD80022F087F95B4822F084F900264FF0010B98
:104BE80004F10C0A5AF8043F53B300271946B84693
:104BF80020460393029122F00BF9804538BF804686
:104C080002990322204622F0F8F8039B01468342CA
:104C180007F10107ECD1A3680BFA06F2B3F5004FD0
:104C280034BF042108214FEAC8030831013ACDE90D
:104C3800008302EBD1023B463146434822F051F94A
:104C48000136B542CED1B9F1000F36D03F4822F037
:104C580048F90025DFF8F88001222946204622F08D
:104C6800CCF829460746204622F0D2F8FB0706462C
:104C78001FD4A368B3F5004F1DD3012814BF2D27F7
:104C88002E2700222946204622F0B7F8AB19281A09
:104C98000193009033463A462946404622F021F9CE
:104CA800A3689D4209D02946204622F0B1F8054460
:104CB800D2E72A27E5E72D27E3E70021204622F05F
:104CC800A7F8002605463746D4F8088045451ED380
:104CD800B8F5004F34BF042108214FF47A7001EB76
:104CE800C801BB19CB1A4A0800FB03220A20B2FBF1
:104CF800F1F2B2FBF0F100FB11221648CDE90012E7
:104D08003246394622F0EDF805B0BDE8F08F0122B1
:104D18002946204622F071F881462946204622F08D
:104D280077F819F0010F03D006EBC0060544CDE76C
:104D3800B8F5004F01D30128F8D007EBC007F5E715
:104D48002984090056840900118509002B8509006A
:104D580039850900678509002DE9F04F91B0009366
:104D680002F004030293C2F3C20301338407054629
:104D78000E46DDF868800392059340F0BB81041D60
:104D880030B1072909D86FF01B0011B0BDE8F08FCA
:104D980001F007063444C6F10806009B4FF00009ED
:104DA8004FF0040A591E4FF0FF334F460193CB468C
:104DB8005346CDF810900DB1009A2260059800284E
:104DC80000F3E8809848009A824203D397488242C9
:104DD800C0F0E080039AA4EB050E92074FEA9E000C
:104DE80000F103810F2F00F2B180002D00F0058142
:104DF80007F140020DEB020C019A0CF8200C0CF89C
:104E0800102C049801300490E7E07A285DD84B28EC
:104E18000ED8472859D829282DD8252852D054D813
:104E280020287AD02338D0F1000B4BEB000B74E02C
:104E38004C382E2849D8DFE800F0704848484848E0
:104E48004848484848484B484848484848484859C6
:104E5800484B4B595959704B6D487048184B184876
:104E680048827F4B48484B487F0000204FF0000B9A
:104E78004FF0040A38E001222A38C0B202FA00F0E2
:104E880010EA0E0F49D110F0625C2FD110EA020B24
:104E980043D06046013C5444B4FBFAF40AFB04F4E2
:104EA800002D61D0A3EB050CA444B4453FF66BAFCD
:104EB800002868D1042B47D158F8043B2360042309
:104EC80004342AE0019A013A01924FF0000B24E0E1
:104ED80011F8010C6C2834D1002011F8023C8346EB
:104EE8006C2BC5D14FF0080A5346D3E708F10708E1
:104EF80028F00708073424F00704F8E802AB35B1B6
:104F080006982044B0423FF63EAFC4E900AB4FF0EC
:104F1800000B08344FF0080A534611F8010F002817
:104F280078D0BBF1000F7FF470AF2528F5D14FF092
:104F3800010B019B013301934FF0040AECE758463B
:104F480094E700208346A5E7082B02D06FF01500F0
:104F58001BE708F1070828F00708F8E80223C4E966
:104F6800002308230834D8E768B9042B02D108F1D4
:104F78000408A4E7082BE9D108F1070828F0070876
:104F880008F10808EDE7059A013A059258F8042B4C
:104F9800009210E7039A900720D54FF0010CA4EB7C
:104FA800050E4FEA9E00BEF5007FCFD20F2FCDD859
:104FB800F5B107F140020DEB020E019AC0B20EF8EE
:104FC800200C0EF8102CBCF1000F3FF41AAF60F063
:104FD8007F000EF8200C09F101090137C5F108021C
:104FE8004FF6DA7E0434069297E74FF0000CDAE7C2
:104FF800BCF1000F01D00136EFE702980236002815
:10500800EBD10098CDE90631FCF738F8DDE9063137
:105018000644E2E7631BB3F5806F97D245B9A6F162
:105028000804E018B1E600BF74220400E4E30D00B0
:10503800029A9B0828602B709DF81030C2B1EB7063
:1050480085F80290B9F1000F05D0002208A8C5F133
:10505800010C97420ED14FF0000AC5F101030DF182
:10506800200801930DF1300B574512D1601B8CE6D7
:105078006B70E5E710F8013B190608D50CEB040E38
:10508800B64503F07F033FF67EAE04F8013B0132DC
:10509800DFE7B9F1000F03D098F90020002A17DBE9
:1050A800029BD3B11AF80B2004F8012B0022019BB4
:1050B80018191044B0423FF666AE98F800000099FF
:1050C80004F8010B204603923CF079FE039A14443D
:1050D8000AF1010A08F10108C6E798F8002055F816
:1050E80022300093029B009845F82230FBF7C6FF58
:1050F800421CDCE76FF00D0047E600BF70B51F4BA0
:1051080082689A4215DDD0E90016013392FBF3F369
:10511800012976F100054FEAE3741CDAC91844EB5B
:105128000604C0E90014164901FB0323836001202B
:1051380070BD002AFBDAD0E90041124E9B1A002903
:10514800B3FBF6F310DA01F100459C4275F1000556
:105158000ADA0020ECE7CD439D426FF00045A5EB4D
:105168000605A541DADAF4E706FB0322E41A61F141
:105178000001C0E900418260D9E700BFFFC99A3B3E
:10518800003665C400CA9A3B30B50446EFF3118572
:10519800202383F31288BFF36F8F044B0FCB84E86F
:1051A8000F0085F31188BFF36F8F30BD080400200E
:1051B80001281FB50C4605D0042822D06FF0150031
:1051C80004B010BD3CF059FD174AC30BC0F30E00E4
:1051D800A0FB0202C00B43EA414340EA4240C90B2C
:1051E800C4E90031A0606846FFF7CEFF6946204653
:1051F80021F045FE18B90D4B0FCB84E80F000020B5
:10520800DEE73CF03AFD084AC30BC0F30E00A0FBF2
:105218000202C00B43EA414340EA4240C90BC4E9D9
:105228000031A060EBE700BF00CA9A3B802C040065
:1052380001287FB50C4634D18A681B4B9A4230D876
:105248003CF01BFD6D46C20B42EA414252424FEA16
:10525800D13363EB4303CDE90023144AC0F30E00B6
:10526800A0FB0202C30B43EA42435B422846029377
:10527800FFF744FF2146284621F001FEEFF311868F
:10528800202383F31288BFF36F8F95E80F00084C33
:1052980084E80F0086F31188BFF36F8F002004B0F5
:1052A80070BD6FF01500FAE7FFC99A3B00CA9A3B38
:1052B80008040020014B1860704700BF0000002060
:1052C80080B505460E46174698461FF099F80346DE
:1052D8003CF0C2FF0446DFF81890424649F8003017
:1052E80039463046A84754F8090003F045FE00BF88
:1052F800080000002DE9F84340F26C734469056921
:10530800E1170135E41841F10001022D8CBF00239B
:105318000123E41AC76861F100010029064607F174
:10532800FF374EDA6FF4C7704FF4C87200232018A5
:1053380061F10001FBF726FE244B4FF03C0E03FB06
:105348000044D6E900834FEAE37C99466346022D80
:1053580002468CBF6FF002000920B6680544C6FB00
:105368000E93A9FB0EC60EFB036640F26D1E992034
:10537800A3080EFB04333B44642745430520B4FBD4
:10538800F7F40235B5FBF0F51B1B114C1CEB080CB0
:10539800A2FB042004FB01012B4446EBE876981895
:1053A8000C4A41F1000380180B4A63F10003A0FB8B
:1053B800020102FB031110EB0C0041EB0601BDE8F2
:1053C800F8834FF4C87200232046B3E770FEFFFF4E
:1053D800B13A02009405F5FF8051010010B5FFF7BE
:1053E80089FF002402463CF037FF0B46024944502F
:1053F8001046194610BD00BF0C0000002DE9F0470B
:10540800058B04462807904611D4022905F00705A4
:1054180040F0CC80204621F092FD78B10138218BF4
:10542800042811D8DFE800F0C2106D859500012925
:105438000CBF45F0100545F02005258388F3118839
:10544800BFF36F8FBDE8F08701F0070AAA4500F0A7
:10545800A5800027B9463E46A368002B00F0BC8013
:1054680041F00801218388F31188BFF36F8FA16889
:10547800002900F0BA800D68002900F0B680334694
:1054880052462046D1F80480C047002D76D02B68BC
:1054980029461D46F0E701F007035A1F012A1BD8C9
:1054A800002221F00701062B276889B2C4E90022EF
:1054B80009D13B4603E0628B013262831B68002BF3
:1054C800F9D141F002012046218321F038FD00285E
:1054D8007AD041F0200176E0042B0AD121F00701AF
:1054E80089B22046218321F02AFD10B141F0200124
:1054F8002183218B01F0070AAA454FD00027B9461E
:10550800AAE7236921F0070141F00601062DD3F827
:10551800009021832DD1B9F1000F3FD041F008014F
:10552800218388F31188BFF36F8F20463949C84714
:1055380029E021F00701236941F0040189B2042D13
:10554800D3F804902183E6D000274FF0040A3E46A2
:1055580082E721F00701236941F0050189B2052D91
:10556800D3F808902183D6D000274FF0050A3E468D
:1055780072E700274FF0060A3E466DE72B4687E79D
:10558800B9F1000FD1D1EFF31188202383F31288EA
:10559800BFF36F8F238B23F008032383258BEA0641
:1055A8002ED525F01003238305F007056669218BA6
:1055B800002EBFF670AF00232768C4E9003321F03E
:1055C800070141F001012183218B4FF0000901F00F
:1055D800070AAA457FF440AF002F9CD041F008018C
:1055E800218388F31188BFF36F8F002FC8D03D68DF
:1055F800394633465246204621F0CDFC2F46F4E783
:10560800AB067FF51BAF25F02003238305F00705C4
:1056180000E700BFCB6F02002DE9F84F8146304804
:105628000F4621F0F9FD064670B92E4C0546A046F6
:105638004FF0010ADFF8B0B05C4507D3B9F1000FAD
:1056480002D04FF0010AFDB9BDE8F88F237B83B182
:105658002368DB680BB120469847636883F806A087
:1056680023681B6943B9636804222046196821F03E
:10567800FCFD01361034DFE7204698470028F2D0B9
:105688000AFA06F31D43F4E7A94695FAA5F4B4FA15
:1056980084F40AFA04F3260108EB04146FEA030BF6
:1056A80025EA0305237B63B158F806301B6993B9D3
:1056B8004644736804222046196809EA0B0921F058
:1056C800D4FD002DE1D127B14FF4A47000213CF0A6
:1056D80025FA4D46B7E7204698470028F1D1E7E775
:1056E800508F00208C2A04009C2A040008B5034629
:1056F80008462BB1044A136000F072FB002008BD75
:105708006FF01500FBE700BF0400002000230D4ADE
:1057180010B513700C4A4FF4004113600B4A0C4843
:105728001360FFF7E3FF00F08FF80A4B0A491846A9
:105738008B4200D310BD1A1A5C6812110132227113
:105748001033F5E7A2DE0220488F00204C8F00209E
:105758001D7202008C2A04009C2A040070B50B4DAF
:10576800297841B90120FFF757FF094C094EB44287
:1057780002D301232B7070BD63685B791BB123686A
:1057880020469B6898471034F1E700BFA2DE02204C
:105798008C2A04009C2A040010B50446064821F00F
:1057A8003BFD3CB1054BD3E8EF1F0139C3E8E21FCD
:1057B800002AF8D110BD00BF488F00204C8F002070
:1057C8002DE9F041164B05461B689847154CDFF844
:1057D8005880A860444501D3BDE8F08163685B79CF
:1057E8003BB129784B0706D52368294620461B6814
:1057F80098471034EEE728462E88C1F3C20700F018
:1058080053F9C6F382160246002EEDD00028EBDBD2
:1058180001233946204600F0C7F8B042E9D3E3E750
:10582800040000208C2A04009C2A0400044A054B2A
:105838009B1AB1EBD30F34BF52F8310000207047E8
:10584800A42904008C2A040000210B480B4B30B516
:105858001B1A0B4CDB080430994200D130BD10F8FC
:105868003120256802F0070225F007052A4344F88D
:10587800042B0131F0E700BFA42904008C2A04009E
:10588800F4020020F8B5064600240A4F0A4DED1B25
:10589800ED08AC4203D14FF0FF342046F8BD57F86D
:1058A800340020B13146FBF7D7FB0028F5D001348E
:1058B800EFE700BFA42904008C2A040000282DE982
:1058C800F047884615461F461DDA4FF0000A544631
:1058D800DFF89090244EA6EB09063609B24509F187
:1058E800100902D12046BDE8F08759F80C0C3B4658
:1058F8002A4641460079FFF7E1FF844238BF044653
:105908000AF1010AEAE7194B194AD21AB5EBD20F84
:1059180026D203EBC5031C79BC4228BF3C460722AC
:10592800144EC0B200EB400056F82530824023EAFE
:10593800020304F00702824013430021032223FAE2
:1059480002F000F00700814202F1030238BF01466D
:105958001E2AF4D123F007030B4346F82530C1E78C
:105968000024DCE78C2A04009C2A0400A4290400F3
:105978008C2A0400F4020020F8B506460F460024DD
:10598800074D084BED1AED08AC4200D3F8BD0021D5
:1059980022B23B463046013421F05FFCA4B2F3E763
:1059A8008C2A0400A429040070B14168097973B1F4
:1059B800002A17DBCBB20C4903EB430351F8220052
:1059C800D84000F0070070474FF0FF31EFE7074974
:1059D8000748401AB2EBD00F3ABF01EBC201087971
:1059E8001846704704207047F4020020A4290400D8
:1059F8008C2A04002DE9F04F87B004AF0446D7E99C
:105A08000EA90E46934698463D6BBAF1000F22D078
:105A1800C7F80490CDF800901021534600207A6B07
:105A2800FFF79AF9B0F5006F014615D31C490B68CA
:105A380013F0060F0BD040F2FF730393194B0222A9
:105A4800029300231846CDE9003321F044FC0C37BB
:105A5800BD46BDE8F08F514604F007040BF0070B74
:105A6800E40044EA8B1444EA412444EA0554173517
:105A78000D4425F00705ADEB050D04ADBAF1000F97
:105A880007D0CDF8009053467A6B05F11000FFF768
:105A980063F9434622463146284621F003FCD6E7FF
:105AA80038030020CD850900406820B1034BC01A97
:105AB80040F38F0070474FF0FF307047F40200202A
:105AC8000EB403B503AB53F8042B01460448019305
