:020000040000FA
:10000000A84E0320D1A100009D520300BDA1000015
:10001000BDA10000BDA10000BDA10000BDA1000068
:100020000000000000000000000000004DA30000E0
:10003000BDA1000000000000E5A20000BDA100007D
:10004000E1A40000E1A40000E1A40000E1A400009C
:10005000E1A40000E1A40000E1A40000E1A400008C
:10006000E1A40000E1A40000E1A40000E1A400007C
:10007000E1A40000E1A40000E1A40000E1A400006C
:10008000E1A40000E1A40000E1A40000E1A400005C
:10009000E1A40000E1A40000E1A40000E1A400004C
:1000A000E1A40000E1A40000E1A40000E1A400003C
:1000B000E1A40000E1A40000E1A40000E1A400002C
:1000C000E1A40000E1A40000E1A40000E1A400001C
:1000D000E1A40000E1A40000E1A40000E1A400000C
:1000E000E1A40000E1A40000E1A40000E1A40000FC
:1000F000E1A40000E1A40000E1A40000E1A40000EC
:10010000E1A40000E1A40000E1A40000E1A40000DB
:10011000E1A40000E1A40000E1A40000E1A40000CB
:10012000E1A40000E1A40000E1A40000E1A40000BB
:10013000E1A40000E1A40000E1A40000E1A40000AB
:10014000E1A40000E1A40000E1A40000E1A400009B
:04015000E1A4000026
:1001580080EA101404F0F01480EA0410604081EA88
:10016800111404F0F01481EA0411614082EA1214B7
:1001780004F0F01482EA0412624083EA131404F0D3
:10018800F01483EA0413634080EA102404F47F44E3
:1001980080EA0420604081EA112404F47F4481EA63
:1001A8000421614082EA122404F47F4482EA042292
:1001B800624083EA132404F47F4483EA04236340FF
:1001C80081EA500404F0553480EA4400614083EA2F
:1001D800520404F0553482EA4402634082EA9004EF
:1001E80004F0333480EA8400624083EA910404F026
:1001F800333481EA84016340704700BF82EA900487
:1002080004F0333480EA8400624083EA910404F005
:10021800333481EA8401634081EA500404F05534A0
:1002280080EA4400614083EA520404F0553482EACB
:100238004402634080EA102404F47F4480EA0420E6
:10024800604081EA112404F47F4481EA042161407A
:1002580082EA122404F47F4482EA0422624083EA98
:10026800132404F47F4483EA0423634080EA1014CF
:1002780004F0F01480EA0410604081EA111404F0DC
:10028800F01481EA0411614082EA121404F0F014B7
:1002980082EA0412624083EA131404F0F01483EA39
:1002A80004136340704700BF2DE9F14F94464FEAAD
:1002B800930B8A68CB6808684968FFF749FF0BF118
:1002C800060E33E083EA134480EA134582EA1347B3
:1002D80046BA96EA3444604000F00F1684EA0634C1
:1002E80020F00F1684EA161054BA94EA01067240F8
:1002F80002F00F1486EA043622F00F1486EA14126C
:100308004CBA6540694001F00F1485EA043521F0C4
:100318000F1485EA14115CBA67407B4003F00F1490
:1003280087EA043723F00F1487EA1413BCE8F000B7
:100338006040694072407B4000F0E03400F01035C6
:1003480000F00F3040EA540040EAC50080EA90040B
:1003580004F0332480EA8400604001F0E03401F0C6
:10036800103501F00F3141EA540141EAC50181EA33
:10037800910404F0332481EA8401614002F0E034FE
:1003880002F0103502F00F3242EA540242EAC50286
:1003980082EA920404F0332482EA8402624003F081
:1003A800E03403F0103503F00F3343EA540343EA13
:1003B800C50383EA930404F0332483EA8403634087
:1003C80081EA324787EA134581EA354690EA06040E
:1003D80084EA034B82EA1B4280EA044484EA054427
:1003E80083EA144A85EA14448BEA044B84EA3744C6
:1003F80081EA0B4181EA164104EA0A00454082EA93
:1004080004082BEA080041408AEA0B0602EA0600C3
:1004180084EA34438AEA3A4603EA060778404540C4
:10042800414088EA38478BEA3B4007EA000985EAF9
:10043800090583EA0709464006EA0906714085EA84
:10044800010005EA3546464006EA314181EA304175
:1004580081EA364606EA304686EA3546344008EAF6
:10046800010886EA01052A4086EA364003405A40D8
:1004780081EA31431F407C4080EA030709EA070903
:1004880088EA0908544088EA020806EA0A0601EAE6
:100498000B018AEA0B0215408AEA3A4210404540AD
:1004A8008BEA3B4003405E404240174079404D4054
:1004B8004E40E443F64386EA18435D4085EA05402A
:1004C80083EA134386EA034183EA384284EA114304
:1004D80083EA04435FEA3343BEF1010E3FF6F2AE0E
:1004E8001ED4BCE8F0006040694072407B4020BCEC
:1004F800FFF784FE28606960AA60EB60BDE8F08FB2
:100508002DE9E0414FF2F00280EA1031114080EA13
:100518000130484041088208C3084FF0000E4FE7F9
:1005280000F0113001F0113102F0113203F01133F3
:1005380040EA410040EA820040EAC3004FF2F0027C
:1005480080EA1031114080EA01304840BDE8E0817E
:100558002DE9F04F02F11C050646074600EB850819
:1005680051F8040B043A46F8040BF9D14FF0010C8A
:10057800FFF7C6FF5FEA302080EA0C001ECF41403B
:100588004A4053405C401EC62000464517D04FEAFB
:100598004C0C1CF4807F18BFACF1E50C2C2DE7D077
:1005A8003C2D06D1FFF7ACFF06CF41404A4006C6B6
:1005B800100006CF41404A4006C61000D8E736E989
:1005C8000F00FFF7C5FD043D86E80F00F7D1BDE831
:1005D800F08F00BF2DE9F14F03F11C0402EB840CEE
:1005E8004FEA930B8A68CB6808684968FFF7B0FD43
:1005F8003CE9F0006040694072407B400BF1060E18
:100608004EE083EA134480EA134582EA134746BA68
:1006180096EA3444604000F00F1684EA063420F06D
:100628000F1684EA161054BA94EA0106724002F0D2
:100638000F1486EA043622F00F1486EA14124CBA14
:100648006540694001F00F1485EA043521F00F1464
:1006580085EA14115CBA67407B4003F00F1487EAFF
:10066800043723F00F1487EA141344BA44404DBAF0
:100678004D4056BA56405FBA5F4087EA174886EA47
:10068800174B84EA17464FEA38488BEA1B4485EA39
:100698001B4788EA1B4580EA3440694072407B402A
:1006A80000F0703400F0803500F00F3040EA44006C
:1006B80040EAD50080EA900404F0332480EA8400FC
:1006C800604001F0703401F0803501F00F3141EAEB
:1006D800440141EAD50181EA910404F0332481EA16
:1006E8008401614002F0703402F0803502F00F326C
:1006F80042EA440242EAD50282EA920404F0332430
:1007080082EA8402624003F0703403F0803503F01B
:100718000F3343EA440343EAD50383EA930404F01E
:10072800332483EA84036340C943DB4381EA00043A
:1007380083EA044686EA020183EA014382EA3345F2
:1007480083EA14435C4084EA00077FEA040A8AEAE1
:10075800024A8AEA010B87EA11488AEA374A80EA9C
:10076800060181EA1A418AEA030A04EA0A004540B6
:1007780088EA040707EA0B0041408AEA0B0608EA00
:10078800060084EA34428AEA3A4602EA06035840F6
:100798004540414087EA37438BEA3B4003EA00097A
:1007A80085EA090582EA0309464006EA0906714016
:1007B80085EA010005EA3546464006EA314181EA04
:1007C800304181EA364606EA304686EA3546344004
:1007D8000F4086EA010508EA050886EA3640024025
:1007E80088EA020881EA314213405C4080EA020349
:1007F80009EA030987EA0907674088EA040806EA5C
:100808000A0601EA0B018AEA0B0425408AEA3A44FF
:10081800204045408BEA3B4B02EA0B02564084EAF3
:100828000B04234059406E40694087EA364080EA0D
:10083800384080EA060380EA104481EA134585EAD5
:10084800344585EA17427D4082EA354180EA054011
:100858003CE9F0006040694072407B40BEF1010E07
:100868003FF6CFAE20BCFFF7C9FC28606960AA60DC
:10087800EB60BDE8F08F00BFFFF76ABE30B44FF001
:10088800000310F8014B11F8015B013A84EA0504F2
:1008980043EA0403F5D1A3F101034FEAD37030BC56
:1008A800704700BF4FF0000310F8012B013943EAED
:1008B8000203F9D1A3F101034FEAD370704700BFD7
:1008C80030B411F8014B12F8015B6C4000F8014B91
:1008D800013BF6D130BC704781F0004102E000BF17
:1008E80083F0004330B54FEA41044FEA430594EAE8
:1008F800050F08BF90EA020F1FBF54EA000C55EA23
:10090800020C7FEA645C7FEA655C00F0E2804FEAF3
:100918005454D4EB5555B8BF6D420CDD2C4480EAD5
:10092800020281EA030382EA000083EA010180EA05
:10093800020281EA0303362D88BF30BD11F0004F53
:100948004FEA01314FF4801C4CEA113102D0404289
:1009580061EB410113F0004F4FEA03334CEA1333C4
:1009680002D0524263EB430394EA050F00F0A780DC
:10097800A4F10104D5F1200E0DDB02FA0EFC22FAD7
:1009880005F2801841F1000103FA0EF2801843FACB
:1009980005F359410EE0A5F120050EF1200E012ABC
:1009A80003FA0EFC28BF4CF0020C43FA05F3C018FA
:1009B80051EBE37101F0004507D54FF0000EDCF173
:1009C800000C7EEB00006EEB0101B1F5801F1BD31C
:1009D800B1F5001F0CD349085FEA30004FEA3C0C20
:1009E80004F101044FEA445212F5800F80F09A8016
:1009F800BCF1004F08BF5FEA500C50F1000041EB1A
:100A0800045141EA050130BD5FEA4C0C404141EB1D
:100A18000101013C28BFB1F5801FE9D291F0000F18
:100A280004BF01460020B1FA81F308BF2033A3F1C7
:100A38000B03B3F120020CDA0C3208DD02F1140CBE
:100A4800C2F10C0201FA0CF021FA02F10CE002F1F9
:100A58001402D8BFC2F1200C01FA02F120FA0CFCF2
:100A6800DCBF41EA0C019040E41AA2BF01EB04513B
:100A7800294330BD6FEA04041F3C1CDA0C340EDC39
:100A880004F11404C4F1200220FA04F001FA02F37C
:100A980040EA030021FA04F345EA030130BDC4F13A
:100AA8000C04C4F1200220FA02F001FA04F340EA2F
:100AB8000300294630BD21FA04F0294630BD94F0E0
:100AC800000F83F4801306BF81F480110134013DC7
:100AD8004EE77FEA645C18BF7FEA655C29D094EA38
:100AE800050F08BF90EA020F05D054EA000C04BFB6
:100AF8001946104630BD91EA030F1EBF00210020A1
:100B080030BD5FEA545C05D14000494128BF41F03F
:100B1800004130BD14F580043CBF01F5801130BDA3
:100B280001F0004545F0FE4141F470014FF000002E
:100B380030BD7FEA645C1ABF194610467FEA655CDF
:100B48001CBF0B46024650EA013406BF52EA033581
:100B580091EA030F41F4002130BD00BF90F0000F6F
:100B680004BF0021704730B54FF4806404F13204AB
:100B78004FF000054FF0000150E700BF90F0000F64
:100B880004BF0021704730B54FF4806404F132048B
:100B980010F0004548BF40424FF000013EE700BF5B
:100BA80042004FEAE2014FEA31014FEA02701FBFEB
:100BB80012F07F4393F07F4F81F06051704732F01D
:100BC8007F4208BF704793F07F4F04BF41F4002174
:100BD800704730B54FF4607401F0004521F00041D2
:100BE8001CE700BF50EA010208BF704730B54FF05C
:100BF80000050AE050EA010208BF704730B511F05D
:100C0800004502D5404261EB41014FF4806404F194
:100C180032045FEA915C3FF4D8AE4FF003025FEA1A
:100C2800DC0C18BF03325FEADC0C18BF033202EB9E
:100C3800DC02C2F1200300FA03FC20FA02F001FAF8
:100C480003FE40EA0E0021FA02F11444BDE600BF9B
:100C580070B54FF0FF0C4CF4E06C1CEA11541DBF4A
:100C68001CEA135594EA0C0F95EA0C0F00F0DEF815
:100C78002C4481EA030621EA4C5123EA4C5350EAFA
:100C8800013518BF52EA033541F4801143F480134B
:100C980038D0A0FB02CE4FF00005E1FB02E506F0DC
:100CA8000042E0FB03E54FF00006E1FB03569CF031
:100CB800000F18BF4EF0010EA4F1FF04B6F5007F37
:100CC80064F5407404D25FEA4E0E6D4146EB0606A9
:100CD80042EAC62141EA55514FEAC52040EA5E5032
:100CE8004FEACE2EB4F1FD0C88BFBCF5E06F1ED8DC
:100CF800BEF1004F08BF5FEA500E50F1000041EB13
:100D0800045170BD06F0004646EA010140EA0200BF
:100D180081EA0301B4EB5C04C2BFD4EB0C0541EAE1
:100D2800045170BD41F480114FF0000E013C00F3F6
:100D3800AB8014F1360FDEBF002001F0004170BD1A
:100D4800C4F10004203C35DA0C341BDC04F1140433
:100D5800C4F1200500FA05F320FA04F001FA05F2BF
:100D680040EA020001F0004221F0004110EBD3708C
:100D780021FA04F642EB06015EEA430E08BF20EAB8
:100D8800D37070BDC4F10C04C4F1200500FA04F35B
:100D980020FA05F001FA04F240EA020001F00041ED
:100DA80010EBD37041F100015EEA430E08BF20EA60
:100DB800D37070BDC4F1200500FA05F24EEA020EA8
:100DC80020FA04F301FA05F243EA020321FA04F0D7
:100DD80001F0004121FA04F220EA020000EBD3708E
:100DE8005EEA430E08BF20EAD37070BD94F0000F8E
:100DF8000FD101F00046400041EB010111F4801FC2
:100E080008BF013CF7D041EA060195F0000F18BF72
:100E1800704703F00046520043EB030313F4801FAE
:100E280008BF013DF7D043EA0603704794EA0C0F68
:100E38000CEA135518BF95EA0C0F0CD050EA41067E
:100E480018BF52EA4306D1D181EA030101F00041FB
:100E58004FF0000070BD50EA410606BF1046194623
:100E680052EA430619D094EA0C0F02D150EA01362F
:100E780013D195EA0C0F05D152EA03361CBF104670
:100E880019460AD181EA030101F0004141F0FE410F
:100E980041F470014FF0000070BD41F0FE4141F493
:100EA800780170BD70B54FF0FF0C4CF4E06C1CEA93
:100EB80011541DBF1CEA135594EA0C0F95EA0C0F48
:100EC80000F0A7F8A4EB050481EA030E52EA033503
:100ED8004FEA013100F088804FEA03334FF0805524
:100EE80045EA131343EA12634FEA022245EA111551
:100EF80045EA10654FEA00260EF000419D4208BF02
:100F0800964244F1FD0404F5407402D25B084FEAAE
:100F18003202B61A65EB03055B084FEA32024FF45A
:100F280080104FF4002CB6EB020E75EB030E22BFB7
:100F3800B61A754640EA0C005B084FEA3202B6EB77
:100F4800020E75EB030E22BFB61A754640EA5C0026
:100F58005B084FEA3202B6EB020E75EB030E22BFB6
:100F6800B61A754640EA9C005B084FEA3202B6EBB7
:100F7800020E75EB030E22BFB61A754640EADC0076
:100F880055EA060E18D04FEA051545EA16754FEAD8
:100F980006164FEAC30343EA52734FEAC2025FEAF6
:100FA8001C1CC0D111F4801F0BD141EA00014FF085
:100FB80000004FF0004CB6E711F4801F04BF014356
:100FC8000020B4F1FD0C88BFBCF5E06F3FF6AFAE72
:100FD800B5EB030C04BFB6EB020C5FEA500C50F102
:100FE800000041EB045170BD0EF0004E4EEA113185
:100FF80014EB5C04C2BFD4EB0C0541EA045170BD8C
:1010080041F480114FF0000E013C90E645EA060ECF
:101018008DE60CEA135594EA0C0F08BF95EA0C0FFD
:101028003FF43BAF94EA0C0F0AD150EA01347FF445
:1010380034AF95EA0C0F7FF425AF104619462CE71C
:1010480095EA0C0F06D152EA03353FF4FDAE10467F
:10105800194622E750EA410618BF52EA43067FF4D0
:10106800C5AE50EA41047FF40DAF52EA43057FF460
:10107800EBAE12E74FEA410212F5001215D211D574
:101088006FF47873B3EB625212D94FEAC12343F07D
:10109800004343EA505311F0004F23FA02F018BFFF
:1010A800404270474FF00000704750EA013005D1C8
:1010B80011F0004008BF6FF0004070474FF000008B
:1010C800704700BF4FEA4102B2F1E04324BFB3F5D5
:1010D800001CDCF1FE5C0DD901F0004C4FEAC002A7
:1010E8004CEA5070B2F1004F40EB830008BF20F08B
:1010F8000100704711F0804F21D113F13872BCBF45
:1011080001F00040704741F480114FEA5252C2F199
:101118001802C2F1200C10FA0CF320FA02F018BFE2
:1011280040F001004FEAC1234FEAD32303FA0CFC35
:1011380040EA0C0023FA02F34FEA4303CCE77FEAC4
:10114800625307D150EA01331EBF4FF0FE4040F40E
:101158004000704701F0004040F0FE4040F40000BD
:10116800704700BF80F0004002E000BF81F00041FE
:1011780042001FBF5FEA410392EA030F7FEA226C35
:101188007FEA236C6AD04FEA1262D2EB1363C1BFC5
:10119800D218414048404140B8BF5B42192B88BF34
:1011A800704710F0004F40F4000020F07F4018BF57
:1011B800404211F0004F41F4000121F07F4118BF77
:1011C800494292EA030F3FD0A2F1010241FA03FC1F
:1011D80010EB0C00C3F1200301FA03F100F0004307
:1011E80002D5494260EB4000B0F5000F13D3B0F1CF
:1011F800807F06D340084FEA310102F10102FE2A3E
:1012080051D2B1F1004F40EBC25008BF20F00100AD
:1012180040EA03007047490040EB0000013A28BF4C
:10122800B0F5000FEDD2B0FA80FCACF1080CB2EBCF
:101238000C0200FA0CF0AABF00EBC250524218434D
:10124800BCBFD0401843704792F0000F81F40001F2
:1012580006BF80F400000132013BB5E74FEA4103C5
:101268007FEA226C18BF7FEA236C21D092EA030F31
:1012780004D092F0000F08BF0846704790EA010FAB
:101288001CBF0020704712F07F4F04D1400028BFD8
:1012980040F00040704712F100723CBF00F50000BA
:1012A800704700F0004343F0FE4040F400007047F0
:1012B8007FEA226216BF08467FEA2363014642029C
:1012C80006BF5FEA412390EA010F40F480007047AF
:1012D8004FF0000304E000BF10F0004348BF404255
:1012E8005FEA000C08BF704743F0964301464FF091
:1012F80000001CE050EA010208BF70474FF00003ED
:101308000AE000BF50EA010208BF704711F000432D
:1013180002D5404261EB41015FEA010C02BF8446FD
:101328000146002043F0B64308BFA3F18053A3F55C
:101338000003BCFA8CF2083AA3EBC25310DB01FAA3
:1013480002FC634400FA02FCC2F12002BCF1004F27
:1013580020FA02F243EB020008BF20F001007047B8
:1013680002F1200201FA02FCC2F1200250EA4C000C
:1013780021FA02F243EB020008BF20EADC70704752
:101388004FF0FF0C1CEAD0521EBF1CEAD15392EA60
:101398000C0F93EA0C0F6FD01A4480EA010C40023C
:1013A80018BF5FEA41211ED04FF0006343EA501096
:1013B80043EA5111A0FB01310CF00040B1F5000FD8
:1013C8003EBF490041EAD3715B0040EA010062F187
:1013D8007F02FD2A1DD8B3F1004F40EBC25008BF71
:1013E80020F00100704790F0000F0CF0004C08BF8F
:1013F80049024CEA502040EA51207F3AC2BFD2F15C
:10140800FF0340EAC250704740F400004FF0000369
:10141800013A5DDC12F1190FDCBF00F000407047A3
:10142800C2F10002410021FA02F1C2F1200200FAE1
:1014380002FC5FEA310040F1000053EA4C0308BFA8
:1014480020EADC70704792F0000F00F0004C02BFF9
:10145800400010F4000F013AF9D040EA0C0093F074
:10146800000F01F0004C02BF490011F4000F013BCE
:10147800F9D041EA0C018FE70CEAD15392EA0C0F3C
:1014880018BF93EA0C0F0AD030F0004C18BF31F0A7
:10149800004CD8D180EA010000F00040704790F07D
:1014A800000F17BF90F0004F084691F0000F91F021
:1014B800004F14D092EA0C0F01D142020FD193EAE7
:1014C8000C0F03D14B0218BF084608D180EA01006F
:1014D80000F0004040F0FE4040F40000704740F04B
:1014E800FE4040F4400070474FF0FF0C1CEAD05219
:1014F8001EBF1CEAD15392EA0C0F93EA0C0F69D075
:10150800A2EB030280EA010C49024FEA402037D0DF
:101518004FF0805343EA111143EA10130CF00040D6
:101528008B4238BF5B0042F17D024FF4000C8B42C6
:1015380024BF5B1A40EA0C00B3EB510F24BFA3EBA6
:10154800510340EA5C00B3EB910F24BFA3EB910376
:1015580040EA9C00B3EBD10F24BFA3EBD10340EAD0
:10156800DC001B0118BF5FEA1C1CE0D1FD2A3FF616
:1015780050AF8B4240EBC25008BF20F001007047CB
:101588000CF0004C4CEA50207F32C2BFD2F1FF036E
:1015980040EAC250704740F400004FF00003013A9F
:1015A80037E792F0000F00F0004C02BF400010F443
:1015B800000F013AF9D040EA0C0093F0000F01F057
:1015C800004C02BF490011F4000F013BF9D041EA79
:1015D8000C0195E70CEAD15392EA0C0F08D14202AC
:1015E8007FF47DAF93EA0C0F7FF470AF084676E77F
:1015F80093EA0C0F04D14B023FF44CAF08466EE758
:1016080030F0004C18BF31F0004CCAD130F0004225
:101618007FF45CAF31F000437FF43CAF5FE700BF7D
:101628004FF0FF3C06E000BF4FF0010C02E000BFA6
:101638004FF0010C4DF804CD4FEA40024FEA410348
:101648007FEA226C18BF7FEA236C11D001B052EAFE
:10165800530C18BF90EA010F58BFB2EB030088BFC4
:10166800C81738BF6FEAE17018BF40F00100704733
:101678007FEA226C02D15FEA402C05D17FEA236C15
:10168800E4D15FEA412CE1D05DF8040B704700BF5C
:10169800844608466146FFE70FB5FFF7C9FF0028F3
:1016A80048BF10F1000F0FBD4DF808EDFFF7F4FF2C
:1016B8000CBF012000205DF808FB00BF4DF808EDC5
:1016C800FFF7EAFF34BF012000205DF808FB00BFE8
:1016D8004DF808EDFFF7E0FF94BF012000205DF80A
:1016E80008FB00BF4DF808EDFFF7D2FF94BF0120BB
:1016F80000205DF808FB00BF4DF808EDFFF7C8FFB4
:1017080034BF012000205DF808FB00BF4FEA40020B
:10171800B2F1FE4F0FD34FF09E03B3EB12620DD917
:101728004FEA002343F0004310F0004F23FA02F081
:1017380018BF404270474FF00000704712F1610F28
:1017480001D1420205D110F0004008BF6FF00040FF
:1017580070474FF00000704742000ED2B2F1FE4FC2
:101768000BD34FF09E03B3EB126209D44FEA002368
:1017780043F0004323FA02F070474FF0000070472F
:1017880012F1610F01D1420202D14FF0FF307047D0
:101798004FF00000704700BF7BB972B90029BEBF87
:1017A80000204FF0004106E008BF00281CBF6FF082
:1017B80000414FF0FF3000F057B8ADF1080C6DE96B
:1017C80004CE002909DB002B1ADB00F069F8DDF8EC
:1017D80004E0DDE9022304B07047404261EB4101B7
:1017E800002B1BDB00F05CF8DDF804E0DDE90223E8
:1017F80004B0404261EB4101524263EB430370473E
:10180800524263EB430300F04BF8DDF804E0DDE9F6
:10181800022304B0404261EB41017047524263EB3E
:10182800430300F03DF8DDF804E0DDE9022304B0ED
:10183800524263EB4303704753B94AB9002908BFC2
:1018480000281CBF4FF0FF314FF0FF3000F00CB8FC
:10185800ADF1080C6DE904CE00F022F8DDF804E0E3
:10186800DDE9022304B07047704700BF10F8012B70
:1018780011F8013B012A28BF9A42F7D0D01A7047C5
:10188800034611F8012B03F8012B002AF9D1704700
:10189800034613F8012B002AFBD1181A01387047A8
:1018A8002DE9F04786468C460846089E154674463C
:1018B8001946002B40F0C1808542B2FA82F245D920
:1018C8004AB1C2F1200300FA02FC954094402EFA76
:1018D80003F343EA0C0C4FEA154EA8B2230CBCFBE9
:1018E800FEF80EFB18CC08FB00F943EA0C439945B7
:1018F80028D9EB1808F1FF3704D2994502D9A8F185
:1019080002072B44A3EB0903A4B2B3FBFEFC0EFBB6
:101918001C330CFB00F044EA0344A04214D92C19F0
:101928000CF1FF3304D2A04202D9ACF102032C44DB
:10193800241A43EA07401EB1D44000233460736080
:10194800BDE8F0874746DDE76346F1E792BB431BF6
:1019580001214FEA154EAFB2200CB3FBFEFC0EFB83
:101968001C330CFB07F840EA0343984561D9EB1890
:101978000CF1FF3004D2984502D9ACF102002B4497
:10198800A3EB0803A4B2B3FBFEFC0EFB1C330CFB59
:1019980007F744EA0344A7424DD92C190CF1FF3349
:1019A80004D2A74202D9ACF102032C44E41B43EA57
:1019B8000040C0E7C2F120039540944020FA03F1AB
:1019C8002EFA03F34FEA154E9040AFB20343B1FB32
:1019D800FEFC0EFB1C10190C0CFB07F841EA004139
:1019E800884522D969180CF1FF3004D2884502D9FC
:1019F800ACF102002944A1EB08019BB2B1FBFEFC4B
:101A08000EFB1C110CFB07F743EA01439F420ED95A
:101A1800EB180CF1FF3104D29F4202D9ACF102015C
:101A28002B44DB1B41EA004193E76046E3E761464C
:101A3800F7E76046A4E76346B8E7834206D916B9D4
:101A4800002108467CE7C6E900E0F9E7B3FA83F726
:101A58008FB9834201D3724508D8BEEB020460EB0C
:101A6800030301209C461EB9002169E73846FAE7BE
:101A7800C6E9004CF8E7C7F1200CBB400EFA07F5A1
:101A880022FA0CF42EFA0CF1BA401C4320FA0CF39B
:101A9800B8404FEA144901431FFA84FEB3FBF9F832
:101AA80009FB18300B0C08FB0EFA43EA00439A4571
:101AB80040D9E31808F1FF3004D29A4502D9A8F1B9
:101AC80002002344A3EB0A0389B2B3FBF9F809FB2C
:101AD800183308FB0EFE41EA03418E452CD96118E4
:101AE80008F1FF3304D28E4502D9A8F1020321443C
:101AF80043EA0040A1EB0E01A0FB02984145CE4607
:101B0800434602D306D14D4504D20138B9EB020E43
:101B180068EB0403002EA7D0B5EB0E0261EB0301BE
:101B280001FA0CFC22FA07F3F9404CEA0303C6E970
:101B3800003199E74046C5E74346D9E70000000071
:101B480070B50D4E7068FFF719F809A3D3E90023A3
:101B5800FFF7A8F9044630680D46FFF70FF802466C
:101B68000B4620462946FEF7BDFEFFF7ABFA70BDCF
:101B78000000000080842E41809D002000000000AD
:101B880070B50D4E7068FEF7F9FF09A3D3E900237D
:101B9800FFF788F9044630680D46FEF7EFFF024666
:101BA8000B4620462946FEF79DFEFFF78BFA70BDCF
:101BB8000000000080842E41789D00200000000075
:101BC80070B50D4E7068FEF7D9FF09A3D3E900235D
:101BD800FFF768F9044630680D46FEF7CFFF024666
:101BE8000B4620462946FEF77DFEFFF76BFA70BDCF
:101BF8000000000080842E41709D0020000000003D
:101C08002DE9F843264C074660680E461546FEF750
:101C1800B5FF21A3D3E90023FFF744F980462068E4
:101C28008946FEF7ABFF02460B4640464946FEF79B
:101C380059FEFFF747FA3860E068FEF79FFF16A3E2
:101C4800D3E90023FFF72EF98046A0688946FEF7FE
:101C580095FF02460B4640464946FEF743FEFFF70E
:101C680031FA30606069FEF789FF0BA3D3E90023DE
:101C7800FFF718F9064620690F46FEF77FFF024670
:101C88000B4630463946FEF72DFEFFF71BFA286053
:101C9800BDE8F883AFF300800000000080842E4187
:101CA800589D0020000000002DE9F04706460F4629
:101CB800904688B04FF006F84FF47A73A0FB0345BE
:101CC80003FB0155E40B012F44EA45444FEAD5359F
:101CD80007D122462B463046274932F09DF900208D
:101CE80012E0D8F8047025483946FFF7BFFD70B1F7
:101CF80039462348FFF7BAFD48B130463A462149EC
:101D080032F0A6F96FF0040008B0BDE8F08720466D
:101D180017A3D3E900232946FFF73EFD05460C46E5
:101D280010461946184A0023FFF736FD80460F462D
:101D3800104619464EF660220023FFF72DFD824615
:101D48008946104619464FF47A720023FFF724FD9E
:101D5800CDE902A9CDE90623CDE904012A462346A7
:101D68003046CDE90087094932F056F9B7E700BF98
:101D7800005C2605000000004E890A005F890A0001
:101D880062890A006B890A0080EE360083890A009E
:101D9800D0B504460846FEF7F1FE0022144BFEF7C4
:101DA80057FF0022134BFFF77DF80DA3D3E900235B
:101DB800FEF74EFF06460F46FFF75CF90AA3D3E984
:101DC8000023206039463046FEF742FFFFF752F9FC
:101DD800094B90FBF3F202FB13006060D0BD00BF1B
:101DE8006811F16346DF913F0000000080842E41B6
:101DF8000080214000408F4040420F00000000005A
:101E0800D0B504460846FEF7B9FE0FA3D3E9002370
:101E1800FEF71EFF0EA3D3E90023FFF743F806469B
:101E28000F46FFF727F90CA3D3E9002320603946B2
:101E38003046FEF70DFFFFF71DF9094B90FBF3F253
:101E480002FB13006060D0BD00000040019D3340DC
:101E580000000000C0FFDF400000000080842E4129
:101E680040420F0070B58AB003F088FAFFF768FEA9
:101E78000646FFF785FE0546FFF7A2FE05AA0446BB
:101E880004A903A8FFF7BCFE3046FEF789FE484ABE
:101E9800CDE90001102106A82FF0F0FA454B06A95C
:101EA80018684BF062F9444B06A918684BF05DF9C5
:101EB8002846FEF775FE414ACDE90001102106A823
:101EC8002FF0DCFA3E4B06A918684BF04EF9204675
:101ED800FEF766FE3B4ACDE90001102106A82FF067
:101EE800CDFA394B06A918684BF03FF903990498C5
:101EF80030F0E4FC3549FFF743FA3549FFF7F4FAC7
:101F080000210446FFF7DAFB20B120463149FFF7EC
:101F18002FF904462046FEF743FE2F4ACDE900017B
:101F2800102106A82FF0AAFA2C4B06A918684BF026
:101F38001CF920462A49FFF7D5FB00282CD120465A
:101F48002849FFF7BBFB38BB20462749FFF7B6FBFC
:101F580020BB20462549FFF7B1FB08BB2046244992
:101F6800FFF7ACFBF0B920462249FFF7A7FBD8B929
:101F780020462149FFF7A2FBC0B920492046FFF7B8
:101F88009DFB1F491F4B002808BF19461E4B1868A8
:101F98004BF0EBF80AB070BD1C49F7E71C49F5E7B0
:101FA8001C49F3E71C49F1E71C49EFE71C49EDE739
:101FB80070830500A89C0020F49C0020788305000D
:101FC800009D00207F830500E89C0020000034432A
:101FD800D00F49400000B44388830500689C002066
:101FE80000C0A8430000B441000087420000E1425D
:101FF80000801D4300804A4300807743004092439D
:1020080042BD0A006D830500649C0020FFF20E00AB
:102018006483050005F30E006783050094FE0E0037
:102028006A830500C3883BB982680C4B1A60037940
:1020380093B10B4829F0E8BE012B03D18268074B06
:102048005A60F4E7B3F5A57FF1D18368034A003BF2
:1020580018BF01231372EAE7704700BF8C9B00206A
:10206800989B00202DE9E7414FF47A77DFF86480E8
:1020780000214FF480304EF076FDFFF761FD0646F3
:10208800FFF77EFD05464EF01DFEA0FB073207FB5D
:102098000121D80B4FF47A72002340EA4140C90B62
:1020A800FFF77AFB414600903046FFF769F9FFF7E2
:1020B8002DFB4146ADF804002846FFF761F9FFF70C
:1020C8004BFBADF80600684603F08AFA684603F051
:1020D800BBFACDE70000C8422DE9F04F89B09B4D0F
:1020E8009B4C28464EF0D1F9034670B92268550733
:1020F80007D0984A2146CDE901020090012230F02C
:10210800AAFD002009B0BDE8F08FAB685B680BB191
:102118002846984702F044FE8F4B904D1B682B6071
:102128008F4B1B686B608F4B1B68AB608E4B1B68BB
:10213800EB6002F07FFE60B12368590709D08B4B32
:1021480001220293002382491846CDE9003330F07A
:1021580082FD874E30464EF098F90346002840F03D
:10216800A7802268520709D0326879490392814AC8
:102178000090CDE90102012230F06DFD012200211D
:102188007D484EF006FB00224FF4FA617B481EF0B2
:102198006BFD03F007FA0346002800F09A802368D5
:1021A8005B0709D0764B0122029300231846CDE93C
:1021B8000033674930F04FFD002200230026CDE9A7
:1021C800062304234FF48062CDE90336CDE9016686
:1021D8006C4B6D4900966D482AF0CEF96C496B48F6
:1021E8002AF00AF9236803F00703022B09D9694B7F
:1021F8000322CDE90163304633465549009630F055
:102208002AFD5D4F644EDFF894811EF063FD0023C4
:102218000022384629F032FE0346002842D1D6E98A
:1022280000A9226896F808B002F00702022A0BD922
:102238005B4ACDE904A9CDE9010245490322CDF85D
:102248000CB0009030F007FDBBF1000F2AD02368D6
:10225800AAF1CF02262A03F0070368D8A9F10502DC
:10226800262A43D8022B09D94E4B03220293002376
:1022780037491846CDE9003330F0EDFC4A4A0521CC
:1022880010680130434203F0030300F0030058BF15
:102298005842002310604FF49672009355F82000BE
:1022A80016F0A4FA00214FF4A4704EF05CFCACE7E1
:1022B800236803F00703022B7FF660AF336803221D
:1022C80003933A4B2249029300231846CDE9003381
:1022D80052E7226802F00702022A7FF66DAF344AFD
:1022E8001B49CDE901020090032263E7A9F5947226
:1022F800262A1CD8022B09D92E4B0322029300232D
:1023080013491846CDE9003330F0A5FC264A0621CA
:1023180010680330434203F0030300F0030058BF82
:102328005842002310604FF496720093B6E7022BD0
:10233800B8D9002303221846CDE903A9CDE9003313
:102348000349CDF8088030F086FCABE7AC1D0500EA
:102358007406002090830500DC9C00207C9B0020F4
:10236800389D00209C9C0020089C0020A983050023
:10237800181E0500DA830500989B00206D1E0000DA
:102388000A8405006D200000B0010320300A0020F7
:10239800E1AC0A00348405008C9B0020CD84050044
:1023A800478405006B840500789B0020F4830500B2
:1023B800248405009A8405002DE9F04F00208FB091
:1023C80013F056FCD14D1021286037F00AFA28681E
:1023D80023F02CFECE4CCF4920604AF03CFD20680B
:1023E8006FF0404138F0E9FB20686FF0404138F069
:1023F800FBFB2068092138F03BFC2068022137F0FC
:102408003BFC1021206837F0ECF9286824F014FA16
:10241800C14C6FF04041206038F0CFFB20686FF06E
:10242800404138F0E1FB20686FF0020138F08CFB86
:1024380020686FF06B0138F09EFB2068092138F0A6
:1024480017FCB64920684AF090FE6FF07F40266876
:1024580046F0F0FBC0F307238DF80400C0F30740F3
:102468008DF805308DF80600AD4F304601990022F1
:102478003AF0E8FA20680022FF213AF0F2FA002246
:10248800394620683AF0F4FA286821F025F9A54C75
:10249800B721206038F091FB2068B42138F0A4FB04
:1024A8002068092138F0E4FB3221206848F088FCD4
:1024B800286813F0DDFB9C4C9C4E206014F06CFFE8
:1024C80020688C2138F079FB2068232138F08CFBB8
:1024D8002068032138F038FB20686FF0180138F0C5
:1024E8004AFB2068092138F0C3FB1221206837F025
:1024F80078F9206824F0A0F96FF04041306038F096
:102508005CFB30686FF0404138F06EFB30686FF06C
:10251800360138F019FBDFF818923068042138F0DA
:102528002AFB3068092138F0A3FB494630684AF095
:102538001CFE6FF07F40D6F8008046F07BFBC0F3AE
:1025480007238DF80800C0F307408DF809308DF88F
:102558000A00029940460022DFF8D8813AF072FA60
:1025680030680022FF213AF07CFA002241463068A8
:102578003AF07EFA206824F05FF96F4E6FF0404120
:10258800306038F01AFB30686FF0404138F02CFBAF
:1025980030686FF01E0138F0D7FADFF8A0A1306874
:1025A800032138F0E8FA3068092138F061FB514618
:1025B80030684AF0DAFD6FF07F40D6F800B046F098
:1025C80039FBC0F307238DF80C00C0F307408DF8E2
:1025D8000D308DF80E000399584600223AF032FA71
:1025E80030680022FF213AF03CFA00224146306868
:1025F8003AF03EFA206824F01FF9514E6FF040413E
:10260800306038F0DAFA30686FF0404138F0ECFAB0
:1026180030686FF0040138F097FA3068042138F018
:10262800AAFA3068092138F023FB494630684AF095
:102638009CFD6FF07F40D6F800B046F0FBFAC0F37F
:1026480007238DF81000C0F307408DF811308DF87E
:1026580012000499584600223AF0F4F93068002232
:10266800FF213AF0FEF90022414630683AF000FABC
:10267800206824F0E1F8334E6FF04041306038F0C4
:102688009CFA30686FF0404138F0AEFA3068142197
:1026980038F05AFA3068032138F06DFA30680921A9
:1026A80038F0E6FA514630684AF05FFD6FF07F4037
:1026B800D6F800A046F0BEFAC0F307238DF8140040
:1026C800C0F307408DF815308DF81600059950466F
:1026D80000223AF0B7F930680022FF213AF0C1F938
:1026E8000022414630683AF0C3F9206824F0A4F883
:1026F800154C6FF04041206038F05FFA20686FF0A9
:10270800404138F071FA20682B211FE0089C002016
:10271800049C0020482A0500009C002042820A00F0
:10272800184E0500FC9B0020F89B0020F49B00201D
:1027380006BA0A00445E0500F09B00208D820A005C
:10274800EC9B0020E89B0020E49B002038F0FCF97B
:102758002068032138F00FFA2068092138F088FA38
:10276800494620684AF001FD6FF07F40266846F030
:1027780061FAC0F307238DF81800C0F307408DF8FD
:1027880019308DF81A000699304600223AF05AF9A5
:1027980020680022FF213AF064F9002241462068AF
:1027A8003AF066F9286824F047F8CE4C6FF04041BB
:1027B800206038F002FA20686FF0404138F014FACF
:1027C80020686FF0040138F0BFF92068082138F05C
:1027D800D2F92068092138F04BFAC34920684AF039
:1027E800C4FC6FF07F40266846F024FAC0F3072344
:1027F8008DF81C00C0F307408DF81D308DF81E00C1
:102808000799304600223AF01DF920680022FF217E
:102818003AF027F90022B54920683AF029F92868E2
:1028280013F026FAB24CB34E206014F0B5FD2068C0
:10283800492138F0C2F920682D2138F0D5F92068EF
:102848006FF0790138F080F92068342138F093F975
:102858002068092138F00CFA1221206836F0C1FFEF
:10286800206821F033FD3521306038F0A6F9306852
:10287800212138F0B9F930686FF0010138F064F9B6
:102888003068022138F077F93068092138F0F0F91A
:1028980030684FF4806137F0EFF91021306836F076
:1028A800A0FF47F2FF50D6F8008046F0C3F9C0F306
:1028B80007238DF82000C0F307408DF821308DF8EC
:1028C80022000899404600223AF07AF80022FF21B7
:1028D80030683AF084F8206823F0AEFF864C6FF039
:1028E8004041206038F069F920686FF0404138F0C5
:1028F8007BF920686FF0010138F026F92068032180
:1029080038F039F92068092138F0B2F97B49206894
:102918004AF02BFC6FF07F40266846F08BF9C0F335
:1029280007238DF82400C0F307408DF825308DF873
:1029380026000999304600223AF084F820680022DF
:10294800FF213AF08EF80022394620683AF090F8D4
:10295800286813F08DF96A4C6A4E206014F01CFD4B
:102968002068492138F029F920682D2138F03CF9F0
:102978002068032138F0E8F82068482138F0FBF88F
:102988002068092138F074F91221206836F029FFEF
:10299800206821F09BFC3921306038F00EF930684E
:1029A800212138F021F930686FF0030138F0CCF8B4
:1029B8003068022138F0DFF83068092138F058F91A
:1029C80030684FF4806137F057F91021306836F0DD
:1029D80008FF4D48D6F8008046F02CF9C0F30723CD
:1029E8008DF82800C0F307408DF829308DF82A00AB
:1029F8000A994046002239F0E3FF0022FF2130689F
:102A080039F0EDFF206823F017FF404C6FF040418C
:102A1800206038F0D2F820686FF0404138F0E4F8D0
:102A280020686FF0030138F08FF82068022138F031
:102A3800A2F82068092138F01BF9354920684AF0C6
:102A480094FB6FF07F40266846F0F4F8C0F3072344
:102A58008DF82C00C0F307408DF82D308DF82E002E
:102A68000B993046002239F0EDFF20680022FF2143
:102A780039F0F7FF00223946206839F0F9FF286855
:102A880013F0F6F8234C244E206014F085FC2068DF
:102A9800492138F092F820682D2138F0A5F82068EF
:102AA8007A2138F051F82068352138F064F8206828
:102AB800092138F0DDF81221206836F092FE2068EE
:102AC80021F004FC3521306038F077F83068212196
:102AD80038F08AF830686FF0010138F035F830685E
:102AE80002211BE0E09B00204E820A007C53050077
:102AF800DC9B0020D89B0020D49B00205B820A002E
:102B0800D09B0020CC9B00204848F900C89B00209F
:102B180061820A00C49B0020C09B002038F02BF87B
:102B28003068092138F0A4F830684FF4806137F034
:102B3800A3F81021306836F054FE5348D6F80080C8
:102B480046F078F8C0F307238DF83000C0F307404B
:102B58008DF831308DF832000C994046002239F05A
:102B68002FFF0022FF21306839F039FF206823F059
:102B780063FE464C6FF04041206038F01EF8206834
:102B88006FF0404138F030F820686FF0010137F0FD
:102B9800DBFF2068032137F0EEFF2068092138F0B9
:102BA80067F83B4920684AF0E0FA6FF07F402668F2
:102BB80046F040F8C0F307238DF83400C0F307400F
:102BC8008DF835308DF836000D993046002239F0F1
:102BD80039FF20680022FF2139F043FF00223946DF
:102BE800206839F045FF286823F020FA294C2A4943
:102BF80020604AF030F920686FF0404137F0DDFF7F
:102C080020686FF0404137F0EFFF20687E2137F0F1
:102C18009BFF2068632137F0AEFF2068092138F058
:102C280027F82068022137F027F81021206836F0AD
:102C3800D8FD286823F0FAF9184C194920604AF0A1
:102C48000AF920686FF0404137F0B7FF20686FF04D
:102C5800404137F0C9FF20686FF0840137F074FFF6
:102C68002068642137F087FF2068092138F000F8D0
:102C78002068022137F000F8102120680FB0BDE865
:102C8800F04F36F0AEBD00BF0767FF00BC9B0020C9
:102C980067820A00B89B0020B82A0500B49B002070
:102CA8009C2A05002DE9F04F0020A1B012F0E0FFAA
:102CB800CF4D1021286036F094FDCE482C6845F0A1
:102CC800B9FFC0F307238DF80400C0F307408DF85F
:102CD80005308DF8060001992046002239F070FE73
:102CE8000022FF21286839F07AFE286823F09EF92F
:102CF800C14CC24920604AF0AEF820686FF04041EC
:102D080037F05BFF20686FF0404137F06DFF2068B7
:102D1800092137F0ADFF2068022136F0ADFF102100
:102D2800206836F05EFD286812F0A2FFB44CB54E5C
:102D3800206014F031FB2068582137F03EFF2068EE
:102D48001A2137F051FF20686FF0610137F0FCFE5F
:102D580020686FF0590137F00EFF2068092137F01D
:102D680087FF1221206836F03CFD206823F064FDBF
:102D78006FF04041306037F020FF30686FF040411D
:102D880037F032FF30686FF01C0137F0DDFE306835
:102D98006FF0030137F0EFFEDFF86C82306809212D
:102DA80037F066FF994930684AF0DFF940463768DE
:102DB80045F040FFC0F307238DF80800C0F3074033
:102DC8008DF809308DF80A00DFF8449238460299E8
:102DD800002239F037FE30680022FF2139F041FE29
:102DE80000224946306839F043FE206823F024FD6C
:102DF800884E6FF04041306037F0DFFE30686FF08A
:102E0800404137F0F1FE30686FF0080137F09CFE62
:102E180030686FF0040137F0AEFE3068092137F0F2
:102E280027FF7D4930684AF0A0F94046376845F0E9
:102E380001FFC0F307238DF80C00C0F307408DF89D
:102E48000D308DF80E0003993846002239F0FAFD4E
:102E580030680022FF2139F004FE0022494630681C
:102E680039F006FE206823F0E7FC6C4C6FF0404117
:102E7800206037F0A2FE20686FF0404137F0B4FEC2
:102E880020680F2137F060FE20686FF0020137F0EC
:102E980072FE634F2068092137F0EAFE6149206815
:102EA8004AF063F93846266845F0C4FEC0F30723A4
:102EB8008DF81000C0F307408DF811308DF812001E
:102EC80004993046002239F0BDFD20680022FF2118
:102ED80039F0C7FD00224946206839F0C9FD286845
:102EE80012F0C6FE504C514E206014F055FA20687E
:102EF800732137F062FE2068232137F075FE2068C1
:102F08006FF07A0137F020FE20686FF0490137F042
:102F180032FE2068092137F0ABFE1221206836F016
:102F280060FC206823F088FC6FF04041306037F087
:102F380044FE30686FF0404137F056FE30686FF05D
:102F4800060137F001FE3068032137F014FE3068BF
:102F5800092137F08DFE364930684AF006F96FF0DE
:102F68007F40D6F8009045F065FEC0F307238DF842
:102F78001400C0F307408DF815308DF81600059938
:102F880048460022DFF8AC9039F05CFD306800223A
:102F9800FF2139F066FD00224946306839F068FDA6
:102FA800206823F049FC244E6FF04041306037F030
:102FB80004FE30686FF0404137F016FE3068062195
:102FC80037F0C2FDDFF874A03068032137F0D3FD75
:102FD8003068092137F04CFE514630684AF0C5F890
:102FE8006FF07F40D6F800B045F024FE28E000BF1F
:102FF8009C9C0020E76E0700989C0020482A05004A
:10300800949C0020909C0020FBFBFF006C820A002F
:10301800445E05008C9C00208D820A00889C00205C
:10302800FDFDFF006F820A00849C0020809C002028
:1030380072820A00EC3D05007C9C0020AD880A00E5
:10304800C0F307238DF81800C0F307408DF8193036
:103058008DF81A0006995846002239F0F3FC3068BA
:103068000022FF2139F0FDFC00224946306839F082
:10307800FFFC206823F0E0FBCE4E6FF0404130604B
:1030880037F09BFD30686FF0404137F0ADFD306898
:10309800122137F059FD3068032137F06CFD306894
:1030A800092137F0E5FDC44930684AF05EF86FF051
:1030B8007F40D6F800B045F0BDFDC0F307238DF87A
:1030C8001C00C0F307408DF81D308DF81E000799CD
:1030D8005846002239F0B6FC30680022FF2139F04A
:1030E800C0FC00224946306839F0C2FC206823F051
:1030F800A3FBB24E6FF04041306037F05EFD3068A0
:103108006FF0404137F070FD30681F2137F01CFD2B
:103118003068032137F02FFD3068092137F0A8FD0A
:10312800514630684AF021F86FF07F40D6F800A089
:1031380045F080FDC0F307238DF82000C0F3074059
:103148008DF821308DF8220008995046002239F078
:1031580079FC30680022FF2139F083FC00224946BF
:10316800306839F085FC206823F066FB944C6FF0DA
:103178004041206037F021FD20686FF0404137F072
:1031880033FD20682B2137F0DFFC2068032137F05E
:10319800F2FC2068092137F06BFD8A49206849F064
:1031A800E4FF6FF07F40266845F044FDC0F3072335
:1031B8008DF82400C0F307408DF825308DF82600DF
:1031C80009993046002239F03DFC20680022FF2191
:1031D80039F047FC00224946206839F049FC286844
:1031E80012F046FD784C794E206014F0D5F820682E
:1031F800A12137F0E2FC2068A92137F0F5FC20680E
:10320800062137F0A1FC20681E2137F0B4FC2068A5
:10321800092137F02DFD1221206836F0E2FA2068E6
:1032280023F00AFB6FF04041306037F0C6FC30688D
:103238006FF0404137F0D8FC3068062137F084FC45
:1032480030686FF0060137F096FC3068092137F0D6
:103258000FFD5F49306849F088FF4046D6F8009076
:1032680045F0E8FCC0F307238DF82800C0F30740B9
:103278008DF829308DF82A000A994846002239F03D
:10328800E1FB30680022FF2139F0EBFB00225149B5
:10329800306839F0EDFB206823F0CEFA4E4E6FF01F
:1032A8004041306037F089FC30686FF0404137F0BA
:1032B8009BFC30686FF0020137F046FC3068222131
:1032C80037F059FC3068092137F0D2FC434930689F
:1032D80049F04BFF3846D6F8008045F0ABFCC0F308
:1032E80007238DF82C00C0F307408DF82D308DF89A
:1032F8002E000B994046002239F0A4FB30680022CA
:10330800FF2139F0AEFB00223549306839F0B0FBB7
:10331800206822F08BFE334C3349206049F09BFD36
:1033280020686FF0404137F048FC20686FF040415A
:1033380037F05AFC20686FF0080137F005FC206868
:10334800452137F018FC2068092137F091FC2068E6
:10335800022136F091FC1021206836F042FA2868E4
:1033680022F064FE214C2249206049F074FD206857
:103378006FF0404137F021FC20686FF0404137F092
:1033880033FC20687E2137F0DFFB2068632137F0AB
:10339800F2FB2068092137F06BFC2068022136F027
:1033A8006BFC1021206836F01CFA286822F03EFEDB
:1033B80020E000BF789C002075820A00749C0020E1
:1033C800709C002078820A006C9C0020689C002079
:1033D8007B820A000C690500649C002082820A0036
:1033E800A8630500609C0020642A05005C9C0020FE
:1033F800B82A0500D24CD349206049F02CFD20683A
:103408006FF0404137F0D9FB20686FF0404137F04A
:10341800EBFB20686FF0840137F096FB206864218D
:1034280037F0A9FB2068092137F022FC2068022127
:1034380036F022FC1021206836F0D3F9286812F003
:1034480017FCC14CC14D206013F0A6FF2068AE21C7
:1034580037F0B3FB2068672137F0C6FB2068792175
:1034680037F072FB20686FF0570137F084FB206853
:10347800092137F0FDFB1221206836F0B2F92068E7
:1034880023F0DAF96FF04041286037F096FB28689E
:103498006FF0404137F0A8FB28686FF0410137F022
:1034A80053FB28686FF0030137F065FB2868092192
:1034B80037F0DEFBA649286849F057FE38462E68E3
:1034C80045F0B8FBC0F307238DF83000C0F3074080
:1034D8008DF831308DF832000C993046002239F0E1
:1034E800B1FA0022FF21286839F0BBFA206812F0EF
:1034F800BFFB984D5121286037F05FFB28683021C9
:1035080037F072FB28686FF0050137F01DFB28685B
:103518006FF0010137F02FFB2868092137F0A8FB6D
:103528001021286836F05DF98B482E6845F082FB3B
:10353800C0F307238DF83400C0F307408DF8353009
:103548008DF836000D993046002239F039FA0022FC
:10355800FF21286839F043FA4AF6FF602E6845F0E3
:1035680069FBC0F307238DF83800C0F307408DF8D6
:1035780039308DF83A000E990022304639F036FA83
:1035880000202E6845F056FBC0F307238DF83C0059
:10359800C0F307408DF83D308DF83E000F99304656
:1035A800002239F039FA0022FF21286839F043FA5D
:1035B800206823F041F9694E6FF04041306037F0E0
:1035C800FCFA30686FF0404137F00EFB30686FF05E
:1035D8001E0137F0B9FADFF888A130686FF01101E1
:1035E80037F0C9FA3068092137F042FB5146306894
:1035F80049F0BBFD6FF07F40356845F01BFBC0F319
:1036080007238DF84000C0F307408DF841308DF84E
:103618004200109928460022524D39F013FA3068BA
:103628000022FF2139F01DFA00222946306839F0BE
:103638001FFA206823F000F94B4E6FF040413060CC
:1036480037F0BBFA30686FF0404137F0CDFA306898
:10365800072137F079FA454F30686FF0100137F0DD
:103668008AFA3068092137F003FB3946306849F097
:103678007CFD6FF07F40D6F8008045F0DBFAC0F3A0
:1036880007238DF84400C0F307408DF845308DF8C6
:10369800460011994046002239F0D4F930680022DA
:1036A800FF2139F0DEF900222946306839F0E0F9C7
:1036B800206823F0C1F82E4E6FF04041306037F09B
:1036C8007CFA30686FF0404137F08EFA30686FF05E
:1036D8001E0137F039FADFF89C9030686FF001016D
:1036E80037F049FA3068092137F0C2FA494630689C
:1036F80049F03BFD6FF07F40D6F8008045F09AFA1C
:10370800C0F307238DF84800C0F307408DF849300F
:103718008DF84A0012994046002239F093F9306832
:103728000022FF2139F09DF900222946306839F03E
:103738009FF9206823F080F80F4E6FF040411DE09C
:10374800589C00209C2A0500549C0020509C002076
:1037580088820A004C9C0020F06C0900489C0020DC
:103768008C820A0088380500449C00208F820A0059
:10377800409C002094820A003C9C0020306037F076
:103788001CFA30686FF0404137F02EFA3068072194
:1037980037F0DAF930686FF0010137F0ECF930688A
:1037A800092137F065FA3946306849F0DEFC6FF0D8
:1037B8007F40D6F8008045F03DFAC0F307238DF826
:1037C8004C00C0F307408DF84D308DF84E0013992A
:1037D8004046002239F036F930680022FF2139F0DE
:1037E80040F900222946306839F042F9206823F070
:1037F80023F8D74E6FF04041306037F0DEF930687B
:103808006FF0404137F0F0F930686FF01D0137F084
:103818009BF9DFF8408330680D2137F0ACF9306848
:10382800092137F025FA4146306849F09EFC6FF0CF
:103838007F40D6F800B045F0FDF9C0F307238DF8B6
:103848005000C0F307408DF851308DF8520014999C
:103858005846002239F0F6F830680022FF2139F086
:1038680000F900222946306839F002F9206822F070
:10387800E3FFB94C6FF04041206037F09EF92068B3
:103888006FF0404137F0B0F92068072137F05CF954
:1038980020680D2137F06FF92068092137F0E8F921
:1038A8003946206849F061FC6FF07F40266845F092
:1038B800C1F9C0F307238DF85400C0F307408DF811
:1038C80055308DF8560015993046002239F0BAF86F
:1038D80020680022FF2139F0C4F800222946206818
:1038E80039F0C6F89D4B9E4C186812F0C1F920605B
:1038F80013F052FD2068AE2137F05FF92068672188
:1039080037F072F92068792137F01EF920686FF0D6
:10391800250137F030F92068092137F0A9F912217B
:10392800206835F05EFF206822F086FF8D4E6FF02C
:103938004041306037F041F930686FF0404137F06E
:1039480053F930686FF0410137F0FEF830686FF0D6
:10395800020137F010F93068092137F089F98249F6
:10396800306849F002FC8148D6F800B045F062F9A9
:10397800C0F307238DF85800C0F307408DF859307D
:103988008DF85A0016995846002239F05BF8002243
:10399800FF21306839F065F8206812F069F9744E33
:1039A8005121306037F009F93068302137F01CF9BF
:1039B80030686FF0050137F0C7F830686FF0010123
:1039C80037F0D9F83068092137F052F910213068FA
:1039D80035F007FF6748D6F800B045F02BF9C0F37B
:1039E80007238DF85C00C0F307408DF85D308DF833
:1039F8005E0017995846002238F0E2FF0022FF21A6
:103A0800306838F0ECFF4AF6FF60D6F800B045F0B1
:103A180011F9C0F307238DF86000C0F307408DF853
:103A280061308DF8620018990022584638F0DEFFA0
:103A38000020D6F800B045F0FDF8C0F307238DF854
:103A48006400C0F307408DF865308DF86600199959
:103A58005846002238F0E0FF0022FF21306838F095
:103A6800EAFF206822F0E8FE434E6FF040413060E4
:103A780037F0A3F830686FF0404137F0B5F8306898
:103A88006FF01C0137F060F830686FF0100137F004
:103A980072F83068092137F0EBF85146306849F080
:103AA80064FB6FF07F40D6F800A045F0C3F8C0F380
:103AB80007238DF86800C0F307408DF869308DF84A
:103AC8006A001A995046002238F0BCFF306800227C
:103AD800FF2138F0C6FF00222946306838F0C8FFB9
:103AE800206822F0A9FE254E6FF04041306037F083
:103AF80064F830686FF0404137F076F83068072195
:103B080037F022F830686FF00F0137F034F830687A
:103B1800092137F0ADF83946306849F026FB6FF0D7
:103B28007F40D6F800A045F085F8C0F307238DF84C
:103B38006C00C0F307408DF86D308DF86E001B994E
:103B48005046002238F07EFF3068002218E000BF9F
:103B5800389C002097820A00349C00209C9C0020FE
:103B6800309C00202C9C00209A820A00FDFDFF005A
:103B7800289C0020F06C0900249C0020209C002038
:103B8800FF2138F06EFF00222946306838F070FFB8
:103B9800206822F051FE8F4E6FF04041306037F0C0
:103BA8000CF830686FF0404137F01EF830686FF05D
:103BB8001C0136F0C9FF30686FF0010136F0DBFFF9
:103BC8003068092137F054F84946306849F0CDFA91
:103BD8006FF07F40D6F8009045F02CF8C0F307232B
:103BE8008DF87000C0F307408DF871308DF87200C1
:103BF8001C994846002238F025FF30680022FF2132
:103C080038F02FFF00222946306838F031FF20684D
:103C180022F012FE704E6FF04041306036F0CDFF5A
:103C280030686FF0404136F0DFFF3068072136F02A
:103C38008BFF30686FF0010136F09DFF3068092175
:103C480037F016F83946306849F08FFA6FF07F4040
:103C5800D6F8009044F0EEFFC0F307238DF8740007
:103C6800C0F307408DF875308DF876001D994846E9
:103C7800002238F0E7FE30680022FF2138F0F1FE1C
:103C880000222946306838F0F3FE206822F0D4FD7F
:103C9800524E6FF04041306036F08FFF30686FF061
:103CA800404136F0A1FF30686FF01C0136F04CFF40
:103CB80030680D2136F05FFF3068092136F0D8FFF3
:103CC8004146306849F051FA6FF07F40D6F80080DD
:103CD80044F0B0FFC0F307238DF87800C0F3074025
:103CE8008DF879308DF87A001E994046002238F018
:103CF800A9FE30680022FF2138F0B3FE00222946D1
:103D0800306838F0B5FE206822F096FD344E6FF02A
:103D18004041306036F051FF30686FF0404136F076
:103D280063FF3068072136F00FFF30680D2136F049
:103D380022FF3068092136F09BFF3946306849F088
:103D480014FA6FF07F40376844F074FFC0F307231C
:103D58008DF87C00C0F307408DF87D308DF87E002B
:103D68001F993846002238F06DFE30680022FF2186
:103D780038F077FE00222946306838F079FE20684E
:103D880022F054F9174C1849206049F064F820686B
:103D98006FF0404136F011FF20686FF0404136F077
:103DA80023FF20686FF0410136F0CEFE20686FF0E7
:103DB8001A0136F0E0FE2068092136F059FF206824
:103DC800022135F059FF1021206821B0BDE8F04FDD
:103DD80035F007BD1C9C0020189C0020149C002076
:103DE800109C00200C9C00200C2B05002DE9F043B2
:103DF80000208BB011F03CFFCE4E1021306035F022
:103E0800F0FC306822F012F9CB4CCC49206049F024
:103E180022F820686FF0404136F0CFFE20686FF03E
:103E2800404136F0E1FE2068092136F021FF206884
:103E3800022135F021FF1021206835F0D2FC3068CE
:103E480011F016FFBE4CBF4D206013F0A5FA206894
:103E58008C2136F0B2FE20683C2136F0C5FE206881
:103E6800062136F071FE20686FF0080136F083FEF7
:103E78002068092136F0FCFE1221206835F0B1FCDB
:103E8800206822F0D9FC6FF04041286036F095FE9A
:103E980028686FF0404136F0A7FE28686FF02B01C4
:103EA80036F052FE28684FF0FF3136F064FEDFF836
:103EB80098922868092136F0DBFEA449286849F061
:103EC80054F948462F6844F0B5FEC0F307238DF82F
:103ED8000400C0F307408DF805308DF806000199FD
:103EE800384600229A4F38F0ADFD28680022FF219D
:103EF80038F0B7FD00223946286838F0B9FD206847
:103F080022F09AFC934D6FF04041286036F055FE40
:103F180028686FF0404136F067FE28686FF00801A6
:103F280036F012FE28686FF0040136F024FE286887
:103F3800092136F09DFE8849286849F016F9484657
:103F4800D5F8008044F076FEC0F307238DF808000A
:103F5800C0F307408DF809308DF80A0002994046F1
:103F6800002238F06FFD28680022FF2138F079FD23
:103F780000223946286838F07BFD206822F05CFC76
:103F8800764C6FF04041206036F017FE20686FF0E5
:103F9800404136F029FE20681F2136F0D5FD206803
:103FA8004FF0FF3136F0E7FD2068092136F060FE5A
:103FB8006B49206849F0D9F86A48256844F03AFE08
:103FC800C0F307238DF80C00C0F307408DF80D30BF
:103FD8008DF80E0003992846002238F033FD20683A
:103FE8000022FF2138F03DFD00223946206838F0D4
:103FF8003FFD306811F03CFE5B4C5C4D206013F0D7
:10400800CBF92068732136F0D8FD2068232136F0DB
:10401800EBFD20686FF00B0136F096FD20681A2141
:1040280036F0A9FD2068092136F022FE1221206809
:1040380035F0D7FB206822F0FFFB6FF04041286085
:1040480036F0BBFD28686FF0404136F0CDFD28689A
:104058006FF0150136F078FD2868042136F08BFDE5
:104068002868092136F004FE4149286849F07DF89E
:104078006FF07F402F6844F0DDFDC0F307238DF813
:104088001000C0F307408DF811308DF81200049924
:1040980038460022374F38F0D5FC28680022FF2127
:1040A80038F0DFFC00223946286838F0E1FC206847
:1040B80022F0C2FB304D6FF04041286036F07DFDA4
:1040C80028686FF0404136F08FFD28686FF00301D3
:1040D80036F03AFDDFF8A4802868032136F04BFD5E
:1040E8002868092136F0C4FD4146286849F03DF8A2
:1040F8006FF07F40D5F8009044F09CFDC0F3072393
:104108008DF81400C0F307408DF815308DF81600AF
:1041180005994846002238F095FC28680022FF21BE
:1041280038F09FFC00223946286838F0A1FC206846
:1041380026E000BFDC9C0020D89C0020482A05000F
:10414800D49C0020D09C0020FBFBFF006C820A005E
:104158000C690500CC9C00208D820A00C89C0020B8
:104168006F820A00FDFDFF00C49C0020C09C002057
:1041780072820A00B4480500BC9C0020AD880A0081
:1041880022F05AFBAF4D6FF04041286036F015FD24
:1041980028686FF0404136F027FD28680C2136F07A
:1041A800D3FC2868042136F0E6FC2868092136F09B
:1041B8005FFDA549286848F0D8FF6FF07F40D5F823
:1041C800009044F037FDC0F307238DF81800C0F3C2
:1041D80007408DF819308DF81A00069948460022D4
:1041E80038F030FC28680022FF2138F03AFC002221
:1041F8003946286838F03CFC206822F01DFB934DB6
:104208006FF04041286036F0D8FC28686FF04041D4
:1042180036F0EAFC28681F2136F096FC286803214E
:1042280036F0A9FC2868092136F022FD41462868A5
:1042380048F09BFF6FF07F40D5F8008044F0FAFC0F
:10424800C0F307238DF81C00C0F307408DF81D301C
:104258008DF81E0007994046002238F0F3FB2868C5
:104268000022FF2138F0FDFB00223946286838F08B
:10427800FFFB206822F0E0FA754C6FF040412060A7
:1042880036F09BFC20686FF0404136F0ADFC2068AA
:10429800302136F059FC2068032136F06CFC206888
:1042A800092136F0E5FC6B49206848F05EFF6FF0A5
:1042B8007F40256844F0BEFCC0F307238DF820003A
:1042C800C0F307408DF821308DF822000899284660
:1042D800002238F0B7FB20680022FF2138F0C1FB2C
:1042E80000223946206838F0C3FB306811F0C0FC62
:1042F800594C206013F050F820685B2136F05DFCC3
:104308002068282136F070FC2068022136F01CFC59
:1043180020686FF0540136F02EFC2068092136F031
:10432800A7FC1221206835F05CFA206822F084FA94
:104338004A4C6FF04041206036F03FFC20686FF037
:10434800404136F051FC20686FF0050136F0FCFB67
:1043580020684FF0FF3136F00EFC2068092136F056
:1043680087FC3F49206848F000FF3E48256844F034
:1043780061FCC0F307238DF82400C0F307408DF8D3
:1043880025308DF8260009992846002238F05AFB76
:1043980020680022FF2138F064FB0022324920689F
:1043A80038F066FB306821F041FE304C304920601F
:1043B80048F051FD20686FF0404136F0FEFB206860
:1043C8006FF0404136F010FC20687E2136F0BCFBCF
:1043D8002068632136F0CFFB2068092136F048FCBD
:1043E8002068022135F048FC1021206835F0F9F9E1
:1043F800306821F01BFE1F4C1F49206048F02BFD40
:1044080020686FF0404136F0D8FB20686FF04041DB
:1044180036F0EAFB20686FF0840136F095FB2068DF
:10442800642136F0A8FB2068092136F021FC2068B9
:10443800022135F021FC102120680BB0BDE8F043C3
:1044480035F0CFB9B89C002075820A00B49C0020D2
:10445800B09C002078820A00AC9C0020A89C002018
:104468009F820A00FEFEFE00E0580500A49C002082
:10447800B82A0500A09C00209C2A05002DE9F043DD
:1044880000208DB011F0F4FBCE4D1021286035F0DE
:10449800A8F9286821F0CAFDCB4CCC49206048F027
:1044A800DAFC20686FF0404136F087FB20686FF037
:1044B800404136F099FB2068092136F0D9FB206885
:1044C800022135F0D9FB1021206835F08AF92868D7
:1044D80011F0CEFBBE4CBF4E206012F05DFF20688D
:1044E8008C2136F06AFB2068272136F07DFB206896
:1044F8006FF03C0136F028FB20686FF0590136F068
:104508003AFB2068092136F0B3FB1221206835F008
:1045180068F9206822F090F96FF04041306036F079
:104528004CFB30686FF0404136F05EFB30686FF04E
:104538002B0136F009FB30684FF0FF3136F01BFBDA
:10454800DFF894923068092136F092FBA34930686D
:1045580048F00BFE4846376844F06CFBC0F307236D
:104568008DF80400C0F307408DF805308DF806007B
:104578000199384600229A4F38F064FA30680022D0
:10458800FF2138F06EFA00223946306838F070FAA8
:10459800206822F051F9934E6FF04041306036F0B8
:1045A8000CFB30686FF0404136F01EFB30686FF04E
:1045B800080136F0C9FA30686FF0040136F0DBFA0A
:1045C8003068092136F054FB8749306848F0CDFD42
:1045D8004846D6F8008044F02DFBC0F307238DF839
:1045E8000800C0F307408DF809308DF80A000299D9
:1045F8004046002238F026FA30680022FF2138F0C1
:1046080030FA00223946306838F032FA206822F051
:1046180013F9764C6FF04041206036F0CEFA2068EE
:104628006FF0404136F0E0FA20681F2136F08CFA2E
:1046380020684FF0FF3136F09EFA2068092136F0E5
:1046480017FB6B49206848F090FD6A48266844F0DB
:10465800F1FAC0F307238DF80C00C0F307408DF87A
:104668000D308DF80E0003993046002238F0EAF933
:1046780020680022FF2138F0F4F90022394620682A
:1046880038F0F6F9286811F0F3FA5B4C5B4E2060BD
:1046980012F082FE2068732136F08FFA20682321F9
:1046A80036F0A2FA2068232136F04EFA20686FF01F
:1046B8004F0136F060FA2068092136F0D9FA122144
:1046C800206835F08EF8206822F0B6F86FF0404187
:1046D800306036F072FA30686FF0404136F084FA94
:1046E80030686FF0150136F02FFA3068042136F083
:1046F80042FA3068092136F0BBFA4149306848F07F
:1047080034FD6FF07F40376844F094FAC0F3072314
:104718008DF81000C0F307408DF811308DF81200A5
:10472800049938460022374F38F08CF93068002257
:10473800FF2138F096F900223946306838F098F9A8
:10474800206822F079F8304E6FF04041306036F042
:1047580034FA30686FF0404136F046FA30686FF04E
:10476800030136F0F1F9DFF8A4803068032136F050
:1047780002FA3068092136F07BFA4146306848F081
:10478800F4FC6FF07F40D6F8009044F053FAC0F381
:1047980007238DF81400C0F307408DF815308DF805
:1047A800160005994846002238F04CF93068002276
:1047B800FF2138F056F900223946306838F058F9A8
:1047C800206825E0389D0020349D0020482A0500F7
:1047D800309D00202C9D0020FBFBFF006C820A000E
:1047E8000C690500289D00208D820A00249D002068
:1047F8006F820A00FDFDFF00209D00201C9D002007
:1048080072820A00B4480500189D0020AD880A008D
:1048180022F012F8CD4E6FF04041306036F0CDF9FD
:1048280030686FF0404136F0DFF930680C2136F01F
:104838008BF93068042136F09EF93068092136F08A
:1048480017FAC349306848F090FC6FF07F40D6F8FB
:10485800009044F0EFF9C0F307238DF81800C0F377
:1048680007408DF819308DF81A000699484600223D
:1048780038F0E8F830680022FF2138F0F2F800221A
:104888003946306838F0F4F8206821F0D5FFB14E89
:104898006FF04041306036F090F930686FF0404179
:1048A80036F0A2F930681F2136F04EF9306803213E
:1048B80036F061F93068092136F0DAF94146306896
:1048C80048F053FC6FF07F40D6F8008044F0B2F90E
:1048D800C0F307238DF81C00C0F307408DF81D3086
:1048E8008DF81E0007994046002238F0ABF8306872
:1048F8000022FF2138F0B5F800223946306838F038
:10490800B7F8206821F098FF934C6FF04041206081
:1049180036F053F920686FF0404136F065F92068A9
:10492800302136F011F92068032136F024F9206887
:10493800092136F09DF98949206848F016FC6FF086
:104948007F40266844F076F9C0F307238DF82000ED
:10495800C0F307408DF821308DF8220008993046C1
:10496800002238F06FF820680022FF2138F079F82B
:1049780000223946206838F07BF8286811F078F969
:10498800774C784E206012F007FD20686B2136F0D6
:1049980014F92068252136F027F920686FF02D01D9
:1049A80036F0D2F82068452136F0E5F8206809216C
:1049B80036F05EF91221206834F013FF206821F0E8
:1049C80035FB6949306048F046FA30686FF040417D
:1049D80036F0F3F830686FF0404136F005F930688A
:1049E8006FF01C0136F0B0F830684FF0FF3136F048
:1049F800C2F83068092136F03BF93068022135F0F9
:104A08003BF91021306834F0ECFE206821F014FFE7
:104A1800564C6FF04041206036F0CFF820686FF0B8
:104A2800404136F0E1F820680E2136F08DF8206814
:104A3800002136F0A0F82068092136F019F94C4910
:104A4800206848F092FB6FF07F40266844F0F2F847
:104A5800C0F307238DF82400C0F307408DF82530F4
:104A68008DF82600434F30460999002237F0EAFFB7
:104A780020680022FF2137F0F4FF00223946206821
:104A880037F0F6FF286811F0F3F83B4C3B4E2060F6
:104A980012F082FC20687A2136F08FF820682821ED
:104AA80036F0A2F82068452136F04EF820686FF0FD
:104AB8001D0136F060F82068092136F0D9F8122176
:104AC800206834F08EFE206821F0B0FA2C4930605E
:104AD80048F0C1F930686FF0404136F06EF8306840
:104AE8006FF0404136F080F83068222136F02CF81B
:104AF80030686FF0010136F03EF83068092136F071
:104B0800B7F83068022135F0B7F81021306834F072
:104B180068FE206821F090FE1A4C6FF0404120603A
:104B280036F04BF820686FF0404136F05DF82068A9
:104B38006FF0100136F008F820684FF0FF3136F0BA
:104B48001AF82068092136F093F81DE0149D00201A
:104B580075820A00109D00200C9D002078820A00B2
:104B6800089D0020049D0020D42A0500009D0020F7
:104B7800A6820A007C530500FC9C0020F89C0020BB
:104B8800F02A0500F49C00207A49206848F0EDFAE4
:104B98007948266844F04EF8C0F307238DF82800BA
:104BA800C0F307408DF829308DF82A000A9930465D
:104BB800002237F047FF20680022FF2137F051FF1D
:104BC80000223946206837F053FF286811F050F862
:104BD8006A4C6B4E206012F0DFFB20689C2135F098
:104BE800ECFF20681A2135F0FFFF2068102135F00E
:104BF800ABFF2068112135F0BEFF2068092136F08F
:104C080037F81221206834F0ECFD206821F00EFA04
:104C18005C49306048F01FF930686FF0404135F06A
:104C2800CCFF30686FF0404135F0DEFF30686FF040
:104C38003C0135F089FF30686FF0010135F09BFFCA
:104C48003068092136F014F83068022135F014F87C
:104C58001021306834F0C5FD206821F0EDFD4A4C84
:104C68006FF04041206035F0A8FF20686FF04041A8
:104C780035F0BAFF20680B2135F066FF20686FF029
:104C8800010135F078FF2068092135F0F1FF3F492F
:104C9800206848F06AFA6FF07F40266843F0CAFF40
:104CA800C0F307238DF82C00C0F307408DF82D3092
:104CB8008DF82E000B993046002237F0C3FE20688D
:104CC8000022FF2137F0CDFE00223946206837F058
:104CD800CFFE286821F0AAF92D4C2E49206048F013
:104CE800BAF820686FF0404135F067FF20686FF030
:104CF800404135F079FF20687E2135F025FF206896
:104D0800632135F038FF2068092135F0B1FF2068AC
:104D1800022134F0B1FF1021206834F062FD2868C8
:104D280021F084F91C4C1D49206048F094F8206853
:104D38006FF0404135F041FF20686FF0404135F099
:104D480053FF20686FF0840135F0FEFE206864216F
:104D580035F011FF2068092135F08AFF206802210B
:104D680034F08AFF102120680DB0BDE8F04334F01C
:104D780038BD00BF9F820A00FEFEFE00F09C0020A6
:104D8800EC9C0020802A0500E89C0020AA820A00EA
:104D9800E49C0020B82A0500E09C00209C2A05001D
:104DA8001FB51BF097FC1F4B186013F077FC0446E7
:104DB80005201BF031FDC0F307238DF808008DF89E
:104DC8000930C0F3074300208DF80A301BF024FD9A
:104DD800C0F307238DF80D30C0F307438DF80E306C
:104DE800114B8DF80C00DDE90212009320460023D8
:104DF8001CF0E4FF0146204613F08CFEFEF7F6FF98
:104E0800FFF73CFBFDF74EFFFDF7D6FA002010F048
:104E18002FFF064B1860064B186804B0BDE8104019
:104E280038F0DEBAB09B0020504305003C9D0020BE
:104E3800DC9C00202DE9F04FBA4BBB4EBB4F3360D2
:104E4800BB4BBC4DBC4C3B60BC4BDFF8F4822B60C9
:104E58002368BC4A03F00703022B8FB0C8F8002070
:104E680042D94FF00009B84B0392029303224B46F4
:104E780021464846CDE900992DF002FF236803F04A
:104E88000703022B30D9336803220393AF4B214623
:104E9800CDE9019348464B46CDF800902DF0F0FE41
:104EA800236803F00703022B1ED93B6803220393F0
:104EB800A74B2146CDE9019348464B46CDF80090D3
:104EC8002DF0DEFE236803F00703022B0CD92B68B4
:104ED800032203939F4B2146CDE9019348464B4655
:104EE800CDF800902DF0CCFED8F800002DF0C6FECD
:104EF8000346002840F08A812268510707D0964A65
:104F08008D49CDE90102012200902DF0B9FE3068EB
:104F18002DF0B4FE0346002840F08781226852072E
:104F280007D08E4A8449CDE90102012200902DF074
:104F3800A7FE38682DF0A2FE0346002840F08481C1
:104F48002268510707D0864A7B49CDE90102012230
:104F580000902DF095FE28682DF090FE034600285D
:104F680040F081812268520707D07E4A7249CDE914
:104F78000102012200902DF083FED8F800002DF0E8
:104F88007DFE002800F07E81DFF8DCA150462DF080
:104F980075FE002800F08881236803F00703022BC0
:104FA8000CD9DAF8003003220393704B624902935C
:104FB80000231846CDE900332DF062FE4FF00809B2
:104FC8000023CDE90B3302238DF834309DF83430BB
:104FD800DAF8082043F002038DF83430D2F808B02C
:104FE8001FFA89F3012260480BA9D847034670B914
:104FF800226802F00702022A09D95D4A4E49CDE922
:105008000102CDF80C90032200902DF039FE09F131
:105018000109B9F1780FD3D1D8F800002DF02EFE90
:1050280098B3D8F800002DF025FE8146002840F0FE
:105038004A81DFF840A1DFF840B152460D21D8F887
:1050480000002DF02CFE5A461021D8F800002DF053
:1050580026FE236803F00703022B16D9DBF8043079
:1050680003220693DBF8003048460593DAF804304B
:1050780031490493DAF80030CDF8009003933F4BA0
:10508800CDE901934B462DF0FBFD38682DF0F6FD78
:1050980018B338682DF0EEFD8046002840F02481D2
:1050A800DFF8DC900E214A4638682DF0F8FD2368B9
:1050B80003F00703022B10D9D9F804300322049314
:1050C800D9F80030404603932E4B1B49CDE90183A4
:1050D800CDF8008043462DF0D3FD30682DF0CEFD8D
:1050E800002863D030682DF0C5FD0746002840F041
:1050F8000B81DFF894800B21424630682DF0CFFDFC
:10510800236803F00703022B50D9D8F81430032280
:105118000893D8F8103038460793D8F80C30064969
:10512800069333E0601E0500909D00208C9D0020B2
:10513800841E0500889D002000070020A81E050089
:10514800949D00203C1E0500B2820A00CC820A0011
:10515800E7820A0002830A001D830A003E830A00D0
:1051680061830A0084830A00401D0500A7830A00A2
:10517800BE830A00809D0020789D0020F3830A00EA
:10518800709D002033840A00589D0020D8F808300C
:105198000593D8F804300493D8F8003000970393A7
:1051A800694BCDE901733B462DF06AFD28682DF067
:1051B80065FD38B328682DF05DFD0646002840F0EF
:1051C800B380624F03213A4628682DF068FD2368B2
:1051D80003F00703022B15D97B69032208933B6967
:1051E80030460793FB685A490693BB6805937B686A
:1051F80004933B6800960393564BCDE9016333460D
:105208002DF03EFD00200FB0BDE8F08F236803F0BD
:105218000703022B7FF67BAE4F4B0322029300233A
:105228004B491846CDE900336FE6236803F00703BE
:10523800022B7FF67EAE494B03220293002344499A
:105248001846CDE9003372E6236803F00703022B02
:105258007FF681AE424B0322029300233C49184655
:10526800CDE9003375E6236803F00703022B7FF6C8
:1052780084AE3C4B03220293002335491846CDE9FE
:10528800003378E630682DF0F9FC00287FF47CAE16
:1052980038682DF0F3FC00287FF476AE28682DF0EE
:1052A800EDFC00287FF470AE23685B073FF4B4AED2
:1052B8002D4B01220293002325491846CDE90033DE
:1052C8002DF0DEFCA8E6236858073FF4DEAE274B36
:1052D8000122029300231E491846CDE90033CDF878
:1052E8000C902DF0CDFCD0E6236859073FF4F5AEBD
:1052F8001F4B03900293002301221846CDE9003387
:1053080013492DF0BDFCE8E623685A073FF44EAF79
:10531800184B03900293002301221846CDE900336D
:105328000B492DF0ADFC41E723685B073FF46AAFFA
:10533800114B03900293002301221846CDE9003354
:1053480003492DF09DFC5DE76B840A00409D002019
:1053580000070020B5840A002E830A0050830A0043
:1053680073830A0096830A00D5830A0016840A000C
:105378004D840A0097840A00E1840A001FB5404C56
:1053880020682DF07BFC90B120682DF073FC00287C
:1053980057DA3C490B685B0709D03B4B03900293F3
:1053A800002301221846CDE900332DF069FC374C63
:1053B80020682DF063FC90B120682DF05BFC00287C
:1053C8004ADA30490B685C0709D0314B03900293E5
:1053D800002301221846CDE900332DF051FC2D4C55
:1053E80020682DF04BFC90B120682DF043FC00287C
:1053F80038DA24490B685A0709D0274B03900293DF
:10540800002301221846CDE900332DF039FC234C46
:1054180020682DF033FC90B120682DF02BFC00287B
:1054280026DA18490B685B0709D01D4B03900293D5
:10543800002301221846CDE900332DF021FC04B0E9
:1054480010BD20680D21174A2DF029FC1021164A9D
:1054580020682DF024FCAAE70E21144A20682DF0BC
:105468001EFCBCE70B21124A20682DF018FCCEE781
:105478000321104A206804B0BDE810402DF00FBC8D
:10548800949D0020000700201B840A008C9D0020AA
:1054980052840A00909D00209C840A00889D002068
:1054A800E6840A00809D0020789D0020709D0020E1
:1054B800589D0020409D002001290CBF0122002298
:1054C800044B05491A70054B054808BF19462DF0CD
:1054D8004DBF00BF9EFE02200F850A0007850A0007
:1054E80018850A0010B5074C07482DF03FFF2068C3
:1054F80018B108F07BFB002323600022034B1A70CD
:1055080010BD00BF989D002027850A009EFE02203E
:1055180013B5044629B10B4802B0BDE810402DF080
:1055280025BF30F014FC084B186008482DF01EFF0A
:10553800074B01A918680190204630F062FC02B0C0
:1055480010BD00BF45850A00989D002065850A00AA
:10555800D026050040F2011330B58DB0ADF80C30FF
:1055680006238DF8083002AB0493092304468DF80E
:105578001430FCF78DF90A4D069407AC8DF8150028
:1055880008F0CEF80FCD0FC401222B6803A92360C1
:1055980007A8009205AB07F091FF0DB030BD00BF22
:1055A800D426050010B5002007F0FEF9044628B1FE
:1055B800014607482DF0DAFE204610BD054B1B6852
:1055C80013B90548FFF7C6FF03490448F2E700BFCF
:1055D80074850A00989D00208E850A009B850A0024
:1055E80030B5144B04461D6887B005B3124B1B78C1
:1055F800EBB1E0B11822002168464CF01DF80F4BC2
:105608006946CDE9013408232846ADF80C300BF083
:105618009BFB014628B10A4807B0BDE830402DF091
:10562800A5BE084807B0BDE830402DF09FBE07B0C2
:1056380030BD00BF989D00209EFE02203C2B050037
:10564800C2850A00DB850A0010B58CB038B3B0F902
:105658000440C1886420B1FBF0F300FB131184EA15
:10566800E472A2EBE47212B289B2CDE9023192FB84
:10567800F0F300FB132212B2CDE90032094A0A4BBB
:105688001E2113EA240338BF134604A8074A2BF047
:10569800F5FE074B1B6813B904A8FFF75BFF0CB0B6
:1056A80010BD00BF288C0A007E910A00F2850A000E
:1056B800989D00202DE9F04F046885B0A2686448E1
:1056C800B2F5004F2CBF08230423551C0833A5EB63
:1056D800D305B5FA85F5C5F120052B46894621463F
:1056E8002DF044FE5B482DF041FE00264FF0010BE3
:1056F80004F10C0A5AF8043F53B300271946B84678
:105708002046039302912DF0C6FD804538BF8046A0
:105718000299032220462DF0B3FD039B01468342E4
:1057280007F10107ECD1A3680BFA06F2B3F5004FB5
:1057380034BF042108214FEAC8030831013ACDE9F2
:10574800008302EBD1023B46314643482DF00EFE62
:105758000136B542CED1B9F1000F36D03F482DF011
:1057680005FE0025DFF8F8800122294620462DF0A5
:1057780087FD2946074620462DF08DFDFB07064686
:105788001FD4A368B3F5004F1DD3012814BF2D27DC
:105798002E270022294620462DF072FDAB19281A23
:1057A8000193009033463A46294640462DF0DEFDE7
:1057B800A3689D4209D0294620462DF06CFD05447A
:1057C800D2E72A27E5E72D27E3E7002120462DF039
:1057D80062FD002605463746D4F8088045451ED3A5
:1057E800B8F5004F34BF042108214FF47A7001EB5B
:1057F800C801BB19CB1A4A0800FB03220A20B2FBD6
:10580800F1F2B2FBF0F100FB11221648CDE90012CB
:10581800324639462DF0AAFD05B0BDE8F08F0122C9
:10582800294620462DF02CFD8146294620462DF09C
:1058380032FD19F0010F03D006EBC0060544CDE791
:10584800B8F5004F01D30128F8D007EBC007F5E7FA
:1058580008860A0035860A00F0860A000A870A00C8
:1058680018870A0046870A002DE9F04F91B0009387
:1058780002F004030293C2F3C2030133840705460E
:105888000E46DDF868800392059340F0BB81041D45
:1058980030B1072909D86FF01B0011B0BDE8F08FAF
:1058A80001F007063444C6F10806009B4FF00009D2
:1058B8004FF0040A591E4FF0FF334F460193CB4671
:1058C8005346CDF810900DB1009A22600598002833
:1058D80000F3E8809848009A824203D397488242AE
:1058E800C0F0E080039AA4EB050E92074FEA9E00F1
:1058F80000F103810F2F00F2B180002D00F0058127
:1059080007F140020DEB020C019A0CF8200C0CF880
:10591800102C049801300490E7E07A285DD84B28D1
:105928000ED8472859D829282DD8252852D054D8F8
:1059380020287AD02338D0F1000B4BEB000B74E011
:105948004C382E2849D8DFE800F0704848484848C5
:105958004848484848484B484848484848484859AB
:10596800484B4B595959704B6D487048184B18485B
:1059780048827F4B48484B487F0000204FF0000B7F
:105988004FF0040A38E001222A38C0B202FA00F0C7
:1059980010EA0E0F49D110F0625C2FD110EA020B09
:1059A80043D06046013C5444B4FBFAF40AFB04F4C7
:1059B800002D61D0A3EB050CA444B4453FF66BAFB2
:1059C800002868D1042B47D158F8043B23600423EE
:1059D80004342AE0019A013A01924FF0000B24E0C6
:1059E80011F8010C6C2834D1002011F8023C8346D0
:1059F8006C2BC5D14FF0080A5346D3E708F10708C6
:105A080028F00708073424F00704F8E802AB35B19A
:105A180006982044B0423FF63EAFC4E900AB4FF0D1
:105A2800000B08344FF0080A534611F8010F0028FC
:105A380078D0BBF1000F7FF470AF2528F5D14FF077
:105A4800010B019B013301934FF0040AECE7584620
:105A580094E700208346A5E7082B02D06FF01500D5
:105A68001BE708F1070828F00708F8E80223C4E94B
:105A7800002308230834D8E768B9042B02D108F1B9
:105A88000408A4E7082BE9D108F1070828F007085B
:105A980008F10808EDE7059A013A059258F8042B31
:105AA800009210E7039A900720D54FF0010CA4EB61
:105AB800050E4FEA9E00BEF5007FCFD20F2FCDD83E
:105AC800F5B107F140020DEB020E019AC0B20EF8D3
