:020000040000FA
:10000000C0730320C9B90000177B0300B5B9000015
:10001000B5B90000B5B90000B5B90000B5B9000028
:1000200000000000000000000000000045BB0000D0
:10003000B5B9000000000000DDBA0000B5B900004D
:10004000D9BC0000D9BC0000D9BC0000D9BC00005C
:10005000D9BC0000D9BC0000D9BC0000D9BC00004C
:10006000D9BC0000D9BC0000D9BC0000D9BC00003C
:10007000D9BC0000D9BC0000D9BC0000D9BC00002C
:10008000D9BC0000D9BC0000D9BC0000D9BC00001C
:10009000D9BC0000D9BC0000D9BC0000D9BC00000C
:1000A000D9BC0000D9BC0000D9BC0000D9BC0000FC
:1000B000D9BC0000D9BC0000D9BC0000D9BC0000EC
:1000C000D9BC0000D9BC0000D9BC0000D9BC0000DC
:1000D000D9BC0000D9BC0000D9BC0000D9BC0000CC
:1000E000D9BC0000D9BC0000D9BC0000D9BC0000BC
:1000F000D9BC0000D9BC0000D9BC0000D9BC0000AC
:10010000D9BC0000D9BC0000D9BC0000D9BC00009B
:10011000D9BC0000D9BC0000D9BC0000D9BC00008B
:10012000D9BC0000D9BC0000D9BC0000D9BC00007B
:10013000D9BC0000D9BC0000D9BC0000D9BC00006B
:10014000D9BC0000D9BC0000D9BC0000D9BC00005B
:04015000D9BC000016
:1001580080EA101404F0F01480EA0410604081EA88
:10016800111404F0F01481EA0411614082EA1214B7
:1001780004F0F01482EA0412624083EA131404F0D3
:10018800F01483EA0413634080EA102404F47F44E3
:1001980080EA0420604081EA112404F47F4481EA63
:1001A8000421614082EA122404F47F4482EA042292
:1001B800624083EA132404F47F4483EA04236340FF
:1001C80081EA500404F0553480EA4400614083EA2F
:1001D800520404F0553482EA4402634082EA9004EF
:1001E80004F0333480EA8400624083EA910404F026
:1001F800333481EA84016340704700BF82EA900487
:1002080004F0333480EA8400624083EA910404F005
:10021800333481EA8401634081EA500404F05534A0
:1002280080EA4400614083EA520404F0553482EACB
:100238004402634080EA102404F47F4480EA0420E6
:10024800604081EA112404F47F4481EA042161407A
:1002580082EA122404F47F4482EA0422624083EA98
:10026800132404F47F4483EA0423634080EA1014CF
:1002780004F0F01480EA0410604081EA111404F0DC
:10028800F01481EA0411614082EA121404F0F014B7
:1002980082EA0412624083EA131404F0F01483EA39
:1002A80004136340704700BF2DE9F14F94464FEAAD
:1002B800930B8A68CB6808684968FFF749FF0BF118
:1002C800060E33E083EA134480EA134582EA1347B3
:1002D80046BA96EA3444604000F00F1684EA0634C1
:1002E80020F00F1684EA161054BA94EA01067240F8
:1002F80002F00F1486EA043622F00F1486EA14126C
:100308004CBA6540694001F00F1485EA043521F0C4
:100318000F1485EA14115CBA67407B4003F00F1490
:1003280087EA043723F00F1487EA1413BCE8F000B7
:100338006040694072407B4000F0E03400F01035C6
:1003480000F00F3040EA540040EAC50080EA90040B
:1003580004F0332480EA8400604001F0E03401F0C6
:10036800103501F00F3141EA540141EAC50181EA33
:10037800910404F0332481EA8401614002F0E034FE
:1003880002F0103502F00F3242EA540242EAC50286
:1003980082EA920404F0332482EA8402624003F081
:1003A800E03403F0103503F00F3343EA540343EA13
:1003B800C50383EA930404F0332483EA8403634087
:1003C80081EA324787EA134581EA354690EA06040E
:1003D80084EA034B82EA1B4280EA044484EA054427
:1003E80083EA144A85EA14448BEA044B84EA3744C6
:1003F80081EA0B4181EA164104EA0A00454082EA93
:1004080004082BEA080041408AEA0B0602EA0600C3
:1004180084EA34438AEA3A4603EA060778404540C4
:10042800414088EA38478BEA3B4007EA000985EAF9
:10043800090583EA0709464006EA0906714085EA84
:10044800010005EA3546464006EA314181EA304175
:1004580081EA364606EA304686EA3546344008EAF6
:10046800010886EA01052A4086EA364003405A40D8
:1004780081EA31431F407C4080EA030709EA070903
:1004880088EA0908544088EA020806EA0A0601EAE6
:100498000B018AEA0B0215408AEA3A4210404540AD
:1004A8008BEA3B4003405E404240174079404D4054
:1004B8004E40E443F64386EA18435D4085EA05402A
:1004C80083EA134386EA034183EA384284EA114304
:1004D80083EA04435FEA3343BEF1010E3FF6F2AE0E
:1004E8001ED4BCE8F0006040694072407B4020BCEC
:1004F800FFF784FE28606960AA60EB60BDE8F08FB2
:100508002DE9E0414FF2F00280EA1031114080EA13
:100518000130484041088208C3084FF0000E4FE7F9
:1005280000F0113001F0113102F0113203F01133F3
:1005380040EA410040EA820040EAC3004FF2F0027C
:1005480080EA1031114080EA01304840BDE8E0817E
:100558002DE9F04F02F11C050646074600EB850819
:1005680051F8040B043A46F8040BF9D14FF0010C8A
:10057800FFF7C6FF5FEA302080EA0C001ECF41403B
:100588004A4053405C401EC62000464517D04FEAFB
:100598004C0C1CF4807F18BFACF1E50C2C2DE7D077
:1005A8003C2D06D1FFF7ACFF06CF41404A4006C6B6
:1005B800100006CF41404A4006C61000D8E736E989
:1005C8000F00FFF7C5FD043D86E80F00F7D1BDE831
:1005D800F08F00BF2DE9F14F03F11C0402EB840CEE
:1005E8004FEA930B8A68CB6808684968FFF7B0FD43
:1005F8003CE9F0006040694072407B400BF1060E18
:100608004EE083EA134480EA134582EA134746BA68
:1006180096EA3444604000F00F1684EA063420F06D
:100628000F1684EA161054BA94EA0106724002F0D2
:100638000F1486EA043622F00F1486EA14124CBA14
:100648006540694001F00F1485EA043521F00F1464
:1006580085EA14115CBA67407B4003F00F1487EAFF
:10066800043723F00F1487EA141344BA44404DBAF0
:100678004D4056BA56405FBA5F4087EA174886EA47
:10068800174B84EA17464FEA38488BEA1B4485EA39
:100698001B4788EA1B4580EA3440694072407B402A
:1006A80000F0703400F0803500F00F3040EA44006C
:1006B80040EAD50080EA900404F0332480EA8400FC
:1006C800604001F0703401F0803501F00F3141EAEB
:1006D800440141EAD50181EA910404F0332481EA16
:1006E8008401614002F0703402F0803502F00F326C
:1006F80042EA440242EAD50282EA920404F0332430
:1007080082EA8402624003F0703403F0803503F01B
:100718000F3343EA440343EAD50383EA930404F01E
:10072800332483EA84036340C943DB4381EA00043A
:1007380083EA044686EA020183EA014382EA3345F2
:1007480083EA14435C4084EA00077FEA040A8AEAE1
:10075800024A8AEA010B87EA11488AEA374A80EA9C
:10076800060181EA1A418AEA030A04EA0A004540B6
:1007780088EA040707EA0B0041408AEA0B0608EA00
:10078800060084EA34428AEA3A4602EA06035840F6
:100798004540414087EA37438BEA3B4003EA00097A
:1007A80085EA090582EA0309464006EA0906714016
:1007B80085EA010005EA3546464006EA314181EA04
:1007C800304181EA364606EA304686EA3546344004
:1007D8000F4086EA010508EA050886EA3640024025
:1007E80088EA020881EA314213405C4080EA020349
:1007F80009EA030987EA0907674088EA040806EA5C
:100808000A0601EA0B018AEA0B0425408AEA3A44FF
:10081800204045408BEA3B4B02EA0B02564084EAF3
:100828000B04234059406E40694087EA364080EA0D
:10083800384080EA060380EA104481EA134585EAD5
:10084800344585EA17427D4082EA354180EA054011
:100858003CE9F0006040694072407B40BEF1010E07
:100868003FF6CFAE20BCFFF7C9FC28606960AA60DC
:10087800EB60BDE8F08F00BFFFF76ABE30B44FF001
:10088800000310F8014B11F8015B013A84EA0504F2
:1008980043EA0403F5D1A3F101034FEAD37030BC56
:1008A800704700BF4FF0000310F8012B013943EAED
:1008B8000203F9D1A3F101034FEAD370704700BFD7
:1008C80030B411F8014B12F8015B6C4000F8014B91
:1008D800013BF6D130BC704781F0004102E000BF17
:1008E80083F0004330B54FEA41044FEA430594EAE8
:1008F800050F08BF90EA020F1FBF54EA000C55EA23
:10090800020C7FEA645C7FEA655C00F0E2804FEAF3
:100918005454D4EB5555B8BF6D420CDD2C4480EAD5
:10092800020281EA030382EA000083EA010180EA05
:10093800020281EA0303362D88BF30BD11F0004F53
:100948004FEA01314FF4801C4CEA113102D0404289
:1009580061EB410113F0004F4FEA03334CEA1333C4
:1009680002D0524263EB430394EA050F00F0A780DC
:10097800A4F10104D5F1200E0DDB02FA0EFC22FAD7
:1009880005F2801841F1000103FA0EF2801843FACB
:1009980005F359410EE0A5F120050EF1200E012ABC
:1009A80003FA0EFC28BF4CF0020C43FA05F3C018FA
:1009B80051EBE37101F0004507D54FF0000EDCF173
:1009C800000C7EEB00006EEB0101B1F5801F1BD31C
:1009D800B1F5001F0CD349085FEA30004FEA3C0C20
:1009E80004F101044FEA445212F5800F80F09A8016
:1009F800BCF1004F08BF5FEA500C50F1000041EB1A
:100A0800045141EA050130BD5FEA4C0C404141EB1D
:100A18000101013C28BFB1F5801FE9D291F0000F18
:100A280004BF01460020B1FA81F308BF2033A3F1C7
:100A38000B03B3F120020CDA0C3208DD02F1140CBE
:100A4800C2F10C0201FA0CF021FA02F10CE002F1F9
:100A58001402D8BFC2F1200C01FA02F120FA0CFCF2
:100A6800DCBF41EA0C019040E41AA2BF01EB04513B
:100A7800294330BD6FEA04041F3C1CDA0C340EDC39
:100A880004F11404C4F1200220FA04F001FA02F37C
:100A980040EA030021FA04F345EA030130BDC4F13A
:100AA8000C04C4F1200220FA02F001FA04F340EA2F
:100AB8000300294630BD21FA04F0294630BD94F0E0
:100AC800000F83F4801306BF81F480110134013DC7
:100AD8004EE77FEA645C18BF7FEA655C29D094EA38
:100AE800050F08BF90EA020F05D054EA000C04BFB6
:100AF8001946104630BD91EA030F1EBF00210020A1
:100B080030BD5FEA545C05D14000494128BF41F03F
:100B1800004130BD14F580043CBF01F5801130BDA3
:100B280001F0004545F0FE4141F470014FF000002E
:100B380030BD7FEA645C1ABF194610467FEA655CDF
:100B48001CBF0B46024650EA013406BF52EA033581
:100B580091EA030F41F4002130BD00BF90F0000F6F
:100B680004BF0021704730B54FF4806404F13204AB
:100B78004FF000054FF0000150E700BF90F0000F64
:100B880004BF0021704730B54FF4806404F132048B
:100B980010F0004548BF40424FF000013EE700BF5B
:100BA80042004FEAE2014FEA31014FEA02701FBFEB
:100BB80012F07F4393F07F4F81F06051704732F01D
:100BC8007F4208BF704793F07F4F04BF41F4002174
:100BD800704730B54FF4607401F0004521F00041D2
:100BE8001CE700BF50EA010208BF704730B54FF05C
:100BF80000050AE050EA010208BF704730B511F05D
:100C0800004502D5404261EB41014FF4806404F194
:100C180032045FEA915C3FF4D8AE4FF003025FEA1A
:100C2800DC0C18BF03325FEADC0C18BF033202EB9E
:100C3800DC02C2F1200300FA03FC20FA02F001FAF8
:100C480003FE40EA0E0021FA02F11444BDE600BF9B
:100C580070B54FF0FF0C4CF4E06C1CEA11541DBF4A
:100C68001CEA135594EA0C0F95EA0C0F00F0DEF815
:100C78002C4481EA030621EA4C5123EA4C5350EAFA
:100C8800013518BF52EA033541F4801143F480134B
:100C980038D0A0FB02CE4FF00005E1FB02E506F0DC
:100CA8000042E0FB03E54FF00006E1FB03569CF031
:100CB800000F18BF4EF0010EA4F1FF04B6F5007F37
:100CC80064F5407404D25FEA4E0E6D4146EB0606A9
:100CD80042EAC62141EA55514FEAC52040EA5E5032
:100CE8004FEACE2EB4F1FD0C88BFBCF5E06F1ED8DC
:100CF800BEF1004F08BF5FEA500E50F1000041EB13
:100D0800045170BD06F0004646EA010140EA0200BF
:100D180081EA0301B4EB5C04C2BFD4EB0C0541EAE1
:100D2800045170BD41F480114FF0000E013C00F3F6
:100D3800AB8014F1360FDEBF002001F0004170BD1A
:100D4800C4F10004203C35DA0C341BDC04F1140433
:100D5800C4F1200500FA05F320FA04F001FA05F2BF
:100D680040EA020001F0004221F0004110EBD3708C
:100D780021FA04F642EB06015EEA430E08BF20EAB8
:100D8800D37070BDC4F10C04C4F1200500FA04F35B
:100D980020FA05F001FA04F240EA020001F00041ED
:100DA80010EBD37041F100015EEA430E08BF20EA60
:100DB800D37070BDC4F1200500FA05F24EEA020EA8
:100DC80020FA04F301FA05F243EA020321FA04F0D7
:100DD80001F0004121FA04F220EA020000EBD3708E
:100DE8005EEA430E08BF20EAD37070BD94F0000F8E
:100DF8000FD101F00046400041EB010111F4801FC2
:100E080008BF013CF7D041EA060195F0000F18BF72
:100E1800704703F00046520043EB030313F4801FAE
:100E280008BF013DF7D043EA0603704794EA0C0F68
:100E38000CEA135518BF95EA0C0F0CD050EA41067E
:100E480018BF52EA4306D1D181EA030101F00041FB
:100E58004FF0000070BD50EA410606BF1046194623
:100E680052EA430619D094EA0C0F02D150EA01362F
:100E780013D195EA0C0F05D152EA03361CBF104670
:100E880019460AD181EA030101F0004141F0FE410F
:100E980041F470014FF0000070BD41F0FE4141F493
:100EA800780170BD70B54FF0FF0C4CF4E06C1CEA93
:100EB80011541DBF1CEA135594EA0C0F95EA0C0F48
:100EC80000F0A7F8A4EB050481EA030E52EA033503
:100ED8004FEA013100F088804FEA03334FF0805524
:100EE80045EA131343EA12634FEA022245EA111551
:100EF80045EA10654FEA00260EF000419D4208BF02
:100F0800964244F1FD0404F5407402D25B084FEAAE
:100F18003202B61A65EB03055B084FEA32024FF45A
:100F280080104FF4002CB6EB020E75EB030E22BFB7
:100F3800B61A754640EA0C005B084FEA3202B6EB77
:100F4800020E75EB030E22BFB61A754640EA5C0026
:100F58005B084FEA3202B6EB020E75EB030E22BFB6
:100F6800B61A754640EA9C005B084FEA3202B6EBB7
:100F7800020E75EB030E22BFB61A754640EADC0076
:100F880055EA060E18D04FEA051545EA16754FEAD8
:100F980006164FEAC30343EA52734FEAC2025FEAF6
:100FA8001C1CC0D111F4801F0BD141EA00014FF085
:100FB80000004FF0004CB6E711F4801F04BF014356
:100FC8000020B4F1FD0C88BFBCF5E06F3FF6AFAE72
:100FD800B5EB030C04BFB6EB020C5FEA500C50F102
:100FE800000041EB045170BD0EF0004E4EEA113185
:100FF80014EB5C04C2BFD4EB0C0541EA045170BD8C
:1010080041F480114FF0000E013C90E645EA060ECF
:101018008DE60CEA135594EA0C0F08BF95EA0C0FFD
:101028003FF43BAF94EA0C0F0AD150EA01347FF445
:1010380034AF95EA0C0F7FF425AF104619462CE71C
:1010480095EA0C0F06D152EA03353FF4FDAE10467F
:10105800194622E750EA410618BF52EA43067FF4D0
:10106800C5AE50EA41047FF40DAF52EA43057FF460
:10107800EBAE12E74FEA4102B2F1E04324BFB3F509
:10108800001CDCF1FE5C0DD901F0004C4FEAC002F7
:101098004CEA5070B2F1004F40EB830008BF20F0DB
:1010A8000100704711F0804F21D113F13872BCBF95
:1010B80001F00040704741F480114FEA5252C2F1EA
:1010C8001802C2F1200C10FA0CF320FA02F018BF33
:1010D80040F001004FEAC1234FEAD32303FA0CFC86
:1010E80040EA0C0023FA02F34FEA4303CCE77FEA15
:1010F800625307D150EA01331EBF4FF0FE4040F45F
:101108004000704701F0004040F0FE4040F400000D
:10111800704700BF80F0004002E000BF81F000414E
:1011280042001FBF5FEA410392EA030F7FEA226C85
:101138007FEA236C6AD04FEA1262D2EB1363C1BF15
:10114800D218414048404140B8BF5B42192B88BF84
:10115800704710F0004F40F4000020F07F4018BFA7
:10116800404211F0004F41F4000121F07F4118BFC7
:10117800494292EA030F3FD0A2F1010241FA03FC6F
:1011880010EB0C00C3F1200301FA03F100F0004357
:1011980002D5494260EB4000B0F5000F13D3B0F11F
:1011A800807F06D340084FEA310102F10102FE2A8E
:1011B80051D2B1F1004F40EBC25008BF20F00100FE
:1011C80040EA03007047490040EB0000013A28BF9D
:1011D800B0F5000FEDD2B0FA80FCACF1080CB2EB20
:1011E8000C0200FA0CF0AABF00EBC250524218439E
:1011F800BCBFD0401843704792F0000F81F4000143
:1012080006BF80F400000132013BB5E74FEA410315
:101218007FEA226C18BF7FEA236C21D092EA030F81
:1012280004D092F0000F08BF0846704790EA010FFB
:101238001CBF0020704712F07F4F04D1400028BF28
:1012480040F00040704712F100723CBF00F500000A
:10125800704700F0004343F0FE4040F40000704740
:101268007FEA226216BF08467FEA236301464202EC
:1012780006BF5FEA412390EA010F40F480007047FF
:101288004FF0000304E000BF10F0004348BF4042A5
:101298005FEA000C08BF704743F0964301464FF0E1
:1012A80000001CE050EA010208BF70474FF000033D
:1012B8000AE000BF50EA010208BF704711F000437E
:1012C80002D5404261EB41015FEA010C02BF84464E
:1012D8000146002043F0B64308BFA3F18053A3F5AD
:1012E8000003BCFA8CF2083AA3EBC25310DB01FAF4
:1012F80002FC634400FA02FCC2F12002BCF1004F78
:1013080020FA02F243EB020008BF20F00100704708
:1013180002F1200201FA02FCC2F1200250EA4C005C
:1013280021FA02F243EB020008BF20EADC707047A2
:101338004FF0FF0C1CEAD0521EBF1CEAD15392EAB0
:101348000C0F93EA0C0F6FD01A4480EA010C40028C
:1013580018BF5FEA41211ED04FF0006343EA5010E6
:1013680043EA5111A0FB01310CF00040B1F5000F28
:101378003EBF490041EAD3715B0040EA010062F1D7
:101388007F02FD2A1DD8B3F1004F40EBC25008BFC1
:1013980020F00100704790F0000F0CF0004C08BFDF
:1013A80049024CEA502040EA51207F3AC2BFD2F1AC
:1013B800FF0340EAC250704740F400004FF00003BA
:1013C800013A5DDC12F1190FDCBF00F000407047F4
:1013D800C2F10002410021FA02F1C2F1200200FA32
:1013E80002FC5FEA310040F1000053EA4C0308BFF9
:1013F80020EADC70704792F0000F00F0004C02BF4A
:10140800400010F4000F013AF9D040EA0C0093F0C4
:10141800000F01F0004C02BF490011F4000F013B1E
:10142800F9D041EA0C018FE70CEAD15392EA0C0F8C
:1014380018BF93EA0C0F0AD030F0004C18BF31F0F7
:10144800004CD8D180EA010000F00040704790F0CD
:10145800000F17BF90F0004F084691F0000F91F071
:10146800004F14D092EA0C0F01D142020FD193EA37
:101478000C0F03D14B0218BF084608D180EA0100BF
:1014880000F0004040F0FE4040F40000704740F09B
:10149800FE4040F4400070474FF0FF0C1CEAD05269
:1014A8001EBF1CEAD15392EA0C0F93EA0C0F69D0C5
:1014B800A2EB030280EA010C49024FEA402037D030
:1014C8004FF0805343EA111143EA10130CF0004027
:1014D8008B4238BF5B0042F17D024FF4000C8B4217
:1014E80024BF5B1A40EA0C00B3EB510F24BFA3EBF7
:1014F800510340EA5C00B3EB910F24BFA3EB9103C7
:1015080040EA9C00B3EBD10F24BFA3EBD10340EA20
:10151800DC001B0118BF5FEA1C1CE0D1FD2A3FF666
:1015280050AF8B4240EBC25008BF20F0010070471B
:101538000CF0004C4CEA50207F32C2BFD2F1FF03BE
:1015480040EAC250704740F400004FF00003013AEF
:1015580037E792F0000F00F0004C02BF400010F493
:10156800000F013AF9D040EA0C0093F0000F01F0A7
:10157800004C02BF490011F4000F013BF9D041EAC9
:101588000C0195E70CEAD15392EA0C0F08D14202FC
:101598007FF47DAF93EA0C0F7FF470AF084676E7CF
:1015A80093EA0C0F04D14B023FF44CAF08466EE7A8
:1015B80030F0004C18BF31F0004CCAD130F0004276
:1015C8007FF45CAF31F000437FF43CAF5FE700BFCE
:1015D8004FF0FF3C06E000BF4FF0010C02E000BFF7
:1015E8004FF0010C4DF804CD4FEA40024FEA410399
:1015F8007FEA226C18BF7FEA236C11D001B052EA4F
:10160800530C18BF90EA010F58BFB2EB030088BF14
:10161800C81738BF6FEAE17018BF40F00100704783
:101628007FEA226C02D15FEA402C05D17FEA236C65
:10163800E4D15FEA412CE1D05DF8040B704700BFAC
:10164800844608466146FFE70FB5FFF7C9FF002843
:1016580048BF10F1000F0FBD4DF808EDFFF7F4FF7C
:101668000CBF012000205DF808FB00BF4DF808ED15
:10167800FFF7EAFF34BF012000205DF808FB00BF38
:101688004DF808EDFFF7E0FF94BF012000205DF85A
:1016980008FB00BF4DF808EDFFF7D2FF94BF01200B
:1016A80000205DF808FB00BF4DF808EDFFF7C8FF04
:1016B80034BF012000205DF808FB00BF4FEA40025C
:1016C800B2F1FE4F0FD34FF09E03B3EB12620DD968
:1016D8004FEA002343F0004310F0004F23FA02F0D2
:1016E80018BF404270474FF00000704712F1610F79
:1016F80001D1420205D110F0004008BF6FF0004050
:1017080070474FF00000704742000ED2B2F1FE4F12
:101718000BD34FF09E03B3EB126209D44FEA0023B8
:1017280043F0004323FA02F070474FF0000070477F
:1017380012F1610F01D1420202D14FF0FF30704720
:101748004FF00000704700BF7BB972B90029BEBFD7
:1017580000204FF0004106E008BF00281CBF6FF0D2
:1017680000414FF0FF3000F057B8ADF1080C6DE9BB
:1017780004CE002909DB002B1ADB00F069F8DDF83C
:1017880004E0DDE9022304B07047404261EB410107
:10179800002B1BDB00F05CF8DDF804E0DDE9022338
:1017A80004B0404261EB4101524263EB430370478E
:1017B800524263EB430300F04BF8DDF804E0DDE947
:1017C800022304B0404261EB41017047524263EB8F
:1017D800430300F03DF8DDF804E0DDE9022304B03E
:1017E800524263EB4303704753B94AB9002908BF13
:1017F80000281CBF4FF0FF314FF0FF3000F00CB84D
:10180800ADF1080C6DE904CE00F022F8DDF804E033
:10181800DDE9022304B07047704700BF10F8012BC0
:1018280011F8013B012A28BF9A42F7D0D01A704715
:10183800034611F8012B03F8012B002AF9D1704750
:10184800034613F8012B002AFBD1181A01387047F8
:101858002DE9F04786468C460846089E154674468C
:101868001946002B40F0C1808542B2FA82F245D970
:101878004AB1C2F1200300FA02FC954094402EFAC6
:1018880003F343EA0C0C4FEA154EA8B2230CBCFB39
:10189800FEF80EFB18CC08FB00F943EA0C43994507
:1018A80028D9EB1808F1FF3704D2994502D9A8F1D5
:1018B80002072B44A3EB0903A4B2B3FBFEFC0EFB07
:1018C8001C330CFB00F044EA0344A04214D92C1941
:1018D8000CF1FF3304D2A04202D9ACF102032C442C
:1018E800241A43EA07401EB1D440002334607360D1
:1018F800BDE8F0874746DDE76346F1E792BB431B47
:1019080001214FEA154EAFB2200CB3FBFEFC0EFBD3
:101918001C330CFB07F840EA0343984561D9EB18E0
:101928000CF1FF3004D2984502D9ACF102002B44E7
:10193800A3EB0803A4B2B3FBFEFC0EFB1C330CFBA9
:1019480007F744EA0344A7424DD92C190CF1FF3399
:1019580004D2A74202D9ACF102032C44E41B43EAA7
:101968000040C0E7C2F120039540944020FA03F1FB
:101978002EFA03F34FEA154E9040AFB20343B1FB82
:10198800FEFC0EFB1C10190C0CFB07F841EA004189
:10199800884522D969180CF1FF3004D2884502D94C
:1019A800ACF102002944A1EB08019BB2B1FBFEFC9B
:1019B8000EFB1C110CFB07F743EA01439F420ED9AB
:1019C800EB180CF1FF3104D29F4202D9ACF10201AD
:1019D8002B44DB1B41EA004193E76046E3E761469D
:1019E800F7E76046A4E76346B8E7834206D916B925
:1019F800002108467CE7C6E900E0F9E7B3FA83F777
:101A08008FB9834201D3724508D8BEEB020460EB5C
:101A1800030301209C461EB9002169E73846FAE70E
:101A2800C6E9004CF8E7C7F1200CBB400EFA07F5F1
:101A380022FA0CF42EFA0CF1BA401C4320FA0CF3EB
:101A4800B8404FEA144901431FFA84FEB3FBF9F882
:101A580009FB18300B0C08FB0EFA43EA00439A45C1
:101A680040D9E31808F1FF3004D29A4502D9A8F109
:101A780002002344A3EB0A0389B2B3FBF9F809FB7C
:101A8800183308FB0EFE41EA03418E452CD9611834
:101A980008F1FF3304D28E4502D9A8F1020321448C
:101AA80043EA0040A1EB0E01A0FB02984145CE4657
:101AB800434602D306D14D4504D20138B9EB020E94
:101AC80068EB0403002EA7D0B5EB0E0261EB03010F
:101AD80001FA0CFC22FA07F3F9404CEA0303C6E9C1
:101AE800003199E74046C5E74346D9E700000000C2
:101AF800D0B504464068FFF741F809A3D3E90023AD
:101B0800FFF7D0F9064620680F46FFF737F8024678
:101B18000B4630463946FEF7E5FED0BDAFF30080F0
:101B28000000000080842E412DE9F04706460F464C
:101B3800904688B051F067FE4FF47A73A0FB0345D6
:101B480003FB0155E40B012F44EA45444FEAD53520
:101B580007D122462B463046274934F02AFA00207E
:101B680012E0D8F8047025483946FFF757FE70B1DF
:101B780039462348FFF752FE48B130463A462149D4
:101B880034F033FA6FF0040008B0BDE8F08720465F
:101B980017A3D3E900232946FFF7D6FD05460C46CF
:101BA80010461946184A0023FFF7CEFD80460F4617
:101BB800104619464EF660220023FFF7C5FD8246FF
:101BC8008946104619464FF47A720023FFF7BCFD88
:101BD800CDE902A9CDE90623CDE904012A46234629
:101BE8003046CDE90087094934F0E3F9B7E700BF8B
:101BF800005C26050000000005BD0A0016BD0A00AD
:101C080019BD0A0022BD0A0080EE36003ABD0A005E
:101C180070B514460646CD17A1FB0201002304FB4C
:101C280005110A22FFF790FD0FA3D3E900230C4DFD
:101C380080FB054520462946FFF786FD06A3D3E924
:101C48000023306029462046FFF77EFD0023054A21
:101C5800FFF77AFD726070BD80A8120100000000D5
:101C6800D8EF2F0040420F0000209BF35E100000C9
:101C780003292DE9FF4105460C4612D0072900F03B
:101C8800B0808F490B6813F0060F00F0A7808D4BCA
:101C98000222029300231846CDE9003338F078FC7D
:101CA8009CE0002A69D0072A40F0888058681A68A2
:101CB800854BC117C2FB0301012871F1000376DBD4
:101CC800D5F80480814B98F81A60C0184FEAD616E8
:101CD80077A3D3E9002341F1000176B2FFF734FD81
:101CE800002E14BF04230223984298F91A7025D0B5
:101CF800002E14BF20231023984221D0002E14BF99
:101D08000823042383421DD0002E14BF1023082368
:101D180098424CD1E6B2314640462D6935F04FFC29
:101D2800002811DB6A4B002F4FF03D0233F81430C6
:101D3800AE771CDBA3FB02325B0819E00024E9E75D
:101D48000124E7E70224E5E75D490B685A070BD54C
:101D5800604B0393604B0825029300230422184626
:101D6800CDE9003538F014FC6FF0040002E053436D
:101D7800EB60002004B0BDE8F0811988574B144689
:101D88001F4633F8022B91420ED86868E1B22E69DB
:101D980035F089FD00280DDA49490B685B07E3D562
:101DA8004F4B03934F4BD6E701340B2CE9D16FF01F
:101DB8001500DFE737F81430B383DAE740490B68DA
:101DC8005F070BD5484B0393484B08220293002327
:101DD800CDE900321846042238F0DAFB6FF08500AE
:101DE800C8E7002A42D0072A5AD1B4245A68196889
:101DF800354BD017C1FB0320A2FB0431012A04FB99
:101E0800001170F100001DDB3948181841F100017C
:101E180029A3D3E900230024FFF796FC354B33F8B8
:101E2800022B904216D16868E1B22E6935F0DEFBCC
:101E3800002813DA22490B685E0795D52E4B0393C9
:101E48002E4B88E72E48181861F100011AA3D3E930
:101E58000023E0E70134072CE1D1A8E741F217128B
:101E6800284B33F814305343B36182E719881B4B6E
:101E780033F8020B81420FD86868D1B235F081FD82
:101E88000028BFF676AF0E490B685C077FF56CAF8C
:101E98001D4B03931D4B5EE701320B2AE8D186E701
:101EA80007490B68580799D5194B0393194B8CE7C9
:101EB8003AA3950000000000D8EF2F0000000000B2
:101EC8006C0600209BF70A0040420F009DD14A0093
:101ED80024A905009DFC0A0039FB0A002CA905006D
:101EE80087FC0A0064FB0A00B5FC0A0092FB0A00A2
:101EF800ECF7170016A905005CFC0A00B5FB0A0000
:101F08001408E8FF08A9050047FC0A00DCFB0A00E2
:101F180073FC0A0006FC0A002DE9F74F0329144652
:101F2800066905D90B1F032B53D96FF0850023E0F1
:101F38000229F7683A4D22D0032923D0012914BF7A
:101F4800B6F90460B6F90660A6FB076732A3D3E9C1
:101F5800002386FB056530462946FFF7F5FB00237D
:101F6800304A206029463046FFF7EEFB00232D4A11
:101F7800FFF7EAFB6260002003B0BDE8F08FB6F916
:101F88000860E1E74FF0000B02F11803DFF894A0B6
:101F98000236019336F9028FA8FB07831EA3D3E903
:101FA800002388FB059848464146FFF7CDFB52467B
:101FB80044F8080B5B4648464146FFF7C5FB5246C6
:101FC8005B46FFF7C1FB019B44F8042C9C42E1D11E
:101FD800D1E70629B5690CD007290ED02A4605296C
:101FE80014BFB6F91010B6F912102046FFF710FE0C
:101FF800C1E72A46B6F91410F7E70E3602F11807BA
:1020080020462A4636F9021F0834FFF701FEA74288
:10201800F6D1B0E7AFF300800010A5D4E8000000C7
:102028003AA3950040420F000122014B1A707047F5
:10203800B0010320034A1368013313600122024BE5
:102048001A707047B89D0020AF01032007B5002023
:1020580038F0CBFD002200230548CDE9002340F6E7
:10206800CD4200232DF0DCF803B05DF804FB00BF7F
:10207800700B002000B589B007AA06A905A804F0CE
:102088008FFD059B0321274A04A831F073F9264BDD
:102098001B6803B3184604A94DF008FE069B0321EC
:1020A800204A04A831F066F9204B1B6803B3184690
:1020B80004A94DF0FBFD079B03211A4A04A831F03F
:1020C80059F91B4B1B6803B3184604A94DF0EEFDE4
:1020D80009B05DF804FB17490A685207DED0164AB2
:1020E8001846CDE901320093012232F03CFDD5E7D4
:1020F80010490A685007DED0104A1846CDE9013267
:102108000093012232F02FFDD5E70A490A685207E9
:10211800DED00B4A1846CDE901320093012232F095
:1021280022FDD5E798B80A006C9E0020649E002026
:102138005C9E002070060020FAAF050019B005006B
:1021480038B0050000B56F4B89B01B7883B106A87D
:1021580004F016FE78B16C490B685B0708D06B4B2E
:102168000122029300231846CDE9003332F0FBFC2C
:1021780009B05DF804FB9DF81A300321644A05A8EC
:1021880031F0F8F8634B186810B105A94DF08EFDD1
:102198009DF8193003215E4A05A831F0EBF85E4B33
:1021A800186810B105A94DF081FD9DF81B30032179
:1021B800574A05A831F0DEF8584B186810B105A940
:1021C8004DF074FD9DF81D300321514A05A831F0EA
:1021D800D1F8534B186810B105A94DF067FD9DF86B
:1021E8001E3003214A4A05A831F0C4F84D4B18683F
:1021F80010B105A94DF05AFD9DF81A300321444A43
:1022080005A831F0B7F8484B186810B105A94DF08A
:102218004DFD9DF8193003213D4A05A831F0AAF873
:10222800424B186810B105A94DF040FD9DF81B30D0
:102238000321374A05A831F09DF83D4B186810B1C5
:1022480005A94DF033FD9DF81D300321304A05A83E
:1022580031F090F8374B186810B105A94DF026FDFC
:102268009DF81E3003212A4A05A831F083F8324B25
:10227800186810B105A94DF019FD9DF81A30032111
:10228800234A05A831F076F82C4B186810B105A937
:102298004DF00CFD9DF8193003211D4A05A831F0B9
:1022A80069F8274B186810B105A94DF0FFFC9DF897
:1022B8001B300321164A05A831F05CF8214B186839
:1022C80010B105A94DF0F2FC9DF81D300321104A0C
:1022D80005A831F04FF81C4B186810B105A94DF04E
:1022E800E5FC9DF81E300321094A05A831F042F8A3
:1022F800164B186800283FF43BAF05A94DF0D6FCF3
:1023080036E700BFAE0103207006002057B0050075
:1023180098B80A00449F00203C9F0020349F00206A
:102328002C9F0020249F0020A09F0020989F002021
:10233800909F0020889F0020809F0020049F0020FD
:10234800FC9E0020F49E0020EC9E0020E49E0020CD
:1023580013B5084C204651F0AAFA00220023204663
:10236800CDE900234FF4F01200232CF059FF02B0FE
:1023780010BD00BF380B00201FB5C38804468BB9B9
:10238800324A8068324910600A6802F00702022A5D
:1023980040D9304A0390CDE9013218460322009310
:1023A80032F0E1FBE388012B12D1284BA2682849BF
:1023B8005A600B6803F00703022B2BD9264B0392B4
:1023C8000293002303221846CDE9003332F0CBFBF9
:1023D800E388B3F5A57F1DD1A2681C4B111E18BF59
:1023E800012119721A490B6803F00703022B09D956
:1023F8001A4B03920293002303221846CDE90033B7
:1024080032F0B1FBA3682BB1154B1B78CBB1154843
:102418002BF076FC2379BBB10D490B6803F0070359
:10242800022B08D9104B0322029300231846CDE94A
:10243800003332F098FB0D4804B0BDE810402BF093
:102448005FBCFFF785FFE5E704B010BDD09D002015
:102458007006002071B005007EB005008BB0050045
:10246800B1010320F89D00209EB00500109E0020B9
:1024780008B505482BF044FC044B1B781BB9BDE894
:102488000840FFF765BF08BDF89D0020B101032093
:1024980007B5012038F0A9FB002200230548CDE943
:1024A800002340F6CD4200232CF0BAFE03B05DF8BD
:1024B80004FB00BFA80B0020F7B5224C224F23785D
:1024C80033B14FF0FF324FF0FF3320482BF052FC6E
:1024D8004FF48030002151F0E7F82378002BEED13B
:1024E80004F04AF8064604F051F8054651F08BF915
:1024F80003464FF47A70A3FB003200FB0121D80B8E
:102508004FF47A72002340EA4140C90BFFF71CF9E7
:10251800394600903046FEF70BFFFFF7CFF83946F3
:10252800ADF804002846FEF703FFFFF7EDF8ADF815
:102538000600FFF7ADFF684604F0D2F9684604F0DC
:1025480003FABCE7B10103200000C842E09D002067
:102558002DE9F04F0B480C4EA1B0306050F036FD1D
:102568000A4C0346B0B92268520707D0084A2146E8
:10257800CDE901020090012232F0F5FA002021B0E5
:10258800BDE8F08F1C490500DC9D00207006002086
:10259800B2B00500306832F0F5FA03F06FFAB14BCB
:1025A800B14D1B682B60B14B1B686B60B04B1B684F
:1025B800AB60B04B1B68EB6003F04EFB60B1236867
:1025C8005F0709D0AC4B012202930023214618462D
:1025D800CDE9003332F0C7FA13F012FF03460028A2
:1025E80000F009842368580709D0A44B01220293FC
:1025F8000023CDE900331846A14932F0B4FA00228D
:10260800A049A14851F047F90022A049A04851F03B
:1026180042F9A04804F0FEF9012200219E4850F03A
:1026280059FE012200219D4850F054FE00229C4989
:102638009C4851F030F9FFF78BFE9B4813F01CFFC4
:102648000346002800F003842368590709D0974BF4
:102658000122029300231846CDE90033884932F05D
:1026680082FA04F0DDF904F0ABFADFF8448203469D
:10267800002840F00A84012288F80020226802F02D
:102688000702022A07D98B4A7D49CDE90102009049
:10269800032232F068FA884B18A8189340F20343D3
:1026A800ADF864301A238DF8663004F0F1FA034669
:1026B800002840F0DA83226802F00702022A19D9BA
:1026C8009DF860206E4908929DF86120009007925D
:1026D8009DF8622006929DF8662005929DF8652077
:1026E80004929DF863200392744ACDE90102032203
:1026F80032F039FA724F384650F068FC0346002829
:1027080040F0CA832268520709D03A685C490392AC
:102718006C4A0090CDE90102012232F024FA01222C
:102728000021694850F0D6FD00226849684851F0F8
:10273800B2F84FF4004200236548CDE900232CF09D
:102748006FFD236803F00703022B09D9614B0322AD
:10275800029300234A491846CDE9003332F003FAC0
:1027680004F0A0F80346002800F0A78323685B075D
:1027780009D0594B0122029300231846CDE90033B2
:102788003F4932F0F0F9002200230027CDE9062363
:1027980004234FF48062CDE90337CDE901774F4B2D
:1027A8004F4900974F482BF063FE4F494D482BF097
:1027B8009FFD3A464FF47A714C4820F0DDF94AF013
:1027C80038FC98F800303BB13A464FF47A714848E3
:1027D80020F0D2F94AF02DFC464B186820B10023AE
:1027E8000A2245493AF0FAFD444B186820B1002303
:1027F8000A2243493AF0F2FD424B186820B10023FF
:102808000A2241493AF0EAFD236803F00703022B44
:1028180009D93E4B03220293002319491846CDE9F2
:10282800003332F0A0F9DFF8E890DFF8E8A0DFF82D
:10283800E88098F80030002B00F0B180374F3B78E3
:10284800002B40F0AC80226802F00702022A69D906
:10285800334A1846CDE9013209490322009332F080
:1028680082F95FE0509F0020C09D0020AC9F0020AF
:10287800109F00207C9E0020CBB00500FCB0050016
:10288800700600205D4B0300A80B0020574B030087
:10289800700B002055200000F89D0020E09D0020CE
:1028A80031200000380B00207924000033B10500E6
:1028B800AE0103205AB10500000F0A036AB10500F2
:1028C80088490500EBB10500109E00203D2000005E
:1028D800000B00201BB2050039B20500C12400001E
:1028E800C8040320380A002092E00A007D20000076
:1028F8004D210000509E00206B4B0300389E0020A5
:10290800674B0300449E0020634B030063B205003D
:1029180085EBD13E00001CC1B0010320B1010320AA
:1029280076B20500306818B183681B6803B1984710
:1029380001233B70002388F800303B78B3B10023B3
:102948004FF40042AA482BF015FA0346002840F03D
:10295800F182226802F00702022A07D9A54AA6498D
:10296800CDE901020322009032F0FDF8306800281A
:1029780040F04483002322683B7002F00702022AD9
:1029880008D99E4A1846CDE901329B490322009393
:1029980032F0E9F89A482BF0B3F9FFF7D9FC994AD5
:1029A8001378002B00F0D281974B1F78002F40F04E
:1029B800CD81177003F0ACF803F0FCF803F0DCFDF0
:1029C800834603F0E3FD804603F0EAFD0FAA0B906F
:1029D8000EA90DA803F0F4FD12AA11A910A803F07E
:1029E80037FE13A815AA14A903F04EFE16A804F082
:1029F800C7F9002840F00583236803F00703022B7A
:102A080040F2AD809DF85830032206939DF8593066
:102A1800794905939DF85A3004937C4B1B680090C4
:102A280003937B4BCDE90103034632F09CF85846EB
:102A3800FEF7B6F8236803F00703022B40F28F80F5
:102A48000027744BCDE904010322029338463B4624
:102A5800CDE90077684932F086F8226802F007026B
:102A6800022A7CD94046FEF79BF86B4ACDE904015F
:102A7800CDE901723B46032238465F49009732F0A0
:102A880072F8226802F00702022A68D90B98FEF74A
:102A980087F8624ACDE90401CDE901723B46032279
:102AA80038465549009732F05EF8226802F007026E
:102AB800022A54D90F98FEF773F8CDE908010E9849
:102AC800FEF76EF8CDE906010D98FEF769F8544A4D
:102AD800CDE90401CDE901723B4603223846464957
:102AE800009732F040F8226802F00702022A36D92D
:102AF8001298FEF755F8CDE908011198FEF750F83D
:102B0800CDE906011098FEF74BF8464ACDE90401D5
:102B1800CDE901723B46032238463749009732F027
:102B280022F8226802F00702022A18D91598FEF73F
:102B380037F8CDE908011498FEF732F8CDE9060117
:102B48001398FEF72DF8384ACDE90401CDE9017252
:102B58003B46032238462849009732F004F8584685
:102B6800FEF71EF8314ACDE90001202118A830F0FF
:102B780001FC2F4B186810B118A94DF097F82D4B90
:102B8800186810B118A94DF091F84046FEF708F8FA
:102B9800294ACDE90001202118A830F0EBFB274B8A
:102BA800186810B118A94DF081F80B98FDF7F8FFD7
:102BB800234ACDE90001202118A830F0DBFB214B86
:102BC800186810B118A94DF071F80E980D9900F118
:102BD800004031F0EFFD1C49FEF7AAFB1B49FEF748
:102BE8005BFC00210746FEF741FDB0B330E000BFB3
:102BF800F89D002097B205007006002007B3050075
:102C0800E09D0020AF010320B1010320B89D002002
:102C18001AB3050070B3050088B305009FB305001B
:102C2800B6B30500DDB3050018B4050050B40500BF
:102C38001C9F0020689F002058B40500749F002046
:102C4800ADB305005C9F002000003443D00F49401D
:102C58003846A049FEF764FA07463846FDF7A0FF54
:102C68009D4ACDE90001202118A830F083FB9B4B39
:102C7800186810B118A94DF019F8384603F020FD6E
:102C8800974B0146186808B14DF010F81098FDF7F9
:102C980087FF944ACDE90001202118A830F06AFB8B
:102CA800914B186810B118A94DF000F81198FDF76C
:102CB80077FF8C4ACDE90001202118A830F05AFB93
:102CC8008A4B186810B118A94CF0F0FF1298FDF75C
:102CD80067FF844ACDE90001202118A830F04AFB9B
:102CE800834B186810B118A94CF0E0FF1398FDF752
:102CF80057FF7C4ACDE90001202118A830F03AFBA3
:102D08007C4B186810B118A94CF0D0FF1498FDF747
:102D180047FF744ACDE90001202118A830F02AFBAA
:102D2800754B186810B118A94CF0C0FF1598FDF73D
:102D380037FF6C4ACDE90001202118A830F01AFBB2
:102D48006E4B186810B118A94CF0B0FF1FF04AFF7D
:102D5800002300226A482BF00DF80346002844D1CE
:102D6800684A92F808B0D2E90087226802F00702A0
:102D7800022A0BD9644ACDE90487CDE901026349E7
:102D88000322CDF80CB0009031F0EDFEBBF1000F3E
:102D98002BD02368A8F1CF02262A03F0070300F2FC
:102DA80065817A1F262A00F24081022B09D9584BE7
:102DB80003220293002355491846CDE9003331F028
:102DC800D2FE544A052110680130434203F0030340
:102DD80000F0030058BF5842002310604FF4967269
:102DE800009355F8200017F089FC00214FF4A470D7
:102DF80050F05AFC1BE5226802F00702022A07D9A4
:102E0800454A4249CDE901020090032231F0ABFE68
:102E1800002037F0EAFE012037F0E7FE00214FF4EA
:102E2800804050F041FC002037F0E2FE012037F0EE
:102E3800DFFE236803F00703022B7FF6E0AB374B76
:102E4800032202930023CDE90033FFF7D4BB2268A5
:102E580002F00702022A7FF604AC314A2B49CDE979
:102E6800010200900322FFF7FABB236813F0060F54
:102E78003FF440AC2B4B0293002302221846CDE9C5
:102E88000033224931F06FFE34E4236813F0060F53
:102E98003FF430AC244BEEE7236803F00703022B22
:102EA8007FF63DAC3B6803220393204B17490293FE
:102EB80000231846CDE900332FE4226802F0070208
:102EC800022A7FF660AC1A4A1049CDE90102009047
:102ED800032256E40000B4435FB40500DC9E0020E2
:102EE800D89E0020D8B30500B89E0020B09E0020D0
:102EF800A89E0020949E00208C9E0020849E002086
:102F0800109E0020D09D002067B4050070060020A8
:102F18008BB40500BC9D00200DB105001EB1050055
:102F280046B105009BB10500C1B1050005B2050019
:102F380053B2050002F0ECFD18AA16A915A803F073
:102F480087FB236803F00703022B18D91898FDF7AD
:102F580027FECDE908011698FDF722FECDE9060106
:102F68001598FDF71DFE494BCDE904010293002396
:102F780003221846CDE90033454931F0F4FDDDF868
:102F8800548044494046FEF785FB00283FF4D5AC01
:102F980049464046FEF774FB00283FF4CEACDDF806
:102FA800588051464046FEF775FB00283FF4C5ACF3
:102FB80040463949FEF764FB00283FF4BEACDDF813
:102FC800608036494046FEF765FB00283FF4B5AC03
:102FD80040463349FEF754FB00283FF4AEAC236863
:102FE80003F00703022B7FF6C1AC2E4B032202939A
:102FF800002327491846CDE90033B5E431F0C2FD76
:10300800B8E4226802F00702022A7FF6A8AD264A31
:103018003B46126838460392244A1D49CDE901729D
:103028000097032231F09FFD01E5A7F59472262A47
:103038001CD8022B09D91E4B0322029300231449E2
:103048001846CDE9003331F08EFD1A4A0621106882
:103058000330434203F0030300F0030058BF584213
:10306800002310604FF496720093BAE6022B7FF6A5
:10307800BCAE114B032202930023CDE90387184607
:10308800CDE90033024931F06EFDAEE6AFB205007E
:1030980070060020B81E05BEEC51F8C0EC5118406F
:1030A800F6288C40DFB20500B89D002044B3050027
:1030B800BAB40500BC9D0020EDB405002DE9F04F21
:1030C80000208FB014F05CFDD24D1021286039F03B
:1030D80029F9286824F026FFCF4CD04920604CF00D
:1030E8005BFC20686FF040413AF008FB20686FF005
:1030F80040413AF01AFB206809213AF05AFB20684F
:10310800022139F05AFB1021206839F00BF92868A0
:1031180025F00EFBC24C6FF0404120603AF0EEFA09
:1031280020686FF040413AF000FB20686FF0020120
:103138003AF0ABFA20686FF06B013AF0BDFA2068FC
:1031480009213AF036FBB74920684CF0AFFD6FF023
:103158007F40266848F00FFBC0F307238DF8040072
:10316800C0F307408DF805308DF80600AE4F3046A5
:10317800019900223CF007FA20680022FF213CF068
:1031880011FA0022394620683CF013FA286814F036
:10319800F7FCA64CA64E206016F086F820688C2115
:1031A8003AF0ACFA206823213AF0BFFA20680321EC
:1031B8003AF06BFA20686FF018013AF07DFA20684F
:1031C80009213AF0F6FA1221206839F0ABF82068A4
:1031D80025F0AEFA6FF0404130603AF08FFA30686F
:1031E8006FF040413AF0A1FA30686FF036013AF0DA
:1031F8004CFADFF84092306804213AF05DFA306802
:1032080009213AF0D6FA494630684CF04FFD6FF084
:103218007F40D6F8008048F0AEFAC0F307238DF857
:103228000800C0F307408DF809308DF80A000299AC
:1032380040460022DFF800823CF0A5F93068002201
:10324800FF213CF0AFF90022414630683CF0B1F96B
:10325800206825F06DFA794E6FF0404130603AF001
:103268004DFA30686FF040413AF05FFA30686FF01D
:103278001E013AF00AFADFF8C8A1306803213AF0D3
:103288001BFA306809213AF094FA514630684CF03C
:103298000DFD6FF07F40D6F800B048F06CFAC0F32F
:1032A80007238DF80C00C0F307408DF80D308DF81A
:1032B8000E000399584600223CF065F93068002258
:1032C800FF213CF06FF90022414630683CF071F96B
:1032D800206825F02DFA5B4E6FF0404130603AF0DF
:1032E8000DFA30686FF040413AF01FFA30686FF01D
:1032F80004013AF0CAF9306804213AF0DDF930687F
:1033080009213AF056FA494630684CF0CFFC6FF084
:103318007F40D6F800B048F02EFAC0F307238DF8A6
:103328001000C0F307408DF811308DF81200049991
:10333800584600223CF027F930680022FF213CF073
:1033480031F90022414630683CF033F9206825F015
:10335800EFF93D4E6FF0404130603AF0CFF93068F8
:103368006FF040413AF0E1F9306814213AF08DF9F4
:10337800306803213AF0A0F9306809213AF019FAC7
:10338800514630684CF092FC6FF07F40D6F800A0B0
:1033980048F0F1F9C0F307238DF81400C0F3074093
:1033A8008DF815308DF816000599504600223CF02E
:1033B800EAF830680022FF213CF0F4F80022414688
:1033C80030683CF0F6F8206825F0B2F91F4C6FF031
:1033D800404120603AF092F920686FF040413AF09D
:1033E800A4F920682B213AF050F9206803213AF01B
:1033F80063F9206809213AF0DCF9494620684CF065
:1034080055FC6FF07F40266848F0B5F9C0F30723F4
:103418001EE000BF7C9E0020789E0020D855050045
:10342800749E002062B20A00647A0500709E002033
:103438006C9E0020DAED0A00908A0500689E002044
:10344800ADB20A00649E0020609E00205C9E0020B1
:103458008DF81800C0F307408DF819308DF81A0060
:103468000699304600223CF08EF820680022FF21A1
:103478003CF098F80022414620683CF09AF8286809
:1034880025F056F9CE4C6FF0404120603AF036F9FD
:1034980020686FF040413AF048F920686FF0040165
:1034A8003AF0F3F8206808213AF006F92068092173
:1034B8003AF07FF9C34920684CF0F8FB6FF07F4081
:1034C800266848F058F9C0F307238DF81C00C0F3AC
:1034D80007408DF81D308DF81E00079930460022F0
:1034E8003CF051F820680022FF213CF05BF80022F4
:1034F800B54920683CF05DF8286814F041FBB34CEE
:10350800B34E206015F0D0FE206849213AF0F6F855
:1035180020682D213AF009F920686FF079013AF016
:10352800B4F8206834213AF0C7F8206809213AF045
:1035380040F91221206838F0F5FE206822F042FE9A
:10354800352130603AF0DAF8306821213AF0EDF8A8
:1035580030686FF001013AF098F8306802213AF0CB
:10356800ABF8306809213AF024F930684FF48061EB
:1035780039F023F91021306838F0D4FE47F2FF50B3
:10358800D6F8008048F0F7F8C0F307238DF820003C
:10359800C0F307408DF821308DF822000899404685
:1035A80000223BF0AEFF0022FF2130683BF0B8FF5D
:1035B800206825F0BDF8874C6FF0404120603AF054
:1035C8009DF820686FF040413AF0AFF820686FF03E
:1035D80001013AF05AF8206803213AF06DF82068A2
:1035E80009213AF0E6F87C4920684CF05FFB6FF05F
:1035F8007F40266848F0BFF8C0F307238DF8240001
:10360800C0F307408DF825308DF82600099930461B
:1036180000223BF0B8FF20680022FF213BF0C2FFE8
:103628000022394620683BF0C4FF286814F0A8FA45
:103638006A4C6B4E206015F037FE206849213AF03D
:103648005DF820682D213AF070F8206803213AF0DF
:103658001CF8206848213AF02FF8206809213AF030
:10366800A8F81221206838F05DFE206822F0AAFD33
:10367800392130603AF042F8306821213AF055F8A3
:1036880030686FF003013AF000F8306802213AF030
:1036980013F8306809213AF08CF830684FF48061EB
:1036A80039F08BF81021306838F03CFE4D48D6F8D8
:1036B800008048F060F8C0F307238DF82800C0F3B5
:1036C80007408DF829308DF82A000A9940460022D3
:1036D8003BF017FF0022FF2130683BF021FF2068F4
:1036E80025F026F8404C6FF0404120603AF006F88B
:1036F80020686FF040413AF018F820686FF0030135
:1037080039F0C3FF2068022139F0D6FF206809216B
:103718003AF04FF8354920684CF0C8FA6FF07F400E
:10372800266848F028F8C0F307238DF82C00C0F36A
:1037380007408DF82D308DF82E000B993046002269
:103748003BF021FF20680022FF213BF02BFF0022E5
:10375800394620683BF02DFF286814F011FA244CF4
:10376800244E206015F0A0FD2068492139F0C6FFDD
:1037780020682D2139F0D9FF20687A2139F085FF9A
:103788002068352139F098FF206809213AF011F8AE
:103798001221206838F0C6FD206822F013FD35217B
:1037A800306039F0ABFF3068212139F0BEFF306856
:1037B8006FF0010139F069FF306802211CE000BF99
:1037C800589E00206EB20A00C87F0500549E002053
:1037D800509E00204C9E00207BB20A00489E00208C
:1037E800449E00204848F900409E002081B20A000B
:1037F8003C9E0020389E002039F05EFF3068092189
:1038080039F0D7FF30684FF4806138F0D6FF1021C7
:10381800306838F087FD5348D6F8008047F0ABFF92
:10382800C0F307238DF83000C0F307408DF831301E
:103838008DF832000C99404600223BF062FE0022CF
:10384800FF2130683BF06CFE206824F071FF464C85
:103858006FF04041206039F051FF20686FF040411F
:1038680039F063FF20686FF0010139F00EFF20681E
:10387800032139F021FF2068092139F09AFF3B49DB
:1038880020684CF013FA6FF07F40266847F073FF0A
:10389800C0F307238DF83400C0F307408DF83530A6
:1038A8008DF836000D99304600223BF06CFE2068FA
:1038B8000022FF213BF076FE0022394620683BF0CB
:1038C80078FE286824F02EFB294C2A4920604CF009
:1038D80063F820686FF0404139F010FF20686FF0FE
:1038E800404139F022FF20687E2139F0CEFE206861
:1038F800632139F0E1FE2068092139F05AFF206878
:10390800022138F05AFF1021206838F00BFD286892
:1039180024F008FB184C194920604CF03DF8206849
:103928006FF0404139F0EAFE20686FF0404139F00D
:10393800FCFE20686FF0840139F0A7FE206864213E
:1039480039F0BAFE2068092139F033FF20680221D6
:1039580038F033FF102120680FB0BDE8F04F38F081
:10396800E1BC00BF0767FF00349E002087B20A0051
:10397800309E0020485605002C9E00202C5605003D
:103988002DE9F04F0020A1B014F0FAF8CF4D102126
:10399800286038F0C7FCCE482C6847F0ECFEC0F32E
:1039A80007238DF80400C0F307408DF805308DF823
:1039B80006000199204600223BF0A3FD0022FF21CA
:1039C80028683BF0ADFD286824F0ACFAC14CC24928
:1039D80020604BF0E1FF20686FF0404139F08EFE27
:1039E80020686FF0404139F0A0FE2068092139F0C5
:1039F800E0FE2068022138F0E0FE1021206838F04F
:103A080091FC286814F0BCF8B44CB54E206015F051
:103A18004BFC2068582139F071FE20681A2139F0D2
:103A280084FE20686FF0610139F02FFE20686FF086
:103A3800590139F041FE2068092139F0BAFE1221F6
:103A4800206838F06FFC206824F072FE6FF0404167
:103A5800306039F053FE30686FF0404139F065FE50
:103A680030686FF01C0139F010FE30686FF0030108
:103A780039F022FEDFF86C823068092139F099FEAE
:103A8800994930684CF012F94046376847F073FEA0
:103A9800C0F307238DF80800C0F307408DF80930FC
:103AA8008DF80A00DFF844923846029900223BF06C
:103AB8006AFD30680022FF213BF074FD0022494670
:103AC80030683BF076FD206824F032FE884E6FF0B7
:103AD8004041306039F012FE30686FF0404139F0F3
:103AE80024FE30686FF0080139F0CFFD30686FF0C0
:103AF800040139F0E1FD3068092139F05AFE7D49A9
:103B080030684CF0D3F84046376847F034FEC0F3CD
:103B180007238DF80C00C0F307408DF80D308DF8A1
:103B28000E000399384600223BF02DFD3068002234
:103B3800FF213BF037FD0022494630683BF039FD54
:103B4800206824F0F5FD6C4C6FF04041206039F09E
:103B5800D5FD20686FF0404139F0E7FD20680F215E
:103B680039F093FD20686FF0020139F0A5FD634F2D
:103B78002068092139F01DFE614920684CF096F84B
:103B88003846266847F0F7FDC0F307238DF8100084
:103B9800C0F307408DF811308DF8120004993046B3
:103BA80000223BF0F0FC20680022FF213BF0FAFCE9
:103BB8000022494620683BF0FCFC286813F0E0FF2F
:103BC800504C514E206015F06FFB2068732139F07E
:103BD80095FD2068232139F0A8FD20686FF07A014F
:103BE80039F053FD20686FF0490139F065FD206810
:103BF800092139F0DEFD1221206838F093FB206896
:103C080024F096FD6FF04041306039F077FD306860
:103C18006FF0404139F089FD30686FF0060139F0E6
:103C280034FD3068032139F047FD3068092139F047
:103C3800C0FD364930684CF039F86FF07F40D6F84F
:103C4800009047F098FDC0F307238DF81400C0F3E7
:103C580007408DF815308DF8160005994846002262
:103C6800DFF8AC903BF08FFC30680022FF213BF07E
:103C780099FC0022494630683BF09BFC206824F000
:103C880057FD244E6FF04041306039F037FD306801
:103C98006FF0404139F049FD3068062139F0F5FCF4
:103CA800DFF874A03068032139F006FD3068092177
:103CB80039F07FFD514630684BF0F8FF6FF07F40D8
:103CC800D6F800B047F057FD28E000BF109F00204D
:103CD800E76E07000C9F0020D8550500089F0020BC
:103CE800049F0020FBFBFF008CB20A00908A0500AD
:103CF800009F0020ADB20A00FC9E0020FDFDFF00E1
:103D08008FB20A00F89E0020F49E002092B20A00AA
:103D1800386A0500F09E00206DBC0A00C0F3072336
:103D28008DF81800C0F307408DF819308DF81A0087
:103D38000699584600223BF026FC30680022FF21F5
:103D48003BF030FC0022494630683BF032FC2068EA
:103D580024F0EEFCCE4E6FF04041306039F0CEFCDE
:103D680030686FF0404139F0E0FC3068122139F0DA
:103D78008CFC3068032139F09FFC3068092139F048
:103D880018FDC44930684BF091FF6FF07F40D6F8BA
:103D980000B047F0F0FCC0F307238DF81C00C0F317
:103DA80007408DF81D308DF81E00079958460022EF
:103DB8003BF0E9FB30680022FF213BF0F3FB0022D7
:103DC800494630683BF0F5FB206824F0B1FCB24E60
:103DD8006FF04041306039F091FC30686FF040413D
:103DE80039F0A3FC30681F2139F04FFC30680321FB
:103DF80039F062FC3068092139F0DBFC5146306843
:103E08004BF054FF6FF07F40D6F800A047F0B3FCAA
:103E1800C0F307238DF82000C0F307408DF8213048
:103E28008DF822000899504600223BF0ACFB306820
:103E38000022FF213BF0B6FB0022494630683BF0E8
:103E4800B8FB206824F074FC944C6FF0404120606B
:103E580039F054FC20686FF0404139F066FC206866
:103E68002B2139F012FC2068032139F025FC206849
:103E7800092139F09EFC8A4920684BF017FF6FF042
:103E88007F40266847F077FCC0F307238DF82400AD
:103E9800C0F307408DF825308DF826000999304683
:103EA80000223BF070FB20680022FF213BF07AFBE8
:103EB8000022494620683BF07CFB286813F060FE2E
:103EC800784C794E206015F0EFF92068A12139F07F
:103ED80015FC2068A92139F028FC2068062139F052
:103EE800D4FB20681E2139F0E7FB2068092139F04E
:103EF80060FC1221206838F015FA206824F018FCBC
:103F08006FF04041306039F0F9FB30686FF04041A4
:103F180039F00BFC3068062139F0B7FB30686FF0D8
:103F2800060139F0C9FB3068092139F042FC5F49C4
:103F380030684BF0BBFE4046D6F8009047F01BFCBB
:103F4800C0F307238DF82800C0F307408DF8293007
:103F58008DF82A000A99484600223BF014FB306885
:103F68000022FF213BF01EFB0022514930683BF044
:103F780020FB206824F0DCFB4E4E6FF0404130609F
:103F880039F0BCFB30686FF0404139F0CEFB306847
:103F98006FF0020139F079FB3068222139F08CFB8F
:103FA8003068092139F005FC434930684BF07EFE42
:103FB8003846D6F8008047F0DEFBC0F307238DF8BB
:103FC8002C00C0F307408DF82D308DF82E000B998A
:103FD800404600223BF0D7FA30680022FF213BF030
:103FE800E1FA0022354930683BF0E3FA206823F013
:103FF80099FF334C334920604BF0CEFC20686FF0BA
:10400800404139F07BFB20686FF0404139F08DFB6F
:1040180020686FF0080139F038FB2068452139F035
:104028004BFB2068092139F0C4FB2068022138F0D5
:10403800C4FB1021206838F075F9286823F072FF56
:10404800214C224920604BF0A7FC20686FF04041CA
:1040580039F054FB20686FF0404139F066FB206866
:104068007E2139F012FB2068632139F025FB206896
:10407800092139F09EFB2068022138F09EFB1021AF
:10408800206838F04FF9286823F04CFF20E000BF83
:10409800EC9E002095B20A00E89E0020E49E0020D5
:1040A80098B20A00E09E0020DC9E00209BB20A0025
:1040B80058950500D89E0020A2B20A00F48F05008A
:1040C800D49E0020F4550500D09E002048560500D7
:1040D800D24CD34920604BF05FFC20686FF0404120
:1040E80039F00CFB20686FF0404139F01EFB206866
:1040F8006FF0840139F0C9FA2068642139F0DCFADC
:104108002068092139F055FB2068022138F055FB59
:104118001021206838F006F9286813F031FDC14CE9
:10412800C14D206015F0C0F82068AE2139F0E6FADC
:104138002068672139F0F9FA2068792139F0A5FA61
:1041480020686FF0570139F0B7FA2068092139F073
:1041580030FB1221206838F0E5F8206824F0E8FAEE
:104168006FF04041286039F0C9FA28686FF0404183
:1041780039F0DBFA28686FF0410139F086FA2868CF
:104188006FF0030139F098FA2868092139F011FB1A
:10419800A64928684BF08AFD38462E6847F0EBFAA6
:1041A800C0F307238DF83000C0F307408DF8313095
:1041B8008DF832000C99304600223BF0E4F90022D9
:1041C800FF2128683BF0EEF9206813F0D9FC984DE0
:1041D8005121286039F092FA2868302139F0A5FA7F
:1041E80028686FF0050139F050FA28686FF001016E
:1041F80039F062FA2868092139F0DBFA10212868B9
:1042080038F090F88B482E6847F0B5FAC0F30723CA
:104218008DF83400C0F307408DF835308DF836003E
:104228000D99304600223BF06CF90022FF212868E6
:104238003BF076F94AF6FF602E6847F09CFAC0F327
:1042480007238DF83800C0F307408DF839308DF812
:104258003A000E99002230463BF069F900202E689A
:1042680047F089FAC0F307238DF83C00C0F30740F4
:104278008DF83D308DF83E000F99304600223BF016
:104288006CF90022FF2128683BF076F9206824F0B9
:104298004FFA694E6FF04041306039F02FFA3068BC
:1042A8006FF0404139F041FA30686FF01E0139F083
:1042B800ECF9DFF888A130686FF0110139F0FCF9EA
:1042C8003068092139F075FA514630684BF0EEFC38
:1042D8006FF07F40356847F04EFAC0F307238DF83A
:1042E8004000C0F307408DF841308DF84200109926
:1042F80028460022524D3BF046F930680022FF2143
:104308003BF050F90022294630683BF052F920680A
:1043180024F00EFA4B4E6FF04041306039F0EEF960
:1043280030686FF0404139F000FA3068072139F001
:10433800ACF9454F30686FF0100139F0BDF93068BD
:10434800092139F036FA394630684BF0AFFC6FF086
:104358007F40D6F8008047F00EFAC0F307238DF8A7
:104368004400C0F307408DF845308DF84600119998
:10437800404600223BF007F930680022FF213BF05D
:1043880011F90022294630683BF013F9206824F01F
:10439800CFF92E4E6FF04041306039F0AFF93068F8
:1043A8006FF0404139F0C1F930686FF01E0139F003
:1043B8006CF9DFF89C9030686FF0010139F07CF9F6
:1043C8003068092139F0F5F9494630684BF06EFC40
:1043D8006FF07F40D6F8008047F0CDF9C0F307238F
:1043E8008DF84800C0F307408DF849308DF84A0031
:1043F8001299404600223BF0C6F830680022FF219F
:104408003BF0D0F80022294630683BF0D2F820680B
:1044180024F08EF90F4E6FF040411DE0CC9E002035
:104428002C560500C89E0020C49E0020A8B20A0091
:10443800C09E0020F06C0900BC9E0020ACB20A00AF
:10444800D4640500B89E0020AFB20A00B49E0020D4
:10445800B4B20A00B09E0020306039F04FF93068DD
:104468006FF0404139F061F93068072139F00DF9F2
:1044780030686FF0010139F01FF93068092139F00F
:1044880098F9394630684BF011FC6FF07F40D6F848
:10449800008047F070F9C0F307238DF84C00C0F393
:1044A80007408DF84D308DF84E0013994046002294
:1044B8003BF069F830680022FF213BF073F80022D6
:1044C800294630683BF075F8206824F031F9D74E5A
:1044D8006FF04041306039F011F930686FF04041B9
:1044E80039F023F930686FF01D0139F0CEF8DFF8A4
:1044F800408330680D2139F0DFF83068092139F040
:1045080058F9414630684BF0D1FB6FF07F40D6F840
:1045180000B047F030F9C0F307238DF85000C0F31E
:1045280007408DF851308DF85200149958460022F2
:104538003BF029F830680022FF213BF033F80022D5
:10454800294630683BF035F8206824F0F1F8B94C7A
:104558006FF04041206039F0D1F820686FF0404199
:1045680039F0E3F82068072139F08FF820680D2129
:1045780039F0A2F82068092139F01BF9394620687A
:104588004BF094FB6FF07F40266847F0F4F8C0F3D7
:1045980007238DF85400C0F307408DF855308DF887
:1045A80056001599304600223AF0EDFF20680022A7
:1045B800FF213AF0F7FF0022294620683AF0F9FF78
:1045C8009D4B9E4C186813F0DBFA206014F06CFECB
:1045D8002068AE2139F092F82068672139F0A5F8F3
:1045E8002068792139F051F820686FF0250139F0F9
:1045F80063F82068092139F0DCF81221206837F0C7
:1046080091FE206824F094F88D4E6FF040413060A0
:1046180039F074F830686FF0404139F086F8306846
:104628006FF0410139F031F830686FF0020139F06C
:1046380043F83068092139F0BCF8824930684BF0FA
:1046480035FB8148D6F800B047F095F8C0F307234A
:104658008DF85800C0F307408DF859308DF85A008E
:104668001699584600223AF08EFF0022FF21306842
:104678003AF098FF206813F083FA744E51213060A5
:1046880039F03CF83068302139F04FF830686FF075
:10469800050138F0FAFF30686FF0010139F00CF8C5
:1046A8003068092139F085F81021306837F03AFE72
:1046B8006748D6F800B047F05EF8C0F307238DF8D6
:1046C8005C00C0F307408DF85D308DF85E001799E7
:1046D800584600223AF015FF0022FF2130683AF0D0
:1046E8001FFF4AF6FF60D6F800B047F044F8C0F361
:1046F80007238DF86000C0F307408DF861308DF80E
:1047080062001899002258463AF011FF0020D6F8A6
:1047180000B047F030F8C0F307238DF86400C0F309
:1047280007408DF865308DF86600199958460022C3
:104738003AF013FF0022FF2130683AF01DFF20688D
:1047480023F0F6FF434E6FF04041306038F0D6FF5B
:1047580030686FF0404138F0E8FF30686FF01C01B6
:1047680038F093FF30686FF0100138F0A5FF30681B
:10477800092139F01EF8514630684BF097FA6FF06E
:104788007F40D6F800A046F0F6FFC0F307238DF867
:104798006800C0F307408DF869308DF86A001A99EF
:1047A800504600223AF0EFFE30680022FF213AF02E
:1047B800F9FE0022294630683AF0FBFE206823F013
:1047C800B7FF254E6FF04041306038F097FF3068F2
:1047D8006FF0404138F0A9FF3068072138F055FFE5
:1047E80030686FF00F0138F067FF3068092138F042
:1047F800E0FF394630684BF059FA6FF07F40D6F841
:1048080000A046F0B8FFC0F307238DF86C00C0F392
:1048180007408DF86D308DF86E001B9950460022C8
:104828003AF0B1FE3068002218E000BFAC9E0020CC
:10483800B7B20A00A89E0020109F0020A49E002066
:10484800A09E0020BAB20A00FDFDFF009C9E002039
:10485800F06C0900989E0020949E0020FF213AF0F9
:10486800A1FE0022294630683AF0A3FE206823F012
:104878005FFF8F4E6FF04041306038F03FFF306887
:104888006FF0404138F051FF30686FF01C0138F08C
:10489800FCFE30686FF0010138F00EFF3068092126
:1048A80038F087FF494630684BF000FA6FF07F40D8
:1048B800D6F8009046F05FFFC0F307238DF870002C
:1048C800C0F307408DF871308DF872001C99484686
:1048D80000223AF058FE30680022FF213AF062FECA
:1048E8000022294630683AF064FE206823F020FF51
:1048F800704E6FF04041306038F000FF30686FF064
:10490800404138F012FF3068072138F0BEFE3068A9
:104918006FF0010138F0D0FE3068092138F049FF06
:10492800394630684BF0C2F96FF07F40D6F80090F6
:1049380046F021FFC0F307238DF87400C0F3074049
:104948008DF875308DF876001D99484600223AF0AA
:104958001AFE30680022FF213AF024FE0022294680
:1049680030683AF026FE206823F0E2FE524E6FF0DF
:104978004041306038F0C2FE30686FF0404138F096
:10498800D4FE30686FF01C0138F07FFE30680D21CE
:1049980038F092FE3068092138F00BFF4146306844
:1049A8004BF084F96FF07F40D6F8008046F0E3FEC4
:1049B800C0F307238DF87800C0F307408DF87930ED
:1049C8008DF87A001E99404600223AF0DCFD3068E6
:1049D8000022FF213AF0E6FD0022294630683AF02D
:1049E800E8FD206823F0A4FE344E6FF040413060AB
:1049F80038F084FE30686FF0404138F096FE306839
:104A0800072138F042FE30680D2138F055FE306835
:104A1800092138F0CEFE394630684BF047F96FF07F
:104A28007F40376846F0A7FEC0F307238DF87C0067
:104A3800C0F307408DF87D308DF87E001F99384609
:104A480000223AF0A0FD30680022FF213AF0AAFDCA
:104A58000022294630683AF0ACFD206823F062FA5B
:104A6800174C184920604AF097FF20686FF04041C2
:104A780038F044FE20686FF0404138F056FE206858
:104A88006FF0410138F001FE20686FF01A0138F02C
:104A980013FE2068092138F08CFE2068022137F0C7
:104AA8008CFE1021206821B0BDE8F04F37F03ABCE9
:104AB800909E00208C9E0020889E0020849E0020CE
:104AC800809E00209C5605002DE9F04300208BB005
:104AD80013F056F8CE4E1021306037F023FC3068C2
:104AE80023F020FACB4CCC4920604AF055FF2068CF
:104AF8006FF0404138F002FE20686FF0404138F016
:104B080014FE2068092138F054FE2068022137F08D
:104B180054FE1021206837F005FC306813F030F897
:104B2800BE4CBF4D206014F0BFFB20688C2138F0CC
:104B3800E5FD20683C2138F0F8FD2068062138F0B2
:104B4800A4FD20686FF0080138F0B6FD206809213F
:104B580038F02FFE1221206837F0E4FB206823F09C
:104B6800E7FD6FF04041286038F0C8FD28686FF015
:104B7800404138F0DAFD28686FF02B0138F085FDE8
:104B880028684FF0FF3138F097FDDFF898922868D1
:104B9800092138F00EFEA44928684BF087F84846EA
:104BA8002F6846F0E8FDC0F307238DF80400C0F332
:104BB80007408DF805308DF8060001993846002227
:104BC8009A4F3AF0E0FC28680022FF213AF0EAFC0C
:104BD8000022394628683AF0ECFC206823F0A8FD4A
:104BE800934D6FF04041286038F088FD28686FF0D9
:104BF800404138F09AFD28686FF0080138F045FD0B
:104C080028686FF0040138F057FD2868092138F04A
:104C1800D0FD884928684BF049F84846D5F8008007
:104C280046F0A9FDC0F307238DF80800C0F307403C
:104C38008DF809308DF80A000299404600223AF0B2
:104C4800A2FC28680022FF213AF0ACFC0022394679
:104C580028683AF0AEFC206823F06AFD764C6FF0C5
:104C68004041206038F04AFD20686FF0404138F03C
:104C78005CFD20681F2138F008FD20684FF0FF31E7
:104C880038F01AFD2068092138F093FD6B49206837
:104C98004BF00CF86A48256846F06DFDC0F3072311
:104CA8008DF80C00C0F307408DF80D308DF80E001C
:104CB8000399284600223AF066FC20680022FF216A
:104CC8003AF070FC0022394620683AF072FC3068ED
:104CD80012F056FF5B4C5C4D206014F0E5FA20683A
:104CE800732138F00BFD2068232138F01EFD206861
:104CF8006FF00B0138F0C9FC20681A2138F0DCFC91
:104D08002068092138F055FD1221206837F00AFB88
:104D1800206823F00DFD6FF04041286038F0EEFC6C
:104D280028686FF0404138F000FD28686FF01501E1
:104D380038F0ABFC2868042138F0BEFC286809214B
:104D480038F037FD414928684AF0B0FF6FF07F40DE
:104D58002F6846F010FDC0F307238DF81000C0F34C
:104D680007408DF811308DF812000499384600225A
:104D7800374F3AF008FC28680022FF213AF012FC6D
:104D88000022394628683AF014FC206823F0D0FC49
:104D9800304D6FF04041286038F0B0FC28686FF063
:104DA800404138F0C2FC28686FF0030138F06DFC10
:104DB800DFF8A4802868032138F07EFC28680921E0
:104DC80038F0F7FC414628684AF070FF6FF07F40E2
:104DD800D5F8009046F0CFFCC0F307238DF81400F7
:104DE800C0F307408DF815308DF816000599484630
:104DF80000223AF0C8FB28680022FF213AF0D2FBD3
:104E08000022394628683AF0D4FB206826E000BF23
:104E1800509F00204C9F0020D8550500489F002037
:104E2800449F0020FBFBFF008CB20A005895050048
:104E3800409F0020ADB20A003C9F00208FB20A00BC
:104E4800FDFDFF00389F0020349F002092B20A0029
:104E580000750500309F00206DBC0A0023F068FC37
:104E6800AF4D6FF04041286038F048FC28686FF07B
:104E7800404138F05AFC28680C2138F006FC2868B4
:104E8800042138F019FC2868092138F092FCA5495A
:104E980028684AF00BFF6FF07F40D5F8009046F085
:104EA8006AFCC0F307238DF81800C0F307408DF89B
:104EB80019308DF81A000699484600223AF063FB2B
:104EC80028680022FF213AF06DFB00223946286845
:104ED8003AF06FFB206823F02BFC934D6FF04041B4
:104EE800286038F00BFC28686FF0404138F01DFC52
:104EF80028681F2138F0C9FB2868032138F0DCFB3B
:104F08002868092138F055FC414628684AF0CEFE49
:104F18006FF07F40D5F8008046F02DFCC0F30723E2
:104F28008DF81C00C0F307408DF81D308DF81E0069
:104F38000799404600223AF026FB28680022FF2104
:104F48003AF030FB0022394628683AF032FB2068F4
:104F580023F0EEFB754C6FF04041206038F0CEFB3B
:104F680020686FF0404138F0E0FB2068302138F0CD
:104F78008CFB2068032138F09FFB2068092138F05A
:104F880018FC6B4920684AF091FE6FF07F40256855
:104F980046F0F1FBC0F307238DF82000C0F307406B
:104FA8008DF821308DF822000899284600223AF021
:104FB800EAFA20680022FF213AF0F4FA0022394682
:104FC80020683AF0F6FA306812F0DAFD594C2060A1
:104FD80014F06AF920685B2138F090FB20682821DA
:104FE80038F0A3FB2068022138F04FFB20686FF0EF
:104FF800540138F061FB2068092138F0DAFB1221EE
:10500800206837F08FF9206823F092FB4A4C6FF044
:105018004041206038F072FB20686FF0404138F062
:1050280084FB20686FF0050138F02FFB20684FF0F3
:10503800FF3138F041FB2068092138F0BAFB3F49BD
:1050480020684AF033FE3E48256846F094FBC0F3DA
:1050580007238DF82400C0F307408DF825308DF81C
:1050680026000999284600223AF08DFA2068002285
:10507800FF213AF097FA0022324920683AF099FA6B
:10508800306822F04FFF304C304920604AF084FCF1
:1050980020686FF0404138F031FB20686FF04041E4
:1050A80038F043FB20687E2138F0EFFA206863214E
:1050B80038F002FB2068092138F07BFB20680221C8
:1050C80037F07BFB1021206837F02CF9306822F08C
:1050D80029FF1F4C1F4920604AF05EFC20686FF0D2
:1050E800404138F00BFB20686FF0404138F01DFB61
:1050F80020686FF0840138F0C8FA2068642138F01D
:10510800DBFA2068092138F054FB2068022137F0C7
:1051180054FB102120680BB0BDE8F04337F002B90A
:105128002C9F002095B20A00289F0020249F002071
:1051380098B20A00209F00201C9F0020BFB20A00DE
:10514800FEFEFE002C850500189F0020485605002D
:10515800149F00202C5605002DE9F04300208DB047
:1051680012F00EFDCE4D1021286037F0DBF82868CC
:1051780022F0D8FECB4CCC4920604AF00DFC2068C8
:105188006FF0404138F0BAFA20686FF0404138F0CB
:10519800CCFA2068092138F00CFB2068022137F08E
:1051A8000CFB1021206837F0BDF8286812F0E8FCE5
:1051B800BE4CBF4E206014F077F820688C2138F080
:1051C8009DFA2068272138F0B0FA20686FF03C017A
:1051D80038F05BFA20686FF0590138F06DFA2068F2
:1051E800092138F0E6FA1221206837F09BF8206888
:1051F80023F09EFA6FF04041306038F07FFA306853
:105208006FF0404138F091FA30686FF02B0138F0B8
:105218003CFA30684FF0FF3138F04EFADFF89492DC
:105228003068092138F0C5FAA34930684AF03EFDD4
:105238004846376846F09FFAC0F307238DF8040004
:10524800C0F307408DF805308DF8060001993846FF
:1052580000229A4F3AF097F930680022FF213AF07D
:10526800A1F90022394630683AF0A3F9206823F002
:105278005FFA934E6FF04041306038F03FFA306883
:105288006FF0404138F051FA30686FF0080138F09B
:10529800FCF930686FF0040138F00EFA3068092123
:1052A80038F087FA874930684AF000FD4846D6F852
:1052B800008046F060FAC0F307238DF80800C0F3B9
:1052C80007408DF809308DF80A00029940460022FF
:1052D8003AF059F930680022FF213AF063F90022C8
:1052E800394630683AF065F9206823F021FA764C9F
:1052F8006FF04041206038F001FA20686FF04041BB
:1053080038F013FA20681F2138F0BFF920684FF0F1
:10531800FF3138F0D1F92068092138F04AFA6B4991
:1053280020684AF0C3FC6A48266846F024FAC0F3AD
:1053380007238DF80C00C0F307408DF80D308DF869
:105348000E000399304600223AF01DF92068002229
:10535800FF213AF027F90022394620683AF029F966
:10536800286812F00DFC5B4C5B4E206013F09CFF2C
:105378002068732138F0C2F92068232138F0D5F964
:105388002068232138F081F920686FF04F0138F048
:1053980093F92068092138F00CFA1221206836F0B8
:1053A800C1FF206823F0C4F96FF04041306038F045
:1053B800A5F930686FF0404138F0B7F930686FF000
:1053C800150138F062F93068042138F075F9306851
:1053D800092138F0EEF9414930684AF067FC6FF06E
:1053E8007F40376846F0C7F9C0F307238DF81000EF
:1053F800C0F307408DF811308DF812000499384633
:105408000022374F3AF0BFF830680022FF213AF007
:10541800C9F80022394630683AF0CBF8206823F002
:1054280087F9304E6FF04041306038F067F93068E6
:105438006FF0404138F079F930686FF0030138F0C7
:1054480024F9DFF8A4803068032138F035F9306892
:10545800092138F0AEF9414630684AF027FC6FF070
:105468007F40D6F8009046F086F9C0F307238DF800
:105478001400C0F307408DF815308DF81600059913
:10548800484600223AF07FF830680022FF213AF0BF
:1054980089F80022394630683AF08BF8206825E010
:1054A800AC9F0020A89F0020D8550500A49F00208D
:1054B800A09F0020FBFBFF008CB20A005895050056
:1054C8009C9F0020ADB20A00989F00208FB20A006E
:1054D800FDFDFF00949F0020909F002092B20A00DB
:1054E800007505008C9F00206DBC0A0023F020F990
:1054F800CD4E6FF04041306038F000F930686FF001
:10550800404138F012F930680C2138F0BEF83068A4
:10551800042138F0D1F83068092138F04AF9C34934
:1055280030684AF0C3FB6FF07F40D6F8009046F031
:1055380022F9C0F307238DF81800C0F307408DF84F
:1055480019308DF81A000699484600223AF01BF8DF
:1055580030680022FF213AF025F8002239463068E9
:105568003AF027F8206823F0E3F8B14E6FF0404195
:10557800306038F0C3F830686FF0404138F0D5F843
:1055880030681F2138F081F83068032138F094F82A
:105598003068092138F00DF9414630684AF086FB39
:1055A8006FF07F40D6F8008046F0E5F8C0F3072397
:1055B8008DF81C00C0F307408DF81D308DF81E00D3
:1055C80007994046002239F0DEFF30680022FF21AB
:1055D80039F0E8FF00223946306839F0EAFF2068E0
:1055E80023F0A6F8934C6FF04041206038F086F81D
:1055F80020686FF0404138F098F82068302138F082
:1056080044F82068032138F057F82068092138F059
:10561800D0F8894920684AF049FB6FF07F40266836
:1056280046F0A9F8C0F307238DF82000C0F307401F
:105638008DF821308DF8220008993046002239F083
:10564800A2FF20680022FF2139F0ACFF0022394672
:10565800206839F0AEFF286812F092FA774C784E3D
:10566800206013F021FE20686B2138F047F820688D
:10567800252138F05AF820686FF02D0138F005F828
:105688002068452138F018F82068092138F091F889
:105698001221206836F046FE206822F043FC694952
:1056A80030604AF079F930686FF0404138F026F8F8
:1056B80030686FF0404138F038F830686FF01C01FE
:1056C80037F0E3FF30684FF0FF3137F0F5FF30680F
:1056D800092138F06EF83068022137F06EF8102191
:1056E800306836F01FFE206823F022F8564C6FF021
:1056F8004041206038F002F820686FF0404138F0EF
:1057080014F820680E2137F0C0FF2068002137F018
:10571800D3FF2068092138F04CF84C4920684AF03A
:10572800C5FA6FF07F40266846F025F8C0F30723D6
:105738008DF82400C0F307408DF825308DF8260039
:10574800434F30460999002239F01DFF2068002296
:10575800FF2139F027FF00223946206839F029FF58
:10576800286812F00DFA3B4C3B4E206013F09CFD6C
:1057780020687A2137F0C2FF2068282137F0D5FF4A
:105788002068452137F081FF20686FF01D0137F050
:1057980093FF2068092138F00CF81221206836F0B0
:1057A800C1FD206822F0BEFB2C4930604AF0F4F8B5
:1057B80030686FF0404137F0A1FF30686FF040412A
:1057C80037F0B3FF3068222137F05FFF30686FF0A1
:1057D800010137F071FF3068092137F0EAFF3068BE
:1057E800022136F0EAFF1021306836F09BFD206870
:1057F80022F09EFF1A4C6FF04041206037F07EFF88
:1058080020686FF0404137F090FF20686FF010017A
:1058180037F03BFF20684FF0FF3137F04DFF20682D
:10582800092137F0C6FF1DE0889F002095B20A00C5
:10583800849F0020809F002098B20A007C9F00204F
:10584800789F002064560500749F0020C6B20A00A5
:10585800C87F0500709F00206C9F002080560500BF
:10586800689F00207A4920684AF020FA794826681B
:1058780045F081FFC0F307238DF82800C0F30740E7
:105888008DF829308DF82A000A993046002239F01F
:105898007AFE20680022FF2139F084FE0022394672
:1058A800206839F086FE286812F06AF96A4C6B4E57
:1058B800206013F0F9FC20689C2137F01FFF206856
:1058C8001A2137F032FF2068102137F0DEFE2068F9
:1058D800112137F0F1FE2068092137F06AFF122103
:1058E800206836F01FFD206822F01CFB5C49306000
:1058F8004AF052F830686FF0404137F0FFFE3068E8
:105908006FF0404137F011FF30686FF03C0137F01D
:10591800BCFE30686FF0010137F0CEFE3068092117
:1059280037F047FF3068022136F047FF1021306812
:1059380036F0F8FC206822F0FBFE4A4C6FF040413C
:10594800206037F0DBFE20686FF0404137F0EDFE55
:1059580020680B2137F099FE20686FF0010137F0BD
:10596800ABFE2068092137F024FF3F4920684AF040
:105978009DF96FF07F40266845F0FDFEC0F30723D0
:105988008DF82C00C0F307408DF82D308DF82E00CF
:105998000B993046002239F0F6FD20680022FF21DD
:1059A80039F000FE00223946206839F002FE2868E6
:1059B80022F0B8FA2D4C2E49206049F0EDFF2068FE
:1059C8006FF0404137F09AFE20686FF0404137F0A1
:1059D800ACFE20687E2137F058FE2068632137F03E
:1059E8006BFE2068092137F0E4FE2068022136F0BA
:1059F800E4FE1021206836F095FC286822F092FA1F
:105A08001C4C1D49206049F0C7FF20686FF04041D9
:105A180037F074FE20686FF0404137F086FE20684A
:105A28006FF0840137F031FE2068642137F044FEBE
:105A38002068092137F0BDFE2068022136F0BDFE3E
:105A4800102120680DB0BDE8F04336F06BBC00BFF4
:105A5800BFB20A00FEFEFE00649F0020609F002087
:105A6800105605005C9F0020CAB20A00589F00200B
:105A780048560500549F00202C5605001FB51CF001
:105A8800B1FD1F4B186014F091FD044605201CF071
:105A98004BFEC0F307238DF808008DF80930C0F3DA
:105AA800074300208DF80A301CF03EFEC0F30723A0
:105AB8008DF80D30C0F307438DF80E30114B8DF87B
:105AC8000C00DDE902120093204600231EF0FEF8C8
